:020000041000EA
:1000000000B5324B212058609868022188439860DF
:10001000D860186158612E4B002199600221596106
:100020000121F02299502B49196001219960352056
:1000300000F044F80222904214D00621196600F024
:1000400034F8196E01211966002018661A6600F04E
:100050002CF8196E196E196E052000F02FF8012189
:100060000842F9D1002199601B49196000215960AB
:100070001A491B48016001219960EB211966A021F2
:10008000196600F012F800219960164914480160C1
:100090000121996001BC002800D000471248134993
:1000A000086003C880F30888084703B5996A0420EC
:1000B0000142FBD001200142F8D103BD02B5186610
:1000C0001866FFF7F2FF186E186E02BD00000240BE
:1000D000000000180000070000035F00212200005C
:1000E000F4000018222000A00001001008ED00E03C
:1000F00000000000000000000000000074B24E7A12
:1001000000200420F7010010C3010010C5010010F9
:10011000C1010010C1010010C1010010C101001097
:10012000C1010010C1010010C1010010C701001081
:10013000C1010010C1010010C9010010CB01001065
:10014000CD010010CD010010CD010010CD01001037
:10015000CD010010CD010010CD010010CD01001027
:10016000CD010010CD010010CD010010CD01001017
:10017000CD010010CD010010CD010010CD01001007
:10018000CD010010CD010010CD010010CD010010F7
:10019000CD010010CD010010CD010010CD010010E7
:1001A000CD010010CD010010CD010010CD010010D7
:1001B000CD010010CD010010CD010010CD010010C7
:1001C00000BE00BE00BE00BE00BE00BEEFF3058054
:1001D000103800BEF2EB887188210110A8210110AF
:1001E0003402001090A31AE700201F49086006C8D7
:1001F00081F3088810471D48006800282FD10DA4FE
:100200000ECC002902D000F012F8F9E71849194A7B
:10021000002000E001C19142FCD1174988471749ED
:1002200088471749884700BEFDE701C901C29A42C5
:10023000FBD37047A8210110C0000020F016002059
:10024000D83701100000042000000420D837011026
:10025000001004200010042000000000704709482E
:1002600004F0EEFB0047000008ED00E0000000D0C5
:10027000F0160020284D0020E947001061190010F9
:100280001D4900105756000006005250ABB3605392
:10029000D808011006005250861C0302E80801101D
:1002A000060052505422A29DFC0801100500525035
:1002B000DE65F468D8370110F8B5C046064807492E
:1002C000091A8B10C90FC91810B5491003D0044B77
:1002D000002B00D0984710BDF0160020F01600202B
:1002E00000000000054B10B5002B03D00449054861
:1002F00000E000BFFFF7E2FF10BDC04600000000B5
:10030000B04C002038000110F0B5DE464E464546A0
:100310005746E0B5D1B0040009A898460300454D02
:100320008946924646CD46C309F0F4FE060007A86A
:1003300003002A0022CA22C309F0ECFE0023039323
:100340005B9B22005A9902930190032300960CA80C
:1003500007F0EEFE002200210CA807F037FF00286E
:100360004CD10CA807F086FF002857D14346002443
:10037000002B32DD304B0493304B9B46304B0593C2
:1003800004E0AE4231D10134444526D04B461E57DD
:1003900053461D57701BAE42F3DD05F0BDFA5C9964
:1003A00005F0B0FA0028EED0300004F07FFE5B23A9
:1003B00003935B46060028000F00029304F076FECC
:1003C00032003B0000900191049809F01BFE0123CC
:1003D000059A013413704445D8D1002051B0F0BCC7
:1003E000BB46B246A946A046F0BDA81B05F094FA4C
:1003F0005C9905F087FA0028C5D0D5E7114C002399
:10040000572200900D49200009F0FCFD01220C4B01
:100410000CA81A7007F02EFF0028A7D00A4C002362
:10042000582200900549200009F0ECFD0122044B00
:100430001A709BE7B0180110040101103800011078
:10044000194D00208C000110CC000110F0B5DE46E3
:1004500057464E464546E0B5D1B0060009A81D00F6
:100460000300464C9146884686CC86C309F052FE6E
:10047000070007A80300210014C914C309F04AFEAD
:10048000002303935B9B32005A990293019003234C
:1004900000970CA807F04CFE002200210CA807F0E2
:1004A00095FE00284DD10CA807F0E4FE002858D195
:1004B0006B009A460024002D31DD314B0593314B02
:1004C0009B4604E0AE4232D10234A24527D04346D7
:1004D0001E5F4B461D5F701BAE42F3DD05F01CFA3C
:1004E000FE21890505F00EFA0028EDD0300004F059
:1004F000DDFD5B2303935B46060028000F0002939B
:1005000004F0D4FD32003B0000900191059809F001
:1005100079FD01221C4B02341A70A245D7D100206C
:1005200051B0F0BCBB46B246A946A046F0BDA81BE0
:1005300005F0F2F9FE21890505F0E4F90028C3D0A1
:10054000D4E7124C0023572200900E49200009F0F6
:1005500059FD01220C4B0CA81A7007F08BFE0028E5
:10056000A6D00B4C0023582200900649200009F029
:1005700049FD0122044B1A709AE7C046B0180110D9
:100580000401011038000110194D00208C000110E9
:10059000CC000110F0B5DE464E4657464546E0B564
:1005A000D1B0050009A81F000300484C89469246B7
:1005B00046CC46C309F0AEFD060007A803002200A2
:1005C00012CA12C309F0A6FD002303935B9B2A0005
:1005D0005A9902930190032300960CA807F0A8FDF6
:1005E000002200210CA807F0F1FD002852D10CA830
:1005F00007F040FE00285DD1002F43DD344B00247E
:100600009846344B9B460AE0301C05F024F93249E9
:1006100005F078F900281CD10134BC4232D04A469A
:10062000A300D6585246D558301C291C05F06AF94B
:10063000291C0028E8D1301C05F056F90028EBD120
:10064000311C281C05F007F9234905F05BF9002847
:10065000E2D0301C05F082F95B2303935B460490E3
:100660000591281C029305F079F9049A059B0090E6
:100670000191404609F0C6FC0122184B01341A7062
:10068000BC42CCD1002051B0F0BCBB46B246A9461A
:10069000A046F0BD124C0023572200900D492000C7
:1006A00009F0B0FC01220D4B0CA81A7007F0E2FD16
:1006B0000028A1D00B4C00235822009005492000AF
:1006C00009F0A0FC0122054B1A7095E7B018011043
:1006D0000401011038000110ACC52737194D002066
:1006E0008C000110CC000110F0B5DE4657464E4696
:1006F0004546E0B59BB014008B469A4609F00AFDCA
:100700008046200009F006FD0700249809F002FD4C
:10071000060009F089FC434608220021814604A80E
:100720000025079305F0AAF95B4602AC4046236119
:100730002570A5776577656009F076FC0123800058
:1007400008220021A0610CA898462377676305F072
:1007500095F92023E5541E33E554013BE5545346F7
:1007600038002363656209F05FFC3C2302228000AD
:100770000021E254A063063214A8666505F07EF9F4
:100780004023E5541E33E554013BE554259B3000DE
:100790002365656409F048FC5C234246E254289BCB
:1007A0008000A0650193279B20000093259A4B466B
:1007B0002699FFF7EFFE002806D11BB0F0BCBB4620
:1007C000B246A946A046F0BD054C00237622009013
:1007D0000449200009F016FC4246034B1A70ECE76E
:1007E0004C01011038000110194D0020F0B5DE4613
:1007F00057464E464546E0B59BB014008B469A4698
:1008000009F088FC8046200009F084FC0700249849
:1008100009F080FC060009F007FC4346082200218D
:10082000814604A80025079305F028F95B4602AC31
:10083000404623612570A5776577656009F0F4FB74
:100840000123800008220021A0610CA8984623778C
:10085000676305F013F92023E5541E33E554013B8B
:10086000E554534638002363656209F0DDFB3C2301
:10087000022280000021E254A063063214A86665BB
:1008800005F0FCF84023E5541E33E554013BE554E4
:10089000259B30002365656409F0C6FB5C23424656
:1008A000E254289B8000A0650193279B20000093C1
:1008B000259A4B462699FFF76DFE002806D11BB0FE
:1008C000F0BCBB46B246A946A046F0BD054C00238D
:1008D000762200900449200009F094FB4246034B25
:1008E0001A70ECE74C01011038000110194D00207E
:1008F000F0B5DE4657464E464546E0B507009DB08A
:100900003A489B468A46039209F004FC81463848DF
:1009100009F000FC8046374809F0FCFB060009F0AE
:1009200083FB4946002508220290099106A8002170
:1009300005F0A4F8304B04AC484623612570A57738
:100940006577656009F070FB012189462177414692
:1009500080000822A06161630EA8002105F08EF8D6
:100960002023E5541E33E554013BE554234B404618
:100970002363656209F058FB3C23022280000021BA
:10098000E254A063063216A8666505F077F84023A6
:10099000E5541E33E5543000013BE554656427659A
:1009A00009F042FB5C234946E1545946039A800012
:1009B000A065029B0191009251463A002000FFF78A
:1009C000E9FD002806D11DB0F0BCBB46B246A946E1
:1009D000A046F0BD0A4C0023762200900949200071
:1009E00009F010FB4A46084B1A70ECE7100F002084
:1009F000080F0020FC0E0020901801108C18011028
:100A00004C01011038000110194D0020F0B5DE46F0
:100A100057464E464546E0B507009DB03A489B46CE
:100A20008A46039209F076FB8146384809F072FB4A
:100A30008046374809F06EFB060009F0F5FA494692
:100A4000002508220290099106A8002105F016F859
:100A5000304B04AC484623612570A5776577656007
:100A600009F0E2FA012189462177414680000822F7
:100A7000A06161630EA8002105F000F82023E55471
:100A80001E33E554013BE554234B40462363656226
:100A900009F0CAFA3C23022280000021E254A0633C
:100AA000063216A8666504F0E9FF4023E5541E33BC
:100AB000E5543000013BE5546564276509F0B4FA5C
:100AC0005C234946E1545946039A8000A065029B85
:100AD0000191009251463A002000FFF75BFD00288B
:100AE00006D11DB0F0BCBB46B246A946A046F0BD3B
:100AF0000A4C0023762200900949200009F082FA6E
:100B00004A46084B1A70ECE7EC0E0020E40E002079
:100B1000D80E00205C180110541801104C0101106F
:100B200038000110194D0020F0B5DE4657464E46FC
:100B30004546E0B504009DB03A480F009B469246FA
:100B400009F0E8FA8146384809F0E4FA80462000C6
:100B500009F0E0FA060009F067FA4A46002500218C
:100B60000390099206A8082204F088FF2F4B04ACDA
:100B7000484623612570A5776577656009F054FACA
:100B8000012291462277424680000021A0616263E3
:100B90000EA8082204F072FF2023E5541E33E5540A
:100BA000013BE554224B40462363656209F03CFA61
:100BB0003C23022280000021E254A063063216A8E2
:100BC000666504F05BFF4023E5541E33E5543000B6
:100BD000013BE5546564276509F026FA5C234A4623
:100BE000E254269A8000A06501925A46514600922E
:100BF00020003A00039BFFF7CDFC002806D11DB072
:100C0000F0BCBB46B246A946A046F0BD094C002345
:100C1000762200900849200009F0F4F94A46074B73
:100C20001A70ECE7C40E0020BC0E0020E41701107F
:100C3000DC1701104C01011038000110194D002083
:100C4000F0B5DE46574645464E46E0B59DB01D0020
:100C50000C00934609F05EFA0700280009F05AFAE2
:100C60008246279809F056FA804609F0DDF9814658
:100C7000380009F0D9F9002823DD80005D462618E8
:100C800005E07F20043428700135A64219D0594967
:100C9000206804F0E6FD04F061FE04F0BBFA0022D7
:100CA000002304F06BF904F019FA7F28E9DC030053
:100CB0008033E7DA80200434404228700135A642B0
:100CC000E5D10822002106A80025099704F0D6FEE8
:100CD0005B4604AC380023612570A57765776560B5
:100CE00009F0A2F9092301269B4623775346414F79
:100CF00008220021A0610EA86363A760E56026704A
:100D0000656004F0BBFE2023E5541E33E554013B2F
:100D1000E554269B50462363656209F085F93C2320
:100D20000222E2544346800006320021A06316A846
:100D3000636504F0A3FE4023E5549A461E33E55450
:100D4000013BE554299B40462365656409F06CF935
:100D50005C235A46E2545346E6544B46A065A764CA
:100D6000E5646564002B24DD289D9F002A9EEF1911
:100D700005E07F20043530700136AF4219D01D499F
:100D8000286804F06EFD04F0E9FD04F043FA002247
:100D9000002304F0F3F804F0A1F97F28E9DC030054
:100DA0008033E7DA80200435404230700136AF42AC
:100DB000E5D1114B200002932C9B299A01932B9B88
:100DC0002A9900934B46FFF79FFA002806D11DB0E1
:100DD000F0BCBB46B246A946A046F0BD074C002376
:100DE0009D2200900649200009F00CF90122054BD4
:100DF0001A70ECE78180003C0AD7233CFC0101100B
:100E000038000110194D0020F0B5DE4657464E4619
:100E10004546E0B5A1B007932C9B069006006A48B2
:100E2000140098460F1C09F075F98146674809F0CF
:100E300071F90590200009F06DF9824609F0F4F887
:100E40008346484609F0F0F8002823DD3400604D61
:100E5000861905E07F20207001340435A64219D0A0
:100E6000391C286804F0FDFC04F078FD04F0D2F988
:100E70000022002304F082F804F030F97F28E9DC36
:100E800003008033E7DA80204042207001340435CB
:100E9000A642E5D14B460025082200210AA80D9361
:100EA00004F0ECFD069B08AC484623612570A5774D
:100EB0006577656009F0B8F80926A7600127059BEA
:100EC00008220021A06112A863632677E5602770DD
:100ED000656004F0D3FD2023E5541E33E554013B47
:100EE000E5543C4B05982363656209F09DF83C236B
:100EF0000222E254534680000021A06306321AA861
:100F0000636504F0BBFD4023E55499461E33E55468
:100F1000013BE5542A9B50462365656409F084F83B
:100F20005C23E6544346A3644B46E7545B46A06506
:100F3000E5646564002B24DD079D9F002B9EEF195F
:100F400005E07F20043530700136AF4219D04146AC
:100F5000286804F086FC04F001FD04F05BF900222F
:100F6000002304F00BF804F0B9F87F28E9DC030053
:100F70008033E7DA80200435404230700136AF42DA
:100F8000E5D1FE239B0502932E9B200001932D9B10
:100F90002A9A00932B995B46FFF7B6F9002806D1F1
:100FA00021B0F0BCBB46B246A946A046F0BD0A4CF3
:100FB00000239D2200900949200009F023F8012216
:100FC000074B1A70ECE7C046C40E0020BC0E002090
:100FD000E4170110DC170110FC01011038000110AA
:100FE000194D0020F0B5DE4657464E464546E0B561
:100FF0008046A1B06D4807910592069309F08AF8E2
:1010000007006B4809F086F882466A4809F082F8C2
:10101000814609F009F88346380009F005F80028F0
:1010200029DD022342461370012824D040440600E3
:10103000614D541C05E07F20207001340435A64228
:1010400019D02868011C04F009FC04F087FC04F0A6
:10105000E1F80022002303F091FF04F03FF87F281D
:10106000E9DC03008033E7DA80204042207001345D
:101070000435A642E5D1082200210AA800250D97D3
:1010800004F0FCFC434608AC380023612570A577CA
:101090006577656008F0C8FF0923FC27984601269C
:1010A0002377534608220021A061BF0512A863637D
:1010B000A760E5602670656004F0E0FC2023E5543D
:1010C0001E33E554013BE5543C4B504623636562B7
:1010D00008F0AAFF3C230222E2544B46800006326D
:1010E0000021A0631AA8636504F0C8FC4023E554FE
:1010F0009A461E33E554013BE554059B484623655B
:10110000656408F091FF5C234246E2545346E6547E
:101110005B46A065A764E5646564002B24DD079D3C
:101120009F00069EEF1905E07F20043530700136E0
:10113000BD4219D02868011C04F090FB04F00EFC9D
:1011400004F068F80022002303F018FF03F0C6FF44
:101150007F28E9DC03008033E7DA80200435404251
:1011600030700136BD42E5D1FE239B0502932B9BD7
:10117000200001932A9B059A009306995B46FFF78E
:10118000C3F8002806D121B0F0BCBB46B246A94640
:10119000A046F0BD0A4C00239D2200900949200082
:1011A00008F030FF0122084B1A70ECE7100F002006
:1011B000080F0020FC0E0020941801108C1801105C
:1011C000FC01011038000110194D0020F0B5DE4679
:1011D00057464E464546E0B58346A1B06A4807915A
:1011E0000592069308F096FF8146684808F092FF42
:1011F0000490674808F08EFF824608F015FF0390C0
:10120000484608F011FF002826DD02235A461380C5
:10121000012821D05F4B40008027584406009846A3
:101220005D4D941C3F022868011C04F017FB04F07C
:1012300095FB03F0EFFF0022002303F09FFE03F075
:101240004DFFB84200DB5548404500DA5148208048
:1012500002340435A642E6D14B46082200210AA8F2
:1012600000240D9304F00AFC5B4608AD48462B6150
:101270002C70AC776C776C6008F0D6FE0723FC27E7
:101280000126984640002B77049B08220021A86184
:10129000BF0512A86B63AF60EC602E706C6004F049
:1012A000EDFB2023EC541E33EC54013BEC543C4B3F
:1012B00004982B636C6208F0B7FE3C230222EA54C8
:1012C0005346800006320021A8631AA86B6504F01B
:1012D000D5FB4023EC5499461E33EC54013BEC54AF
:1012E000059B50462B656C6408F09EFE5C234246CD
:1012F000EA544B46EE54039B4000A865AF64EC648F
:101300006C64002B21DD9F0080231B029846214B3B
:10131000079C9946069EE7192068011C04F09EFA76
:1013200004F01CFB03F076FF0022002303F026FEEE
:1013300003F0D4FE404500DB1848484500DA154864
:10134000043430800236A742E6D12B9B280001935B
:101350002A9B059A00930699039BFFF777F80028CC
:1013600006D121B0F0BCBB46B246A946A046F0BDAE
:101370000C4C00239D2200900B49200008F042FEF7
:1013800001220A4B1A70ECE7100F0020080F002012
:10139000FC0E00200080FFFF94180110FF7F00006A
:1013A0008C180110FC01011038000110194D0020AB
:1013B000F0B5DE4657464E464546E0B58346A1B0F9
:1013C0006A4807910592069308F0A4FE8146684892
:1013D00008F0A0FE0490674808F09CFE824608F0E2
:1013E00023FE0390484608F01FFE002826DD022356
:1013F0005A461380012821D05F4B40008027584473
:10140000060098465D4D941C3F022868011C04F0BC
:1014100025FA04F0A3FA03F0FDFE0022002303F0F6
:10142000ADFD03F05BFEB84200DB5548404500DAF5
:101430005148208002340435A642E6D14B460822AA
:1014400000210AA800240D9304F018FB5B4608ADA8
:1014500048462B612C70AC776C776C6008F0E4FD2B
:101460000723FC270126984640002B77049B08227F
:101470000021A861BF0512A86B63AF60EC602E70FD
:101480006C6004F0FBFA2023EC541E33EC54013B57
:10149000EC543C4B04982B636C6208F0C5FD3C2374
:1014A0000222EA545346800006320021A8631AA89B
:1014B0006B6504F0E3FA4023EC5499461E33EC5478
:1014C000013BEC54059B50462B656C6408F0ACFD69
:1014D0005C234246EA544B46EE54039B4000A86509
:1014E000AF64EC646C64002B21DD9F0080231B0241
:1014F0009846214B079C9946069EE7192068011CD7
:1015000004F0ACF904F02AFA03F084FE0022002370
:1015100003F034FD03F0E2FD404500DB1848484588
:1015200000DA1548043430800236A742E6D12B9BFE
:10153000280001932A9B059A00930699039BFEF7C6
:1015400085FF002806D121B0F0BCBB46B246A946B3
:10155000A046F0BD0C4C00239D2200900B492000BA
:1015600008F050FD01220A4B1A70ECE7EC0E002047
:10157000E40E0020D80E00200080FFFF601801104C
:10158000FF7F000054180110FC0101103800011009
:10159000194D0020F0B5DE4657464E464546E0B5AB
:1015A000A1B005932B9B81466A480C009A4607928E
:1015B00008F0B0FD05000690674808F0ABFD049008
:1015C000200008F0A7FD834608F02EFD03902800B8
:1015D00008F02AFD002826DD02234A461380012850
:1015E00021D05E4B400080274844060098465C4D61
:1015F000941C3F022868011C04F030F904F0AEF995
:1016000003F008FE0022002303F0B8FC03F066FD9F
:10161000B84200DB5348404500DA5048208002348D
:101620000435A642E6D1069E082200210AA800241D
:101630000D9604F023FA4B4608AD30002B612C7058
:10164000AC776C776C6008F0EFFCFC230727012671
:101650009B054000AB60049B08220021A86112A8F2
:101660006B632F77EC602E706C6004F007FA202318
:10167000EC541E33EC54013BEC543B4B04982B636D
:101680006C6208F0D1FC3C230222EA545B468000E5
:101690000021A86306321AA86B6504F0EFF9402315
:1016A000EC5498461E33EC54013BEC54059B5846D1
:1016B0002B656C6408F0B8FC5C23EF545346AB64B4
:1016C0004346EE54039B4000A865EC646C64002B19
:1016D00021DD9F0080231B029846204B079C9946E2
:1016E0002A9EE7195146206804F0BBF804F036F949
:1016F00003F090FD0022002303F040FC03F0EEFC19
:10170000404500DB1748484500DA1448043430806F
:101710000236A742E6D12D9B280001932C9B059A07
:1017200000932A99039BFEF791FE002806D121B071
:10173000F0BCBB46B246A946A046F0BD0B4C002308
:101740009D2200900A49200008F05CFC0122094B10
:101750001A70ECE7C40E0020BC0E00200080FFFFD2
:10176000E8170110FF7F0000DC170110FC010110D9
:1017700038000110194D0020F0B5DE4657464E46A0
:101780004546E0B58046A1B06D48079105920693A5
:1017900008F0C0FC07006B4808F0BCFC82466A48B1
:1017A00008F0B8FC814608F03FFC8346380008F09A
:1017B0003BFC002829DD022342461370012824D077
:1017C00040440600614D541C05E07F202070013428
:1017D0000435A64219D02868011C04F03FF804F033
:1017E000BDF803F017FD0022002303F0C7FB03F050
:1017F00075FC7F28E9DC03008033E7DA8020404273
:10180000207001340435A642E5D1082200210AA83F
:1018100000250D9704F032F9434608AC38002361E7
:101820002570A5776577656008F0FEFB0923FC2726
:10183000984601262377534608220021A061BF0560
:1018400012A86363A760E5602670656004F016F96E
:101850002023E5541E33E554013BE5543C4B5046F0
:101860002363656208F0E0FB3C230222E2544B460E
:10187000800006320021A0631AA8636504F0FEF818
:101880004023E5549A461E33E554013BE554059B3D
:1018900048462365656408F0C7FB5C234246E25472
:1018A0005346E6545B46A065A764E5646564002B77
:1018B00024DD079D9F00069EEF1905E07F2004357B
:1018C00030700136BD4219D02868011C03F0C6FFF4
:1018D00004F044F803F09EFC0022002303F04EFBCA
:1018E00003F0FCFB7F28E9DC03008033E7DA80208B
:1018F0000435404230700136BD42E5D1FE239B05E0
:1019000002932B9B200001932A9B059A0093069932
:101910005B46FEF7F9FC002806D121B0F0BCBB46BF
:10192000B246A946A046F0BD0A4C00239D22009075
:101930000949200008F066FB0122084B1A70ECE709
:10194000EC0E0020E40E0020D80E002060180110DC
:1019500054180110FC01011038000110194D00202D
:10196000F0B5DE4657464E464546E0B5E94C002602
:10197000A54408F0BFFBE84BE84C9A46E84B78AF2B
:101980004593E84B9846E84B9B4660AB9946E74B3E
:101990001493E74B3993E74B3A93E74B3B93E74B71
:1019A0001393E74B3E93E74B3F93E74B4093E74B53
:1019B0000D93E74B0E93E74B4193E74B1B93E74B9C
:1019C0001C93E74B0993E74B1D93E74B1E93E74BA3
:1019D0001F93E74B2093E74B1593E74B1693E74B89
:1019E0004293E74B4393E74B2193E74B1793E74B26
:1019F0000A93E74B2793E74B2893E74B2993E74B51
:101A00002A93E74B4493E74B2F93E74B3093E74BF5
:101A10003193E74B0F93E74B3293E74B1293E74B2E
:101A20002293E74B2393E74B2493E74B1193E74B28
:101A30002593E74B2693E74B2B93E74B0C93E74B10
:101A40002C93E74B2D93E74B2E93E74B3393E74BC8
:101A50003493E74B3593E74B3693E74B3793E74B9C
:101A60003893E74B3C93E74B3D93E74B4693E74B6B
:101A700047935346DA46C3460893089B45981E6031
:101A8000266008F0BFFA5B461E70534601251E70A3
:101A90004B4638001D7006F04DFC4B463A00149939
:101AA0006CA8FEF725FF5B461D7053461B78002B84
:101AB00001D101F0D1F90122089B1B6808993998DE
:101AC0000B6023689B18236008F09CFA5B461E702D
:101AD000534650221E7040AB9A18012338001370F1
:101AE0001D0006F027FC54AA019258AA130014996D
:101AF0004A4600976CA8FFF775FA53465A461B787A
:101B00001570002B01D001F0D6F90022089B1B684C
:101B1000013308993A980B6023689B18236008F0FA
:101B200071FA5B461E70534650221E7040AB9A18E5
:101B30000123380013701D0006F0FCFB54AA01922B
:101B400058AA130014994A4600976CA8FFF73EFB69
:101B500053465A461B781570002B01D001F0A6F9A8
:101B60000022089B1B68013308993B980B6023688F
:101B70009B18236008F046FA5B461E7053464A469F
:101B80001E700123380013701D0006F0D3FB4B4676
:101B90003A0013996CA8FEF739FF53465A461B7852
:101BA0001570002B01D001F09AF90022089B1B68E8
:101BB000013308993E980B6023689B18236008F056
:101BC00021FA5B461E70534650221E7040AB9A1895
:101BD0000123380013701D0006F0ACFB54AA0192DB
:101BE00058AA130013994A4600976CA8FFF7C4FD42
:101BF00053465A461B781570002B01D001F06AF944
:101C00000022089B1B68013308993F980B602368EA
:101C10009B18236008F0F6F95B461E70534650226D
:101C20001E7040AB9A180123380013701D0006F097
:101C300081FB54AA019258AA130013994A460097AF
:101C40006CA8FFF7B5FB53465A461B781570002B5E
:101C500001D001F03AF90022089B1B680133089972
:101C600040980B6023689B18236008F0CBF95B4613
:101C70001E7053464A461E700123380013701D0023
:101C800006F058FB4A463B0000920E980D9A6CA94C
:101C9000FEF74AFF53465A461B781570002B01D0B9
:101CA00001F00EF90022089B1B6801330899419846
:101CB0000B6023689B18236008F0A4F95B461E7034
:101CC000534650221E7040AB9A18012338001370FF
:101CD0001D0006F02FFB54AA0492FC2292050292EA
:101CE00058AA0192FC214A460D9B009203970E9A36
:101CF00089056CA8FFF788F853465A461B7815707B
:101D0000002B01D001F009F90022089B1B68013368
:101D10007EE0C046BCFDFFFF241A0020201A0020F0
:101D2000B40201101A4D0020194D00208418011032
:101D3000D0020110EC020110080301104C18011030
:101D400024030110400301105C030110CC170110A3
:101D5000A80E00207803011094030110B0030110B5
:101D6000B0180110D4030110F80301101C04011075
:101D70005C040110BC0E0020DC17011038000110BB
:101D80004C0101108C04011030190110B019011020
:101D9000B0040110D0040110F00401101805011066
:101DA000FC010110480501106C050110940501109B
:101DB000301A0110B80501107C180110D40501106B
:101DC000F00501100C06011044180110280601103E
:101DD0004406011060060110BC1701107C060110BA
:101DE00098060110B4060110D8060110FC06011077
:101DF000200701105C07011074070110B01A0110D0
:101E000094070110AC070110C0070110D80701109A
:101E100008991B980B6023689B18236008F0F2F860
:101E20005B461E70534650221E7040AB9A18012329
:101E30006CA813701D0006F07DFA54AA03926CAAD8
:101E40000292FC229205019258AA4B460092380059
:101E50000D9A0E99FFF79EFB53465A461B78157054
:101E6000002B01D001F054F80022089B1B680133BD
:101E700008991C980B6023689B18236008F0C2F82F
:101E80005B461E7053464A461E70099B143323CB93
:101E900023C2602240AB9B1838001E7006F04AFA3D
:101EA00058AB0D9A009348463B006CA9FEF73CFEE8
:101EB0005B4601221A7053461B78002B01D001F0BB
:101EC00022F80022089B1B68013308991D980B60BB
:101ED00023689B18236008F095F85B461E705346F4
:101EE0004A461E70099B143323CB23C2442240ABC5
:101EF0009B1838001E7006F01DFA51AB0493FC23AA
:101F0000FC219B05029354AB019358AB4A460093C6
:101F100003970D9B89056CA8FEF776FF5B460122AF
:101F20001A7053461B78002B01D000F0E7FF002207
:101F3000089B1B68013308991E980B6023689B1847
:101F4000236008F05FF85B461E7053464A461E70D9
:101F5000099B143323CB23C2442240AB9B181E7031
:101F60006CA806F0E7F951AB03936CAB0293FC232A
:101F70009B05019354AB0D9A0093494658AB38002A
:101F8000FFF708FB5B4601221A7053461B78002BB3
:101F900001D000F0AEFF0022089B1B6801330899B6
:101FA0001F980B6023689B18236008F02BF85B4692
:101FB0001E7053464A461E70099B143323CB23C21E
:101FC000442240AB9B181E706CA806F0B3F951ABCD
:101FD00003936CAB0293D94B0D9A019354AB0093CE
:101FE000494658AB3800FFF7D5FA5B4601221A7014
:101FF00053461B78002B01D000F076FF0022089B8F
:102000001B680133089920980B6023689B18236094
:1020100007F0F8FF5B461E7053461E70099B58AAD6
:10202000203323CB23C203CB03C2099B6CAA3433D6
:1020300023CB23C223CB23C223CB23C223CB23C254
:10204000099B54AA643323CB23C2099B4FAA703344
:1020500003CB03C2302240AB9B181E70484606F0EB
:1020600069F958A808F056F80B90159808F052F83E
:1020700054AB1090180008F04DF8804607F0D4FFDC
:102080000B9A7AAB0500002118007A61082203F050
:10209000F5FC6CA939610B983E707E60BE777E7747
:1020A00007F0C2FF0122109982AB8000B8613A7735
:1020B000180007327963002103F0E0FC2023FE546E
:1020C0001E337E62FE54013BFE54169B10983B6308
:1020D00007F0AAFF3C2302218000B863F95441466F
:1020E000082279658AA8002103F0C8FC4023FE5429
:1020F0001E337E6451A9FE54013BFE5440463965AF
:1021000007F092FF5C23012280004CA9B865FA54C5
:1021100001914946009151A90A002B0038004FA9AE
:10212000FEF738FA002801D000F03AFF51460123AB
:102130000A7859460B70089B1B68002A01D000F0F2
:1021400059FF00220133089921980B6023689B18DE
:10215000236007F057FF5B461E7053461E70099BB5
:1021600058AA783323CB23C21B6875491360380003
:10217000602203F089FC179D4CAA290068310B00EE
:1021800003CB03C22A00703213004A4623CB23C27A
:102190001B681360099B4FAA0C3303CB03C21300C7
:1021A0000A9A03CA03C32C2240AB9B181E706CA86A
:1021B00006F0D6F84BAB04936CAB039351AB029390
:1021C00054AB01934FAB00934CAA4B46390058A82F
:1021D000FEF78AFA5B4601221A7053461B78002BE1
:1021E00001D000F0D8FE0022089B1B68013308993B
:1021F00027980B6023689B18236007F003FF5B465A
:102200001E7053464A461E70099B783323CB23C267
:102210001B684B4913603800602203F035FC099BB2
:102220004FAA0C3303CB03C2002202234C924D93DE
:102230000A9B51AA083303CB03C254AA23CB23C25F
:102240002C2240AB9A1801236CA813701D0006F0D5
:1022500087F84BAA04926CAA039254AA029258AA35
:10226000019251AA00924CAA130039004FAA484685
:10227000FEF73AFA53465A461B781570002B01D0E8
:1022800000F084FE0022089B1B68013308992898FF
:102290000B6023689B18236007F0B4FE5B461E703A
:1022A00053464A461E700A9B1C3323CB23C21B682D
:1022B00013600A9B6CAA2C3323CB23C223CB23C2EB
:1022C0000A9D4FAA2B00443303CB03C22B00443397
:1022D00003CB03C2099B54AA0C3303CB03C22B00CC
:1022E00058AA4C3303CB03C2242240AB9A180123D3
:1022F000380013701D0006F033F849AA06924BAA65
:1023000004924AAA039258AA029254AA019251AA8C
:1023100000924FAA130048464CAA05976CA9FEF7F5
:102320008FFC53465A461B781570002B01D000F0E5
:1023300028FE0022089B1B68013303E03333333F40
:1023400038190110089929980B6023689B1823609D
:1023500007F058FE5B461E7053464A461E700A9BA5
:102360001C3323CB23C21B6813600A9B6CAA2C333B
:1023700023CB23C223CB23C20A9D4FAA2B00443375
:1023800003CB03C22B00443303CB03C2099B54AAE3
:102390000C3303CB03C22B0058AA4C3303CB03C22C
:1023A000242240AB9B1838001E7005F0D9FF49ABC2
:1023B00006934BAB04934AAB039358AB029354ABD5
:1023C000019351AB00934CAA4FAB484605976CA9BB
:1023D000FEF736FC5B4601221A7053461B78002B31
:1023E00001D000F0C9FD0022089B1B680133089949
:1023F0002A980B6023689B18236007F003FE5B4656
:102400001E7053461E70099B58AA203323CB23C24B
:1024100003CB03C2099B6CAA343323CB23C223CB47
:1024200023C223CB23C223CB23C2099B51AA6433EB
:1024300023CB23C2099B4FAA703303CB03C22822AC
:1024400040AB9B181E70484605F074FF58A807F073
:1024500061FE05001890159807F05CFE51AB1990CD
:10246000180007F057FE1A9007F0DEFD10902800C4
:1024700007F0DAFD00282EDD6CAB800098460200E4
:1024800054AB1D002300424444460B92984606E09C
:102490007F200B9B043428700135A3421AD020689A
:1024A000011C03F0DBF903F059FA02F0B3FE00223D
:1024B000002302F063FD02F011FE7F28E8DC030038
:1024C0008033E6DA80200B9B4042043428700135CB
:1024D000A342E4D14446189D002108227D617AA8D8
:1024E00003F0CCFA54AA28003A613E707E60BE77B1
:1024F0007E7707F099FD0923FC21B8610120199D21
:102500003B77890582AB0822B9603870002118003A
:102510007D63FE607E6003F0B1FA2023169AFE54BC
:102520001E337E62FE54013BFE5428003A6307F0DE
:102530007BFD3C2302221A9D8000B863FA548AABCB
:102540000021180006327D6503F098FA40225E23D0
:10255000BE5490467E644BAAFE54013BFE542800B4
:102560003A6507F061FD5C230922FC21B865FA5445
:10257000012043468905B964FE64F854109B7E64CB
:10258000002B2EDD4FAB9846109B4CAA9B0043447A
:102590000B93230015004446984606E07F200B9BD2
:1025A0000434287001359C421AD02068011C03F0C5
:1025B00055F903F0D3F902F02DFE0022002302F0BA
:1025C000DDFC02F08BFD7F28E8DC03008033E6DAD7
:1025D00080200B9B40420434287001359C42E4D19A
:1025E0004446FE239B0502934AAB01934B463800B9
:1025F00000934BAA109B4CA9FDF786FE002801D042
:1026000000F0DFFC534601211A785B461970089BE5
:102610001B68002A01D000F0EAFC0022013308996F
:102620002F980B6023689B18236007F0EBFC5B4638
:102630001E7053461E70099B54AA783323CB23C2C5
:102640001B681360179A683213004CAA03CB03C2AD
:10265000099B4FAA0C3303CB03C20A9D2B005433B2
:1026600003CB03C2F5496022380003F00DFA2B00BA
:1026700058AA5C3323CB23C21B686CA813602C229E
:1026800040AB9B181E7005F081FE4BAB04936CAB06
:10269000039358AB02934B4601934CAB00934FAA64
:1026A00051AB390054A8FEF71FF85B4601221A709F
:1026B00053461B78002B01D000F059FC0022089BE8
:1026C0001B680133089930980B6023689B182360BE
:1026D00007F098FC5B461E7053461E70099B54AA77
:1026E000783323CB23C21B6813600A9D4FAA2B00AB
:1026F0006C3303CB03C22B00443303CB03C2022150
:1027000060224C913800CD4903F0BEF92B004A46B7
:10271000743323CB23C223CB23C223CB23C223CBAB
:1027200023C22C2240AB9B181E7058A805F02EFE29
:102730004BAB049358AB03934B4602936CAB0193A2
:102740004FAB009351AA4CAB390054A8FDF7CCFF16
:102750005B4601221A7053461B78002B01D000F013
:1027600001FC0022089B1B680133089931980B601B
:1027700023689B18236007F045FC5B461E70534698
:102780004A461E700F9B243323CB23C203CB03C2C4
:10279000099B51AA143323CB23C2099D4CAA2B00B9
:1027A0000C3303CB03C22B004FAA0C3303CB03C261
:1027B000A2496022380003F067F90F9B54AA38330E
:1027C00023CB23C21B686CA813602C2240AB9B1840
:1027D0001E7005F0DBFD4BAB04936CAB039354AB65
:1027E000029358AB019351AB00934CAA4FAB390005
:1027F0004846FDF779FF5B4601221A7053461B7865
:10280000002B00D0AAE30022089B1B680133089923
:1028100032980B6023689B18236007F0F3FB5B463C
:102820001E7053464A461E700123380013701D0067
:1028300005F0ACFD4B463A0012996CA8FEF758F82B
:1028400053465A461B781570002B00D082E30022B5
:10285000089B1B680133089922980B6023689B181A
:10286000236007F0CFFB5B461E70534650221E705C
:1028700040AB9A180123380013701D0005F086FD47
:1028800054AA019258AA130012994A4600976CA8BC
:10289000FEF7A8FB53465A461B781570002B00D054
:1028A00054E30022089B1B680133089923980B60AE
:1028B00023689B18236007F0A5FB5B461E705346F8
:1028C00050221E7040AB9A180123380013701D006F
:1028D00005F05CFD54AA019258AA130012994A46C9
:1028E00000976CA8FEF772FC53465A461B78157089
:1028F000002B00D026E30022089B1B6801330899B7
:1029000024980B6023689B18236007F07BFB5B46D1
:102910001E7053464A461E700123380013701D0076
:1029200005F034FD4B463A0011996CA8FEF76EF89D
:1029300053465A461B781570002B00D0FEE2002249
:10294000089B1B680133089925980B6023689B1826
:10295000236007F057FB5B461E70534650221E70E3
:1029600040AB9A180123380013701D0005F00EFDCE
:1029700054AA019258AA130011994A4600976CA8CC
:10298000FEF7FAFE53465A461B781570002B00D00E
:10299000D0E20022089B1B680133089926980B603F
:1029A00023689B18236007F02DFB5B461E7053467F
:1029B00050221E7040AB9A180123380013701D007E
:1029C00005F0E4FC54AA019258AA130011994A4652
:1029D00000976CA8FEF7ECFC53465A461B7815701E
:1029E000002B00D0A2E20022089B1B68013308994B
:1029F0002B980B6023689B18236007F003FB5B4652
:102A00001E7053464A461E700123380013701D0085
:102A100005F0BCFC4A463B0000920E980C9A6CA94B
:102A2000FEF782F853465A461B781570002B00D0EB
:102A300078E20022089B1B68013301E0381901107D
:102A400008992C980B6023689B18236007F0DAFA2A
:102A50005B461E70534650221E7040AB9A180123ED
:102A6000380013701D0005F091FC54AA0492FE2258
:102A70009205029258AA0192FE214A460C9B0092AE
:102A800003970E9A89056CA8FEF7BEF953465A467D
:102A90001B781570002B00D000E20022089B1B68F9
:102AA000013308992D980B6023689B18236007F069
:102AB000A9FA5B461E70534650221E7040AB9A180E
:102AC00001236CA813701D0005F060FC54AA03924A
:102AD0006CAA0292FC229205019258AA4B460092DF
:102AE00038000C9A0E99FEF755FD53465A461B784E
:102AF0001570002B00D0CDE10022089B1B6801332C
:102B000008992E980B6023689B18236007F07AFAC7
:102B10005B461E7053464A461E70099B143323CBF6
:102B200023C2602240AB9B1838001E7005F02EFCBB
:102B300058AB0C9A009348463B006CA9FDF7F4FF94
:102B40005B4601221A7053461B78002B00D09DE192
:102B50000022089B1B680133089933980B60236897
:102B60009B18236007F04EFA5B461E7053464A4698
:102B70001E70099B143323CB23C2442240AB9B1805
:102B800038001E7005F002FC51AB0493FE23FE21B9
:102B90009B05029354AB019358AB4A4600930397AD
:102BA0000C9B89056CA8FEF72FF95B4601221A7071
:102BB00053461B78002B00D064E10022089B1B6861
:102BC0000133089934980B6023689B18236007F041
:102BD00019FA5B461E7053464A461E70099B143311
:102BE00023CB23C2442240AB9B181E706CA805F077
:102BF000CDFB51AB03936CAB0293FC239B0501937C
:102C000054AB0C9A0093494658AB3800FEF7C2FC0F
:102C10005B4601221A7053461B78002B00D02DE131
:102C20000022089B1B680133089935980B602368C4
:102C30009B18236007F0E6F95B461E7053464A4630
:102C40001E70099B143323CB23C2442240AB9B1834
:102C50001E706CA805F09AFB51AB03936CAB02930A
:102C6000E64B0C9A019354AB0093494658AB38009D
:102C7000FEF790FC5B4601221A7053461B78002B2E
:102C800000D0F7E00022089B1B68013308993698B2
:102C90000B6023689B18236007F0B4F95B461E7035
:102CA00053460A9D1E702B0058AA443303CB03C21F
:102CB0002B004A46443303CB03C22B006CAA443397
:102CC00003CB03C2FE232C229B054F93519340ABB1
:102CD0009B1838001E704C9605F058FB4BAB0493C4
:102CE00051AB029354AB01934B466CAA00930397EC
:102CF0004CAB4FA958A8FDF779FD5B4601221A702D
:102D000053461B78002B00D0B0E00022089B1B68C4
:102D10000133089937980B6023689B18236007F0EC
:102D200071F95B461E7053461E700F9B54AA4833C0
:102D300023CB23C21B6813600F9B51AA583323CBAC
:102D400023C20A9B4FAA443303CB03C201233A0098
:102D50004C930F9B643323CB23C223CB23C203CBDF
:102D600003C2389A131D58AA23CB23C22C211B68F7
:102D70006CA8136040AA5218167005F007FB4BAA06
:102D800004926CAA039258AA02924A46019251AA4E
:102D900000924CAA130039004FAA54A8FDF7A4FCD6
:102DA00001235A46137053461B78002B5AD1002238
:102DB000089B1B68013308993C980B6023689B189B
:102DC000236007F01FF95B461E7053460A9D1E7074
:102DD0002B004A46443303CB03C22B006CAA443376
:102DE00003CB03C20122002358925993FE239B0573
:102DF0002F324F93519340AB9B1838001E7005F053
:102E0000C5FA4CAB049351AB029354AB01936CAB3A
:102E1000009358AA4BAB484603974FA9FDF7E6FC31
:102E20005B4601221A7053461B78002B3AD10022D0
:102E3000089B19680131196023683D98D2182260F7
:102E4000521807F0DFF82368002B00D0CAE046983C
:102E500007F0D8F8FEF711FE089B00221B6801332B
:102E6000FEF72CFE089B01221B68A4E7089B0122A9
:102E70001B684EE7089B01221B6807E7089B01229D
:102E80001B68D1E6089B01221B689AE6089B012279
:102E90001B6861E6089B01221B6831E6089B012242
:102EA0001B68FEE5089B01221968C4E7089B012204
:102EB0001B68FEF759FE089B01221B68FEF729FEDE
:102EC000089B01221B68FEF7F1FE089B01221B688C
:102ED000FEF7C5FE089B01221B68FEF795FE089BC6
:102EE00001221B68FEF765FE089B01221B68FFF7A5
:102EF00089F8089B01221B68FFF751F8089B012203
:102F00001B68FFF718F8089B01221B68FEF7DDFF1E
:102F1000089B01221B68FEF7ABFF089B01221B6880
:102F2000FEF776FF089B01221B6889E5089B0122BA
:102F30001B685CE5089B01221B682EE5089B0122AB
:102F40001B6800E5089B01221B68D8E4089B01224E
:102F50001B68AAE4089B01221B687CE4089B0122F1
:102F60001B6854E4089B01221B68FFF7FEFB089BCB
:102F700001221B68FFF7A6FB089B01221B68FFF7D5
:102F800036FA089B01221B68FFF7DCF9089B012237
:102F90001B68FFF77BF9089B01221B68FFF727F9E5
:102FA0000023762200904299439807F02BF80123E2
:102FB000524613705A461370089B01221B68FFF794
:102FC000C2F800239D2200904299449807F01AF815
:102FD0000123524613705A461370089B01221B6846
:102FE000FFF71DFB479807F00DF8FEF746FD01229D
:102FF000FFF715FB0122FFF7A6F8C0463333333F36
:10300000024B18688007C00F7047C04600C00640DA
:1030100070B5EFF3108C72B60D4D2B68002BFCD001
:10302000BFF35F8F0724CB08C618C05C01230C4098
:10303000A3401C000440034207D118433070BFF383
:103040005F8F2C608CF3108870BD100001F086FC3F
:103050002C0100D0F8B54746CE46884680B5EFF340
:10306000108C72B6214D2C68002CFCD0BFF35F8F02
:103070009A422CD8D4080727055D06190124174069
:10308000BC402C421FD007210127894609E0D40803
:10309000055D06194C4639001440A1400C00294238
:1030A00011D001329342F2D201204042BFF35F8F30
:1030B00000220E4B1A608CF3108800280FDBC0BC76
:1030C000B946B046F8BD254310003570EEE7BFF3B2
:1030D0005F8F00232B608CF3108801204042434611
:1030E000002BECD0089801F039FCC0462C0100D030
:1030F0000021044B044ABFF35F8F02C39342FAD10D
:103100007047C046000100D0800100D0044A10780A
:10311000431CDBB2172B00D9102313707047C04635
:103120001C0F002010B5064B064C82B00100009326
:1031300018221F232000FFF78DFF02B010BDC046EC
:10314000F40701102048002001238340002904D007
:10315000034A1360034A13607047034A1360FBE796
:1031600080E200E000E100E080E100E00123834034
:10317000014A13607047C04600E200E0084B10307F
:103180009B688000C358002B07D0064A00209B1A7A
:103190002F229A424041C0B270470020FCE7C0464F
:1031A00000ED00E0200F0020024B10309B688000F3
:1031B000C058704700ED00E070B50D00EFF31086C9
:1031C00072B60F4A1368002BFCD0BFF35F8F0D4B14
:1031D00010309B6884001B590B4A934203D09D42D8
:1031E00001D001F0D3FB074B9B681D51BFF35F8FEC
:1031F000BFF35F8F0022024B1A6086F3108870BD08
:10320000240100D000ED00E0CD010010F0B55746DC
:103210004E46DE464546E0B585B0060000911700F3
:10322000EFF3108B72B66A4A1368002BFCD0BFF321
:103230005F8F0025674B5D579A46002D00DAA9E0A5
:103240006B00654C01935B199B009846A146C144F5
:103250004B4652469B7910361370604BB6009B6804
:1032600099590B1B2F2B33D95D4B994200D0ACE001
:10327000019B42469C465B4B6544AD0063535A4BF1
:103280000232A218043B9B1A1B05584A5B0D6519B4
:1032900013436B80564B0121AB80FF23AB71009B26
:1032A000EF71AB604B460B4319004C4B9B68995137
:1032B000BFF35F8FBFF35F8F0022454B1A608BF324
:1032C000108805B0F0BCBB46B246A946A046F0BD8A
:1032D00001200A008243D3798C46BB4231D845464F
:1032E000130044491B1B5B415943090D3D4B63537C
:1032F0003D4B02356519043B5B1B1B053B4D5B0DCC
:103300002B43AA464D466B800425AC465546E04407
:10331000131F44441B1B1B055B0D1D434B4699713A
:1033200000999D8099604946DF71334B01431360DA
:10333000BBE75800C01880002018C179B9422FD9C6
:1033400002000623D356002BF3DA02932B4B61467F
:103350000393131D9A4604235B429C46E144504666
:103360004B461B1A1B055B0D9C46204B95719846DE
:103370006346404603439380019B5A199200039B86
:10338000A418A380029B1C4AA371009B2260E771D2
:10339000A3608AE701F0FAFA002553465D574FE72C
:1033A000908802934005131D9A46031561469C467A
:1033B0004046D444634604302018181AE023000520
:1033C000400D1B0218430390C5E701F0DFFA4FE7F9
:1033D000240100D01F4D0020200F002000ED00E050
:1033E000CD01001000A1FFFF500F002000E0FFFF03
:1033F00001BDFFFFAAAA00000148804701BD0000EF
:10340000F0B5DE4657464E464546E0B50C0083B063
:10341000EFF3108872B65D4A1368002BFCD0BFF33F
:103420005F8F5B4B5B499A68030010339F00D5594F
:103430008D4239D0A5424AD0574EAA1B2F2A33D8E5
:1034400001229246824091464846544A12681040F2
:1034500001904846524A1060BFF35F8FEFF3058238
:103460009346002A35D0934201D001F08FFA2A000A
:1034700053469A439068844208D175E04B005B182C
:103480009B00F3189868A04234D01A0006215156C8
:103490000029F3DA844253D0019B002B26D04A4600
:1034A000404B1A603D4B1A60394B9B68DD51BFF3AE
:1034B0005F8FBFF35F8F0022344B1A6088F3108850
:1034C00003B0F0BCBB46B246A946A046F0BD0D0015
:1034D000EAE72A0053469A4390688442D6D10620F0
:1034E00010561300002809DA0D0031E04A462C4B33
:1034F0001A60D9E706201856002822DB420011186E
:10350000890074188A46A1689960E179D971062109
:1035100061569971002925DBA488F11A64052415E8
:1035200054440919E0240905490D240221439980D6
:1035300013181D4A9B001178F31899711070ABE7AE
:1035400013005946002914D1FF3191711749918018
:1035500015490A789A71164A9B1B5B415A43120D12
:103560000A7099E71349E2E7062010561300002875
:10357000C4DA114A1149D21A083A5002400D0143E7
:1035800099800F4952080A43DA8085E7240100D068
:1035900000ED00E0CD010010200F002000E100E070
:1035A00080E100E080E200E01F4D002001BDFFFF50
:1035B000AAAA000001BD00005A0F002000F0FFFF82
:1035C00000F8FFFF70B5EFF3058101240443EFF32A
:1035D000108C72B6214A1368002BFCD0BFF35F8FAA
:1035E0001F4B05001F4AED1A6D416A43120D1E4D17
:1035F0008900AE6852B27658A6421CD006215956B0
:1036000091421CD012215956914222D01E21595666
:10361000914220D02A2159560324914210D0134BB5
:1036200019781A708171BFF35F8F00220B4B1A60FB
:103630008CF3108870BDAB680D4C5C50EFE7002434
:103640006100091989005B18FF2199710949998066
:10365000E5E70124F4E70224F2E7C046240100D0A4
:10366000200F0020AAAA000000ED00E01F4D00205E
:10367000CD01001001BDFFFF054B064A1360064A4D
:10368000136053609360D36013615361936170471B
:103690008080808000E400E004E400E010B5084B86
:1036A000084C82B001000093002205232000FFF7A0
:1036B000D1FC002801DB1F23181A02B010BDC04640
:1036C00010080110244D0020024B9C4661448900E3
:1036D000016070474000003410B50400FFF716FD8C
:1036E00001002000FFF7F0FFFF232371BFF35F8F7E
:1036F00010BDC04610B50400FFF708FD0100200012
:10370000FFF7E2FFFF23A380BFF35F8F10BDC0462A
:1037100010B504000120FFF705FD034BC3189B0003
:103720002360BFF35F8F10BD40000034034B9C4605
:10373000614489000160BFF35F8F7047400000342F
:1037400083680B4810B58446614462441201090144
:1037500059189B185C684A680120944201D802D02D
:103760000020C0B210BD1A680B689A42F9D8F7E77A
:10377000FFFFFF0F0A4B1968EFF3108072B60A685B
:10378000002AFCD0BFF35F8F1B68BFF35F8F00225E
:103790001A6080F3108840BF002000217047C046A7
:1037A000EC4C0020F8B5574645464E46DE46E0B59F
:1037B00098460CAB1C780DAB1B78070091469A46D7
:1037C0000568002C59D1AC7B002C3BD066002968E1
:1037D0003619033E89194B78AB73002B00D1EB737C
:1037E00000238B704B700B702D4BE218BB681201DD
:1037F0009B184A461A6042465A600A9A9A600B9A87
:10380000DA6000238B704B700B706B7B9B46002B38
:1038100026D022006B685946A86898475B465B0033
:103820005B442A68033B002812D058469619B070B2
:10383000D118D35C002B00D073705B460C706B7397
:103840005C450ED0F0BCBB46B246A946A046F8BDCA
:10385000D3189C709119925D002A1CD15B460B70A5
:103860006C734A464346387D00F04AFB051E0AD178
:103870000E9B002BE6D01D70E4E766002968361920
:10388000033E8919B0E75346002BF1D12100386877
:1038900000F04EFDECE75A705B460B706C73E0E78E
:1038A000FFFFFF0FF0B5DE4657464E464546002364
:1038B000E0B58BB00893684B8200D45800239B4638
:1038C000099000F099FA02000B006068EFF3108A8B
:1038D00072B6564601680029FCD0B246BFF35F8F2E
:1038E00021684F7B8C46002F2ED0A5685B49A946E6
:1038F00079180901894449460868496805000E009D
:10390000AD1A9E41002E5FDD02000B00099800F009
:10391000F7FA00230022994600230692079300231A
:1039200098466368BFF35F8F5A461A608AF310881F
:103930004346002B12D10028C3D10BB0F0BCBB46CC
:10394000B246A946A046F0BD0023002299460023B6
:1039500006920793002300209846E2E7089B494619
:1039600018023843C047626805000E00EFF3108A62
:1039700072B61368002BFCD0BFF35F8F002E41DBC3
:103980002B00334302D02369002B56D12368D97B07
:10399000002905D01A68480041185218033A577098
:1039A0009A7B002A00D19F73DF73E268013FD35DE9
:1039B0000133D3555B4623616368BFF35F8F5A467B
:1039C0001A608AF310887CE7002E02D1002D00D007
:1039D0009AE70021604600F029FC4B461A685B68B4
:1039E000069207934B469B6898464B46DB68994680
:1039F000E368DB19013B1B7808931B020343236137
:103A000000208EE72369002BC0D0069A079B8021F7
:103A1000521BB34109068B4202D30122104B524282
:103A20000021049101310391494601914146200052
:103A300002970091FFF7B6FEBCE700F0DDF92A001F
:103A4000330012184B41802109068B42E8D3012232
:103A5000034B5242E4E7C046D04C0020FFFFFF0F6B
:103A6000FFFFFF7F10B5144C6368002B04D00A21C0
:103A70001248FFF729FE10BD2300114A10212068CB
:103A800000F0F0FA032000F0ABF9032000F0A0FAF8
:103A900003200C4900F0EEF9FFF738FB0A4B9C4677
:103AA00003232375D0231B061B6860446375074BF3
:103AB00080006060DC60DAE7680F0020EC4C0020DA
:103AC00041370010A538001040000034D04C0020D1
:103AD00000487047680F0020F0B557464E464546EF
:103AE000DE46E0B585B0019310AB1B78060003936A
:103AF00000239A46984600927268EFF3108B72B6D4
:103B00001368002BFCD0BFF35F8F3568AC7B002CB3
:103B100000D16EE067002B683F19033FDB195A782C
:103B2000AA73002A00D1EA73484AA118B2680901B1
:103B3000521800980199106051600E9991600F9988
:103B4000D16042469A705A701A706B7B9946002B6E
:103B500000D16BE022006B684946A86898474B4645
:103B60005B004B442A68033B002856D04846D719CF
:103B7000B870D118D35C002B00D07B704B460C7012
:103B80006B734C4553D0F3681B19013B187873686D
:103B9000BFF35F8F42461A608BF310885346002BA9
:103BA00008D10002204305B0F0BCBB46B246A9468E
:103BB000A046F0BD039B002B46D00E9B00200F9922
:103BC000984703000B433FD004000D1E1ADA009AF9
:103BD000019B121BAB41009201938022120693427B
:103BE00004D301231A4C5B4200930194039B9A4631
:103BF00082E77368BFF35F8F1C608BF3108801202E
:103C00004042D0E700F0F8F880220019694112061E
:103C1000009001919142E9D3E3E7D3189C70D11948
:103C2000D25D002A00D05A704B460B706C73307D09
:103C3000009A019B00F064F982460028A3D021007D
:103C4000306800F075FB9EE70020ACE7FFFFFF0F38
:103C5000FFFFFF7F407D7047F0B5EFF30583CE4651
:103C6000474680B505000C0085B0002B12D02A4ACB
:103C70000020536AA34203D3926A0130AA4204D3BC
:103C800005B0C0BCB946B046F0BD1B1B5A1E9341DF
:103C9000D8B2F5E7214E02930193214B0200009325
:103CA00030000B00FFF718FF031EE0DD20BF716836
:103CB000EFF3108772B60A68002AFCD0BFF35F8F5B
:103CC000DAB29446FF2230681A40417B61450FD03A
:103CD0000168894651008846494690444144033969
:103CE0008978002904D13269934209D1316107E012
:103CF000F1681B0A8A18013A1278DBB29A4207D09F
:103D00007368BFF35F8F00221A6087F31088AEE7F5
:103D1000614600F00DFBF3E700400540680F00200E
:103D200075370010F0B5EFF30582D6464F4646468C
:103D30001000C0B51038EFF3108872B6214C23681C
:103D4000002BFCD0BFF35F8F0123190081401E4D73
:103D50001F006963AA461D4D29601D4D2E78AC4693
:103D60003500C5402F402B4215D053465F6A194B92
:103D70008500EB589F4218D36246174B8E43EB5891
:103D80001670BFF35F8F0022226088F31088002B2B
:103D900006D0984704E0BFF35F8F276088F3108850
:103DA000E0BCBA46B146A846F0BD0C4B92009C461A
:103DB000624413681360BFF35F8F0023236088F3AE
:103DC0001088EDE7280100D0004005403C70054018
:103DD000234D0020F84C002008470020D03F05402C
:103DE00010B5034B01001800024AFFF711F910BD8E
:103DF0001E4D00202C080110034B596A0A00986AD6
:103E0000596A8A42FAD170470040054070B50400F3
:103E10000D00174A536A1900966A536A8B42FAD109
:103E20003000190024184D41AB4216D813D0104B66
:103E30002A005B6A9D4203D90D494B6A9342FCD329
:103E4000934207D10A4A02E0516A994202D1916A2B
:103E5000A142F9D370BDA642E9D9054B5B6A1C00AB
:103E60005A1CEFD0012201246442E5175242E3E7D5
:103E70000040054070B504000D00EFF3108672B6E7
:103E80001A4A1368002BFCD0BFF35F8F002D1BD0A4
:103E90002000FFF789F9164981420AD02000FFF778
:103EA0008BF901212000FFF74FF90123A340114AAC
:103EB0001360114BA400E550BFF35F8F00220B4B42
:103EC0001A6086F3108870BD0121A1400A4BA20040
:103ED000D5500A4B20001A788A4305491A70FFF71B
:103EE0008FFA00212000FFF72FF9E5E7280100D025
:103EF000253D00103860054008470020234D002074
:103F0000F0B54F46D6464646C0B507002B4C616A11
:103F10000D00A66A616AA942FAD18B4208D805D081
:103F20000120E0BCBA46B146A846F0BDB242F7D97E
:103F3000EFF3108A72B6224801680029FCD0BFF363
:103F40005F8F0125BD401F491C4C88460978894672
:103F50002943C9B28C46414660460870391D890024
:103F600065630A511849B8004350216A002029426C
:103F700019D0616A0800A66A616A8142FAD18B424F
:103F800019D801D1B24216D8CC450BD00B4B1F2209
:103F90001D625D6301233A4093400C4A136043461F
:103FA0004A461A700120BFF35F8F0022044B1A604B
:103FB0008AF31088B5E70020F5E7C04600400540C9
:103FC000280100D0234D0020F84C002080E200E0C2
:103FD000EFF3108C72B60A490B68002BFCD0BFF3CC
:103FE0005F8F01238340074A0748136202789A4390
:103FF0000270BFF35F8F00230B608CF31088704753
:10400000280100D000400540234D002070B5060077
:104010000D00140000291DD0002A12D0736880689A
:10402000984762006B0012195B193168033A033B31
:10403000002808D08A189570C818CB5C002B0BD1CB
:104040000470280070BDCB189C7088188A5C002A08
:1040500005D105702000F5E753700470F1E75A7040
:104060000570F7E710B583600023CCB243730133CA
:10407000426004738373C4730068421C012C05D929
:104080000133DBB2137003329C42F9D1FF230B40A2
:104090005A00D318C01800230338437010BDC0461F
:1040A00070B505000C1E07D0630001681B19033BA7
:1040B000CB185A78002A01D1200070BD500080181A
:1040C0000338091800204E784870210058702800E5
:1040D000FFF79CFF310004002800FFF7E1FF060016
:1040E000002C20D00028E7D0320021006B68A8689F
:1040F00098477200630092191B192968033A033B21
:10410000002808D08A189470C818CB5C002B00D007
:1041100053700670D0E7CB189E7088188A5C002A0E
:1041200000D05A7004703400C6E7C046F0B5574658
:104130004546DE464E46E0B50D006F0001687F192A
:10414000033F0400C85D83B00192CA19002850D013
:1041500043001B18033BCB185E78B446002E1AD1DF
:10416000019E002E42D0E67B002E04D073009B19E6
:10417000CB18033B5D70A37B002B00D1A573E573C7
:1041800000282FD10023537003B0F0BCBB46B246C9
:10419000A946A046F0BD72006244033A8A185178DD
:1041A0008846002151708946597032000100200074
:1041B000FFF72CFF43468246002B07D05B002168A7
:1041C0004344033BCB185A78002A16D14246514645
:1041D0002000FFF71BFF2168019BCA19002BC2D1E9
:1041E0000028CFD043001B18033BCB180021997047
:1041F000C8E7019B002BB6D1C4E7500080180338F4
:10420000091848788346484648705870414620004F
:10421000FFF7FCFE594680462000FFF741FF41466C
:1042200002002000FFF7F2FE8046CFE7F0B55746C8
:104230004546DE464E46E0B583B00191457B04001D
:104240006F0000687F19033FC15DC219002952D079
:104250004B005B18033BC3185E78B446002E1CD19C
:10426000019E002E44D0E67B002E04D073009B19E3
:10427000C318033B5D70A37B002B00D1A573E573CE
:10428000002931D1002328005370617303B0F0BCC2
:10429000BB46B246A946A046F0BD72006244033A4E
:1042A0008218507880460020507081465870320045
:1042B0002000FFF7ABFE43468246002B07D05B0091
:1042C00021684344033BCB185A78002A17D1424651
:1042D00051462000FFF79AFE019B01002068C21999
:1042E000002BC0D10029CDD04B005B18033BC31875
:1042F00000209870C6E7019B002BB4D1C2E75000A4
:104300008018033809184878834648464870587022
:1043100041462000FFF77AFE594680462000FFF70D
:10432000BFFE414602002000FFF770FE8046CEE748
:1043300070B5050000292CD0437B8B422ED04C0059
:1043400000686418033C0419A278002A21D05300A5
:104350009B18033BC25CC6188A4202D11BE0002AAC
:1043600008D053009B18033BC3185A788A42F6D1F1
:1043700062785A70002301222800A3706370FFF74F
:10438000D5FE697B02002800FFF740FE687301201C
:1043900000E0002070BD63783370EBE70122190064
:1043A000FFF7C4FEF2E7C04610B50C2082B000F063
:1043B000B1F9FEF725FE002810D08B4B8B488B49B6
:1043C0008B4A186059609860D9601861596198618A
:1043D000D961186259625A6202B010BD854CA0675B
:1043E00000F0EEF90122844B1A60636C012BFCD1C2
:1043F0000322824B1A607F4A936B012BFCD101335D
:1044000001217F4A7F480093043300F031F90523EE
:104410007D4A009301217D4800F02AF97C4B5A68BF
:10442000FF2A02D8802252005A608022734B6E4CC1
:1044300012011A602169002907D0606900F05AFB57
:10444000013043001B18033BFDD2E022704B714842
:1044500019680A40026002221968514001320A407C
:10446000042102609A681142FCD080216A4A090145
:104470001160802252005A60684B2361684B596872
:10448000FF2900D85A60032201215B4B1A60644A5D
:1044900093681942FCD0E023106803406148036030
:1044A000126803234A40022113405D4A0360936867
:1044B0001942FCD080215C4B0901196080215B4BC3
:1044C0004900516063615A4B5A68FF2A00D859600D
:1044D0008022584B12011A60E169002907D06069F7
:1044E00000F008FB013043001B18033BFDD2E02322
:1044F0004F4A11680B4050490B6080214F4B090116
:1045000019608021394B49005160E3614C4B5A6876
:10451000FF2A00D8596080224A4B12011A60216A92
:10452000002907D0606900F0E5FA013043001B184C
:10453000033BFDD2E023424A11680B4042490B6025
:104540008021424B0901196080235B005360802267
:10455000264BD20223623E4B5968914200D25A60E8
:1045600080223C4B12011A60616A002907D0606901
:1045700000F0C0FA013043001B18033BFDD2E023DA
:10458000334A11680B4034490B608021334B0901D9
:1045900019608023DB025360154B6362304B5A680D
:1045A000FF2A02D8802252005A6080222D4B12012D
:1045B0001A60A169002907D0606900F09BFA0130F8
:1045C00043001B18033BFDD2E023254A11680B4032
:1045D00025490B608021254B0901196080235B0070
:1045E0005360124BA361F7E6F0160020006CDC026A
:1045F0001BB70000008000403CB0004030B00040DD
:10460000002F685900800240008C864700C002409D
:10461000308000403090004030A00040001BB700C8
:104620003C8000403C9000403CA000404059730753
:104630005480004054B000405490004054A00040CA
:104640006080004060B000406090004060A000408A
:104650006C8000406CB000406C9000406CA000404A
:104660004880004048B000404890004048A00040CA
:10467000F8B5040022481E0017000D0000F03AFAB9
:104680000100380000F036FA069B36041B031E4377
:104690002368002B22DB1B4B1B49E3185A1E934156
:1046A0008022920194465B421B0B184A1B03634411
:1046B0001360174A13601F008A689743FBD1C0221A
:1046C000231D92011A4321232560A06013602368F3
:1046D000002BFCDA0823E6601360F8BD3F23226854
:1046E0001340AB42D7D1A3681B051B0D8342D2D127
:1046F000EE22E368D2021340B342CCD1EDE7C046CC
:10470000001BB7000040FDBF00C0004000E00040BB
:1047100000F000408023024A9B000343D3627047AD
:104720000080054010B580241C4BE4051C60002867
:104730001AD001231A4C18431A4BDC611A4C44401E
:104740001C62596298628021144BC9051960174890
:1047500017490860E021C9041960002A07D18022A6
:10476000144B12061A6010BD0E4BD861EBE75301D3
:104770009B1A9B009A18802312015B049A4209D26B
:1047800013000D490B60074B5A608022094BD2057C
:104790001A60E8E7094B1A00F3E7C04600B005408D
:1047A000D3C007B0008005402D3FF84FFCFF01004B
:1047B0000820014000A00540A84C0020FFFFFF009A
:1047C000AA23064A1B0113602F230549D360054B1A
:1047D00019605368002BFCDA7047C0460040024065
:1047E00000B0FA00006002402C4B2D4A70B51A60F0
:1047F0002C4A2D4B2D491A6014008B689C43FBD129
:104800002B4D2C4EB54208D2013E761BB60808CD82
:10481000984723000134B342F9D1FFF7C5FD264A7A
:10482000214B1A60214A9368DB43DB01DD09002B31
:10483000F9D14022214B224C224E9A675A671A67BF
:10484000DA66B44208D223682000002B20D0083456
:10485000FEF750FFB442F6D31B4C1C4EC022B16889
:10486000200001F011F9B460FEF742FCFEF704FFEE
:10487000FFF7F8F8164C174EB44208D2013E361B2B
:10488000B60808CC98472B0001359E42F9D170BD7F
:104890000834FEF721FFB442D5D3DDE700E0004045
:1048A000BFCDFBFEFE7F3C0000F0004000C000409A
:1048B000D4160020E4160020FFFFFF0100F00140A5
:1048C000C4160020D41600200000002000ED00E0F7
:1048D000E4160020F016002000BEFDE7094A0300A0
:1048E0001068002805D00849C3188B4207D8136008
:1048F000704706480449C31810608B42F7D901205D
:104900004042F5E79C48002000000420284D00208C
:1049100000207047012040427047C04610B5FFF7A5
:10492000DBFFC04630B50D0083B01900002A0BD064
:10493000074B084C0192009302002B00200000F06E
:1049400033F80120FFF7C8FF034B1A00F1E7C04618
:104950005008011060080110F00701100FB400B5F5
:10496000084883B001F02CF9049B002B07D005A95F
:104970001800019100F038F8034801F021F90120F6
:10498000FFF7AAFF90080110A008011010B5014818
:10499000FFF7E4FFA408011010B5002800D110BDF6
:1049A00001F0C2F8FBE7C0460FB430B50C4985B042
:1049B00008AA08CA0D680392002D0CD000920122AB
:1049C000084C5242200002A9A847012005B030BC83
:1049D00008BC04B01847180001F0F2F80020F5E711
:1049E000A44C00209949001010B5094A030014682E
:1049F00084B0002C08D0012200910648524203A93D
:104A0000A047012004B010BD01F0DAF80020F9E75A
:104A1000A44C00209949001001480421014B18477B
:104A2000900F0020614A0010044B5B68002903D1FD
:104A300000B59847203000BD08461847900F002069
:104A4000142310B50100188804331B88984710BD43
:104A5000162310B50100188802331B88984710BD33
:104A6000F8B54746CE4680B50F1E19D01423994697
:104A7000043304000025012698464B461888434617
:104A800021681B88984701C4431E98410135404264
:104A90000640AF42F1D13000C0BCB946B046F8BDC7
:104AA0000126F8E7124A936F9B0815D29066D166EB
:104AB000002905D0FFE7FFE7FFE7516F106F704750
:104AC00004B580210906C2175140002800D0C84310
:104AD0000BF06AFA002104BDF0B5146E556E576FE5
:104AE000166FFFF7E3FF1466556657671667F0BD4C
:104AF000000000D0114A936F9B0813D210665166D4
:104B0000002905D0FFE7FFE7FFE7516F106F7047FF
:104B100004B5002801D00020C0430BF045FA002165
:104B200004BDC046F0B5146E556E576F166FFFF793
:104B3000E5FF1466556657671667F0BD000000D0A4
:104B400094464A4A926F9208624601D228E0C046D3
:104B5000F0B5464E346E756E776F366F00F020F804
:104B60009446424A14665566576716676246F0BD1A
:104B700094463E4A926F9208624601D254E0C04683
:104B8000F0B53A4E346E756E776F366F00F04CF8B4
:104B90009446364A14665566576716676246F0BDF6
:104BA000002B24DB11D000293EDA00B5C943404276
:104BB00000D1013100F038F8C943404200D1013141
:104BC000DB43524200D1013300BD002AEBD1002863
:104BD00001D1002905D00020C90FC90701D1C04368
:104BE000410800B50BF0D0F90022002300BD00B54C
:104BF00000290ADBDB43524200D1013300F014F8F4
:104C0000C943404200D1013100BDC943404200D1F7
:104C10000131DB43524200D1013300F005F8DB43A0
:104C2000524200D1013300BD002923D1002B18D1FD
:104C3000002A0CD0BC460D4F38667A66002100234E
:104C4000FFE7FFE7FFE77A6F386F67467047002896
:104C500001D00748010000B50BF096F900220023AF
:104C600000BD02000B00002000217047000000D0B2
:104C7000FFFFFFFF002B00D0BFE0130C28D1002A5C
:104C8000E7D080B4114F39667A66FFE7FFE730B4AA
:104C9000040C7B6F396F1B0423433B667A66FFE786
:104CA000FFE7FFE7C04684B27B6F3D6F1B042343E1
:104CB0003B667A66FFE7FFE7C04600232C042D0C15
:104CC0007A6F386F00196941B0BC7047000000D09E
:104CD000F0B594460025140E01D112020835140FC8
:104CE00001D112010435940F01D192000235D40F85
:104CF00001D152000135D40B0134254F7C66254C7F
:104D00003C660E0C93B2FFE7FFE7FFE73C6F66439C
:104D1000360C7703BE467343DF0B5B04C01AB94100
:104D2000130C7343DB18C91ACE086643360CB6441D
:104D300093B273431F0F1B01C01AB941130C734385
:104D40001F0B1B05C01AB941860D8F023E436643F7
:104D5000360C092D24DB520A7243801A7703460A67
:104D60006643360C16235B1BDE40DF40BF196446EA
:104D70006643821B7046043506330100D940A840C3
:104D8000C01900D30131A24206D20023F0BD0000B9
:104D9000000000D0FFFFFFFF121B0130F3D3F1E74B
:104DA00009277F1BFE406446A2B27243801A00D2DC
:104DB0000139220C7243130C1204821A99410B0020
:104DC0007046043513370100F940A840801900D31C
:104DD0000131002B02D1A2420AD2F0BD013000D332
:104DE0000131121BFAD2013BF8D1A24200D2F0BD30
:104DF000013000D30131121BF7E7F0B51C0C00D0D5
:104E000080E00CB400251C0A04D11B02160E3343AB
:104E1000120208351C0B04D11B01160F334312017B
:104E200004359C0B04D19B00960F3343920002354E
:104E3000DC0B02D192185B4101351C0097186441CC
:104E40000134464F7C66464C3C660E0CFFE7FFE79C
:104E5000FFE7C0463C6F6643360C7703BE4697B209
:104E60007743C01B00D20139C01B00D201399FB269
:104E70007743C91BC91B170C77437E04FF0B801BAC
:104E8000B941CE086643360C0C2D33DBB644120B09
:104E90001F053A431B0B97B27743C01B00D2013961
:104EA0009FB27743C91B170C77433E043F0C801B0E
:104EB000B941860D8F023E43664329277F1BFE4082
:104EC0000C3D7746AF40BF1930BCA2B2ABB27243C3
:104ED0007343801A9941220C7243130C1204801AF6
:104EE000994102000B000137001BA941F9D2781E3D
:104EF0000021F0BD0C277F1BFE4077467F0BAF40A3
:104F0000FF19E0E700245D1C07D0144F7D66396669
:104F1000FFE7FFE7FFE7FFE73C6F95B29EB265430F
:104F20006643401BB141150C1E0C654366433604B5
:104F30002F0C3E432D04401BB141994204D2020084
:104F40000B0020000021F0BD01D19042F7D3801A60
:104F5000994101349942F2D3F6E70000000000D0F5
:104F6000FFFFFFFF48404140484018B41B4B5B68BF
:104F7000FC46019308BD04DFE352001018B4174B40
:104F80001B68FC46019308BD00DFED5200109446FB
:104F9000134A926F920809D2624618B40F4BDB682D
:104FA000FC46019308BD0CDFA55500100C4AF0B576
:104FB000146E556E576F166F6246FFF7EEFF084A84
:104FC0001466556657671667F0BD18B4034B9B68A7
:104FD000FC46019308BD08DF49540010201800204A
:104FE000000000D0FFB550404240504059404B4077
:104FF000594000E0FFB5154F4C00640D03D0BC4292
:1050000004D10C0314D80020090D09055C00640DBF
:1050100003D0BC4204D11C030AD800221B0D1B057F
:1050200001264B4009D44B4003D58B4200D182422C
:10503000FFBD9942FCD19042FFBD0B43DB180343F7
:105040001343F5D0C9434918FFBD0000FF07000016
:1050500000B5FFF7CFFF01D0002000BD012000BD4B
:1050600000B5FFF7C7FF804100BDC04600B5FFF7A0
:10507000C1FF01D9002000BD012000BD00B5FFF730
:10508000B1FF804100BD012040054A00121804D83C
:105090005A00121801D800207047012070470020E4
:1050A000704700000021002805D17047C117484013
:1050B000401AFAD0C90713B5064B1B6898470CBCB9
:1050C000441CA2401005120B0349091B0905194392
:1050D000114310BDE84C00201F04000010B54C0027
:1050E000620D8023D218DB00D21A5B057E2A10DD08
:1050F0009E3A13DACC170903490819435242D140AA
:10510000640001341532202A05DAD0400843604398
:1051100010BD002010BD0846604310BDC80FC01868
:10512000013810BDC94211D300B549004908002219
:1051300000F018F8002904D4002240428A411146A8
:1051400000BD80210906002000BD000018B4044BFA
:10515000DB6EFC46019308BD6CDF55570010000064
:105160002018002018B4044B9B6FFC46019308BD27
:1051700078DF73570010000020180020132370B54B
:105180001D78012D15D010DD1D48FFF761FC1D4C69
:1051900001008022200000F077FC022D2DD01A485B
:1051A000FFF74EFC194B186070BD194B154CA364EA
:1051B000F5E7174B134C23606360A360E360236142
:1051C0006361A361E36123626362A362E3622363B9
:1051D0006363A363E36323646364A364E364236599
:1051E0006365A365E36523666366A366E366236779
:1051F0006367A367E367A364D1E7054BA364CEE7C6
:1052000053440000201800204C330000E84C0020DC
:10521000B1520010244A4B0094465B0D6344F0B534
:1052200004000D005A1C21DB5A1C35D0342B1CDA2B
:105230003326F61A3700203F1CD40121B9400B0059
:105240000121B1400A0012196B41002F1EDB02241C
:10525000BC4021000224B440200016000025444236
:105260008D4126402B4030001900F0BDCB0F0020AF
:10527000D907FAE720210120891BC8400121B1404C
:1052800003000A0012196B41002FE0DA20240225E6
:10529000A41BE5402900DDE7CB0F044ADB071A43D6
:1052A00000201100E1E7C04601FCFFFF0000F03FD5
:1052B00007B5604601880A0A0230DF2AFAD1C9B26E
:1052C000820804D3028840880004104300E000688C
:1052D000014A5050039007BD201800200FB403BCB2
:1052E0000CBCF0B50124E407634000E0F0B50C0D00
:1052F000CF0F661E3605891B640503D3C9434042A0
:1053000000D30131640D03D0661CF60A07D0E41BFC
:1053100000207F00791C89078912803C24031D0D21
:10532000DF0F6E1E36059B1B6D0503D3DB43524218
:1053300000D301336D0D03D06E1CF60A07D0ED1BB0
:1053400000227F007B1C9B079B12803D2D032F1B9F
:10535000661B58D4A446202E46DA20371400BC40E1
:105360001D00BD40F24033412A4380185941CB0F04
:1053700005D0C943C04300226442504151416246B6
:105380004D0D28D10D0D07D100281FD02419404103
:105390004941013A0D0DF9D0640006D3013000D324
:1053A0000131002C01D140084000013A0BD4941C7B
:1053B000E40A04D112051144DB071944F0BDD907F2
:1053C000204B194300E0D9070020F0BD0029DDD1B2
:1053D000002CDBD1F0BD0132C6074008CD072843C1
:1053E0004908002EE1D0D9E73C2E29DA203E40378B
:1053F0001400BC4000D00124F24014431A00BB400A
:105400001C43D317ACE7AC46202F08DA2036040043
:10541000B4400D00B540F84039412843A5E73C2F82
:105420000CDA203F40360400B44000D00124F8409C
:1054300004430800B1400C43C117EAE7100019000B
:10544000002494E70000F07FF0B50C0D661E3605D1
:10545000891BE60A6405640D02D0651CED0A04D0C0
:10546000002001210905803C2403A4461C0D671E71
:105470003F05DB1BE70A6405640D02D0651CED0ADD
:1054800004D0002201231B05803C240377406444A0
:1054900097B484B296B27443070C7E43150C6F43E5
:1054A00080B26843361802D3012000043F1830044C
:1054B000350C00197D41844688B29AB250430C0CD9
:1054C00062431F0C7C438EB27E43921902D30126A5
:1054D0003604A4191604170C3618674101BC81B2B2
:1054E0009AB25143040C62431B0C5C4380B2584394
:1054F000121802D30120000424181004130C4018C1
:1055000063412D185E410020474106BC88B293B22A
:1055100058430C0C6343120C544389B251435B183B
:1055200002D301210904641819041A0C09186241F4
:105530006D1856410020474118BCF902720D114305
:10554000F0026A0D1043ED020A0D03D16D194041BE
:105550004941013B124E9B1B7600B3420ED26D00B7
:1055600007D30130002671416646354301D140081A
:1055700040001B05C918E4072144F0BD0BDA0133D4
:1055800006D1013004D101314F0D01D04908F2E7B5
:10559000E1070020F0BD013631050020EBE70000F7
:1055A000FF030000F0B51C0D671E3F05DB1BE70A7B
:1055B0006405640D02D0661CF60A04D000220123A3
:1055C0001B05803C2403D0252D060026F6432E66BD
:1055D0001E096E66CE0FF619B44649004F0D02D073
:1055E0007E1CF60A03D000200021403F3F033E1BF3
:1055F000B600B444013F7F05C91B49082E6F013630
:1056000076089C02950D25437543ED137543AD1344
:1056100001356D10F603761B0CB4CC02450D2C43FE
:10562000A2B2B3B25A43270C7B43350C6F43A4B2EA
:105630006C431B1902D3012424043F191C041D0CC4
:10564000A4187D4124196D41009A91B2ACB2614316
:10565000170C7C432B0C5F4392B25A43A41802D31D
:1056600001221204BF182204230C52187B41019C12
:105670006C431B19520ED9010A434401A01A81B28E
:10568000B2B2514303145A43360C734387B2774383
:10569000D617D21900277E4136049B191704160C21
:1056A0007F185E417316ED18F301002680337541B3
:1056B000A90F06D16400690AE8055B0A184309D2FC
:1056C0002FE00422944480337541A90AA8059B0A5F
:1056D000184326D3404149412404009A019B0D0000
:1056E0005543641B4343E41A95B286B27543170CC5
:1056F0007E43030C5F4392B25A43B61802D3012291
:105700001204BF183204330C52197B4152429C419F
:10571000002C02D40022013051414008CA07104336
:10572000490802B06246D7079210084BD218084BBE
:105730009A4203D212058918C919F0BD0020002A27
:1057400001DC3900F0BD01331905F5E7FD03000068
:10575000FE070000002200B500F00DF8CA179A42BB
:1057600000D100BDD8430121C907414000BD000060
:1057700000220B150AD410B5944600F031F8141429
:10578000013400DA0021CB17144C204700200021FF
:1057900070476244343A0CD40C2A07DA0400914072
:1057A000904052422032D440214310BDD843D943C7
:1057B00010BD203207D40C46944052422032114191
:1057C000D040204310BD0800C917203203D45242F4
:1057D0002032104110BD1800190010BD9357001061
:1057E0000A0DCC0F531E1B05C91A520503D3C9431A
:1057F000404200D30131520D03D0531CDB0A07D0C5
:10580000121B00206400611C89078912803A120370
:10581000014BD21A70470000FF030000514343437D
:10582000C9188C46110C83B24B4310B4040C61436D
:1058300092B280B2504362431C041B0C001910BC8E
:1058400059411304120CC0185141614470470000C3
:105850004840414048400E4B5B6818470C4B1B6862
:1058600018470C4A936F9B0802D2094BDB68184714
:10587000F0B5146E556E576F166FFFF7F6FF054AB9
:105880001466556657671667F0BD014B9B6818474D
:1058900020190020000000D007B548404140484092
:1058A00001E0C04607B54200120E03D0FF2A03D123
:1058B000420218D8C00DC0054A00120E03D0FF2ABC
:1058C00003D14A020FD8C90DC9050122414005D4B0
:1058D000414001D5814207BD884207BD01434918B7
:1058E00001D0C043001807BD00B5FFF7DBFF01D0B2
:1058F000002000BD012000BD00B5FFF7D3FF8041AF
:1059000000BDC04600B5FFF7C7FF804100BD491A82
:10591000002807D108467047C10FC90700D540428B
:10592000002817D0F44603B40B4B1B68984706BCFD
:1059300081409E384042803107D20B0607D0490093
:10594000490AC0051043084360470130F8E7490A97
:105950008902F5E770470000E84C0020034BDB6F3D
:10596000FC4618477CDF015A001000002019002077
:10597000132310B512481C78FFF76AF80100012CB8
:105980000AD003DD80220F4800F07EF80E48FFF7B2
:1059900057F80E4B186010BD0A4C5422200000F03E
:1059A00073F80B4B6365A365E36523666366A366C3
:1059B000E36623676367A367E3672362E361E5E761
:1059C00053460000201900204C330000E84C002012
:1059D000D559001007B5604601880A0A0230DF2A4F
:1059E000FAD1C9B2820804D3028840880004104367
:1059F00000E00068014A5050039007BD20190020C4
:105A0000C30FDB0741000A0E07D0FF2A08D009099F
:105A1000054A89181943400770471900002070474C
:105A20000249C918FAE70000000000380000F07FC2
:105A300070B504000A4E30000AF0EEFA200004F0BF
:105A40009DFF050030000AF097FA002D05D0054BA8
:105A50002C199C4201D8280070BD0348FEF77EFF38
:105A6000C416002000000420B008011001480421E1
:105A7000014B1847A00F0020614A0010014B1B6822
:105A800018470000A00F0020014B5B68184700007A
:105A9000A00F0020F0B5C64600B5437D07000D00FD
:105AA0001600002B38D0002A2EDD00216A1E9046F9
:105AB0006A5C037D4C1C00200A2A0CD0A64216D03A
:105AC00043461B5D21000D3B5A4253416A5CDBB2E9
:105AD0004C1C0A2AF2D1002BF0D1884217DB02219C
