:020000041000EA
:1000000000B5324B212058609868022188439860DF
:10001000D860186158612E4B002199600221596106
:100020000121F02299502B49196001219960352056
:1000300000F044F80222904214D00621196600F024
:1000400034F8196E01211966002018661A6600F04E
:100050002CF8196E196E196E052000F02FF8012189
:100060000842F9D1002199601B49196000215960AB
:100070001A491B48016001219960EB211966A021F2
:10008000196600F012F800219960164914480160C1
:100090000121996001BC002800D000471248134993
:1000A000086003C880F30888084703B5996A0420EC
:1000B0000142FBD001200142F8D103BD02B5186610
:1000C0001866FFF7F2FF186E186E02BD00000240BE
:1000D000000000180000070000035F00212200005C
:1000E000F4000018222000A00001001008ED00E03C
:1000F00000000000000000000000000074B24E7A12
:1001000000200420F7010010C3010010C5010010F9
:10011000C1010010C1010010C1010010C101001097
:10012000C1010010C1010010C1010010C701001081
:10013000C1010010C1010010C9010010CB01001065
:10014000CD010010CD010010CD010010CD01001037
:10015000CD010010CD010010CD010010CD01001027
:10016000CD010010CD010010CD010010CD01001017
:10017000CD010010CD010010CD010010CD01001007
:10018000CD010010CD010010CD010010CD010010F7
:10019000CD010010CD010010CD010010CD010010E7
:1001A000CD010010CD010010CD010010CD010010D7
:1001B000CD010010CD010010CD010010CD010010C7
:1001C00000BE00BE00BE00BE00BE00BEEFF3058054
:1001D000103800BEF2EB88710805011028050110E7
:1001E0003402001090A31AE700201F49086006C8D7
:1001F00081F3088810471D48006800282FD10DA4FE
:100200000ECC002902D000F012F8F9E71849194A7B
:10021000002000E001C19142FCD1174988471749ED
:1002200088471749884700BEFDE701C901C29A42C5
:10023000FBD3704728050110C0000020B016002035
:10024000181B01100000042000000420181B0110DE
:10025000001004200010042000000000704709482E
:1002600003F0DAF80047000008ED00E0000000D0DD
:10027000B0160020E84C0020CD310010D10C001049
:10028000013300105756000006005250ABB36053C4
:10029000ECF1001006005250861C0302FCF1001025
:1002A000060052505422A29D10F200100500525038
:1002B000DE65F468181B0110F8B5C046064807490A
:1002C000091A8B10C90FC91810B5491003D0044B77
:1002D000002B00D0984710BDB0160020B0160020AB
:1002E00000000000054B10B5002B03D00449054861
:1002F00000E000BFFFF7E2FF10BDC04600000000B5
:10030000704C0020C8ED0010F0B5D7B0060008A86A
:100310000300244D05AC217086CD86C308F058FD3E
:10032000070006A803002A0022CA22C308F050FDD5
:1003300005000BA806F066FD0023320003930BA90D
:10034000029401950097033312A808F051FB002294
:10035000002112A808F09AFB002806D112A808F084
:10036000E9FB002811D157B0F0BD0F4C00232A2221
:1003700000900E49200008F0A3FC01220C4B12A8AB
:100380001A7008F0D7FB0028EDD00A4C00232B226E
:1003900000900649200008F093FC0122044B1A70DB
:1003A000E1E7C046A0FA001018EE0010C8ED0010FA
:1003B000D94C002058EE0010F0B5DE4657464E46A8
:1003C0004546E0B59FB01400299A059392462A9AB3
:1003D0000491914608F0FCFC8346200008F0F8FCEC
:1003E0000700289808F0F4FC060008F07BFC5A4649
:1003F0000025002180460B9208A8082204F0D0F8BE
:10040000049A06AC584622612570A5776577656029
:1004100008F068FC0222800093460021A061227748
:1004200010A80632676304F0BBF82023E5541E339E
:10043000E554013BE554059B38002363656208F0F1
:1004400051FC3C235A4680000021E254A06306324E
:1004500018A8666504F0A4F84023E5541E33E5545B
:10046000013BE5544B4630002365656408F03AFCD7
:100470005C235A468000A06500212000E254FFF76B
:1004800043FF4346002B32DD214B00240493214BD4
:100490009B4604E0AE4231D10134A04527D05246FC
:1004A000A300D6584A46D558701BAE42F2DD03F081
:1004B00065FF194903F05CFF0028EDD0300003F020
:1004C000E1FA452303935B46060028000F000293E0
:1004D00003F0D8FA32003B0000900191049808F034
:1004E000EFFB01220D4B01341A70A045D7D11FB08C
:1004F000F0BCBB46B246A946A046F0BDA81B03F01F
:100500003DFF054903F034FF0028C5D0D6E7C046BB
:1005100090EE0010C8ED0010ACC52737D94C002074
:10052000F0B5DE4657464E464546E0B59FB014004E
:10053000299A1F009046049108F04AFC8346200047
:1005400008F046FC8246289808F042FC814608F0F4
:10055000C9FB5A460025002106000B9208A8082274
:1005600004F01EF8049A06AC584622612570A5775F
:100570006577656008F0B6FB012293462277524604
:1005800080000021A061626310A8082204F008F82E
:100590002023E5541E33E5545046013BE554656283
:1005A000276308F09FFB3C235A46E2544B468000E9
:1005B00000210732A06318A8636503F0F1FF402310
:1005C000E5541E33E554013BE5542A9B4846236518
:1005D000656408F087FB5C235A468000A065002113
:1005E0002000E254FFF790FE002E42DD244B994696
:1005F000244B9B460AE0201C03F053FE224903F0E3
:10060000B7FE00281CD10135AE4232D04246AB00C5
:10061000D4582A9A201CD758391C03F0A9FE391C3B
:100620000028E8D1201C03F085FE0028EBD1211C16
:10063000381C03F036FE144903F09AFE0028E2D07D
:10064000201C03F0F5FE452303935B4604900591BF
:10065000381C029303F0ECFE049A059B0090019174
:10066000484608F02DFB0122084B01351A70AE42B6
:10067000CCD11FB0F0BCBB46B246A946A046F0BDE7
:1006800090EE0010C8ED0010ACC52737D94C002003
:10069000F0B5DE4657464E464546E0B5A3B01500D8
:1006A00009930C002F9F08F093FB8046280008F068
:1006B0008FFB06902C9808F08BFB079008F012FB3C
:1006C0003E688346311C786803F0EBFDB44903F0C3
:1006D000EEFD8023051C1B06F018291C03F0E7FD26
:1006E00003F0E2FE03F06CFE80235B429A46BB6897
:1006F00082444046089308F0F5FA8146002831DD2F
:10070000504603F0BFF94B469B0099462F972F9B0D
:10071000A1444F4604900591C146089E984605E0C5
:100720007F20043430700136A74219D0291C20687C
:1007300003F0BDFD03F07CFE03F064FA049A059B10
:1007400003F008F903F0B6F97F28E9DC03008033F1
:10075000E7DA80200434404230700136A742E5D108
:100760004746C84643460026082200210CA80F939E
:1007700003F016FF089B0AAC404623612670A6775B
:100780006677666008F0AEFA092323775346E36084
:1007900001232370FB68A0610698A560666008933A
:1007A00008F0A0FA8146002831DD504603F06AF9CE
:1007B000089B2F9798464B469B009946099E2F9B76
:1007C0004746049005919846B14405E07F200436E1
:1007D00038700137B14519D0291C306803F067FD26
:1007E00003F026FE03F00EFA049A059B03F0B2F81C
:1007F00003F060F97F28E9DC03008033E7DA80202A
:100800000436404238700137B145E5D14746069B72
:100810000021082214A80026636303F0C1FE2022F1
:100820003E23A6549046089AE6540698013BE654A7
:100830006662226308F056FA3C230922E2545346CA
:10084000E3620123994643464946E1543B69A0636C
:100850000493079B013A00211CA866626365A562A8
:1008600003F09EFE40215E23665488460499E654B8
:100870000798013BE6546664216508F033FA5C236F
:100880000922E25453464A46E3644346A0650221E6
:100890002000E2546664A564FFF736FD3C695B46C0
:1008A000A046B9462E9E5746D844002B70DD002046
:1008B00020560134C01B03F061FD291C03F00BFD21
:1008C00001C6A045F3D14F46786803F079FD0400D6
:1008D000386803F075FD201A03F050FD304903F02D
:1008E000E6FC011C041C03F0DFFC211C051C201C81
:1008F00003F0F1FC011C281C03F0D6FC294B8046B8
:100900000493294B00249A46284BD1469A460BE083
:10091000301C03F0C6FC011C404603F013FD002808
:100920001DD10134A34533D02D9AA300D6582E9A59
:10093000301CD558291C03F01BFD291C0028E7D1C9
:10094000301C03F0F7FC0028EBD1311C281C03F00D
:10095000A8FC011C404603F0F5FC0028E1D0301C47
:1009600003F066FD792303934B460600281C0F0015
:10097000029303F05DFD32003B000090019104986A
:1009800008F09EF90123524601341370A345CBD1E0
:1009900023B0F0BCBB46B246A946A046F0BDC04657
:1009A00000007F4390EE0010C8ED0010D94C0020ED
:1009B000F0B5DE4657464E464546E0B5A3B01500B5
:1009C00009930C002F9F08F003FA8046280008F0D6
:1009D000FFF906902C9808F0FBF9079008F082F9CF
:1009E0003E688346311C786803F05BFCB44903F031
:1009F0005EFC8023051C1B06F018291C03F057FC25
:100A000003F052FD03F0DCFC80235B429A46BB6896
:100A100082444046089308F065F98146002831DD9C
:100A2000504603F02FF84B469B0099462F972F9B7B
:100A3000A1444F4604900591C146089E984605E0A2
:100A40007F20043430700136A74219D0291C206859
:100A500003F02DFC03F0ECFC03F0D4F8049A059BA2
:100A600002F078FF03F026F87F28E9DC03008033EA
:100A7000E7DA80200434404230700136A742E5D1E5
:100A80004746C84643460026082200210CA80F937B
:100A900003F086FD089B0AAC404623612670A677CA
:100AA0006677666008F01EF9092323775346E360F2
:100AB00001232370FB68A0610698A5606660089317
:100AC00008F010F98146002831DD504602F0DAFFC7
:100AD000089B2F9798464B469B009946099E2F9B53
:100AE0004746049005919846B14405E07F200436BE
:100AF00038700137B14519D0291C306803F0D7FB95
:100B000003F096FC03F07EF8049A059B02F022FFA6
:100B100002F0D0FF7F28E9DC03008033E7DA802091
:100B20000436404238700137B145E5D14746069B4F
:100B30000021082214A80026636303F031FD20225F
:100B40003E23A6549046089AE6540698013BE65484
:100B50006662226308F0C6F83C230922E254534639
:100B6000E3620123994643464946E1543B69A06349
:100B70000493079B013A00211CA866626365A56285
:100B800003F00EFD40215E23665488460499E65426
:100B90000798013BE6546664216508F0A3F85C23DE
:100BA0000922E25453464A46E3644346A0650021C5
:100BB0002000E2546664A564FFF7A6FB3C695B462F
:100BC000A046B9462E9E5746D844002B70DD002023
:100BD00020560134C01B03F0D1FB291C03F07BFB22
:100BE00001C6A045F3D14F46786803F0E9FB040045
:100BF000386803F0E5FB201A03F0C0FB304903F02E
:100C000056FB011C041C03F04FFB211C051C201C7F
:100C100003F061FB011C281C03F046FB294B8046B6
:100C20000493294B00249A46284BD1469A460BE060
:100C3000301C03F036FB011C404603F083FB002808
:100C40001DD10134A34533D02D9AA300D6582E9A36
:100C5000301CD558291C03F08BFB291C0028E7D138
:100C6000301C03F067FB0028EBD1311C281C03F07B
:100C700018FB011C404603F065FB0028E1D0301C46
:100C800003F0D6FB792303934B460600281C0F0084
:100C9000029303F0CDFB32003B00009001910498D9
:100CA00008F00EF80123524601341370A345CBD14E
:100CB00023B0F0BCBB46B246A946A046F0BDC04634
:100CC00000007F4390EE0010C8ED0010D94C0020CA
:100CD000F0B5DE4657464E464546E0B5F7B008F05B
:100CE00067F8AC4B48AE9B46AB4B5EAD9A46AB4B00
:100CF00043AF2393AA4B0893AA4B0793AA4B0B939A
:100D0000AA4B1993AA4B1193AA4B1293AA4B1A936D
:100D1000AA4B0A93AA4B1B93AA4B0993AA4B1C9369
:100D2000AA4B2293AA4B0E93AA4B1593AA4B0D9351
:100D3000AA4B1693AA4B1793AA4B0F93AA4B1D933A
:100D4000AA4B1E93AA4B1093AA4B1F93AA4B209316
:100D5000AA4B2193AA4B1893AA4B2493AA4B2593F1
:100D60005B46B346564604930024049B23981C60BC
:100D7000346007F0A5FF2300089A14702A00079C2E
:100D800023700B9B143313CB13C203CB03C23A0063
:100D90000B9B283313CB13C21B6813605A460B9B63
:100DA000383313CB13C21B6813600B9B4EAA483316
:100DB00013CB13C21B683900136056AB02934EABC2
:100DC0002A00019328005B460095FFF7A9FB012349
:100DD000089A079C13702378002B01D100F0EDFDD9
:100DE0000122049B1B68049919980B6033689B18B7
:100DF000336007F065FF00230799089A0B700B9981
:100E0000137014310B0056AA13CB13C203CB03C2C9
:100E10000B983EAA2830030013CB13C21B68136043
:100E20000B9A583213003A0013CB13C21B6813609D
:100E30000B9A683213005A4613CB13C21B6856A88C
:100E4000136007F0C5FF824656A807F0C1FF814630
:100E500056A807F0BDFF804607F044FF5146082220
:100E60000C9069610400002160A803F099FB002345
:100E70002B706B60AB776B773EAB50462B6107F006
:100E800031FF01232B774B46800000210822A86107
:100E90006B6368A803F084FB00222023EA541E330E
:100EA0006A62EA54013BEA5448462F6307F01AFF8E
:100EB0003C2301218000A863E95443460021082215
:100EC0006B6570A803F06CFB00224023EA541E33CC
:100ED0006A64EA54013BEA544EAA40462A6507F088
:100EE00001FF5C2301218000A865E954280001313D
:100EF000FFF70AFA4EAB99460023DA469846002CD3
:100F000000DC89E0049B149713964F46994611E044
:100F1000301C03F0C6F93D4903F02AFA002821D11C
:100F200001239C460333E0449C460C9BE244043777
:100F300043456DD053463C681E68211C301C03F0AD
:100F400017FA211C0028E3D1301C03F0F3F9002824
:100F5000E6D1311C201C03F0A4F92C4903F008FA57
:100F60000028DDD0301C03F063FA45230393129B65
:100F700004900591201C029303F05AFA049A059BF1
:100F800000900191119807F09BFE0122079B1A70B7
:100F9000C6E7C046E4190020E0190020D0EE00109A
:100FA000DA4C0020D94C0020A0FA0010F0EE00101E
:100FB00090EE0010C8ED001014EF001020FB0010A0
:100FC00038EF0010A0FB001058EF00107CEF00106D
:100FD00020FC0010A0EF0010A0FC0010C8EF0010D3
:100FE000F0EF001020FD001014F000103CF0001095
:100FF000A0FD00106CF0001098F0001020FE001012
:10100000C0F00010D4F00010ECF00010ACC5273791
:101010004B46139E149F04930122089B1A70079A53
:10102000049B11781B680122002901D100220133A1
:1010300004991A980B603368B1469B18336007F027
:101040003FFE0023089A5E461370079A13700B9BAD
:1010500031AA783303CB03C20A9B35AA13CB13C240
:1010600039AA13CB13C21B6813603A000A9B1C33C6
:1010700013CB13C203CB03C231AA3E9235AA3F92CF
:1010800039AA40925A460A9B4197303313CB13C278
:1010900013CB13C20A9B4EAA483313CB13C213CBF4
:1010A00013C20A9B56AA603313CB13C213CB13C2CD
:1010B0003EAB9846049B4446984601CC56AB019300
:1010C00002004EAB310002950090FFF729FA42ABC7
:1010D000A342F2D101224146089B04911A70079A5B
:1010E0000B681178B34601224E46002901D1002237
:1010F000013304991B980B6033689B18336007F029
:10110000DFFD0023089A1370079A13700A9B31AA17
:10111000783303CB03C2099B39AA13CB13C23EAA6F
:1011200013CB13C21B6813605A46099B1C3313CBA5
:1011300013C203CB03C231AA3A6039AA7A603EAA2D
:10114000BA605A46099BFA6030334EAA13CB13C2D9
:1011500013CB13C203CB03C2F84B2F93099B50331D
:1011600013CB13C213CB13C203CB03C2099B35AA03
:10117000703303CB03C2049B3C00984601CC56ABB2
:10118000019302952FAB009035AA4EA9FFF7C8F93D
:1011900047ABA342F2D101224146089B04911A7049
:1011A000079A0B6811780122002901D1002201332E
:1011B00004991C980B6033689B18336007F080FD1E
:1011C00000220799089B0A701A705A46099B7833C7
:1011D00013CB13C213CB13C2099B4EAA303313CBCC
:1011E00013C213CB13C203CB03C2D44B3E93099B50
:1011F000503313CB13C213CB13C203CB03C23A0039
:10120000099B703303CB03C256AA01925A464EA8DB
:1012100000923EAA130001003A0058460295FFF7DB
:101220007FF90122089B07991A700B78002B00D0D8
:10123000CDE30022049B1B680133049922980B60C4
:1012400033689B18336007F03BFD00220799089B29
:101250000A701A700B9A1432130056AA13CB13C2D9
:1012600003CB03C20E9B3EAA103313CB13C21B68E1
:1012700013603A000E9B203313CB13C21B6813601C
:101280005A460E9B303313CB13C21B683EA8136023
:10129000AB4B35AA2B60FE23AA6039AAEA6031AABB
:1012A0002A619B054EAA6B6002925A46019256AA89
:1012B00001003B00100000920395FFF779FB01222B
:1012C000089B07991A700B78002B00D07BE3002253
:1012D000049B1B680133049915980B6033689B18B5
:1012E000336007F0EDFC00220799089B0A701A7022
:1012F0000B9A1432130056AA13CB13C203CB03C2AA
:101300000E9B31AA403313CB13C21B6813600E9B94
:1013100035AA503313CB13C21B6813600E9B39AA36
:10132000603313CB13C21B6831A81360844B2DAA02
:101330002B60FE23AA602FAAEA602BAA2A619B05D4
:101340003EAA6B60029239AA019256AA009235AA6F
:10135000130056AA010003951000FFF799F93A000F
:101360000E9B703313CB13C21B6813605B460D9A40
:1013700013CA13C312681A600D9B4EAA103313CB05
:1013800013C21B68390013603EAA02924EAA019252
:1013900056AA5B46100000920395FFF779F90122E7
:1013A000089B07991A700B78002B00D001E30022EC
:1013B000049B1B680133049916980B603368B1468F
:1013C0009B18336007F07CFC0023089A5E4613707C
:1013D000079A13700B9B2FAA783303CB03C20A9B87
:1013E00013CB13C235AA13CB13C21B6813600A9B1D
:1013F0003EAA1C3313CB13C203CB03C25A462FABF6
:10140000399331AB3A9335AB3B933EAB3C930D9B59
:10141000203313CB13C213CB13C20D9B4EAA383308
:1014200013CB13C213CB13C20D9B56AA503313CB4D
:1014300013C213CB13C2434B3B60434B7B602BABBC
:10144000BB602DABFB6029AB3B6139AB9846049B7D
:101450004446984601CC56AB019302004EAB310096
:10146000039702950090FFF7A3FA3DABA342F1D199
:1014700001224146089B04911A70079A0B68117863
:10148000B34601224E46002901D1002201330499BE
:1014900017980B6033689B18336007F011FC00232A
:1014A000089A1370079A13700A9B27AA783303CB04
:1014B00003C2099B31AA13CB13C235AA13CB13C2A3
:1014C0001B6813600D9A6832130039AA13CB13C23C
:1014D00003CB03C25A46099B783313CB13C213CBF9
:1014E00013C227A93E9131A90D9A3F9135A9409188
:1014F00039A941917C325946130042914EAA13CB2F
:1015000013C213CB13C203CB03C20F9A0F4B1C326F
:101510002693130056AA13CB13C213CB13C203CBCB
:1015200003C2084B2BAA3B60074BBA607B602DAA15
:10153000099BFA6029AA3A61703309E0CDCCCC3D11
:10154000000080BF000040C0000040403333333F04
:101550002FAA03CB03C23EAB9846049B4446984651
:1015600043AF01CC56AB019303970295009026AB95
:101570002FAA4EA9FFF71CFAA742F2D10122414639
:10158000089B04911A70079A0B68117801220029B0
:1015900001D10022013304991D980B6033689B1818
:1015A000336007F08DFB00220799089B0A701A70C0
:1015B0000B9A143213002A0013CB13C203CB03C2BD
:1015C0003A000F9B3C3313CB13C21B6813605A467F
:1015D0000F9B4C3313CB13C21B6813600F9B4EAA97
:1015E0005C3313CB13C21B683900136056AA0292F6
:1015F0004EAA5B46019228002A000095FEF7DCFE09
:101600000122089B07991A700B78002B00D0CCE1BF
:101610000022049B1B68013304991E980B603368F9
:101620009B18336007F04CFB00230799089A0B7056
:101630000B99137014310B0056AA13CB13C203CBB2
:1016400003C20F993EAA6C310B0013CB13C21B6867
:1016500013600F993A007C310B0013CB13C21B6847
:10166000136010995A460C310B0013CB13C21B6840
:1016700056A8136007F0ACFB824656A807F0A8FBFB
:10168000814656A807F0A4FB804607F02BFB514685
:1016900008220C9069610400002160A802F080FF1C
:1016A00000232B706B60AB776B773EAB50462B61A2
:1016B00007F018FB02239A462B774B4680006B639A
:1016C00068AB00210822A861180002F069FF00221F
:1016D0002023EA541E336A62EA54013BEA54484626
:1016E0002F6307F0FFFA51463C238000A863E954BA
:1016F00043466B6570AB00210822180002F050FFD2
:1017000000224023EA541E336A64EA54013BEA543F
:101710004EAB40462B6507F0E5FA5C23524680004D
:10172000A8650221EA542800FEF7EEFD4EAB99466B
:101730000023DA469846002C40DD049B149713964C
:10174000474698460AE0A64200D024E104239C467E
:101750000C9B0137E244E144BB422BD053461E6848
:101760004B461C68301BA642EDDD02F007FE9C498B
:1017700002F0FEFD0028E9D0300002F083F9452395
:101780000393129B049005912000029302F07AF9D2
:10179000049A059B00900191119807F091FA01229B
:1017A000079B01371A7004239C460C9BE244E144DA
:1017B000BB42D3D14346139E149F04930122089B3E
:1017C0001A70079A049B11781B680122002901D125
:1017D0000022013304991F980B603368B1469B18AF
:1017E000336007F06DFA0023089A5E461370079A7B
:1017F00013700B9B31AA783303CB03C20A9B35AA23
:1018000013CB13C239AA13CB13C21B6813603A005F
:101810000A9B1C3313CB13C203CB03C25A4631AB12
:101820003E9335AB3F9339AB4093109B41971C33AC
:1018300013CB13C213CB13C2109B4EAA343313CB5A
:1018400013C213CB13C2109B56AA4C3313CB13C233
:1018500013CB13C23EAB9846049B4446984601CC3A
:1018600056AB019302004EAB310002950090FEF79B
:10187000A3FD42AB9C42F2D101224146089B049158
:101880001A70079A0B681178B34601224E46002958
:1018900001D100220133049920980B603368B146CE
:1018A0009B18336007F00CFA0023089A1370079A0C
:1018B00013700A9B2FAA783303CB03C2099B35AA66
:1018C00013CB13C239AA13CB13C21B6813600D9A32
:1018D000683213003EAA13CB13C203CB03C25A468D
:1018E000099B783313CB13C213CB13C22FAA439295
:1018F00035AA7A6039AABA603EAAFA605A463A61B5
:10190000109A643213004EAA13CB13C213CB13C226
:1019100003CB03C20323219A2D93131D56AA13CB85
:1019200013C213CB13C203CB03C2099B31AA70337A
:1019300003CB03C248AB9B46049B3C005E469846E3
:1019400001CC56AB0193029500902DAB31AA4EA964
:10195000FEF732FDA642F3D101224146089BB34671
:101960001A70079B04911B784E460968002B01D121
:1019700000220131049B189819603368D218326034
:10198000521807F09DF93368002B24D1249807F0F2
:1019900097F9FFF7E9F9A01B02F0F0FC104902F0FB
:1019A000E7FC002800D1D1E6E6E6049B01221B6893
:1019B00032E6049B01221B68FDE4049B00221B68A5
:1019C0000133FFF710FA049B01221B6883E4049B98
:1019D00001221B6831E4259807F072F9FFF7C4F97A
:1019E000ACC52737024B18688007C00F7047C04648
:1019F00000C0064070B5EFF3108C72B60D4D2B6829
:101A0000002BFCD0BFF35F8F0724CB08C618C05C47
:101A100001230C40A3401C000440034207D118439B
:101A20003070BFF35F8F2C608CF3108870BD100096
:101A300001F086FC2C0100D0F8B54746CE4688461A
:101A400080B5EFF3108C72B6214D2C68002CFCD0C1
:101A5000BFF35F8F9A422CD8D4080727055D06197B
:101A600001241740BC402C421FD007210127894682
:101A700009E0D408055D06194C4639001440A14020
:101A80000C00294211D001329342F2D2012040428F
:101A9000BFF35F8F00220E4B1A608CF31088002872
:101AA0000FDBC0BCB946B046F8BD25431000357009
:101AB000EEE7BFF35F8F00232B608CF310880120CB
:101AC00040424346002BECD0089801F039FCC04658
:101AD0002C0100D00021044B044ABFF35F8F02C3E6
:101AE0009342FAD17047C046000100D0800100D077
:101AF000044A1078431CDBB2172B00D91023137053
:101B00007047C046D00E002010B5064B064C82B080
:101B10000100009318221F232000FFF78DFF02B061
:101B200010BDC04608F10010E047002001238340AB
:101B3000002904D0034A1360034A13607047034A24
:101B40001360FBE780E200E000E100E080E100E0FC
:101B500001238340014A13607047C04600E200E061
:101B6000084B10309B688000C358002B07D0064AF2
:101B700000209B1A2F229A424041C0B27047002099
:101B8000FCE7C04600ED00E0D40E0020024B103010
:101B90009B688000C058704700ED00E070B50D00F4
:101BA000EFF3108672B60F4A1368002BFCD0BFF318
:101BB0005F8F0D4B10309B6884001B590B4A93427A
:101BC00003D09D4201D001F0D3FB074B9B681D5110
:101BD000BFF35F8FBFF35F8F0022024B1A6086F363
:101BE000108870BD240100D000ED00E0CD01001090
:101BF000F0B557464E46DE464546E0B585B0060090
:101C000000911700EFF3108B72B66A4A1368002B2D
:101C1000FCD0BFF35F8F0025674B5D579A46002DC0
:101C200000DAA9E06B00654C01935B199B009846B4
:101C3000A146C1444B4652469B7910361370604B07
:101C4000B6009B6899590B1B2F2B33D95D4B9942DA
:101C500000D0ACE0019B42469C465B4B6544AD0026
:101C600063535A4B0232A218043B9B1A1B05584A75
:101C70005B0D651913436B80564B0121AB80FF232D
:101C8000AB71009BEF71AB604B460B4319004C4BA3
:101C90009B689951BFF35F8FBFF35F8F0022454B65
:101CA0001A608BF3108805B0F0BCBB46B246A9465B
:101CB000A046F0BD01200A008243D3798C46BB4286
:101CC00031D84546130044491B1B5B415943090D5C
:101CD0003D4B63533D4B02356519043B5B1B1B05B4
:101CE0003B4D5B0D2B43AA464D466B800425AC460D
:101CF0005546E044131F44441B1B1B055B0D1D434D
:101D00004B46997100999D8099604946DF71334B2C
:101D100001431360BBE75800C01880002018C17948
:101D2000B9422FD902000623D356002BF3DA0293CF
:101D30002B4B61460393131D9A4604235B429C463A
:101D4000E14450464B461B1A1B055B0D9C46204B3D
:101D5000957198466346404603439380019B5A1908
:101D60009200039BA418A380029B1C4AA371009BB2
:101D70002260E771A3608AE701F0FAFA0025534672
:101D80005D574FE7908802934005131D9A4603154F
:101D900061469C464046D444634604302018181AD5
:101DA000E0230005400D1B0218430390C5E701F036
:101DB000DFFA4FE7240100D0DF4C0020D40E0020D2
:101DC00000ED00E0CD01001000A1FFFF040F002096
:101DD00000E0FFFF01BDFFFFAAAA00000148804705
:101DE00001BD0000F0B5DE4657464E464546E0B51B
:101DF0000C0083B0EFF3108872B65D4A1368002BB5
:101E0000FCD0BFF35F8F5B4B5B499A6803001033D4
:101E10009F00D5598D4239D0A5424AD0574EAA1BB2
:101E20002F2A33D801229246824091464846544A8E
:101E30001268104001904846524A1060BFF35F8F0D
:101E4000EFF305829346002A35D0934201D001F08A
:101E50008FFA2A0053469A439068844208D175E06D
:101E60004B005B189B00F3189868A04234D01A000E
:101E7000062151560029F3DA844253D0019B002BEE
:101E800026D04A46404B1A603D4B1A60394B9B683E
:101E9000DD51BFF35F8FBFF35F8F0022344B1A60B9
:101EA00088F3108803B0F0BCBB46B246A946A046F2
:101EB000F0BD0D00EAE72A0053469A439068844239
:101EC000D6D1062010561300002809DA0D0031E0A3
:101ED0004A462C4B1A60D9E706201856002822DB08
:101EE00042001118890074188A46A1689960E17946
:101EF000D971062161569971002925DBA488F11A50
:101F00006405241554440919E0240905490D2402E7
:101F10002143998013181D4A9B001178F318997179
:101F20001070ABE713005946002914D1FF319171AD
:101F30001749918015490A789A71164A9B1B5B4193
:101F40005A43120D0A7099E71349E2E7062010562A
:101F500013000028C4DA114A1149D21A083A500273
:101F6000400D014399800F4952080A43DA8085E702
:101F7000240100D000ED00E0CD010010D40E0020BF
:101F800000E100E080E100E080E200E0DF4C0020C2
:101F900001BDFFFFAAAA000001BD00000E0F002036
:101FA00000F0FFFF00F8FFFF70B5EFF3058101249B
:101FB0000443EFF3108C72B6214A1368002BFCD057
:101FC000BFF35F8F1F4B05001F4AED1A6D416A4337
:101FD000120D1E4D8900AE6852B27658A6421CD032
:101FE0000621595691421CD012215956914222D0B5
:101FF0001E215956914220D02A215956032491423C
:1020000010D0134B19781A708171BFF35F8F0022C3
:102010000B4B1A608CF3108870BDAB680D4C5C5094
:10202000EFE700246100091989005B18FF2199710D
:1020300009499980E5E70124F4E70224F2E7C04664
:10204000240100D0D40E0020AAAA000000ED00E078
:10205000DF4C0020CD01001001BDFFFF054B064AFB
:102060001360064A136053609360D3601361536139
:10207000936170478080808000E400E004E400E029
:1020800010B5084B084C82B00100009300220523D4
:102090002000FFF7D1FC002801DB1F23181A02B033
:1020A00010BDC04624F10010E44C0020024B9C46B9
:1020B00061448900016070474000003410B504009D
:1020C000FFF716FD01002000FFF7F0FFFF2323714B
:1020D000BFF35F8F10BDC04610B50400FFF708FDC9
:1020E00001002000FFF7E2FFFF23A380BFF35F8F13
:1020F00010BDC04610B504000120FFF705FD034BDD
:10210000C3189B002360BFF35F8F10BD40000034F5
:10211000034B9C46614489000160BFF35F8F7047A9
:102120004000003483680B4810B584466144624423
:102130001201090159189B185C684A6801209442F1
:1021400001D802D00020C0B210BD1A680B689A42B4
:10215000F9D8F7E7FFFFFF0F0A4B1968EFF310807C
:1021600072B60A68002AFCD0BFF35F8F1B68BFF30A
:102170005F8F00221A6080F3108840BF002000218A
:102180007047C046AC4C0020F8B5574645464E4611
:10219000DE46E0B598460CAB1C780DAB1B7807000B
:1021A00091469A460568002C59D1AC7B002C3BD057
:1021B000660029683619033E89194B78AB73002BEA
:1021C00000D1EB7300238B704B700B702D4BE2181A
:1021D000BB6812019B184A461A6042465A600A9A26
:1021E0009A600B9ADA6000238B704B700B706B7BDC
:1021F0009B46002B26D022006B685946A86898475A
:102200005B465B005B442A68033B002812D05846BB
:102210009619B070D118D35C002B00D073705B4658
:102220000C706B735C450ED0F0BCBB46B246A94641
:10223000A046F8BDD3189C709119925D002A1CD15C
:102240005B460B706C734A464346387D00F04AFB90
:10225000051E0AD10E9B002BE6D01D70E4E7660038
:1022600029683619033E8919B0E75346002BF1D18E
:102270002100386800F04EFDECE75A705B460B70A9
:102280006C73E0E7FFFFFF0FF0B5DE4657464E46A2
:1022900045460023E0B58BB00893684B8200D458C4
:1022A00000239B46099000F099FA02000B00606839
:1022B000EFF3108A72B6564601680029FCD0B24688
:1022C000BFF35F8F21684F7B8C46002F2ED0A5680F
:1022D0005B49A94679180901894449460868496853
:1022E00005000E00AD1A9E41002E5FDD02000B00BE
:1022F000099800F0F7FA002300229946002306927D
:102300000793002398466368BFF35F8F5A461A60AD
:102310008AF310884346002B12D10028C3D10BB09A
:10232000F0BCBB46B246A946A046F0BD0023002241
:102330009946002306920793002300209846E2E77F
:10234000089B494618023843C047626805000E00E2
:10235000EFF3108A72B61368002BFCD0BFF35F8FC7
:10236000002E41DB2B00334302D02369002B56D1D2
:102370002368D97B002905D01A68480041185218F3
:10238000033A57709A7B002A00D19F73DF73E2688B
:10239000013FD35D0133D3555B4623616368BFF3CF
:1023A0005F8F5A461A608AF310887CE7002E02D1AC
:1023B000002D00D09AE70021604600F029FC4B4632
:1023C0001A685B68069207934B469B6898464B4693
:1023D000DB689946E368DB19013B1B7808931B0215
:1023E0000343236100208EE72369002BC0D0069AA7
:1023F000079B8021521BB34109068B4202D3012265
:10240000104B524200210491013103914946019140
:102410004146200002970091FFF7B6FEBCE700F0AE
:10242000DDF92A00330012184B41802109068B4246
:10243000E8D30122034B5242E4E7C046904C00200F
:10244000FFFFFF0FFFFFFF7F10B5144C6368002BE9
:1024500004D00A211248FFF729FE10BD2300114ABB
:102460001021206800F0F0FA032000F0ABF90320FF
:1024700000F0A0FA03200C4900F0EEF9FFF738FB5A
:102480000A4B9C4603232375D0231B061B6860441C
:102490006375074B80006060DC60DAE71C0F00208A
:1024A000AC4C00202521001089220010400000348F
:1024B000904C0020004870471C0F0020F0B5574694
:1024C0004E464546DE46E0B585B0019310AB1B781D
:1024D0000600039300239A46984600927268EFF331
:1024E000108B72B61368002BFCD0BFF35F8F35687A
:1024F000AC7B002C00D16EE067002B683F19033FD6
:10250000DB195A78AA73002A00D1EA73484AA11845
:10251000B2680901521800980199106051600E9933
:1025200091600F99D16042469A705A701A706B7B15
:102530009946002B00D16BE022006B684946A868E1
:1025400098474B465B004B442A68033B002856D013
:102550004846D719B870D118D35C002B00D07B70D7
:102560004B460C706B734C4553D0F3681B19013B01
:1025700018787368BFF35F8F42461A608BF3108838
:102580005346002B08D10002204305B0F0BCBB46E7
:10259000B246A946A046F0BD039B002B46D00E9B39
:1025A00000200F99984703000B433FD004000D1EF5
:1025B0001ADA009A019B121BAB4100920193802210
:1025C0001206934204D301231A4C5B4200930194F8
:1025D000039B9A4682E77368BFF35F8F1C608BF39F
:1025E000108801204042D0E700F0F8F8802200195E
:1025F00069411206009001919142E9D3E3E7D318B3
:102600009C70D119D25D002A00D05A704B460B70D5
:102610006C73307D009A019B00F064F982460028BB
:10262000A3D02100306800F075FB9EE70020ACE7E6
:10263000FFFFFF0FFFFFFF7F407D7047F0B5EFF317
:102640000583CE46474680B505000C0085B0002BBB
:1026500012D02A4A0020536AA34203D3926A01305F
:10266000AA4204D305B0C0BCB946B046F0BD1B1B9E
:102670005A1E9341D8B2F5E7214E02930193214BA4
:102680000200009330000B00FFF718FF031EE0DD8F
:1026900020BF7168EFF3108772B60A68002AFCD079
:1026A000BFF35F8FDAB29446FF2230681A40417B55
:1026B00061450FD0016889465100884649469044DB
:1026C000414403398978002904D13269934209D100
:1026D000316107E0F1681B0A8A18013A1278DBB20F
:1026E0009A4207D07368BFF35F8F00221A6087F3A6
:1026F0001088AEE7614600F00DFBF3E700400540AF
:102700001C0F002059210010F0B5EFF30582D646CA
:102710004F4646461000C0B51038EFF3108872B629
:10272000214C2368002BFCD0BFF35F8F01231900DD
:1027300081401E4D1F006963AA461D4D29601D4D35
:102740002E78AC463500C5402F402B4215D053465D
:102750005F6A194B8500EB589F4218D36246174BAE
:102760008E43EB581670BFF35F8F0022226088F310
:102770001088002B06D0984704E0BFF35F8F2760D6
:1027800088F31088E0BCBA46B146A846F0BD0C4BB1
:1027900092009C46624413681360BFF35F8F00236E
:1027A000236088F31088EDE7280100D00040054041
:1027B0003C700540E34C0020B84C0020C846002087
:1027C000D03F054010B5034B01001800024AFFF747
:1027D00011F910BDDE4C002040F10010034B596A86
:1027E0000A00986A596A8A42FAD170470040054047
:1027F00070B504000D00174A536A1900966A536AAF
:102800008B42FAD13000190024184D41AB4216D842
:1028100013D0104B2A005B6A9D4203D90D494B6AC5
:102820009342FCD3934207D10A4A02E0516A99428B
:1028300002D1916AA142F9D370BDA642E9D9054BF4
:102840005B6A1C005A1CEFD0012201246442E51788
:102850005242E3E70040054070B504000D00EFF37D
:10286000108672B61A4A1368002BFCD0BFF35F8F34
:10287000002D1BD02000FFF789F9164981420AD0AC
:102880002000FFF78BF901212000FFF74FF901230A
:10289000A340114A1360114BA400E550BFF35F8FB2
:1028A00000220B4B1A6086F3108870BD0121A140F5
:1028B0000A4BA200D5500A4B20001A788A430549DA
:1028C0001A70FFF78FFA00212000FFF72FF9E5E7D4
:1028D000280100D00927001038600540C8460020B4
:1028E000E34C0020F0B54F46D6464646C0B507003B
:1028F0002B4C616A0D00A66A616AA942FAD18B422B
:1029000008D805D00120E0BCBA46B146A846F0BDC3
:10291000B242F7D9EFF3108A72B622480168002953
:10292000FCD0BFF35F8F0125BD401F491C4C88467A
:10293000097889462943C9B28C46414660460870E9
:10294000391D890065630A511849B8004350216A4E
:102950000020294219D0616A0800A66A616A814292
:10296000FAD18B4219D801D1B24216D8CC450BD03E
:102970000B4B1F221D625D6301233A4093400C4ABA
:10298000136043464A461A700120BFF35F8F00224E
:10299000044B1A608AF31088B5E70020F5E7C046BB
:1029A00000400540280100D0E34C0020B84C002036
:1029B00080E200E0EFF3108C72B60A490B68002B3E
:1029C000FCD0BFF35F8F01238340074A074813629F
:1029D00002789A430270BFF35F8F00230B608CF381
:1029E00010887047280100D000400540E34C0020CB
:1029F00070B506000D00140000291DD0002A12D069
:102A000073688068984762006B0012195B1931681F
:102A1000033A033B002808D08A189570C818CB5C8D
:102A2000002B0BD10470280070BDCB189C70881847
:102A30008A5C002A05D105702000F5E75370047008
:102A4000F1E75A700570F7E710B583600023CCB248
:102A500043730133426004738373C4730068421C80
:102A6000012C05D90133DBB2137003329C42F9D13A
:102A7000FF230B405A00D318C018002303384370BB
:102A800010BDC04670B505000C1E07D0630001687C
:102A90001B19033BCB185A78002A01D1200070BDC6
:102AA000500080180338091800204E784870210023
:102AB00058702800FFF79CFF310004002800FFF742
:102AC000E1FF0600002C20D00028E7D032002100D2
:102AD0006B68A86898477200630092191B192968EF
:102AE000033A033B002808D08A189470C818CB5CBE
:102AF000002B00D053700670D0E7CB189E7088185A
:102B00008A5C002A00D05A7004703400C6E7C046C0
:102B1000F0B557464546DE464E46E0B50D006F001F
:102B200001687F19033F0400C85D83B00192CA1990
:102B3000002850D043001B18033BCB185E78B446E6
:102B4000002E1AD1019E002E42D0E67B002E04D02A
:102B500073009B19CB18033B5D70A37B002B00D146
:102B6000A573E57300282FD10023537003B0F0BC88
:102B7000BB46B246A946A046F0BD72006244033A85
:102B80008A18517888460021517089465970320060
:102B900001002000FFF72CFF43468246002B07D0A0
:102BA0005B0021684344033BCB185A78002A16D1B6
:102BB000424651462000FFF71BFF2168019BCA19BE
:102BC000002BC2D10028CFD043001B18033BCB18E9
:102BD00000219970C8E7019B002BB6D1C4E75000D3
:102BE000801803380918487883464846487058705A
:102BF00041462000FFF7FCFE594680462000FFF7C3
:102C000041FF414602002000FFF7F2FE8046CFE779
:102C1000F0B557464546DE464E46E0B583B00191D5
:102C2000457B04006F0000687F19033FC15DC21936
:102C3000002952D04B005B18033BC3185E78B446A2
:102C4000002E1CD1019E002E44D0E67B002E04D025
:102C500073009B19C318033B5D70A37B002B00D14D
:102C6000A573E573002931D10023280053706173E7
:102C700003B0F0BCBB46B246A946A046F0BD720008
:102C80006244033A82185078804600205070814692
:102C9000587032002000FFF7ABFE43468246002BFF
:102CA00007D05B0021684344033BCB185A78002AC5
:102CB00017D1424651462000FFF79AFE019B0100C2
:102CC0002068C219002BC0D10029CDD04B005B1861
:102CD000033BC31800209870C6E7019B002BB4D1BA
:102CE000C2E75000801803380918487883464846E0
:102CF0004870587041462000FFF77AFE59468046DA
:102D00002000FFF7BFFE414602002000FFF770FEE3
:102D10008046CEE770B5050000292CD0437B8B425E
:102D20002ED04C0000686418033C0419A278002AD5
:102D300021D053009B18033BC25CC6188A4202D1C3
:102D40001BE0002A08D053009B18033BC3185A7895
:102D50008A42F6D162785A70002301222800A370BB
:102D60006370FFF7D5FE697B02002800FFF740FE85
:102D70006873012000E0002070BD63783370EBE7DA
:102D800001221900FFF7C4FEF2E7C04610B50C207F
:102D900082B000F0B1F9FEF725FE002810D08B4B71
:102DA0008B488B498B4A186059609860D9601861CC
:102DB00059619861D961186259625A6202B010BDB6
:102DC000854CA06700F0EEF90122844B1A60636C19
:102DD000012BFCD10322824B1A607F4A936B012B9B
:102DE000FCD1013301217F4A7F480093043300F076
:102DF00031F905237D4A009301217D4800F02AF92D
:102E00007C4B5A68FF2A02D8802252005A608022E6
:102E1000734B6E4C12011A602169002907D060695A
:102E200000F054FB013043001B18033BFDD2E022AD
:102E3000704B714819680A400260022219685140BB
:102E400001320A40042102609A681142FCD08021BC
:102E50006A4A09011160802252005A60684B23615E
:102E6000684B5968FF2900D85A60032201215B4B47
:102E70001A60644A93681942FCD0E023106803404A
:102E800061480360126803234A40022113405D4AEF
:102E9000036093681942FCD080215C4B09011960E2
:102EA00080215B4B4900516063615A4B5A68FF2A8D
:102EB00000D859608022584B12011A60E16900293C
:102EC00007D0606900F002FB013043001B18033B90
:102ED000FDD2E0234F4A11680B4050490B6080211E
:102EE0004F4B090119608021394B49005160E36162
:102EF0004C4B5A68FF2A00D8596080224A4B120175
:102F00001A60216A002907D0606900F0DFFA0130F9
:102F100043001B18033BFDD2E023424A11680B40DB
:102F200042490B608021424B0901196080235B00FC
:102F300053608022264BD20223623E4B5968914255
:102F400000D25A6080223C4B12011A60616A00294B
:102F500007D0606900F0BAFA013043001B18033B48
:102F6000FDD2E023334A11680B4034490B608021C5
:102F7000334B090119608023DB025360154B6362F8
:102F8000304B5A68FF2A02D8802252005A608022B1
:102F90002D4B12011A60A169002907D0606900F069
:102FA00095FA013043001B18033BFDD2E023254A6C
:102FB00011680B4025490B608021254B09011960E0
:102FC00080235B005360124BA361F7E6B01600202C
:102FD000006CDC021BB70000008000403CB00040E9
:102FE00030B00040002F685900800240008C8647B6
:102FF00000C00240308000403090004030A00040CF
:10300000001BB7003C8000403C9000403CA00040CA
:10301000405973075480004054B000405490004021
:1030200054A000406080004060B0004060900040CC
:1030300060A000406C8000406CB000406C9000408C
:103040006CA000404880004048B0004048900040DC
:1030500048A00040F8B5040022481E0017000D00EB
:1030600000F034FA0100380000F030FA069B360414
:103070001B031E432368002B22DB1B4B1B49E31859
:103080005A1E93418022920194465B421B0B184AC0
:103090001B0363441360174A13601F008A68974339
:1030A000FBD1C022231D92011A4321232560A06079
:1030B00013602368002BFCDA0823E6601360F8BD78
:1030C0003F2322681340AB42D7D1A3681B051B0DD9
:1030D0008342D2D1EE22E368D2021340B342CCD174
:1030E000EDE7C046001BB7000040FDBF00C0004038
:1030F00000E0004000F000408023024A9B000343B0
:10310000D36270470080054010B580241C4BE40555
:103110001C6000281AD001231A4C18431A4BDC619A
:103120001A4C44401C62596298628021144BC905B4
:103130001960174817490860E021C9041960002A7E
:1031400007D18022144B12061A6010BD0E4BD861B5
:10315000EBE753019B1A9B009A18802312015B0432
:103160009A4209D213000D490B60074B5A60802226
:10317000094BD2051A60E8E7094B1A00F3E7C0468D
:1031800000B00540D3C007B0008005402D3FF84F88
:10319000FCFF01000820014000A00540684C002011
:1031A000FFFFFF00AA23064A1B0113602F230549D6
:1031B000D360054B19605368002BFCDA7047C0469A
:1031C0000040024000B0FA00006002402C4B2D4A43
:1031D00070B51A602C4A2D4B2D491A6014008B686B
:1031E0009C43FBD12B4D2C4EB54208D2013E761BA1
:1031F000B60808CD984723000134B342F9D1FFF750
:10320000C5FD264A214B1A60214A9368DB43DB0146
:10321000DD09002BF9D14022214B224C224E9A6726
:103220005A671A67DA66B44208D223682000002B76
:1032300020D00834FEF750FFB442F6D31B4C1C4E8E
:10324000C022B168200001F0B1F9B460FEF742FC81
:10325000FEF704FFFFF7F8F8164C174EB44208D2F9
:10326000013E361BB60808CC98472B0001359E421C
:10327000F9D170BD0834FEF721FFB442D5D3DDE7A4
:1032800000E00040BFCDFBFEFE7F3C0000F00040B0
:1032900000C0004094160020A4160020FFFFFF018C
:1032A00000F0014084160020941600200000002049
:1032B00000ED00E0A4160020B016002000BEFDE7DF
:1032C000094A03001068002805D00849C3188B423A
:1032D00007D81360704706480449C31810608B4232
:1032E000F7D901204042F5E75C48002000000420A7
:1032F000E84C002000207047012040427047C04643
:1033000010B5FFF7DBFFC04630B50D0083B01900E4
:10331000002A0BD0074B084C0192009302002B00AF
:10332000200000F033F80120FFF7C8FF034B1A001C
:10333000F1E7C04664F1001074F1001004F10010D0
:103340000FB400B5084883B001F0CCF9049B002B02
:1033500007D005A91800019100F038F8034801F0E2
:10336000C1F90120FFF7AAFFA4F10010B4F1001089
:1033700010B50148FFF7E4FFB8F1001010B50028C0
:1033800000D110BD01F062F9FBE7C0460FB430B5C3
:103390000C4985B008AA08CA0D680392002D0CD00C
:1033A00000920122084C5242200002A9A8470120A5
:1033B00005B030BC08BC04B01847180001F092F901
:1033C0000020F5E7644C00207D33001010B5094A59
:1033D0000300146884B0002C08D001220091064834
:1033E000524203A9A047012004B010BD01F07AF9B0
:1033F0000020F9E7644C00207D33001001480421CF
:10340000014B1847500F002039340010014B5B6806
:1034100018470000500F0020142310B50100188831
:1034200004331B88984710BD162310B50100188877
:1034300002331B88984710BDF8B54746CE4680B585
:103440000F1E19D0142399460433040000250126C9
:1034500098464B461888434621681B88984701C404
:10346000431E9841013540420640AF42F1D1300041
:10347000C0BCB946B046F8BD0126F8E7124A936FC2
:103480009B0815D29066D166002905D0FFE7FFE7BB
:10349000FFE7516F106F704704B580210906C2170E
:1034A0005140002800D0C8430BF036FC002104BD79
:1034B000F0B5146E556E576F166FFFF7E3FF146685
:1034C000556657671667F0BD000000D0114A936F2C
:1034D0009B0813D210665166002905D0FFE7FFE76D
:1034E000FFE7516F106F704704B5002801D000202E
:1034F000C0430BF011FC002104BDC046F0B5146EB2
:10350000556E576F166FFFF7E5FF146655665767E0
:103510001667F0BD000000D094464A4A926F9208A8
:10352000624601D228E0C046F0B5464E346E756E54
:10353000776F366F00F020F89446424A146655665D
:10354000576716676246F0BD94463E4A926F9208EE
:10355000624601D254E0C046F0B53A4E346E756E04
:10356000776F366F00F04CF89446364A146655660D
:10357000576716676246F0BD002B24DB11D0002987
:103580003EDA00B5C943404200D1013100F038F8BD
:10359000C943404200D10131DB43524200D10133E3
:1035A00000BD002AEBD1002801D1002905D0002060
:1035B000C90FC90701D1C043410800B50BF09CFBFE
:1035C0000022002300BD00B500290ADBDB43524284
:1035D00000D1013300F014F8C943404200D1013159
:1035E00000BDC943404200D10131DB43524200D10A
:1035F000013300F005F8DB43524200D1013300BD36
:10360000002923D1002B18D1002A0CD0BC460D4F25
:1036100038667A6600210023FFE7FFE7FFE77A6F4D
:10362000386F67467047002801D00748010000B591
:103630000BF062FB0022002300BD02000B00002003
:1036400000217047000000D0FFFFFFFF002B00D0DB
:10365000BFE0130C28D1002AE7D080B4114F39669F
:103660007A66FFE7FFE730B4040C7B6F396F1B0409
:1036700023433B667A66FFE7FFE7FFE7C04684B275
:103680007B6F3D6F1B0423433B667A66FFE7FFE7D2
:10369000C04600232C042D0C7A6F386F0019694145
:1036A000B0BC7047000000D0F0B594460025140E61
:1036B00001D112020835140F01D112010435940F03
:1036C00001D192000235D40F01D152000135D40B43
:1036D0000134254F7C66254C3C660E0C93B2FFE707
:1036E000FFE7FFE73C6F6643360C7703BE46734344
:1036F000DF0B5B04C01AB941130C7343DB18C91A02
:10370000CE086643360CB64493B273431F0F1B01B9
:10371000C01AB941130C73431F0B1B05C01AB941E2
:10372000860D8F023E436643360C092D24DB520A78
:103730007243801A7703460A6643360C16235B1BD6
:10374000DE40DF40BF1964466643821B7046043585
:1037500006330100D940A840C01900D30131A2426C
:1037600006D20023F0BD0000000000D0FFFFFFFFE5
:10377000121B0130F3D3F1E709277F1BFE4064469B
:10378000A2B27243801A00D20139220C7243130C88
:103790001204821A99410B00704604351337010058
:1037A000F940A840801900D30131002B02D1A24278
:1037B0000AD2F0BD013000D30131121BFAD2013B15
:1037C000F8D1A24200D2F0BD013000D30131121B6A
:1037D000F7E7F0B51C0C00D080E00CB400251C0A03
:1037E00004D11B02160E3343120208351C0B04D100
:1037F0001B01160F3343120104359C0B04D19B00AF
:10380000960F334392000235DC0B02D192185B41D4
:1038100001351C00971864410134464F7C66464CC4
:103820003C660E0CFFE7FFE7FFE7C0463C6F6643D0
:10383000360C7703BE4697B27743C01B00D20139DE
:10384000C01B00D201399FB27743C91BC91B170C9B
:1038500077437E04FF0B801BB941CE086643360CCC
:103860000C2D33DBB644120B1F053A431B0B97B2EA
:103870007743C01B00D201399FB27743C91B170C95
:1038800077433E043F0C801BB941860D8F023E43B7
:10389000664329277F1BFE400C3D7746AF40BF198A
:1038A00030BCA2B2ABB272437343801A9941220C6E
:1038B0007243130C1204801A994102000B00013765
:1038C000001BA941F9D2781E0021F0BD0C277F1BF7
:1038D000FE4077467F0BAF40FF19E0E700245D1CF8
:1038E00007D0144F7D663966FFE7FFE7FFE7FFE784
:1038F0003C6F95B29EB265436643401BB141150CC7
:103900001E0C6543664336042F0C3E432D04401BBA
:10391000B141994204D202000B0020000021F0BD09
:1039200001D19042F7D3801A994101349942F2D3E0
:10393000F6E70000000000D0FFFFFFFF48404140D5
:10394000484018B41B4B5B68FC46019308BD04DF7C
:10395000D33C001018B4174B1B68FC46019308BDFC
:1039600000DFDD3C00109446134A926F920809D2A2
:10397000624618B40F4BDB68FC46019308BD0CDFB0
:10398000953F00100C4AF0B5146E556E576F166FC8
:103990006246FFF7EEFF084A1466556657671667DA
:1039A000F0BD18B4034B9B68FC46019308BD08DFCB
:1039B000393E0010E0170020000000D0FFB5504055
:1039C0004240504059404B40594000E0FFB5154F30
:1039D0004C00640D03D0BC4204D10C0314D8002069
:1039E000090D09055C00640D03D0BC4204D11C0321
:1039F0000AD800221B0D1B0501264B4009D44B4061
:103A000003D58B4200D18242FFBD9942FCD1904246
:103A1000FFBD0B43DB1803431343F5D0C9434918DB
:103A2000FFBD0000FF07000000B5FFF7CFFF01D08A
:103A3000002000BD012000BD00B5FFF7C7FF804199
:103A400000BDC04600B5FFF7C1FF01D9002000BD91
:103A5000012000BD00B5FFF7B1FF804100BD01208E
:103A600040054A00121804D85A00121801D8002044
:103A70007047012070470020704700000021002897
:103A800005D17047C1174840401AFAD0C90713B58D
:103A9000064B1B6898470CBC441CA2401005120B37
:103AA0000349091B09051943114310BDA84C002007
:103AB0001F04000010B54C00620D8023D218DB00FB
:103AC000D21A5B057E2A10DD9E3A13DACC17090361
:103AD000490819435242D140640001341532202A6A
:103AE00005DAD0400843604310BD002010BD0846F1
:103AF000604310BDC80FC018013810BDC94211D3B2
:103B000000B549004908002200F018F8002904D443
:103B1000002240428A41114600BD80210906002052
:103B200000BD000018B4044BDB6EFC46019308BDD9
:103B30006CDF454100100000E017002018B4044B72
:103B40009B6FFC46019308BD78DF634100100000C5
:103B5000E017002018B4044BDB6FFC46019308BD4E
:103B60007CDFD14100100000E0170020132370B566
:103B70001D78012D15D010DD1D48FFF755FC1D4C9B
:103B800001008022200000F011FD022D2DD01A48E6
:103B9000FFF742FC194B186070BD194B154CA3641C
:103BA000F5E7174B134C23606360A360E360236168
:103BB0006361A361E36123626362A362E3622363DF
:103BC0006363A363E36323646364A364E3642365BF
:103BD0006365A365E36523666366A366E36623679F
:103BE0006367A367E367A364D1E7054BA364CEE7EC
:103BF00053440000E01700204C330000A84C002084
:103C0000A13C0010244A4B0094465B0D6344F0B580
:103C100004000D005A1C21DB5A1C35D0342B1CDA51
:103C20003326F61A3700203F1CD40121B9400B007F
:103C30000121B1400A0012196B41002F1EDB022442
:103C4000BC4021000224B44020001600002544425C
:103C50008D4126402B4030001900F0BDCB0F0020D5
:103C6000D907FAE720210120891BC8400121B14072
:103C700003000A0012196B41002FE0DA202402250C
:103C8000A41BE5402900DDE7CB0F044ADB071A43FC
:103C900000201100E1E7C04601FCFFFF0000F03FFB
:103CA00007B5604601880A0A0230DF2AFAD1C9B294
:103CB000820804D3028840880004104300E00068B2
:103CC000014A5050039007BDE01700200FB403BC19
:103CD0000CBCF0B50124E407634000E0F0B50C0D26
:103CE000CF0F661E3605891B640503D3C9434042C6
:103CF00000D30131640D03D0661CF60A07D0E41B23
:103D000000207F00791C89078912803C24031D0D47
:103D1000DF0F6E1E36059B1B6D0503D3DB4352423E
:103D200000D301336D0D03D06E1CF60A07D0ED1BD6
:103D300000227F007B1C9B079B12803D2D032F1BC5
:103D4000661B58D4A446202E46DA20371400BC4007
:103D50001D00BD40F24033412A4380185941CB0F2A
:103D600005D0C943C04300226442504151416246DC
:103D70004D0D28D10D0D07D100281FD02419404129
:103D80004941013A0D0DF9D0640006D3013000D34A
:103D90000131002C01D140084000013A0BD4941CA1
:103DA000E40A04D112051144DB071944F0BDD90718
:103DB000204B194300E0D9070020F0BD0029DDD1D8
:103DC000002CDBD1F0BD0132C6074008CD072843E7
:103DD0004908002EE1D0D9E73C2E29DA203E4037B1
:103DE0001400BC4000D00124F24014431A00BB4030
:103DF0001C43D317ACE7AC46202F08DA203604006A
:103E0000B4400D00B540F84039412843A5E73C2FA8
:103E10000CDA203F40360400B44000D00124F840C2
:103E200004430800B1400C43C117EAE71000190031
:103E3000002494E70000F07FF0B50C0D661E3605F7
:103E4000891BE60A6405640D02D0651CED0A04D0E6
:103E5000002001210905803C2403A4461C0D671E97
:103E60003F05DB1BE70A6405640D02D0651CED0A03
:103E700004D0002201231B05803C240377406444C6
:103E800097B484B296B27443070C7E43150C6F430B
:103E900080B26843361802D3012000043F18300472
:103EA000350C00197D41844688B29AB250430C0CFF
:103EB00062431F0C7C438EB27E43921902D30126CB
:103EC0003604A4191604170C3618674101BC81B2D8
:103ED0009AB25143040C62431B0C5C4380B25843BA
:103EE000121802D30120000424181004130C4018E7
:103EF00063412D185E410020474106BC88B293B251
:103F000058430C0C6343120C544389B251435B1861
:103F100002D301210904641819041A0C091862411A
:103F20006D1856410020474118BCF902720D11432B
:103F3000F0026A0D1043ED020A0D03D16D194041E4
:103F40004941013B124E9B1B7600B3420ED26D00DD
:103F500007D30130002671416646354301D1400840
:103F600040001B05C918E4072144F0BD0BDA0133FA
:103F700006D1013004D101314F0D01D04908F2E7DB
:103F8000E1070020F0BD013631050020EBE700001D
:103F9000FF030000F0B51C0D671E3F05DB1BE70AA1
:103FA0006405640D02D0661CF60A04D000220123C9
:103FB0001B05803C2403D0252D060026F6432E66E3
:103FC0001E096E66CE0FF619B44649004F0D02D099
:103FD0007E1CF60A03D000200021403F3F033E1B19
:103FE000B600B444013F7F05C91B49082E6F013656
:103FF00076089C02950D25437543ED137543AD136B
:1040000001356D10F603761B0CB4CC02450D2C4324
:10401000A2B2B3B25A43270C7B43350C6F43A4B210
:104020006C431B1902D3012424043F191C041D0CEA
:10403000A4187D4124196D41009A91B2ACB261433C
:10404000170C7C432B0C5F4392B25A43A41802D343
:1040500001221204BF182204230C52187B41019C38
:104060006C431B19520ED9010A434401A01A81B2B4
:10407000B2B2514303145A43360C734387B27743A9
:10408000D617D21900277E4136049B191704160C47
:104090007F185E417316ED18F301002680337541D9
:1040A000A90F06D16400690AE8055B0A184309D222
:1040B0002FE00422944480337541A90AA8059B0A85
:1040C000184326D3404149412404009A019B0D0026
:1040D0005543641B4343E41A95B286B27543170CEB
:1040E0007E43030C5F4392B25A43B61802D30122B7
:1040F0001204BF183204330C52197B4152429C41C6
:10410000002C02D40022013051414008CA0710435C
:10411000490802B06246D7079210084BD218084BE4
:104120009A4203D212058918C919F0BD0020002A4D
:1041300001DC3900F0BD01331905F5E7FD0300008E
:10414000FE070000002200B500F00DF8CA179A42E1
:1041500000D100BDD8430121C907414000BD000086
:1041600000220B150AD410B5944600F05FF8141421
:10417000013400DA0021CB17144C20470020002125
:1041800070476244343A0CD40C2A07DA0400914098
:10419000904052422032D440214310BDD843D943ED
:1041A00010BD203207D40C469440524220321141B7
:1041B000D040204310BD0800C917203203D452421A
:1041C0002032104110BD1800190010BD83410010AD
:1041D0004A00520D144BD21A13DDFF2A1EDAD20503
:1041E000CB0FDB071A43C300400F0903490A0843FA
:1041F00010435B0001D301D0013070474308FBD26C
:10420000704702D0C80FC00770470A03121301326B
:10421000F8D1420F072AF5D1012200E0FF22C80F92
:1042200000028018C0057047800300000A0DCC0F03
:10423000531E1B05C91A520503D3C943404200D37C
:104240000131520D03D0531CDB0A07D0121B002092
:104250006400611C89078912803A1203014BD21A4B
:1042600070470000FF03000051434343C9188C46C8
:10427000110C83B24B4310B4040C614392B280B270
:10428000504362431C041B0C001910BC5941130419
:10429000120CC01851416144704700004840414031
:1042A00048400E4B5B6818470C4B1B6818470C4A7C
:1042B000936F9B0802D2094BDB681847F0B5146E68
:1042C000556E576F166FFFF7F6FF054A1466556671
:1042D00057671667F0BD014B9B681847E018002030
:1042E000000000D007B548404140484001E0C046CA
:1042F00007B54200120E03D0FF2A03D1420218D89C
:10430000C00DC0054A00120E03D0FF2A03D14A0295
:104310000FD8C90DC9050122414005D4414001D53E
:10432000814207BD884207BD0143491801D0C043FF
:10433000001807BD00B5FFF7DBFF01D0002000BD6E
:10434000012000BD00B5FFF7D3FF804100BDC0468E
:1043500000B5FFF7CDFF01D9002000BD012000BD51
:1043600000B5FFF7BFFF01D9002000BD012000BD4F
:1043700000B5FFF7B7FF804100BD0000C10FC907BE
:1043800000D54042002817D0F44603B40B4B1B68FD
:10439000984706BC81409E384042803107D20B06C8
:1043A00007D04900490AC00510430843604701305F
:1043B000F8E7490A8902F5E770470000A84C002099
:1043C00041000A0E80231B067E2A0BDD9E3A0BDA83
:1043D000C1174002400818435242D0404900013101
:1043E0004843704700207047C00FC018013870471D
:1043F000C0420DD300B540004008002100F012F883
:10440000002801D4404200BD8020000600BD00000D
:10441000034BDB69FC4618471CDF0D45001000000C
:10442000E0180020014B5B6A18470000E0180020EC
:10443000034BDB6FFC4618477CDF2545001000006E
:10444000E0180020132310B512481C78FEF7ECFF8B
:104450000100012C0AD003DD80220F4800F0A6F8ED
:104460000E48FEF7D9FF0E4B186010BD0A4C5422BF
:10447000200000F09BF80B4B6365A365E3652366A2
:104480006366A366E36623676367A367E3672362E4
:10449000E361E5E753460000E01800204C330000DC
:1044A000A84C0020E144001043001B0E7F3B5A1C27
:1044B0000DDB5A1C0ED0172B08DA1622D21A012354
:1044C00093401818022393405B4218407047C00F76
:1044D000C007FBE7C00FC307FE2080051843F5E7C0
:1044E00007B5604601880A0A0230DF2AFAD1C9B24C
:1044F000820804D3028840880004104300E000686A
:10450000014A5050039007BDE01800200021C21559
:104510008032803201D0024A1047002070470000EC
:10452000CD2A0000C30FDB0741000A0E07D0FF2A87
:1045300008D00909054A891819434007704719002E
:10454000002070470249C918FAE70000000000384F
:104550000000F07F70B504000A4E30000AF01CFC29
:10456000200005F0C9F8050030000AF0BDFB002D61
:1045700005D0054B2C199C4201D8280070BD03487A
:10458000FEF7DEFE8416002000000420C4F10010B7
:1045900001480421014B1847600F002039340010F6
:1045A000014B1B6818470000600F0020014B5B683F
:1045B00018470000600F0020F0B5C64600B5437DE7
:1045C00007000D001600002B38D0002A2EDD002138
:1045D0006A1E90466A5C037D4C1C00200A2A0CD09F
:1045E000A64216D043461B5D21000D3B5A42534163
:1045F0006A5CDBB24C1C0A2AF2D1002BF0D1884253
:1046000017DB022110483B689847A64207D02000DC
:10461000E8E7864203DD311A3B6828189847AD1950
:10462000013D2B780D3B5A4253413B7580BCB84647
:10463000F0BD091A3B6828189847E2E703681100A3
:1046400028009847F2E7C04674FE0010F0B5CE4649
:10465000474680B583B06B460600DD1D2870FEF727
:10466000BDF800231A4A12184B41802109068B42DB
:1046700002D30122174B52421749080088460AF01C
:104680006BFB164B81461C68002C14D0144F02E0C3
:104690002469002C0FD02368002BF9D03B68002B35
:1046A00001D0A342F4D1200001222900FFF784FFAA
:1046B0002469002CEFD14B46002B05D1300003B00C
:1046C000C0BCB946B046F0BD40460AF00DFBF5E768
:1046D00040420F00FFFFFF7F8C1600204C48002057
:1046E00058480020F0B5DE4657464E464546E0B5F0
:1046F00085B0070008F084F80600FEF76FF8002385
:104700002B4A12184B41802109068B4202D3012209
:10471000284B5242284908008B460AF01DFB274BC4
:1047200001901C689A46002C3BD0254B984602AB62
:10473000DD1D0A23994602E02469002C17D0236866
:10474000002BF9D043461B68002B01D09C42F3D1CB
:10475000200032003900FFF72FFF4B4620000122D6
:1047600029002B70FFF728FF2469002CE7D1019B5B
:10477000002B18D153461C68002C06D06368002B10
:104780000BD098472469002CF8D1300005B0F0BC5C
:10479000BB46B246A946A046F0BD2469002CEDD127
:1047A000F3E70028F1D058460AF09EFAE2E7C04647
:1047B00040420F00FFFFFF7F8C1600204C48002076
:1047C00058480020F8B557464E46DE464546E0B507
:1047D0000E00170000282CD11B4B1C4D1A685B687B
:1047E00093469A461A4B99461A4B98464B461C6874
:1047F000002C03D115E02469002C12D02B68002B6B
:1048000001D0A342F7D1A368002BF4D039003000C7
:1048100098470028EFDDF0BCBB46B246A946A0464B
:10482000F8BD43465B6A9A4508D84246926A5A45A3
:1048300002D301204042EEE79A45FAD1012000213F
:10484000FDF7D6FFD2E7C04648FE001058480020CA
:104850004C48002000400540F0B54646D6464F463D
:1048600001380D009046C0B5012841D8FDF7B6FFCC
:104870000023214A12184B41802109068B422FD276
:104880001E49474608008A460AF066FA43468146B2
:10489000013303D1280007F0B3FF0700184B1C6851
:1048A000002C14D0174E02E02469002C0FD023688E
:1048B000002BF9D03368002B01D0A342F4D12000A3
:1048C0003A002900FFF778FE2469002CEFD14B460F
:1048D000002B09D14046E0BCBA46B146A846F0BD1F
:1048E0000122094B5242CBE750460AF0FDF9F1E7AD
:1048F00001204042EFE7C04640420F008C160020E6
:104900004C48002058480020FFFFFF7F0120404214
:104910007047C046012040427047C04601204042D7
:104920007047C0460300022200209A42404170476F
:104930000A4A1368002B05D10CE01A001B691032DB
:10494000002B07D09842F8D1002902D103691360E7
:10495000016170470029FCD01060FAE74C48002044
:1049600010B500F0D9F910BD7047C0460022014BC8
:104970001A707047E04C00204B790020FF2B0BD1C0
:104980008B79002B08D1CB79012B05D1082A03D9CB
:10499000024B8A7809301A707047C046E04C0020FC
:1049A0000120704770B5012901D0012070BD134965
:1049B0005379107909781B02034300209942F5D1FD
:1049C0005378012B08D0022BF0D100206422002163
:1049D000FEF79AFB0120E9E79478D27805001202ED
:1049E0001443D20502D5620A93401D000448FEF725
:1049F00013FD7F210300214028009847E04C002050
:104A000055420000012303700048704778FE0010F3
:104A10004B780A781B0213438A7810B512041A43A4
:104A2000CB781B0613439622D200934200D010BDD0
:104A30000348FEF7F1FC0021030008009847C04638
:104A400055420000024B1860024B19607047C04687
:104A5000D8470020DC47002010B5024B1878FDF73E
:104A600077F810BDE14C0020114B70B51A68002A90
:104A70001AD0EFF3108172B610680028FCD0BFF393
:104A80005F8F00200B4A596010701B68BFF35F8F67
:104A9000186081F3108800240025074B1878FDF773
:104AA00057F82900200070BDFA240025A400F4E77F
:104AB000884C0020E24C0020E14C002070B504003E
:104AC00000200E0001F0E8FA002836D0002001F0A6
:104AD000FBFA002831D0FDF781FE0023184A121896
:104AE0004B41802109068B4216D2164D28000AF050
:104AF00033F9002821D0002001F0CEFA00280FD190
:104B000001200021404200F0C1FC0324644228003F
:104B10000AF0EAF8200070BD01220B4B5242E4E794
:104B2000002001F0D1FA0028EAD021003200002054
:104B300001F0D6FA041EEAD1E7E703246442E9E76C
:104B400040420F00B04C0020FFFFFF7FF8B5DE466B
:104B5000574680B505000C00FDF740FE0023374A9C
:104B600012184B41802109068B4202D30122344B9B
:104B70005242344908008A460AF0EEF8002803D170
:104B8000C0BCBB46B246F8BD002001F085FA002843
:104B90004AD00026002C43DD2B4B9B4614E0A9197C
:104BA000002001F011FB070001200021404200F02D
:104BB0006DFC002001F0CCFAFDF710FE224BF61937
:104BC00018605960B4422BDD002001F017FBA71BD1
:104BD0000200B84200DD3A00002AE0D101200021A5
:104BE000404200F053FC002001F0B2FA002001F036
:104BF00053FA002814D0002001F000FB0028E1D176
:104C0000FDF7ECFD5B460F001A685B6800218446E7
:104C10000E4812184B419F4202D8D3D19445D1D9A6
:104C200050460AF061F8ABE700200021064B1860FF
:104C3000596050460AF058F8A2E7C04640420F00BB
:104C4000FFFFFF7FB04C0020D817002020A10700F5
:104C500010B5244C84B0002120000AF065F800282B
:104C60001CD1214B1A68002A16D0EFF3108172B6BE
:104C700010680028FCD0BFF35F8F01241B485960E7
:104C800002781B68D2B20470BFF35F8F00201860F7
:104C900081F31088002A0AD004B010BD0120002141
:104CA000404200F0F3FB20000AF01EF8F4E7FDF7A5
:104CB00001FC0400FDF792FDFA2200239200121875
:104CC0004B41802109068B4202D30122084B5242FC
:104CD0000121029100210191064920000091FDF778
:104CE000EDFBD9E7B04C0020884C0020E24C0020BE
:104CF000FFFFFF7F694A0010054B10B518680028B8
:104D000004D0044B0022196801F036F810BDC046EB
:104D1000D8470020DC470020D02310B51B0684B004
:104D20001C68FDF7C7FBFDF787FCA04202D00020FE
:104D300004B010BD274B1B7801F042FC2648FDF75C
:104D4000BDF90120FDF79CF9FF23244C2449207074
:104D50001840FCF723FF20780121FCF7E7FE05202F
:104D6000FCF7FEFE002827D1FDF7A4FB0400FDF7A9
:104D700035FDFA220023920012184B4180210906CA
:104D80008B4202D30122174B524201210291002192
:104D90000191154920000091FDF790FB08220400C5
:104DA00000211248FFF7FCFB002CC0DB104801215A
:104DB000FFF7BEFD0120BBE700220E490520FCF7EE
:104DC00017FFFCF795FE094B01001800FDF7A0F94D
:104DD000ECE7C04624050110B04C0020E14C002057
:104DE000514C0010FFFFFF7F694A0010884C0020E3
:104DF000700F0020594A00100048704708FF00104B
:104E000000487047B4FE001010B50400174803783E
:104E1000002B20D0002C06D1154B16484380063BB2
:104E2000FF3B038010BD052C19D8134BA400E0589C
:104E300012490123013804E001330A800231142BA6
:104E40000FD0C25C002AF7D1C022DBB25B00920017
:104E500008481343E5E7112100F01AF8DAE70020CB
:104E6000E0E7CA2303489B00DBE7C046C84C0020AC
:104E700009040000244800209CFE00102648002061
:104E800010B5024800F0D8F810BDC046A04C002074
:104E900030B54B1E012900D1A7E0664A11780D09F3
:104EA0002C0030349F2900D9A2E00470012B00D1DE
:104EB000BEE00F21147821400C003034092900D9BC
:104EC00098E04470022B00D1B2E054782509290003
:104ED00030319F2C00D990E08170032B00D1A7E0E6
:104EE0000F2121400C003034092900D987E0C4701B
:104EF000042B00D19CE094782509290030319F2CA7
:104F000000D97FE00171052B00D191E00F212140F4
:104F10000C003034092900D976E04471062B00D109
:104F200086E0D4782509290030319F2C00D96EE025
:104F30008171072B00D17BE00F2121400C00303420
:104F4000092966D8C471082B00D171E014792509AC
:104F5000290030319F2C5FD80172092B68D00F21B6
:104F600021400C003034092958D844720A2B5FD0F4
:104F700054792509290030319F2C52D881720B2B8E
:104F800056D00F2121400C00303409294BD8C4726F
:104F90000C2B4DD094792509290030319F2C00D954
:104FA000073101730D2B43D00F2121400C00303409
:104FB000092901D937310C0044730E2B38D0D1792F
:104FC0000C09220030329F2900D9073282730F2B3F
:104FD0002ED00F220A4011003731092A01D8303271
:104FE0001100C173102B23D010300023037030BD8B
:104FF00007345AE737310C0063E707316CE7373184
:105000000C0074E707317DE737310C0085E7073185
:105010008EE737310C0095E707319DE737310C00FB
:10502000A3E70731AAE737310C00C4720C2BB1D1CA
:10503000C018DAE7A04C002010B588B004000D229B
:1050400000216846FFF7ACFA0D22002104A8FFF703
:10505000A7FA4B236A466846137004A90D2209F08B
:105060003BFE1521082220006944FFF79FFA08B093
:1050700010BDC04610B501210520FCF757FD10BD3D
:1050800010B500220021024800F058F910BDC046BA
:10509000804800208022024B5202DA647047C046EA
:1050A00000201150F0B5C64600B5060000F020F90A
:1050B0000C231B4DFF22AB6705201A49FCF798FD16
:1050C00040239846184C402200212000FFF768FA40
:1050D00043460127238321210023144A6770A260DD
:1050E000136063545F3161844146218705396354FD
:1050F0000F4A10496360E260A1620B606362E26282
:1051000009F042FE80239B052F64EB6490230A4A3A
:105110003000EA50FFF7BEFF80BCB846F0BDC04685
:1051200000001150E9040020604800208400105065
:10513000000110508000105010D001000B785B0669
:1051400002D14B78052B00D070478A78014B1A604A
:10515000FAE7C04600001150F0B5C64600B5CC785D
:1051600088780A794B797F21A40701401B02C50981
:1051700013434F00A20F1400324E7A195201B21895
:10518000907001206840507000205B055B0DD0706E
:105190001383D4768046CA00012D33D02A48844632
:1051A000880162448446B444604682604046106090
:1051B000002933D0254AC9009046624641445160D7
:1051C0003F223F339343022C00D15B0020487A19E1
:1051D00001685201B218D1601E4ACB1803605140D9
:1051E0005A40802388465B019A4228D84346A40649
:1051F0001C4380237F197F01F61972681B06234325
:10520000136011E014488446880162448446B44423
:105210006046826240461060002909D100236D017A
:1052200075196B600D4BEB60012080BCB846F0BD7A
:10523000084AC9009046624641445162C0E7FEF701
:1052400097F8D3E760480020840010500400105005
:105250006C4C0020000010508000105000011050D5
:1052600010B509F091FD10BD10B57F200C00204055
:105270004000E409110000191A00034B4001C01856
:1052800000F05CF8012010BD604800207F2318006A
:1052900010B50840CA090B4203D107497D3B9B1A50
:1052A0008B66400080188022044B40010021C0180A
:1052B000120109F061FD10BD00201150604800206E
:1052C0007F22130010B50B400A4200D110BDC9095E
:1052D0005B005B1804485B01C018002300220349EF
:1052E000C37009F049FDF1E760480020FFF7FFFFB8
:1052F00080220D4B520410B51A600C4B0C491A60F9
:1053000010008B689843FBD10A4C9C22002120009E
:10531000FFF746F98022002152010748FFF740F9C4
:105320000923636710BDC04600E0004000F0004064
:1053300000C000400000115000001050002310B5C4
:10534000C3820133828283760161040009F0DCFCB0
:10535000002804D080219023074A8902D1502000E0
:1053600009F022FD002802D00123237710BD200080
:1053700009F0FAFCFAE7C04600201150024B5878B9
:10538000431E9841C0B27047AC450020024B1878CC
:105390004007C00F7047C046AC450020034B18784B
:1053A000FF38431E9841C0B27047C046AC0F002082
:1053B000F8B5CE46474680B52A4E05003378FF2B18
:1053C00001D001203DE0532200212748FFF7E8F8F3
:1053D000264C2000FCF772FE254B1C60254C20005B
:1053E000143CFCF787FE200001F0CCFB224B234F3E
:1053F0001C60234B9846002F1ED01800FFF702FBBD
:10540000204B186043461B781F4A00249146002F0A
:1054100014D04A46A3421AD89047434601341B7819
:10542000E4B2A342F3D228003570FFF73BFE280018
:10543000FFF720FE012004E01B78E5E7002C04D0F4
:105440000020C0BCB946B046F8BD0F4AE4E70D4A9B
:10545000630012681B19DB00D318002BF0D01A6808
:10546000DAE7C046AC0F0020AC45002064450020C0
:1054700000460020A40F002004460020054A00102A
:10548000DB4C00208442002015620010F0B5DE469F
:1054900057464E464546E0B591B001F097F80028D2
:1054A00000D1FCE0C34BC44E9946C44B0DAC0293F3
:1054B000C34B9B464B46019335686A69EFF31081F5
:1054C00072B61368002BFCD0BFF35F8FA961280070
:1054D000210001F085F96A69AB69BFF35F8F002194
:1054E000116083F31088002800D1D8E06378082B7E
:1054F000E2D8019A9B00D3589F466368002BDBD00B
:10550000A0689847D8E77F202179AC4D0840430038
:10551000CA09EB189B181D0001273035EA78BA43F9
:10552000EA70EA780337BA43EA70002800D1F2E063
:10553000A44FDB7C002F06D0A34A1278934200D2FE
:10554000F1E09B1ADBB2002B00D0A8E09F4DA368CE
:1055500062792078A847AFE70122984D01202B7887
:10556000042113432B703323EA5C8243EA54EA5C40
:105570008A43EA540133EA5C8243EA54EA5C00203D
:105580008A43EA5423789A4600F0F8FC6022237993
:105590001A40602A00D1B5E0402A00D1AFE0DB0616
:1055A000DB0E012B00D1D3E0022B00D120E1002B38
:1055B00000D0A7E0202A00D153E1002A00D0A1E0CA
:1055C0006379092B00D99DE0814A9B00D3589F46FF
:1055D000029B1B78DB0700D46EE77E4B002B00D1CB
:1055E0006AE700E000BF67E7744D2B78DB0700D463
:1055F00062E7794B002B00D15EE728780007C00FE7
:1056000000E000BF58E7002523786E4F9A466E4BA6
:1056100098461B78002F49D05A46AB4263D8504673
:105620009047434601351B78EDB2AB42F2D2634D51
:10563000532200212800FEF7B3FF1022FF21E81CAF
:10564000FEF7AEFF28002022FF211330FEF7A8FF4F
:105650002EE0002523785B4F9A465B4B98461B78DB
:10566000002F2ED05A469D4233D350469047434692
:1056700001351B78EDB2AB42F2D2504D53220021DE
:105680002800FEF78DFF1022FF21E81CFEF788FF9F
:1056900028002022FF211330FEF782FF14E011B012
:1056A000F0BCBB46B246A946A046F0BD002D38D09E
:1056B00000F05AFC494B002B00D1FDE600E000BF92
:1056C000FAE6002D19D03D4D00F04EFC2379AB7069
:1056D000F2E6434A6B0012685B19DB00D318002B1B
:1056E000F1D05A68C1E73E4A6B0012685B19DB00D3
:1056F000D318002BDCD05A6891E7314AB5E7394816
:1057000000281AD120780021FFF7C0FD80212078E1
:10571000FFF7BCFDD0E6A3686279207800F042FC78
:10572000CAE6274A7BE72E4A58001268C318DB00F6
:10573000D318002BB3D01D6909E700F01FFC01212D
:1057400050460EAA00E000BF002800D0B4E6D9E71A
:10575000237A0F2BD6D81B4FEB18DB78002F06D0FF
:10576000194A1278934200D29CE09B1ADBB2002BBC
:10577000C8D11D481D4D00F001FC01215046EB68C9
:105780000EAA9847002800D096E6602215002379DB
:105790001D401A42B6D163790A3B012BB2D800F002
:1057A000EDFB63790A2B00D17DE150460EA900F094
:1057B0006FFB81E61CFF001004460020AC45002072
:1057C00091620010054A0010DB4C00208564001037
:1057D00040FF00100000000000000000000000007A
:1057E0008442002000000000A1630010A8FF001008
:1057F0007023217A0B4285D1C80984460F330B40B0
:105800005B00E8186044C07CB14F8046002F07D091
:10581000B0480078804550D34746381AC0B2804619
:10582000404600283AD1002A00D0F5E0AA4A904626
:10583000677902203A008243012A00D1F0E0002F6C
:1058400000D05FE7EB1863443033DB780CAA9B078A
:10585000DB0F02321380504602230EA900F02EFB0C
:105860002AE6237A0F2B00D94CE7994FEB18DB7807
:10587000002F06D0974A1278934200D2F3E09B1A89
:10588000DBB2002B00D03DE79448934D00F076FB4F
:1058900001215046EB680EAA984755E79046002A2A
:1058A000C6D02FE78E4A59001568CB18DB00ED18DB
:1058B000002D00D126E7E8685DE7474688487F006D
:1058C000006847448046FF00B844002AB0D04346F1
:1058D000002B00D116E7D86800F050FB43460121A9
:1058E0005046DB680EAA98472EE7A37903931A0067
:1058F0006B789A4207D06B78002B00D058E1039B5D
:10590000002B00D0F8E0039B50460EA96B7000F00E
:10591000BFFAD1E56B780CAA02321370504601230E
:105920000EA900F0CBFAC7E5E3881A0AD8B20F2A0D
:1059300000D9E7E66B499300CB589F460EA800F0CC
:1059400023FB5046A179FFF79BFB02222B781343E0
:105950002B70B1E5E388012B00D0D3E608222B7829
:10596000504693430EA92B7000F092FAA4E5022052
:1059700029780CAB9A1C8B068908DB0F01400B437E
:1059800068E7E388012B00D0BCE608222B7850465C
:1059900013430EA92B7000F07BFA8DE5524B002BC0
:1059A00000D1AFE600E000BF021E00D1AAE6D37826
:1059B00091781B020B4350460EA900F07FFAC3E614
:1059C0004A4B002B00D19DE600E000BF021E00D133
:1059D00098E6504613780EA900F070FAB4E62189D3
:1059E000FFF712FA021EF4D18CE6022A00D12DE153
:1059F0003F4B002B00D185E600E000BF0200002AEB
:105A000000D17FE6D3E7FFF7F7F9122302000EA9D2
:105A1000504600F053FA97E62F4B304898465BE724
:105A2000E288002A09D1334A1078012F26D0EF18D6
:105A300067443037FB789B073ED54346002B00D1A7
:105A40003AE5D86800F09AFA43460121DB680EAACD
:105A500050469847002000F091FA3423EB5CDB07B6
:105A600000D529E5A1E61E4A59001568CB18DB00D0
:105A7000ED18002D00D145E6E86807E73022914691
:105A8000EB18634499444B46DB789B07D5D5FFF769
:105A900017FC4B460222DB7893434A46D370D378F7
:105AA000BB43D370C9E70CAB9A1C504601230EA927
:105AB000157000F003FAFFE4FFF7E8FB0222FB7821
:105AC00013430122FB70FB781343FB70B5E7C0461C
:105AD000054A0010DB4C0020A8FF0010A163001055
