:020000041000EA
:1000000000B5324B212058609868022188439860DF
:10001000D860186158612E4B002199600221596106
:100020000121F02299502B49196001219960352056
:1000300000F044F80222904214D00621196600F024
:1000400034F8196E01211966002018661A6600F04E
:100050002CF8196E196E196E052000F02FF8012189
:100060000842F9D1002199601B49196000215960AB
:100070001A491B48016001219960EB211966A021F2
:10008000196600F012F800219960164914480160C1
:100090000121996001BC002800D000471248134993
:1000A000086003C880F30888084703B5996A0420EC
:1000B0000142FBD001200142F8D103BD02B5186610
:1000C0001866FFF7F2FF186E186E02BD00000240BE
:1000D000000000180000070000035F00212200005C
:1000E000F4000018222000A00001001008ED00E03C
:1000F00000000000000000000000000074B24E7A12
:1001000000200420F7010010C3010010C5010010F9
:10011000C1010010C1010010C1010010C101001097
:10012000C1010010C1010010C1010010C701001081
:10013000C1010010C1010010C9010010CB01001065
:10014000CD010010CD010010CD010010CD01001037
:10015000CD010010CD010010CD010010CD01001027
:10016000CD010010CD010010CD010010CD01001017
:10017000CD010010CD010010CD010010CD01001007
:10018000CD010010CD010010CD010010CD010010F7
:10019000CD010010CD010010CD010010CD010010E7
:1001A000CD010010CD010010CD010010CD010010D7
:1001B000CD010010CD010010CD010010CD010010C7
:1001C00000BE00BE00BE00BE00BE00BEEFF3058054
:1001D000103800BEF2EB8871C8530110E8530110CB
:1001E0003402001090A31AE700201F49086006C8D7
:1001F00081F3088810471D48006800282FD10DA4FE
:100200000ECC002902D000F012F8F9E71849194A7B
:10021000002000E001C19142FCD1174988471749ED
:1002200088471749884700BEFDE701C901C29A42C5
:10023000FBD37047E8530110C00000208016002057
:10024000A86901100000042000000420A869011022
:10025000001004200010042000000000704709482E
:1002600003F062FD0047000008ED00E0000000D050
:1002700080160020B84C0020E93A0010A9090010AF
:100280001D3C00105756000006005250ABB360539F
:100290002844011006005250861C03023844011005
:1002A000060052505422A29D5444011005005250A1
:1002B000DE65F468A8690110F8B5C046064807492C
:1002C000091A8B10C90FC91810B5491003D0044B77
:1002D000002B00D0984710BD80160020801600200B
:1002E00000000000054B10B5002B03D00449054861
:1002F00000E000BFFFF7E2FF10BDC04600000000B5
:10030000404C0020303E0110F0B5DE4657464E46C8
:100310004546E0B58046CFB0486D8B4616001F00BD
:100320000DF0F4FC07AB9C466446324B050007CB4E
:1003300007C4604699460DF05FFD824605A803009C
:100340004A4612CA12C30DF057FD002303930293CD
:1003500053465A464146019000930AA803230DF0E4
:1003600063FB002200210AA80DF0ACFB002824D179
:100370000AA80DF0FBFB00282FD1002D16DD1E4B27
:1003800000249A461D4B99461D4B9846335D3A5DB5
:10039000934208D000925146302248460DF0A4FC0A
:1003A0000123424613700134A542EFD14FB0F0BC97
:1003B000BB46B246A946A046F0BD124C00232C22F3
:1003C00000900D4920000DF08FFC01220C4B0AA873
:1003D0001A700DF0CBFB0028CFD00B4C00232D2240
:1003E0000090054920000DF07FFC0122044B1A709B
:1003F000C3E7C046F04A0110303E0110083F01102B
:10040000A94C0020903E0110D03E0110F0B5CE4620
:10041000474680B5804699B008001C0091460DF013
:10042000EBFC070020000DF0E7FC060022980DF021
:10043000E3FC08220500002102A80024059704F02F
:100440007BFC6B461C709C775C774B4638000493B2
:1004500001940DF05BFC06276B46002106900822F4
:100460000AA81F770D9604F067FC6A462023D4542F
:100470001E33D454013BD454209B30000C93099478
:100480000DF044FC3C236A460021D7540E9008220C
:1004900012A8159504F050FC6A464023D4541E332C
:1004A000D454013BD454239B2800149311940DF091
:1004B0002DFC6A465C231690D75469464046239B20
:1004C000219AFFF721FF19B0C0BCB946B046F0BD74
:1004D000F0B5CE46474680B5804699B008001C006E
:1004E00091460DF089FC070020000DF085FC060008
:1004F00022980DF081FC08220500002102A80024AA
:10050000059704F019FC6B461C709C775C774B4692
:100510003800049301940DF0F9FB02276B4680002C
:100520000021069008220AA81F770D9604F004FC0B
:100530006A462023D4541E33D454013BD454209B08
:1005400030000C9309940DF0E1FB3C236A468000D7
:10055000D75400210E90082212A8159504F0ECFB48
:100560006A464023D4541E33D454013BD454239BB5
:100570002800149311940DF0C9FB69465C230622F0
:100580001690CA544046239B219AFFF7BDFE19B02E
:10059000C0BCB946B046F0BDF0B5CE46474680B5C2
:1005A000804699B008001C0091460DF025FC07001C
:1005B00020000DF021FC060022980DF01DFC082201
:1005C0000500002102A80024059704F0B5FB6B4646
:1005D0001C709C775C774B463800049301940DF0B7
:1005E00095FB01276B4680000021069008220AA88F
:1005F0001F770D9604F0A0FB6A462023D4541E33C7
:10060000D454013BD454209B30000C9309940DF03A
:100610007DFB3C236A468000D75400210E900822BF
:1006200012A8159504F088FB6A464023D4541E3363
:10063000D454013BD454239B2800149311940DF0FF
:1006400065FB69465C2306221690CA544046239BEC
:10065000219AFFF759FE19B0C0BCB946B046F0BDAB
:10066000F0B5DE4657464E464546E0B5834699B05E
:10067000080014009A460DF0BFFB070022980DF009
:10068000BBFB804626980DF0B7FB814638000DF085
:100690003DFB002823DD80005546261805E07F201D
:1006A000043428700135A64219D02068011C04F0DA
:1006B00049FA04F0B1FA03F021FF0022504B03F095
:1006C000C8FD03F07FFE7F28E9DC03008033E7DA12
:1006D00080200434404228700135A642E5D108222A
:1006E000002102A80024059704F026FB6B461C702D
:1006F0009C775C7753463800049301940DF006FB19
:1007000009236A461377FC239B05029305235B426A
:100710000690039340460633137001940DF0F6FAE9
:10072000002825DD239C8000249D261805E07F20DD
:10073000043428700135A6421AD081212068C905E9
:1007400004F017FA04F068FA03F0D8FE00222C4BEC
:1007500003F088FD03F036FE7F28E8DC03008033D9
:10076000E6DA80200434404228700135A642E4D104
:100770004346002108220AA8002420250D9304F0F6
:10078000DBFA6B466A465C553E23D454013BD45495
:10079000249B40460C9309940DF0B8FA69463C231B
:1007A0000922CA54FA239B050A9305230B93043BA1
:1007B0004B554B4600210E90082212A81593099420
:1007C00004F0BAFA6A464023D4541E33D454013B91
:1007D000D454279B4846149311940DF097FA694618
:1007E0005C2306221690CA545846279B259AFFF789
:1007F0008BFD19B0F0BCBB46B246A946A046F0BD81
:1008000000001440F0B5DE4657464E464546E0B57A
:10081000834699B0080014009A460DF0EDFA0700DF
:1008200022980DF0E9FA804626980DF0E5FA814607
:1008300038000DF06BFA002823DD8000554626189D
:1008400005E07F20043428700135A64219D02068C5
:10085000011C04F077F904F0DFF903F04FFE0022E9
:10086000504B03F0F6FC03F0ADFD7F28E9DC0300FC
:100870008033E7DA80200434404228700135A642F4
:10088000E5D10822002102A80024059704F054FABB
:100890006B461C709C775C77534638000493019438
:1008A0000DF034FA09236A461377FC239B05029363
:1008B00009235B420690039340460A331370019468
:1008C0000DF024FA002824DD239C8000249D2618A6
:1008D00005E07F20043428700135A64219D0206835
:1008E000011C04F02FF904F097F903F007FE002231
:1008F0002C4B03F0AEFC03F065FD7F28E9DC030020
:100900008033E7DA80200434404228700135A64263
:10091000E5D14346002108220AA8002420250D9392
:1009200004F00AFA6B466A465C553E23D454013BF8
:10093000D454249B40460C9309940DF0E7F9694682
:100940003C230922CA54FC239B050A9309235B42DA
:100950000B930A334B554B4600210E90082212A8E8
:100960001593099404F0E8F96A464023D4541E33E1
:10097000D454013BD454279B4846149311940DF052
:10098000C5F969465C2306221690CA545846279B2F
:10099000259AFFF7B9FC19B0F0BCBB46B246A94690
:1009A000A046F0BD00002240F0B5DE4657464E4658
:1009B0004546E0B5E7B00DF00FFAD34BD34F2D937A
:1009C000D34BD44E0693D44BB8460793D34B33AD99
:1009D000994645AB9A464BAB9B46D14B4F4611933C
:1009E000D04BB1461293D04B52AC1593CF4B1693CC
:1009F000CF4B0893CF4B1793CF4B1893CF4B1993F3
:100A0000CF4B1A93CF4B1B93CF4B1C93CF4B1D93C4
:100A1000CF4B1E93CF4B1F93CF4B2093CF4B2193A4
:100A2000CF4B2293CF4B2393CF4B2493CF4B259384
:100A3000CF4B2693CF4B2793CF4B0A93CF4B289383
:100A4000CF4B2993CF4B2A93CF4B2B93CF4B2C9348
:100A5000CF4B0C93CF4B0D93CF4B0993CF4B0E93B2
:100A6000CF4B0F93CF4B1093CF4B1393CF4B14938C
:100A7000CF4B2E93CF4B2F93002643461E604B4601
:100A80002D981E600DF030F93B000799069A0E7004
:100A90001670143340AA43CB43C203CB03C23B00BE
:100AA0005246143343CB43C203CB03C2BB6A5A46FC
:100AB0002B60FB6A35933B6B37933B00143343CB7E
:100AC00043C203CB03C220000CF006FF3BAB0393F1
:100AD0005B46029337AB019340A835AB01002A0077
:100AE000009320005346FFF791FC0123069A0799D3
:100AF00013700B78002B01D101F0F6FB4346012265
:100B00001B6841460B604B461B6811989B184A4670
:100B100013600DF0E9F800220799069B0A701A701D
:100B20003A001432130040AA43CB43C203CB03C2A2
:100B30003A0014321300524643CB43C203CB03C2E4
:100B40003A003432130037AA43CB43C21B68136008
:100B50003A00443213003BAA43CB43C21B6838001F
:100B6000136001221430339203005A4643CB43C230
:100B700003CB03C220000CF0AFFE35A8039058460B
:100B800002903BA8009037A8020040A801005346FD
:100B900020000195FFF700FD0122069B07991A70BE
:100BA0000B78002B01D001F09AFB434600221B6812
:100BB000013341460B604B461B6812989B184A460E
:100BC00013600DF091F800220799069B0A701A70C5
:100BD0003A001432130040AA43CB43C203CB03C2F2
:100BE0003A0014321300524643CB43C203CB03C234
:100BF0003A005432130037AA43CB43C21B68136038
:100C00003A00643213003BAA43CB43C21B68136013
:100C100080233A005B021432339313005A4643CBCD
:100C200043C203CB03C220000CF056FE35AA039248
:100C30005A4640A802923BAA010053460092200067
:100C400037AA0195FFF744FC0122069B07991A7009
:100C50000B78002B01D001F03DFB434600221B68BE
:100C6000013341460B604B461B6815989B184A465A
:100C700013600DF039F800220799069B0A701A706C
:100C80003A001432130040AA43CB43C203CB03C241
:100C90003A0074321300524643CB43C203CB03C223
:100CA0003A00543213003BAA43CB43C21B68136083
:100CB0000722802333923A005B02143235931300EB
:100CC0005A4643CB43C203CB03C220000CF004FEC0
:100CD00037AA03925A4640A8029235AA0100534609
:100CE000019220003BAA0095FFF7F2FB0122069B30
:100CF00007991A700B78002B01D001F0E6FA4346F1
:100D000000221B68013357E0503F0110B419002046
:100D1000AA4C0020B0190020A94C0020F04A011074
:100D2000643F0110783F01108C3F0110A43F011077
:100D3000704B0110C03F0110D83F0110F03F01106F
:100D400004400110204001104040011058400110A3
:100D50006C40011088400110A8400110C4400110EF
:100D6000DC400110FC400110204101103441011011
:100D7000444101105C410110F04B01107841011019
:100D800090410110A8410110C4410110E44101103B
:100D90000042011020420110704C01104C42011021
:100DA00078420110A8420110D0420110FC4201100B
:100DB000104301102843011041460B604B461B684D
:100DC00016989B184A4613600CF08EFF0022069B73
:100DD00007991A70089B0A7008333BAA43CB43C299
:100DE00003CB03C23A001432130040AA43CB43C2E0
:100DF00003CB03C22200089B1C3343CB43C243CB2B
:100E000043C203CB03C2089B37AA3C3343CB43C244
:100E10001B68002113602800082203F08DFF0122C7
:100E2000AA715246089B083343CB43C203CB03C28B
:100E300058460CF051FD35A803905046029037A853
:100E4000009040A803003BA80100220058460195ED
:100E5000FFF73EFB0122069B07991A700B78002BC7
:100E600001D001F02DFA434600221B6801334146B0
:100E70000B604B461B6817989B184A4613600CF092
:100E800033FF00220799069B0A701A703A00143249
:100E9000130040AA43CB43C203CB03C23A0014322F
:100EA0001300524643CB43C203CB03C2BB6A089A2A
:100EB0002B60FB6A3593D36C3A00143237931300DE
:100EC0005A4643CB43C203CB03C220000CF01AFDA9
:100ED0003BAA03925A46029237AA019240A835AA29
:100EE00001005346009220002A00FFF78FFA0122EA
:100EF000069B07991A700B78002B01D001F0DBF9E3
:100F0000434600221B68013341460B604B461B6879
:100F100018989B184A4613600CF0E6FE00220799C9
:100F2000069B0A701A703A001432130040AA43CB91
:100F300043C203CB03C23A0014321300524643CBE0
:100F400043C203CB03C23A003432130037AA43CB67
:100F500043C21B6813603A00443213003BAA43CBE0
:100F600043C21B681360089A136D3A0014322B6059
:100F700013005A4643CB43C203CB03C220000CF0FC
:100F8000C1FC35AA03925A4640A802923BAA01002E
:100F900053460092200037AA0195FFF7FDFA01227F
:100FA000069B07991A700B78002B01D001F07EF98F
:100FB000434600221B68013341460B604B461B68C9
:100FC00019989B184A4613600CF08EFE0022079970
:100FD000069B0A701A703A001432130040AA43CBE1
:100FE00043C203CB03C23A0014321300524643CB30
:100FF00043C203CB03C23A005432130037AA43CB97
:1010000043C21B6813603A00643213003BAA43CB0F
:1010100043C21B681360089A536D3A0014322B6068
:1010200013005A4643CB43C203CB03C220000CF04B
:1010300069FC35AA03925A4640A802923BAA0100D5
:1010400053460092200037AA0195FFF741FA01228A
:10105000069B07991A700B78002B01D001F021F93B
:10106000434600221B68013341460B604B461B6818
:101070001A989B184A4613600CF036FE0022079916
:10108000069B0A701A703A001432130040AA43CB30
:1010900043C203CB03C23A0074321300524643CB1F
:1010A00043C203CB03C23A00543213003BAA43CBE2
:1010B00043C21B68136007223392089A536D3A00AB
:1010C0001432359313005A4643CB43C203CB03C2B9
:1010D00020000CF017FC37AA03925A4640A802924F
:1010E00035AA01005346019220003BAA0095FFF764
:1010F000EFF90122069B07991A700B78002B01D09B
:1011000001F0CAF8434600221B68013341460B60D8
:101110004B461B681B989B184A4613600CF0E4FD75
:101120000022069B07991A70089B0A7008333BAA95
:1011300043CB43C203CB03C238001430030043CB7C
:1011400043C203CB03C22200089B1C3343CB43C2E0
:1011500043CB43C203CB03C2089B37AA3C3343CBE8
:1011600043C21B682E001360089A1300583303CB48
:1011700003C613005246083343CB43C203CB03C21A
:1011800058460CF0BFFB35AA03925246029237AA8A
:1011900000923BA840AA1300010022005846019586
:1011A000FFF796F90122069B07991A700B78002B1E
:1011B00001D001F06CF8434600221B680133414620
:1011C0000B604B461B681C989B184A4613600CF03A
:1011D0008BFD00220799069B0A701A703A001432A0
:1011E000130040AA43CB43C203CB03C23A001432DC
:1011F0001300524643CB43C203CB03C23A003432FE
:10120000130037AA43CB43C21B6813603A00443231
:1012100013003BAA43CB43C21B681360089AD36CEC
:101220003A0014322B6013005A4643CB43C203CB1F
:1012300003C220000CF07CFB35AA03925A4640A85A
:1012400002923BAA010053460092200037AA019562
:10125000FFF7A2F90122069B07991A700B78002B61
:1012600001D001F00FF8434600221B6801334146CC
:101270000B604B461B681D989B184A4613600CF088
:1012800033FD00220799069B0A701A703A00143247
:10129000130040AA43CB43C203CB03C23A0014322B
:1012A0001300524643CB43C203CB03C23A0054322D
:1012B000130037AA43CB43C21B6813603A00643261
:1012C00013003BAA43CB43C21B68136080233A0040
:1012D0005B001432339313005A4643CB43C203CB13
:1012E00003C220000CF024FB35AA03925A4640A802
:1012F00002923BAA010053460092200037AA0195B2
:10130000FFF7E6F80122069B07991A700B78002B6D
:1013100001D000F0B2FF434600221B680133414672
:101320000B604B461B681E989B184A4613600CF0D6
:10133000DBFC00220799069B0A701A703A001432EF
:10134000130040AA43CB43C203CB03C23A0074321A
:101350001300524643CB43C203CB03C23A0054327C
:1013600013003BAA43CB43C21B68136007228023B0
:1013700033923A005B001432359313005A4643CB44
:1013800043C203CB03C220000CF0D2FA37AA039267
:101390005A4640A8029235AA010053460192200005
:1013A0003BAA0095FFF794F80122069B07991A7053
:1013B0000B78002B01D000F05BFF434600221B6836
:1013C000013341460B604B461B681F989B184A46E9
:1013D00013600CF089FC0022069B07991A70089B89
:1013E0000A7008333BAA43CB43C203CB03C2380085
:1013F0001430030043CB43C203CB03C22200089B3B
:101400001C3343CB43C243CB43C203CB03C2089B31
:1014100037AA3C3343CB43C21B682E001360089AA3
:101420001300603303CB03C613005246083343CB8B
:1014300043C203CB03C258460CF07AFA35AA039292
:101440005246029237AA00923BA840AA130001001C
:10145000220058460195FFF73BF80122069B0799A9
:101460001A700B78002B01D000F0FDFE43460022DD
:101470001B68013341460B604B461B6820989B1844
:101480004A4613600CF030FC00220799069B0A7054
:101490001A703A001432130040AA43CB43C203CB64
:1014A00003C23A0014321300524643CB43C203CB6B
:1014B00003C23A003432130037AA43CB43C21B683D
:1014C00013603A00443213003BAA43CB43C21B686B
:1014D0001360089A936E3A0014322B6013005A4638
:1014E00043CB43C203CB03C220000CF037FA35AA2A
:1014F00003925A4640A802923BAA0100534600922A
:10150000200037AA0195FFF747F80122069B0799AB
:101510001A700B78002B01D000F0A0FE4346002289
:101520001B68013341460B604B461B6821989B1892
:101530004A4613600CF0D8FB00220799069B0A70FC
:101540001A703A001432130040AA43CB43C203CBB3
:1015500003C23A0014321300524643CB43C203CBBA
:1015600003C23A005432130037AA43CB43C21B686C
:1015700013603A00643213003BAA43CB43C21B689A
:101580001360089AD36C3A0014322B6013005A4649
:1015900043CB43C203CB03C220000CF0DFF935AAD2
:1015A00003925A4640A802923BAA01005346009279
:1015B000200037AA0195FEF78BFF0122069B0799B1
:1015C0001A700B78002B01D000F043FE4346002236
:1015D0001B68013341460B604B461B6822989B18E1
:1015E0004A4613600CF080FB00220799069B0A70A4
:1015F0001A703A001432130040AA43CB43C203CB03
:1016000003C23A0074321300524643CB43C203CBA9
:1016100003C23A00543213003BAA43CB43C21B68B7
:10162000136007223392089AD36C3A001432359330
:1016300013005A4643CB43C203CB03C220000CF035
:101640008DF937AA03925A4640A8029235AA0100A2
:101650005346019220003BAA0095FEF739FF012274
:10166000069B07991A700B78002B01D000F0ECFD57
:10167000434600221B68013341460B604B461B6802
:1016800023989B184A4613600CF02EFB0022069B01
:1016900007991A70089B0A7008333BAA43CB43C2D0
:1016A00003CB03C238001430030043CB43C203CB47
:1016B00003C22200089B1C3343CB43C243CB43C22B
:1016C00003CB03C2089B37AA3C3343CB43C21B68FE
:1016D0002E001360089A13006C3303CB03C613006B
:1016E0005246083343CB43C203CB03C258460CF0E7
:1016F00035F935AA03925246029237AA00923BA8C6
:1017000040AA13000100220058460195FEF7E0FEB2
:101710000122069B07991A700B78002B01D000F06C
:101720008EFD434600221B68013341460B604B4649
:101730001B6824989B184A4613600CF0D5FA0022C7
:101740000799069B0A701A703A001432130040AAD7
:1017500043CB43C203CB03C23A00143213005246B8
:1017600043CB43C203CB03C23A003432130037AA3F
:1017700043CB43C21B6813603A00443213003BAAB8
:1017800043CB43C21B68136080233A005B041432CE
:10179000339313005A4643CB43C203CB03C220000A
:1017A0000CF0F2F835AA03925A4640A802923BAADE
:1017B000010053460092200037AA0195FEF7ECFE87
:1017C0000122069B07991A700B78002B01D000F0BC
:1017D00031FD434600221B68013341460B604B46F6
:1017E0001B6825989B184A4613600CF07DFA00226E
:1017F0000799069B0A701A703A001432130040AA27
:1018000043CB43C203CB03C23A0014321300524607
:1018100043CB43C203CB03C23A005432130037AA6E
:1018200043CB43C21B681360089A743213003BAA6F
:1018300043CB43C21B6813603A003B6B14322B60EE
:1018400013005A4643CB43C203CB03C220000CF023
:101850009BF835AA03925A4640A802923BAA01007F
:1018600053460092200037AA0195FEF731FE01226F
:10187000069B07991A700B78002B01D000F0D5FC5D
:10188000434600221B68013341460B604B461B68F0
:1018900026989B184A4613600CF026FA00220799F6
:1018A000069B0A701A703A001432130040AA43CB08
:1018B00043C203CB03C23A0074321300524643CBF7
:1018C00043C203CB03C23A00543213003BAA43CBBA
:1018D00043C21B681360072233923A003B6B1432F9
:1018E000359313005A4643CB43C203CB03C22000B7
:1018F0000CF04AF837AA03925A4640A8029235AA39
:1019000001005346019220003BAA0095FEF7E0FD3E
:101910000122069B07991A700B78002B01D000F06A
:101920007FFC434600221B68013341460B604B4657
:101930001B6827989B184A4613600CF0D5F90022C3
:10194000069B07991A70089B0A7008333BAA43CB81
:1019500043C203CB03C23A001432130040AA43CB64
:1019600043C203CB03C20A9A131D220043CB43C2D6
:1019700043CB43C203CB03C2089B37AA3C3343CBC0
:1019800043C21B6813600A9A243213002A0003CB57
:1019900003C25246089B083343CB43C203CB03C266
:1019A00058460BF0F1FF35AA03925246029237AA2D
:1019B00000923BA840AA130001002200584601955E
:1019C000FEF786FD0122069B07991A700B78002B03
:1019D00001D000F015FC434600221B68013341464C
:1019E0000B604B461B6828989B184A4613600CF006
:1019F0007BF900220799069B0A701A703A0014328C
:101A0000130040AA43CB43C203CB03C23A001432B3
:101A10001300524643CB43C203CB03C23A003432D5
:101A2000130037AA43CB43C21B6813603A00443209
:101A300013003BAA43CB43C21B6813603A003B6BC5
:101A400014322B6013005A4643CB43C203CB03C26C
:101A500020000BF0AFFF35AA03925A4640A802922D
:101A60003BAA010053460092200037AA0195FEF7D9
:101A700093FD0122069B07991A700B78002B00D06A
:101A8000BAE3434600221B68013341460B604B46D4
:101A90001B6829989B184A4613600CF025F9002210
:101AA0000799069B0A701A703A001432130040AA74
:101AB00043CB43C203CB03C23A0014321300524655
:101AC00043CB43C203CB03C23A005432130037AABC
:101AD00043CB43C21B6813603A00643213003BAA35
:101AE00043CB43C21B6813600A9AD36A3A0014328C
:101AF0002B6013005A4643CB43C203CB03C22000E2
:101B00000BF058FF35AA03925A4640A802923BAA0E
:101B1000010053460092200037AA0195FEF7D8FC39
:101B20000122069B07991A700B78002B00D05FE307
:101B3000434600221B68013341460B604B461B683D
:101B40002A989B184A4613600CF0CEF80022079999
:101B5000069B0A701A703A001432130040AA43CB55
:101B600043C203CB03C23A0074321300524643CB44
:101B700043C203CB03C23A00543213003BAA43CB07
:101B800043C21B681360072233920A9AD36A3A0051
:101B90001432359313005A4643CB43C203CB03C2DE
:101BA00020000BF007FF37AA03925A4640A8029282
:101BB00035AA01005346019220003BAA0095FEF78A
:101BC00087FC0122069B07991A700B78002B00D026
:101BD00006E3434600221B68013341460B604B4637
:101BE0001B682B989B184A4613600CF07DF8002266
:101BF000069B07991A70089B0A7008333BAA43CBCF
:101C000043C203CB03C23A001432130040AA43CBB1
:101C100043C203CB03C22200089B1C3343CB43C205
:101C200043CB43C203CB03C2089B37AA3C3343CB0D
:101C300043C21B6813600A9A303213002A0003CB98
:101C400003C25246089B083343CB43C203CB03C2B3
:101C500058460BF0AFFE35AA03925246029237AABD
:101C600000923BA840AA13000100220058460195AB
:101C7000FEF72EFC0122069B07991A700B78002BA9
:101C800000D0A9E2434600221B68013341460B60A5
:101C90004B461B682C989B184A4613600CF024F89E
:101CA0000022069B07991A700A9B0A70383340AAD3
:101CB00043CB43C203CB03C252460A9B383343CBC8
:101CC00043C203CB03C20A9B37AA4C3343CB43C264
:101CD0001B6813600A9B3BAA5C3343CB43C21B685F
:101CE000136080235A465B0231930A9B383343CBFF
:101CF00043C203CB03C220000BF0EEFD35AA0592D0
:101D00005A46049231AA03923BAA0192524640A835
:101D1000009232AA1300010037AA20000295FEF7B4
:101D20009FFC0122069B07991A700B78002B00D0AC
:101D30005AE2434600221B68013341460B604B4682
:101D40001B680C989B184A4613600BF0CDFF0022CD
:101D5000069B07991A700A9B0A70383340AA43CB36
:101D600043C203CB03C252460A9B383343CB43C220
:101D700003CB03C20A9B37AA4C3343CB43C21B6835
:101D800013600A9B3BAA6C3343CB43C21B681360AE
:101D90000A9AD36F319313005A46383343CB43C268
:101DA00003CB03C220000BF0ADFD35AA05925A46C5
:101DB000049231AA03923BAA0192524640A8009293
:101DC00032AA1300010037AA20000295FEF748FC52
:101DD0000122069B07991A700B78002B00D0F7E1BF
:101DE000434600221B68013341460B604B461B688B
:101DF0000D989B184A4613600BF076FF0023069A55
:101E000000211370079A54A81370342202F094FF33
:101E1000012306220221032062601A0026002360AB
:101E2000236303336161A161E061A062E1626063E9
:101E3000E36322646064A264E1640B97099B40AA97
:101E400003CB03C2524683CB83C283CB83C282239C
:101E5000DB053293ED4B58461B682B60EB4B9B88A0
:101E6000AB800BF04FFD3BAB059337AB029332AB2E
:101E7000019340AB310004960093524635AB58466F
:101E80000395FEF7BFFC143666AB9E42D6D1012205
:101E9000069B0B9F1A704346079A1B681178012214
:101EA000002901D10022013341460B604B461B68DB
:101EB0000E989B184A4613600BF016FF0023069AF3
:101EC00000211370079A54A81370342202F034FFD3
:101ED000012306220221032062601A0026002360EB
:101EE000236303336161A161E061A062E162606329
:101EF000E36322646064A264E1640B97099B40AAD7
:101F000003CB03C2524683CB83C283CB83C28223DB
:101F1000DB053293BE4B58461B682B60BC4B9B883D
:101F2000AB800BF005FD3BAB059337AB029332ABB7
:101F3000019340AB310004960093524635AB5846AE
:101F40000395FEF75FFC143666ABB342D6D101228F
:101F5000069B0B9F1A704346079A1B681178012253
:101F6000002901D10022013341460B604B461B681A
:101F70000F989B184A4613600BF0B6FE0023069A92
:101F800000211370079A54A81370342202F0D4FE73
:101F9000012306220221032062601A00260023602A
:101FA000236303336161A161E061A062E162606368
:101FB000E36322646064A264E1640B97099B40AA16
:101FC00003CB03C2524683CB83C283CB83C282231B
:101FD000DB0532938F4B58461B682B608D4B9B88DB
:101FE000AB800BF0BBFC3BAB059337AB029332AB42
:101FF000019340AB310004960093524635AB5846EE
:102000000395FEF7FFFB143666AB9E42D6D1012244
:10201000069B0B9F1A704346079A1B681178012292
:10202000002901D10022013341460B604B461B6859
:1020300010989B184A4613600BF056FE0023069A30
:1020400000211370079A54A81370342202F074FE12
:10205000012306220221032062601A002600236069
:10206000236303336161A161E061A062E1626063A7
:10207000E36322646064A264E1640B97099B40AA55
:1020800003CB03C2524683CB83C283CB83C282235A
:10209000DB053293604B58461B682B605E4B9B8878
:1020A000AB800BF071FC3BAB059337AB029332ABCB
:1020B000019340AB310004960093524635AB58462D
:1020C0000395FEF79FFB143666AB9E42D6D10122E4
:1020D000069B0B9F1A704346079A1B6811780122D2
:1020E000002901D10022013341460B604B461B6899
:1020F00013989B184A4613600BF0F6FD0023069ACE
:1021000000211370079A54A81370342202F014FEB1
:10211000012306220221032062601A0026002360A8
:10212000236303336161A161E061A062E1626063E6
:10213000E36322646064A264E1640B97099B40AA94
:1021400003CB03C2524683CB83C283CB83C2822399
:10215000DB053293314B58461B682B602F4B9B8815
:10216000AB800BF027FC3BAB059337AB029332AB54
:10217000019340AB310004960093524635AB58466C
:102180000395FEF73FFB143666AB9E42D6D1012283
:10219000069B0B9F1A7043461968079B1B78002B00
:1021A00001D100220131434619604B461B68149847
:1021B000D2184B461A6052180BF096FD4B461B681E
:1021C000002B00D096E02E980BF08EFDFEF754FC0D
:1021D000434601221B6807E6434601221B6855E57A
:1021E000434601221B68F8E4434601221B68A4E52C
:1021F000434601221B689FE4434601221B6844E4D6
:10220000434601221B68FFF7EAFBC046904C0110D1
:10221000984C0110A04C0110A84C0110B04C0110BA
:10222000434601221B68FFF780FB434601221B68DF
:10223000FFF72AFB434601221B68FFF7CEFA43460D
:1022400001221B68FFF771FA434601221B68FFF762
:1022500013FA434601221B68FFF7BCF943460122EB
:102260001B68FFF75FF9434601221B68FFF702F97D
:10227000434601221B68FFF7A4F8434601221B686E
:10228000FFF74DF8434601221B68FEF7F0FF434677
:1022900001221B68FEF793FF434601221B68FEF7ED
:1022A00035FF434601221B68FEF7DEFE434601224E
:1022B0001B68FEF781FE434601221B68FEF724FEE1
:1022C000434601221B68FEF7D2FD434601221B68EC
:1022D000FEF772FD434601221B68FEF7C2FC43462F
:1022E00001221B68FEF765FC43461B680022013390
:1022F000FEF707FC2F980BF0F7FCFEF7BDFBC0467E
:10230000024B18688007C00F7047C04600C00640E7
:1023100070B5EFF3108C72B60D4D2B68002BFCD00E
:10232000BFF35F8F0724CB08C618C05C01230C40A5
:10233000A3401C000440034207D118433070BFF390
:102340005F8F2C608CF3108870BD100001F086FC4C
:102350002C0100D0F8B54746CE46884680B5EFF34D
:10236000108C72B6214D2C68002CFCD0BFF35F8F0F
:102370009A422CD8D4080727055D06190124174076
:10238000BC402C421FD007210127894609E0D40810
:10239000055D06194C4639001440A1400C00294245
:1023A00011D001329342F2D201204042BFF35F8F3D
:1023B00000220E4B1A608CF3108800280FDBC0BC83
:1023C000B946B046F8BD254310003570EEE7BFF3BF
:1023D0005F8F00232B608CF310880120404243461E
:1023E000002BECD0089801F039FCC0462C0100D03D
:1023F0000021044B044ABFF35F8F02C39342FAD11A
:102400007047C046000100D0800100D0044A107817
:10241000431CDBB2172B00D9102313707047C04642
:10242000A80E002010B5064B064C82B001000093A8
:1024300018221F232000FFF78DFF02B010BDC046F9
:1024400044430110B047002001238340002904D0F9
:10245000034A1360034A13607047034A1360FBE7A3
:1024600080E200E000E100E080E100E00123834041
:10247000014A13607047C04600E200E0084B10308C
:102480009B688000C358002B07D0064A00209B1A87
:102490002F229A424041C0B270470020FCE7C0465C
:1024A00000ED00E0AC0E0020024B10309B68800075
:1024B000C058704700ED00E070B50D00EFF31086D6
:1024C00072B60F4A1368002BFCD0BFF35F8F0D4B21
:1024D00010309B6884001B590B4A934203D09D42E5
:1024E00001D001F0D3FB074B9B681D51BFF35F8FF9
:1024F000BFF35F8F0022024B1A6086F3108870BD15
:10250000240100D000ED00E0CD010010F0B55746E9
:102510004E46DE464546E0B585B006000091170000
:10252000EFF3108B72B66A4A1368002BFCD0BFF32E
:102530005F8F0025674B5D579A46002D00DAA9E0B2
:102540006B00654C01935B199B009846A146C14402
:102550004B4652469B7910361370604BB6009B6811
:1025600099590B1B2F2B33D95D4B994200D0ACE00E
:10257000019B42469C465B4B6544AD0063535A4BFE
:102580000232A218043B9B1A1B05584A5B0D6519C1
:1025900013436B80564B0121AB80FF23AB71009B33
:1025A000EF71AB604B460B4319004C4B9B68995144
:1025B000BFF35F8FBFF35F8F0022454B1A608BF331
:1025C000108805B0F0BCBB46B246A946A046F0BD97
:1025D00001200A008243D3798C46BB4231D845465C
:1025E000130044491B1B5B415943090D3D4B635389
:1025F0003D4B02356519043B5B1B1B053B4D5B0DD9
:102600002B43AA464D466B800425AC465546E04414
:10261000131F44441B1B1B055B0D1D434B46997147
:1026200000999D8099604946DF71334B01431360E7
:10263000BBE75800C01880002018C179B9422FD9D3
:1026400002000623D356002BF3DA02932B4B61468C
:102650000393131D9A4604235B429C46E144504673
:102660004B461B1A1B055B0D9C46204B95719846EB
:102670006346404603439380019B5A199200039B93
:10268000A418A380029B1C4AA371009B2260E771DF
:10269000A3608AE701F0FAFA002553465D574FE739
:1026A000908802934005131D9A46031561469C4687
:1026B0004046D444634604302018181AE02300052D
:1026C000400D1B0218430390C5E701F0DFFA4FE706
:1026D000240100D0AF4C0020AC0E002000ED00E043
:1026E000CD01001000A1FFFFDC0E002000E0FFFF85
:1026F00001BDFFFFAAAA00000148804701BD0000FC
:10270000F0B5DE4657464E464546E0B50C0083B070
:10271000EFF3108872B65D4A1368002BFCD0BFF34C
:102720005F8F5B4B5B499A68030010339F00D5595C
:102730008D4239D0A5424AD0574EAA1B2F2A33D8F2
:1027400001229246824091464846544A12681040FF
:1027500001904846524A1060BFF35F8FEFF3058245
:102760009346002A35D0934201D001F08FFA2A0017
:1027700053469A439068844208D175E04B005B1839
:102780009B00F3189868A04234D01A0006215156D5
:102790000029F3DA844253D0019B002B26D04A460D
:1027A000404B1A603D4B1A60394B9B68DD51BFF3BB
:1027B0005F8FBFF35F8F0022344B1A6088F310885D
:1027C00003B0F0BCBB46B246A946A046F0BD0D0022
:1027D000EAE72A0053469A4390688442D6D10620FD
:1027E00010561300002809DA0D0031E04A462C4B40
:1027F0001A60D9E706201856002822DB420011187B
:10280000890074188A46A1689960E179D971062116
:1028100061569971002925DBA488F11A64052415F5
:1028200054440919E0240905490D240221439980E3
:1028300013181D4A9B001178F31899711070ABE7BB
:1028400013005946002914D1FF3191711749918025
:1028500015490A789A71164A9B1B5B415A43120D1F
:102860000A7099E71349E2E7062010561300002882
:10287000C4DA114A1149D21A083A5002400D0143F4
:1028800099800F4952080A43DA8085E7240100D075
:1028900000ED00E0CD010010AC0E002000E100E0F2
:1028A00080E100E080E200E0AF4C002001BDFFFFCE
:1028B000AAAA000001BD0000E60E002000F0FFFF04
:1028C00000F8FFFF70B5EFF3058101240443EFF337
:1028D000108C72B6214A1368002BFCD0BFF35F8FB7
:1028E0001F4B05001F4AED1A6D416A43120D1E4D24
:1028F0008900AE6852B27658A6421CD006215956BD
:1029000091421CD012215956914222D01E21595673
:10291000914220D02A2159560324914210D0134BC2
:1029200019781A708171BFF35F8F00220B4B1A6008
:102930008CF3108870BDAB680D4C5C50EFE7002441
:102940006100091989005B18FF2199710949998073
:10295000E5E70124F4E70224F2E7C046240100D0B1
:10296000AC0E0020AAAA000000ED00E0AF4C002051
:10297000CD01001001BDFFFF054B064A1360064A5A
:10298000136053609360D360136153619361704728
:102990008080808000E400E004E400E010B5084B93
:1029A000084C82B001000093002205232000FFF7AD
:1029B000D1FC002801DB1F23181A02B010BDC0464D
:1029C00060430110B44C0020024B9C4661448900D6
:1029D000016070474000003410B50400FFF716FD99
:1029E00001002000FFF7F0FFFF232371BFF35F8F8B
:1029F00010BDC04610B50400FFF708FD010020001F
:102A0000FFF7E2FFFF23A380BFF35F8F10BDC04637
:102A100010B504000120FFF705FD034BC3189B0010
:102A20002360BFF35F8F10BD40000034034B9C4612
:102A3000614489000160BFF35F8F7047400000343C
:102A400083680B4810B58446614462441201090151
:102A500059189B185C684A680120944201D802D03A
:102A60000020C0B210BD1A680B689A42F9D8F7E787
:102A7000FFFFFF0F0A4B1968EFF3108072B60A6868
:102A8000002AFCD0BFF35F8F1B68BFF35F8F00226B
:102A90001A6080F3108840BF002000217047C046B4
:102AA0007C4C0020F8B5574645464E46DE46E0B51C
:102AB00098460CAB1C780DAB1B78070091469A46E4
:102AC0000568002C59D1AC7B002C3BD066002968EE
:102AD0003619033E89194B78AB73002B00D1EB7389
:102AE00000238B704B700B702D4BE218BB681201EA
:102AF0009B184A461A6042465A600A9A9A600B9A94
:102B0000DA6000238B704B700B706B7B9B46002B45
:102B100026D022006B685946A86898475B465B0040
:102B20005B442A68033B002812D058469619B070BF
:102B3000D118D35C002B00D073705B460C706B73A4
:102B40005C450ED0F0BCBB46B246A946A046F8BDD7
:102B5000D3189C709119925D002A1CD15B460B70B2
:102B60006C734A464346387D00F04AFB051E0AD185
:102B70000E9B002BE6D01D70E4E76600296836192D
:102B8000033E8919B0E75346002BF1D12100386884
:102B900000F04EFDECE75A705B460B706C73E0E79B
:102BA000FFFFFF0FF0B5DE4657464E464546002371
:102BB000E0B58BB00893684B8200D45800239B4645
:102BC000099000F099FA02000B006068EFF3108A98
:102BD00072B6564601680029FCD0B246BFF35F8F3B
:102BE00021684F7B8C46002F2ED0A5685B49A946F3
:102BF00079180901894449460868496805000E00AA
:102C0000AD1A9E41002E5FDD02000B00099800F016
:102C1000F7FA002300229946002306920793002327
:102C200098466368BFF35F8F5A461A608AF310882C
:102C30004346002B12D10028C3D10BB0F0BCBB46D9
:102C4000B246A946A046F0BD0023002299460023C3
:102C500006920793002300209846E2E7089B494626
:102C600018023843C047626805000E00EFF3108A6F
:102C700072B61368002BFCD0BFF35F8F002E41DBD0
:102C80002B00334302D02369002B56D12368D97B14
:102C9000002905D01A68480041185218033A5770A5
:102CA0009A7B002A00D19F73DF73E268013FD35DF6
:102CB0000133D3555B4623616368BFF35F8F5A4688
:102CC0001A608AF310887CE7002E02D1002D00D014
:102CD0009AE70021604600F029FC4B461A685B68C1
:102CE000069207934B469B6898464B46DB6899468D
:102CF000E368DB19013B1B7808931B020343236144
:102D000000208EE72369002BC0D0069A079B802104
:102D1000521BB34109068B4202D30122104B52428F
:102D2000002104910131039149460191414620005F
:102D300002970091FFF7B6FEBCE700F0DDF92A002C
:102D4000330012184B41802109068B42E8D301223F
:102D5000034B5242E4E7C046604C0020FFFFFF0FE8
:102D6000FFFFFF7F10B5144C6368002B04D00A21CD
:102D70001248FFF729FE10BD2300114A10212068D8
:102D800000F0F0FA032000F0ABF9032000F0A0FA05
:102D900003200C4900F0EEF9FFF738FB0A4B9C4684
:102DA00003232375D0231B061B6860446375074B00
:102DB00080006060DC60DAE7F40E00207C4C0020CC
:102DC000412A0010A52B001040000034604C002068
:102DD00000487047F40E0020F0B557464E46454671
:102DE000DE46E0B585B0019310AB1B780600039377
:102DF00000239A46984600927268EFF3108B72B6E1
:102E00001368002BFCD0BFF35F8F3568AC7B002CC0
:102E100000D16EE067002B683F19033FDB195A7839
:102E2000AA73002A00D1EA73484AA118B2680901BE
:102E3000521800980199106051600E9991600F9995
:102E4000D16042469A705A701A706B7B9946002B7B
:102E500000D16BE022006B684946A86898474B4652
:102E60005B004B442A68033B002856D04846D719DC
:102E7000B870D118D35C002B00D07B704B460C701F
:102E80006B734C4553D0F3681B19013B187873687A
:102E9000BFF35F8F42461A608BF310885346002BB6
:102EA00008D10002204305B0F0BCBB46B246A9469B
:102EB000A046F0BD039B002B46D00E9B00200F992F
:102EC000984703000B433FD004000D1E1ADA009A06
:102ED000019B121BAB410092019380221206934288
:102EE00004D301231A4C5B4200930194039B9A463E
:102EF00082E77368BFF35F8F1C608BF3108801203B
:102F00004042D0E700F0F8F880220019694112062B
:102F1000009001919142E9D3E3E7D3189C70D11955
:102F2000D25D002A00D05A704B460B706C73307D16
:102F3000009A019B00F064F982460028A3D021008A
:102F4000306800F075FB9EE70020ACE7FFFFFF0F45
:102F5000FFFFFF7F407D7047F0B5EFF30583CE465E
:102F6000474680B505000C0085B0002B12D02A4AD8
:102F70000020536AA34203D3926A0130AA4204D3C9
:102F800005B0C0BCB946B046F0BD1B1B5A1E9341EC
:102F9000D8B2F5E7214E02930193214B0200009332
:102FA00030000B00FFF718FF031EE0DD20BF716843
:102FB000EFF3108772B60A68002AFCD0BFF35F8F68
:102FC000DAB29446FF2230681A40417B61450FD047
:102FD0000168894651008846494690444144033976
:102FE0008978002904D13269934209D1316107E01F
:102FF000F1681B0A8A18013A1278DBB29A4207D0AC
:103000007368BFF35F8F00221A6087F31088AEE702
:10301000614600F00DFBF3E700400540F40E002090
:10302000752A0010F0B5EFF30582D6464F464646A6
:103030001000C0B51038EFF3108872B6214C236829
:10304000002BFCD0BFF35F8F0123190081401E4D80
:103050001F006963AA461D4D29601D4D2E78AC46A0
:103060003500C5402F402B4215D053465F6A194B9F
:103070008500EB589F4218D36246174B8E43EB589E
:103080001670BFF35F8F0022226088F31088002B38
:1030900006D0984704E0BFF35F8F276088F310885D
:1030A000E0BCBA46B146A846F0BD0C4B92009C4627
:1030B000624413681360BFF35F8F0023236088F3BB
:1030C0001088EDE7280100D0004005403C70054025
:1030D000B34C0020884C002098460020D03F05408B
:1030E00010B5034B01001800024AFFF711F910BD9B
:1030F000AE4C00207C430110034B596A0A00986AC9
:10310000596A8A42FAD170470040054070B5040000
:103110000D00174A536A1900966A536A8B42FAD116
:103120003000190024184D41AB4216D813D0104B73
:103130002A005B6A9D4203D90D494B6A9342FCD336
:10314000934207D10A4A02E0516A994202D1916A38
:10315000A142F9D370BDA642E9D9054B5B6A1C00B8
:103160005A1CEFD0012201246442E5175242E3E7E2
:103170000040054070B504000D00EFF3108672B6F4
:103180001A4A1368002BFCD0BFF35F8F002D1BD0B1
:103190002000FFF789F9164981420AD02000FFF785
:1031A0008BF901212000FFF74FF90123A340114AB9
:1031B0001360114BA400E550BFF35F8F00220B4B4F
:1031C0001A6086F3108870BD0121A1400A4BA2004D
:1031D000D5500A4B20001A788A4305491A70FFF728
:1031E0008FFA00212000FFF72FF9E5E7280100D032
:1031F000253000103860054098460020B34C002070
:10320000F0B54F46D6464646C0B507002B4C616A1E
:103210000D00A66A616AA942FAD18B4208D805D08E
:103220000120E0BCBA46B146A846F0BDB242F7D98B
:10323000EFF3108A72B6224801680029FCD0BFF370
:103240005F8F0125BD401F491C4C8846097889467F
:103250002943C9B28C46414660460870391D890031
:1032600065630A511849B8004350216A0020294279
:1032700019D0616A0800A66A616A8142FAD18B425C
:1032800019D801D1B24216D8CC450BD00B4B1F2216
:103290001D625D6301233A4093400C4A136043462C
:1032A0004A461A700120BFF35F8F0022044B1A6058
:1032B0008AF31088B5E70020F5E7C04600400540D6
:1032C000280100D0B34C0020884C002080E200E0B0
:1032D000EFF3108C72B60A490B68002BFCD0BFF3D9
:1032E0005F8F01238340074A0748136202789A439D
:1032F0000270BFF35F8F00230B608CF31088704760
:10330000280100D000400540B34C002070B50600F5
:103310000D00140000291DD0002A12D073688068A7
:10332000984762006B0012195B193168033A033B3E
:10333000002808D08A189570C818CB5C002B0BD1D8
:103340000470280070BDCB189C7088188A5C002A15
:1033500005D105702000F5E753700470F1E75A704D
:103360000570F7E710B583600023CCB243730133D7
:10337000426004738373C4730068421C012C05D936
:103380000133DBB2137003329C42F9D1FF230B40AF
:103390005A00D318C01800230338437010BDC0462C
:1033A00070B505000C1E07D0630001681B19033BB4
:1033B000CB185A78002A01D1200070BD5000801827
:1033C0000338091800204E784870210058702800F2
:1033D000FFF79CFF310004002800FFF7E1FF060023
:1033E000002C20D00028E7D0320021006B68A868AC
:1033F00098477200630092191B192968033A033B2E
:10340000002808D08A189470C818CB5C002B00D014
:1034100053700670D0E7CB189E7088188A5C002A1B
:1034200000D05A7004703400C6E7C046F0B5574665
:103430004546DE464E46E0B50D006F0001687F1937
:10344000033F0400C85D83B00192CA19002850D020
:1034500043001B18033BCB185E78B446002E1AD1EC
:10346000019E002E42D0E67B002E04D073009B19F3
:10347000CB18033B5D70A37B002B00D1A573E573D4
:1034800000282FD10023537003B0F0BCBB46B246D6
:10349000A946A046F0BD72006244033A8A185178EA
:1034A0008846002151708946597032000100200081
:1034B000FFF72CFF43468246002B07D05B002168B4
:1034C0004344033BCB185A78002A16D14246514652
:1034D0002000FFF71BFF2168019BCA19002BC2D1F6
:1034E0000028CFD043001B18033BCB180021997054
:1034F000C8E7019B002BB6D1C4E750008018033801
:10350000091848788346484648705870414620005C
:10351000FFF7FCFE594680462000FFF741FF414679
:1035200002002000FFF7F2FE8046CFE7F0B55746D5
:103530004546DE464E46E0B583B00191457B04002A
:103540006F0000687F19033FC15DC219002952D086
:103550004B005B18033BC3185E78B446002E1CD1A9
:10356000019E002E44D0E67B002E04D073009B19F0
:10357000C318033B5D70A37B002B00D1A573E573DB
:10358000002931D1002328005370617303B0F0BCCF
:10359000BB46B246A946A046F0BD72006244033A5B
:1035A0008218507880460020507081465870320052
:1035B0002000FFF7ABFE43468246002B07D05B009E
:1035C00021684344033BCB185A78002A17D142465E
:1035D00051462000FFF79AFE019B01002068C219A6
:1035E000002BC0D10029CDD04B005B18033BC31882
:1035F00000209870C6E7019B002BB4D1C2E75000B1
:10360000801803380918487883464846487058702F
:1036100041462000FFF77AFE594680462000FFF71A
:10362000BFFE414602002000FFF770FE8046CEE755
:1036300070B5050000292CD0437B8B422ED04C0066
:1036400000686418033C0419A278002A21D05300B2
:103650009B18033BC25CC6188A4202D11BE0002AB9
:1036600008D053009B18033BC3185A788A42F6D1FE
:1036700062785A70002301222800A3706370FFF75C
:10368000D5FE697B02002800FFF740FE6873012029
:1036900000E0002070BD63783370EBE70122190071
:1036A000FFF7C4FEF2E7C04610B50C2082B000F070
:1036B000B1F9FEF725FE002810D08B4B8B488B49C3
:1036C0008B4A186059609860D96018615961986197
:1036D000D961186259625A6202B010BD854CA06768
:1036E00000F0EEF90122844B1A60636C012BFCD1CF
:1036F0000322824B1A607F4A936B012BFCD101336A
:1037000001217F4A7F480093043300F031F90523FB
:103710007D4A009301217D4800F02AF97C4B5A68CC
:10372000FF2A02D8802252005A608022734B6E4CCE
:1037300012011A602169002907D0606900F04EFB70
:10374000013043001B18033BFDD2E022704B71484F
:1037500019680A40026002221968514001320A4089
:10376000042102609A681142FCD080216A4A090152
:103770001160802252005A60684B2361684B59687F
:10378000FF2900D85A60032201215B4B1A60644A6A
:1037900093681942FCD0E02310680340614803603D
:1037A000126803234A40022113405D4A0360936874
:1037B0001942FCD080215C4B0901196080215B4BD0
:1037C0004900516063615A4B5A68FF2A00D859601A
:1037D0008022584B12011A60E169002907D0606904
:1037E00000F0FCFA013043001B18033BFDD2E0233C
:1037F0004F4A11680B4050490B6080214F4B090123
:1038000019608021394B49005160E3614C4B5A6883
:10381000FF2A00D8596080224A4B12011A60216A9F
:10382000002907D0606900F0D9FA013043001B1865
:10383000033BFDD2E023424A11680B4042490B6032
:103840008021424B0901196080235B005360802274
:10385000264BD20223623E4B5968914200D25A60F5
:1038600080223C4B12011A60616A002907D060690E
:1038700000F0B4FA013043001B18033BFDD2E023F3
:10388000334A11680B4034490B608021334B0901E6
:1038900019608023DB025360154B6362304B5A681A
:1038A000FF2A02D8802252005A6080222D4B12013A
:1038B0001A60A169002907D0606900F08FFA013011
:1038C00043001B18033BFDD2E023254A11680B403F
:1038D00025490B608021254B0901196080235B007D
:1038E0005360124BA361F7E680160020006CDC02E7
:1038F0001BB70000008000403CB0004030B00040EA
:10390000002F685900800240008C864700C00240AA
:10391000308000403090004030A00040001BB700D5
:103920003C8000403C9000403CA000404059730760
:103930005480004054B000405490004054A00040D7
:103940006080004060B000406090004060A0004097
:103950006C8000406CB000406C9000406CA0004057
:103960004880004048B000404890004048A00040D7
:10397000F8B5040022481E0017000D0000F02EFAD2
:103980000100380000F02AFA069B36041B031E4390
:103990002368002B22DB1B4B1B49E3185A1E934163
:1039A0008022920194465B421B0B184A1B0363441E
:1039B0001360174A13601F008A689743FBD1C02227
:1039C000231D92011A4321232560A0601360236800
:1039D000002BFCDA0823E6601360F8BD3F23226861
:1039E0001340AB42D7D1A3681B051B0D8342D2D134
:1039F000EE22E368D2021340B342CCD1EDE7C046D9
:103A0000001BB7000040FDBF00C0004000E00040C8
:103A100000F000408023024A9B000343D3627047BA
:103A20000080054010B580241C4BE4051C60002874
:103A30001AD001231A4C18431A4BDC611A4C44402B
:103A40001C62596298628021144BC905196017489D
:103A500017490860E021C9041960002A07D18022B3
:103A6000144B12061A6010BD0E4BD861EBE75301E0
:103A70009B1A9B009A18802312015B049A4209D278
:103A800013000D490B60074B5A608022094BD20589
:103A90001A60E8E7094B1A00F3E7C04600B005409A
:103AA000D3C007B0008005402D3FF84FFCFF010058
:103AB0000820014000A00540384C0020FFFFFF0017
:103AC000AA23064A1B0113602F230549D360054B27
:103AD00019605368002BFCDA7047C0460040024072
:103AE00000B0FA00006002402C4B2D4A70B51A60FD
:103AF0002C4A2D4B2D491A6014008B689C43FBD136
:103B00002B4D2C4EB54208D2013E761BB60808CD8F
:103B1000984723000134B342F9D1FFF7C5FD264A87
:103B2000214B1A60214A9368DB43DB01DD09002B3E
:103B3000F9D14022214B224C224E9A675A671A67CC
:103B4000DA66B44208D223682000002B20D0083463
:103B5000FEF750FFB442F6D31B4C1C4EC022B16896
:103B6000200001F0EFF8B460FEF742FCFEF704FF1E
:103B7000FFF7F8F8164C174EB44208D2013E361B38
:103B8000B60808CC98472B0001359E42F9D170BD8C
:103B90000834FEF721FFB442D5D3DDE700E0004052
:103BA000BFCDFBFEFE7F3C0000F0004000C00040A7
:103BB0006416002074160020FFFFFF0100F0014092
:103BC00054160020641600200000002000ED00E0E4
:103BD000741600208016002000BEFDE7094A03008D
:103BE0001068002805D00849C3188B4207D8136015
:103BF000704706480449C31810608B42F7D901206A
:103C00004042F5E72C48002000000420B84C00207A
:103C100000207047012040427047C04610B5FFF7B2
:103C2000DBFFC04630B50D0083B01900002A0BD071
:103C3000074B084C0192009302002B00200000F07B
:103C400033F80120FFF7C8FF034B1A00F1E7C04625
:103C5000A0430110B0430110404301100FB400B560
:103C6000084883B001F00AF9049B002B07D005A98E
:103C70001800019100F038F8034801F0FFF8012026
:103C8000FFF7AAFFE0430110F043011010B501480F
:103C9000FFF7E4FFF443011010B5002800D110BD78
:103CA00001F0A0F8FBE7C0460FB430B50C4985B071
:103CB00008AA08CA0D680392002D0CD000920122B8
:103CC000084C5242200002A9A847012005B030BC90
:103CD00008BC04B01847180001F0D0F80020F5E740
:103CE000344C0020993C001010B5094A03001468B8
:103CF00084B0002C08D0012200910648524203A94A
:103D0000A047012004B010BD01F0B8F80020F9E789
:103D1000344C0020993C001001480421014B184705
:103D2000200F0020493D0010142310B50100188811
:103D300004331B88984710BD162310B5010018885E
:103D400002331B88984710BDF8B54746CE4680B56C
:103D50000F1E19D0142399460433040000250126B0
:103D600098464B461888434621681B88984701C4EB
:103D7000431E9841013540420640AF42F1D1300028
:103D8000C0BCB946B046F8BD0126F8E7124A936FA9
:103D90009B0815D29066D166002905D0FFE7FFE7A2
:103DA000FFE7516F106F704704B580210906C217F5
:103DB0005140002800D0C8430FF0EAFF002104BDA5
:103DC000F0B5146E556E576F166FFFF7E3FF14666C
:103DD000556657671667F0BD000000D0114A936F13
:103DE0009B0813D210665166002905D0FFE7FFE754
:103DF000FFE7516F106F704704B5002801D0002015
:103E0000C0430FF0C5FF002104BDC046F0B5146EDD
:103E1000556E576F166FFFF7E5FF146655665767C7
:103E20001667F0BD000000D094464A4A926F92088F
:103E3000624601D228E0C046F0B5464E346E756E3B
:103E4000776F366F00F020F89446424A1466556644
:103E5000576716676246F0BD94463E4A926F9208D5
:103E6000624601D254E0C046F0B53A4E346E756EEB
:103E7000776F366F00F04CF89446364A14665566F4
:103E8000576716676246F0BD002B24DB11D000296E
:103E90003EDA00B5C943404200D1013100F038F8A4
:103EA000C943404200D10131DB43524200D10133CA
:103EB00000BD002AEBD1002801D1002905D0002047
:103EC000C90FC90701D1C043410800B50FF050FF29
:103ED0000022002300BD00B500290ADBDB4352426B
:103EE00000D1013300F014F8C943404200D1013140
:103EF00000BDC943404200D10131DB43524200D1F1
:103F0000013300F005F8DB43524200D1013300BD1C
:103F1000002923D1002B18D1002A0CD0BC460D4F0C
:103F200038667A6600210023FFE7FFE7FFE77A6F34
:103F3000386F67467047002801D00748010000B578
:103F40000FF016FF0022002300BD02000B0000202E
:103F500000217047000000D0FFFFFFFF002B00D0C2
:103F6000BFE0130C28D1002AE7D080B4114F396686
:103F70007A66FFE7FFE730B4040C7B6F396F1B04F0
:103F800023433B667A66FFE7FFE7FFE7C04684B25C
:103F90007B6F3D6F1B0423433B667A66FFE7FFE7B9
:103FA000C04600232C042D0C7A6F386F001969412C
:103FB000B0BC7047000000D0F0B594460025140E48
:103FC00001D112020835140F01D112010435940FEA
:103FD00001D192000235D40F01D152000135D40B2A
:103FE0000134254F7C66254C3C660E0C93B2FFE7EE
:103FF000FFE7FFE73C6F6643360C7703BE4673432B
:10400000DF0B5B04C01AB941130C7343DB18C91AE8
:10401000CE086643360CB64493B273431F0F1B01A0
:10402000C01AB941130C73431F0B1B05C01AB941C9
:10403000860D8F023E436643360C092D24DB520A5F
:104040007243801A7703460A6643360C16235B1BBD
:10405000DE40DF40BF1964466643821B704604356C
:1040600006330100D940A840C01900D30131A24253
:1040700006D20023F0BD0000000000D0FFFFFFFFCC
:10408000121B0130F3D3F1E709277F1BFE40644682
:10409000A2B27243801A00D20139220C7243130C6F
:1040A0001204821A99410B0070460435133701003F
:1040B000F940A840801900D30131002B02D1A2425F
:1040C0000AD2F0BD013000D30131121BFAD2013BFC
:1040D000F8D1A24200D2F0BD013000D30131121B51
:1040E000F7E7F0B51C0C00D080E00CB400251C0AEA
:1040F00004D11B02160E3343120208351C0B04D1E7
:104100001B01160F3343120104359C0B04D19B0095
:10411000960F334392000235DC0B02D192185B41BB
:1041200001351C00971864410134464F7C66464CAB
:104130003C660E0CFFE7FFE7FFE7C0463C6F6643B7
:10414000360C7703BE4697B27743C01B00D20139C5
:10415000C01B00D201399FB27743C91BC91B170C82
:1041600077437E04FF0B801BB941CE086643360CB3
:104170000C2D33DBB644120B1F053A431B0B97B2D1
:104180007743C01B00D201399FB27743C91B170C7C
:1041900077433E043F0C801BB941860D8F023E439E
:1041A000664329277F1BFE400C3D7746AF40BF1971
:1041B00030BCA2B2ABB272437343801A9941220C55
:1041C0007243130C1204801A994102000B0001374C
:1041D000001BA941F9D2781E0021F0BD0C277F1BDE
:1041E000FE4077467F0BAF40FF19E0E700245D1CDF
:1041F00007D0144F7D663966FFE7FFE7FFE7FFE76B
:104200003C6F95B29EB265436643401BB141150CAD
:104210001E0C6543664336042F0C3E432D04401BA1
:10422000B141994204D202000B0020000021F0BDF0
:1042300001D19042F7D3801A994101349942F2D3C7
:10424000F6E70000000000D0FFFFFFFF48404140BC
:10425000484018B41B4B5B68FC46019308BD04DF63
:10426000CB45001018B4174B1B68FC46019308BDE2
:1042700000DFD54500109446134A926F920809D288
:10428000624618B40F4BDB68FC46019308BD0CDF97
:104290008D4800100C4AF0B5146E556E576F166FAE
:1042A0006246FFF7EEFF084A1466556657671667C1
:1042B000F0BD18B4034B9B68FC46019308BD08DFB2
:1042C00031470010B0170020000000D0FFB550406B
:1042D0004240504059404B40594000E0FFB5154F17
:1042E0004C00640D03D0BC4204D10C0314D8002050
:1042F000090D09055C00640D03D0BC4204D11C0308
:104300000AD800221B0D1B0501264B4009D44B4047
:1043100003D58B4200D18242FFBD9942FCD190422D
:10432000FFBD0B43DB1803431343F5D0C9434918C2
:10433000FFBD0000FF07000000B5FFF7CFFF01D071
:10434000002000BD012000BD00B5FFF7C7FF804180
:1043500000BDC04600B5FFF7C1FF01D9002000BD78
:10436000012000BD00B5FFF7B1FF804100BD012075
:1043700040054A00121804D85A00121801D800202B
:10438000704701207047002070470000002100287E
:1043900005D17047C1174840401AFAD0C90713B574
:1043A000064B1B6898470CBC441CA2401005120B1E
:1043B0000349091B09051943114310BD784C00201E
:1043C0001F04000010B54C00620D8023D218DB00E2
:1043D000D21A5B057E2A10DD9E3A13DACC17090348
:1043E000490819435242D140640001341532202A51
:1043F00005DAD0400843604310BD002010BD0846D8
:10440000604310BDC80FC018013810BDC94211D398
:1044100000B549004908002200F018F8002904D42A
:10442000002240428A41114600BD80210906002039
:1044300000BD000018B4044BDB6EFC46019308BDC0
:104440006CDF3D4A00100000B017002018B4044B88
:104450009B6FFC46019308BD78DF5B4A00100000AB
:10446000B0170020132370B51D78012D15D010DD75
:104470001D48FFF761FC1D4C01008022200000F068
:1044800061FC022D2DD01A48FFF74EFC194B186025
:1044900070BD194B154CA364F5E7174B134C236003
:1044A0006360A360E36023616361A361E3612362EE
:1044B0006362A362E36223636363A363E3632364CE
:1044C0006364A364E36423656365A365E3652366AE
:1044D0006366A366E36623676367A367E367A36412
:1044E000D1E7054BA364CEE753440000B01700208A
:1044F0004C330000784C002099450010244A4B00B2
:1045000094465B0D6344F0B504000D005A1C21DB9A
:104510005A1C35D0342B1CDA3326F61A3700203FCC
:104520001CD40121B9400B000121B1400A0012192D
:104530006B41002F1EDB0224BC4021000224B4404A
:1045400020001600002544428D4126402B403000BB
:104550001900F0BDCB0F0020D907FAE72021012078
:10456000891BC8400121B14003000A0012196B41A8
:10457000002FE0DA20240225A41BE5402900DDE716
:10458000CB0F044ADB071A4300201100E1E7C046C5
:1045900001FCFFFF0000F03F07B5604601880A0AF2
:1045A0000230DF2AFAD1C9B2820804D302884088D7
:1045B0000004104300E00068014A5050039007BD1A
:1045C000B01700200FB403BC0CBCF0B50124E40705
:1045D000634000E0F0B50C0DCF0F661E3605891B59
:1045E000640503D3C943404200D30131640D03D0B5
:1045F000661CF60A07D0E41B00207F00791C89079F
:104600008912803C24031D0DDF0F6E1E36059B1B97
:104610006D0503D3DB43524200D301336D0D03D04C
:104620006E1CF60A07D0ED1B00227F007B1C9B0747
:104630009B12803D2D032F1B661B58D4A446202EB1
:1046400046DA20371400BC401D00BD40F240334123
:104650002A4380185941CB0F05D0C943C0430022DB
:1046600064425041514162464D0D28D10D0D07D194
:1046700000281FD0241940414941013A0D0DF9D0BD
:10468000640006D3013000D30131002C01D1400871
:104690004000013A0BD4941CE40A04D112051144E1
:1046A000DB071944F0BDD907204B194300E0D907B7
:1046B0000020F0BD0029DDD1002CDBD1F0BD01329E
:1046C000C6074008CD0728434908002EE1D0D9E7A6
:1046D0003C2E29DA203E40371400BC4000D0012493
:1046E000F24014431A00BB401C43D317ACE7AC465E
:1046F000202F08DA20360400B4400D00B540F84001
:1047000039412843A5E73C2F0CDA203F403604000E
:10471000B44000D00124F84004430800B1400C43E9
:10472000C117EAE710001900002494E70000F07FA9
:10473000F0B50C0D661E3605891BE60A6405640D8E
:1047400002D0651CED0A04D0002001210905803C3F
:104750002403A4461C0D671E3F05DB1BE70A640506
:10476000640D02D0651CED0A04D0002201231B0554
:10477000803C24037740644497B484B296B2744377
:10478000070C7E43150C6F4380B26843361802D382
:10479000012000043F183004350C00197D41844687
:1047A00088B29AB250430C0C62431F0C7C438EB209
:1047B0007E43921902D301263604A4191604170C5D
:1047C0003618674101BC81B29AB25143040C62436E
:1047D0001B0C5C4380B25843121802D30120000422
:1047E00024181004130C401863412D185E4100205A
:1047F000474106BC88B293B258430C0C6343120C79
:10480000544389B251435B1802D30121090464184F
:1048100019041A0C091862416D18564100204741CD
:1048200018BCF902720D1143F0026A0D1043ED023B
:104830000A0D03D16D1940414941013B124E9B1BAA
:104840007600B3420ED26D0007D3013000267141CD
:104850006646354301D1400840001B05C918E407EE
:104860002144F0BD0BDA013306D1013004D101310E
:104870004F0D01D04908F2E7E1070020F0BD0136F5
:1048800031050020EBE70000FF030000F0B51C0D30
:10489000671E3F05DB1BE70A6405640D02D0661C3A
:1048A000F60A04D0002201231B05803C2403D025F6
:1048B0002D060026F6432E661E096E66CE0FF619EB
:1048C000B44649004F0D02D07E1CF60A03D00020EA
:1048D0000021403F3F033E1BB600B444013F7F052B
:1048E000C91B49082E6F013676089C02950D254399
:1048F0007543ED137543AD1301356D10F603761B4B
:104900000CB4CC02450D2C43A2B2B3B25A43270CCF
:104910007B43350C6F43A4B26C431B1902D30124B3
:1049200024043F191C041D0CA4187D4124196D4159
:10493000009A91B2ACB26143170C7C432B0C5F43DD
:1049400092B25A43A41802D301221204BF182204BF
:10495000230C52187B41019C6C431B19520ED90148
:104960000A434401A01A81B2B2B2514303145A431C
:10497000360C734387B27743D617D21900277E418E
:1049800036049B191704160C7F185E417316ED1838
:10499000F301002680337541A90F06D16400690A2E
:1049A000E8055B0A184309D22FE0042294448033BF
:1049B0007541A90AA8059B0A184326D340414941DD
:1049C0002404009A019B0D005543641B4343E41AE1
:1049D00095B286B27543170C7E43030C5F4392B2C7
:1049E0005A43B61802D301221204BF183204330C02
:1049F00052197B4152429C41002C02D400220130CA
:104A000051414008CA071043490802B06246D7071F
:104A10009210084BD218084B9A4203D212058918FB
:104A2000C919F0BD0020002A01DC3900F0BD0133B6
:104A30001905F5E7FD030000FE070000002200B5A0
:104A400000F00DF8CA179A4200D100BDD8430121E9
:104A5000C907414000BD000000220B150AD410B563
:104A6000944600F031F81414013400DA0021CB1719
:104A7000144C20470020002170476244343A0CD483
:104A80000C2A07DA04009140904052422032D44070
:104A9000214310BDD843D94310BD203207D40C4662
:104AA0009440524220321141D040204310BD0800B2
:104AB000C917203203D452422032104110BD1800D1
:104AC000190010BD7B4A00100A0DCC0F531E1B05A8
:104AD000C91A520503D3C943404200D30131520DD4
:104AE00003D0531CDB0A07D0121B00206400611C9A
:104AF00089078912803A1203014BD21A70470000CD
:104B0000FF03000051434343C9188C46110C83B284
:104B10004B4310B4040C614392B280B250436243E1
:104B20001C041B0C001910BC59411304120CC018B2
:104B300051416144704700004840414048400E4B9D
:104B40005B6818470C4B1B6818470C4A936F9B080F
:104B500002D2094BDB681847F0B5146E556E576FDB
:104B6000166FFFF7F6FF054A146655665767166716
:104B7000F0BD014B9B681847B0180020000000D022
:104B800007B548404140484001E0C04607B54200F3
:104B9000120E03D0FF2A03D1420218D8C00DC0055F
:104BA0004A00120E03D0FF2A03D14A020FD8C90DC2
:104BB000C9050122414005D4414001D5814207BDCC
:104BC000884207BD0143491801D0C043001807BD02
:104BD00000B5FFF7DBFF01D0002000BD012000BDC4
:104BE00000B5FFF7D3FF804100BDC04600B5FFF719
:104BF000CDFF01D9002000BD012000BD00B5FFF7A9
:104C0000BFFF01D9002000BD012000BD00B5FFF7A6
:104C1000B7FF804100BD0000034BDB6FFC46184727
:104C20007CDFBD4C00100000B0180020132310B52D
:104C300012481C78FFF780F80100012C0AD003DD30
:104C400080220F4800F07EF80E48FFF76DF80E4BFB
:104C5000186010BD0A4C5422200000F073F80B4B72
:104C60006365A365E36523666366A366E3662367FE
:104C70006367A367E3672362E361E5E753460000E8
:104C8000B01800204C330000784C0020914C0010EC
:104C900007B5604601880A0A0230DF2AFAD1C9B294
:104CA000820804D3028840880004104300E00068B2
:104CB000014A5050039007BDB0180020C30FDB0716
:104CC00041000A0E07D0FF2A08D00909054A8918B1
:104CD0001943400770471900002070470249C9185E
:104CE000FAE70000000000380000F07F70B5040013
:104CF0000A4E30000FF08CF8200009F039FD050055
:104D000030000FF02DF8002D05D0054B2C199C42DA
:104D100001D8280070BD0348FEF7A0FF54160020FC
:104D2000000004200044011001480421014B1847F1
:104D3000300F0020493D0010014B1B681847000050
:104D4000300F0020014B5B6818470000300F002037
:104D5000F0B5C64600B5437D07000D001600002BD8
:104D600038D0002A2EDD00216A1E90466A5C037D41
:104D70004C1C00200A2A0CD0A64216D043461B5DCC
:104D800021000D3B5A4253416A5CDBB24C1C0A2A9B
:104D9000F2D1002BF0D1884217DB022110483B688A
:104DA0009847A64207D02000E8E7864203DD311A83
:104DB0003B6828189847AD19013D2B780D3B5A42A6
:104DC00053413B7580BCB846F0BD091A3B682818B2
:104DD0009847E2E70368110028009847F2E7C046C9
:104DE000E44C0110F0B5CE46474680B583B06B4623
:104DF0000600DD1D2870FEF77FF900231A4A1218FD
:104E00004B41802109068B4202D30122174B5242AB
:104E10001749080088460EF0DBFF164B81461C68D8
:104E2000002C14D0144F02E02469002C0FD023680A
:104E3000002BF9D03B68002B01D0A342F4D1200015
:104E400001222900FFF784FF2469002CEFD14B4693
:104E5000002B05D1300003B0C0BCB946B046F0BD50
:104E600040460EF07DFFF5E740420F00FFFFFF7F59
:104E70005C1600201C48002028480020F0B5DE46C3
:104E800057464E464546E0B585B007000CF0F4FCA9
:104E90000600FEF731F900232B4A12184B418021FE
:104EA00009068B4202D30122284B524228490800AE
:104EB0008B460EF08DFF274B01901C689A46002C04
:104EC0003BD0254B984602ABDD1D0A23994602E0F4
:104ED0002469002C17D02368002BF9D043461B68A7
:104EE000002B01D09C42F3D1200032003900FFF7A3
:104EF0002FFF4B462000012229002B70FFF728FFCF
:104F00002469002CE7D1019B002B18D153461C6863
:104F1000002C06D06368002B0BD098472469002C26
:104F2000F8D1300005B0F0BCBB46B246A946A04659
:104F3000F0BD2469002CEDD1F3E70028F1D05846EC
:104F40000EF00EFFE2E7C04640420F00FFFFFF7F7A
:104F50005C1600201C48002028480020F8B5574661
:104F60004E46DE464546E0B50E00170000282CD11F
:104F70001B4B1C4D1A685B6893469A461A4B994620
:104F80001A4B98464B461C68002C03D115E0246947
:104F9000002C12D02B68002B01D0A342F7D1A368BC
:104FA000002BF4D03900300098470028EFDDF0BC2A
:104FB000BB46B246A946A046F8BD43465B6A9A4541
:104FC00008D84246926A5A4502D301204042EEE791
:104FD0009A45FAD101200021FEF798F8D2E7C046A1
:104FE000B84C0110284800201C4800200040054013
:104FF000F0B54646D6464F4601380D009046C0B53E
:10500000012841D8FEF778F80023214A12184B41B5
:10501000802109068B422FD21E49474608008A4646
:105020000EF0D6FE43468146013303D128000CF032
:1050300023FC0700184B1C68002C14D0174E02E00C
:105040002469002C0FD02368002BF9D03368002B83
:1050500001D0A342F4D120003A002900FFF778FEE6
:105060002469002CEFD14B46002B09D14046E0BC0F
:10507000BA46B146A846F0BD0122094B5242CBE7E1
:1050800050460EF06DFEF1E701204042EFE7C046CA
:1050900040420F005C1600201C48002028480020D9
:1050A000FFFFFF7F012040427047C0460120404281
:1050B0007047C046012040427047C04603000222AC
:1050C00000209A42404170470A4A1368002B05D1DC
:1050D0000CE01A001B691032002B07D09842F8D15F
:1050E000002902D103691360016170470029FCD0D7
:1050F0001060FAE71C48002010B500F0D9F910BD87
:105100007047C0460022014B1A707047B04C002017
:105110004B790020FF2B0BD18B79002B08D1CB7959
:10512000012B05D1082A03D9024B8A7809301A705D
:105130007047C046B04C00200120704770B501296F
:1051400001D0012070BD13495379107909781B02F1
:10515000034300209942F5D15378012B08D0022B4C
:10516000F0D1002064220021FEF75CFC0120E9E779
:105170009478D278050012021443D20502D5620A4F
:1051800093401D000448FEF7CFFD7F21030021401E
:1051900028009847B04C00205542000001230370BE
:1051A00000487047E84C01104B780A781B02134303
:1051B0008A7810B512041A43CB781B061343962243
:1051C000D200934200D010BD0348FEF7ADFD002190
:1051D000030008009847C04655420000024B186083
:1051E000024B19607047C046A8470020AC4700201A
:1051F00010B5024B1878FDF739F910BDB14C0020FD
:10520000114B70B51A68002A1AD0EFF3108172B6EC
:1052100010680028FCD0BFF35F8F00200B4A596054
:1052200010701B68BFF35F8F186081F31088002433
:105230000025074B1878FDF719F92900200070BDEB
:10524000FA240025A400F4E7584C0020B24C0020BA
:10525000B14C002070B5040000200E0001F0E8FA07
:10526000002836D0002001F0FBFA002831D0FDF7ED
:1052700043FF0023184A12184B41802109068B4234
:1052800016D2164D28000EF0A3FD002821D00020D4
:1052900001F0CEFA00280FD101200021404200F099
:1052A000C1FC0324644228000EF05AFD200070BDAA
:1052B00001220B4B5242E4E7002001F0D1FA002812
:1052C000EAD021003200002001F0D6FA041EEAD113
:1052D000E7E703246442E9E740420F00804C0020E6
:1052E000FFFFFF7FF8B5DE46574680B505000C008E
:1052F000FDF702FF0023374A12184B4180210906AF
:105300008B4202D30122344B5242344908008A4670
:105310000EF05EFD002803D1C0BCBB46B246F8BD0E
:10532000002001F085FA00284AD00026002C43DD39
:105330002B4B9B4614E0A919002001F011FB07003C
:1053400001200021404200F06DFC002001F0CCFA69
:10535000FDF7D2FE224BF61918605960B4422BDDDE
:10536000002001F017FBA71B0200B84200DD3A0045
:10537000002AE0D101200021404200F053FC00202F
:1053800001F0B2FA002001F053FA002814D00020F6
:1053900001F000FB0028E1D1FDF7AEFE5B460F00F7
:1053A0001A685B68002184460E4812184B419F42E0
:1053B00002D8D3D19445D1D950460EF0D1FCABE7F9
:1053C00000200021064B1860596050460EF0C8FCC2
:1053D000A2E7C04640420F00FFFFFF7F804C002045
:1053E000A817002020A1070010B5244C84B000218C
:1053F00020000EF0D5FC00281CD1214B1A68002A91
:1054000016D0EFF3108172B610680028FCD0BFF3FD
:105410005F8F01241B48596002781B68D2B2047068
:10542000BFF35F8F0020186081F31088002A0AD034
:1054300004B010BD01200021404200F0F3FB200029
:105440000EF08EFCF4E7FDF7C3FC0400FDF754FEFC
:10545000FA220023920012184B41802109068B4248
:1054600002D30122084B52420121029100210191F5
:10547000064920000091FDF7AFFCD9E7804C0020E1
:10548000584C0020B24C0020FFFFFF7F015200105B
:10549000054B10B51868002804D0044B0022196889
:1054A00001F036F810BDC046A8470020AC470020E8
:1054B000D02310B51B0684B01C68FDF789FCFDF7EE
:1054C00049FDA04202D0002004B010BD274B1B783C
:1054D00001F042FC2648FDF77FFA0120FDF75EFA55
:1054E000FF23244C244920701840FCF7E5FF207866
:1054F0000121FCF7A9FF0520FCF7C0FF002827D1F8
:10550000FDF766FC0400FDF7F7FDFA220023920088
:1055100012184B41802109068B4202D30122174BFE
:105520005242012102910021019115492000009170
:10553000FDF752FC0822040000211248FFF7FCFB93
:10554000002CC0DB10480121FFF7BEFD0120BBE7A6
:1055500000220E490520FCF7D9FFFCF757FF094B45
:1055600001001800FDF762FAECE7C046E4530110B1
:10557000804C0020B14C0020E9530010FFFFFF7F5A
:1055800001520010584C0020400F0020F151001033
:1055900000487047784D011000487047244D0110B5
:1055A00010B5040017480378002B20D0002C06D13A
:1055B000154B16484380063BFF3B038010BD052C6E
:1055C00019D8134BA400E05812490123013804E014
:1055D00001330A800231142B0FD0C25C002AF7D1AC
:1055E000C022DBB25B00920008481343E5E71121BB
:1055F00000F01AF8DAE70020E0E7CA2303489B002E
:10560000DBE7C046984C002009040000F447002066
:105610000C4D0110F647002010B5024800F0D8F8F4
:1056200010BDC046704C002030B54B1E012900D182
:10563000A7E0664A11780D092C0030349F2900D963
:10564000A2E00470012B00D1BEE00F2114782140AC
:105650000C003034092900D998E04470022B00D1A5
:10566000B2E054782509290030319F2C00D990E010
:105670008170032B00D1A7E00F2121400C003034B2
:10568000092900D987E0C470042B00D19CE09478EC
:105690002509290030319F2C00D97FE00171052BAD
:1056A00000D191E00F2121400C003034092900D9AC
:1056B00076E04471062B00D186E0D47825092900D4
:1056C00030319F2C00D96EE08171072B00D17BE037
:1056D0000F2121400C003034092966D8C471082BF1
:1056E00000D171E014792509290030319F2C5FD851
:1056F0000172092B68D00F2121400C003034092998
:1057000058D844720A2B5FD05479250929003031CA
:105710009F2C52D881720B2B56D00F2121400C00A8
:10572000303409294BD8C4720C2B4DD094792509FB
:10573000290030319F2C00D9073101730D2B43D044
:105740000F2121400C003034092901D937310C00D8
:1057500044730E2B38D0D1790C09220030329F29A6
:1057600000D9073282730F2B2ED00F220A4011006E
:105770003731092A01D830321100C173102B23D0E0
:1057800010300023037030BD07345AE737310C0066
:1057900063E707316CE737310C0074E707317DE7C9
:1057A00037310C0085E707318EE737310C0095E77C
:1057B00007319DE737310C00A3E70731AAE73731FE
:1057C0000C00C4720C2BB1D1C018DAE7704C002069
:1057D00010B588B004000D2200216846FFF7ACFA2E
:1057E0000D22002104A8FFF7A7FA4B236A4668465A
:1057F000137004A90D220EF0ABFA15210822200027
:105800006944FFF79FFA08B010BDC04610B50121EA
:105810000520FCF719FE10BD10B50022002102483A
:1058200000F058F910BDC046504800208022024BBD
:105830005202DA647047C04600201150F0B5C646E7
:1058400000B5060000F020F90C231B4DFF22AB67CA
:1058500005201A49FCF75AFE40239846184C40226E
:1058600000212000FFF768FA434601272383212106
:105870000023144A6770A260136063545F3161842F
:1058800041462187053963540F4A10496360E2603D
:10589000A1620B606362E2620EF0B2FA80239B05A4
:1058A0002F64EB6490230A4A3000EA50FFF7BEFFF2
:1058B00080BCB846F0BDC04600001150E90400208D
:1058C000304800208400105000011050800010501B
:1058D00010D001000B785B0602D14B78052B00D06D
:1058E00070478A78014B1A60FAE7C04600001150F1
:1058F000F0B5C64600B5CC7888780A794B797F2117
:10590000A40701401B02C50913434F00A20F140056
:10591000324E7A195201B2189070012068405070CE
:1059200000205B055B0DD0701383D4768046CA00DF
:10593000012D33D02A488446880162448446B44409
:105940006046826040461060002933D0254AC90075
:1059500090466246414451603F223F339343022CBC
:1059600000D15B0020487A1901685201B218D16059
:105970001E4ACB18036051405A40802388465B0181
:105980009A4228D84346A4061C4380237F197F01EE
:10599000F61972681B062343136011E0144884460D
:1059A000880162448446B444604682624046106086
:1059B000002909D100236D0175196B600D4BEB6057
:1059C000012080BCB846F0BD084AC9009046624636
:1059D00041445162C0E7FEF759F9D3E7304800204F
:1059E00084001050040010503C4C00200000105067
:1059F000800010500001105010B50EF001FA10BDDB
:105A000010B57F200C0020404000E409110000196F
:105A10001A00034B4001C01800F05CF8012010BDD3
:105A2000304800207F23180010B50840CA090B42F7
:105A300003D107497D3B9B1A8B664000801880226A
:105A4000044B40010021C01812010EF0D1F910BD25
:105A500000201150304800207F22130010B50B4069
:105A60000A4200D110BDC9095B005B1804485B0104
:105A7000C018002300220349C3700EF0B9F9F1E702
:105A800030480020FFF7FFFF80220D4B520410B575
:105A90001A600C4B0C491A6010008B689843FBD1BC
:105AA0000A4C9C2200212000FFF746F980220021A9
:105AB00052010748FFF740F90923636710BDC0464C
:105AC00000E0004000F0004000C000400000115025
:105AD00000001050002310B5C38201338282837608
