:020000041000EA
:1000000000B5324B212058609868022188439860DF
:10001000D860186158612E4B002199600221596106
:100020000121F02299502B49196001219960352056
:1000300000F044F80222904214D00621196600F024
:1000400034F8196E01211966002018661A6600F04E
:100050002CF8196E196E196E052000F02FF8012189
:100060000842F9D1002199601B49196000215960AB
:100070001A491B48016001219960EB211966A021F2
:10008000196600F012F800219960164914480160C1
:100090000121996001BC002800D000471248134993
:1000A000086003C880F30888084703B5996A0420EC
:1000B0000142FBD001200142F8D103BD02B5186610
:1000C0001866FFF7F2FF186E186E02BD00000240BE
:1000D000000000180000070000035F00212200005C
:1000E000F4000018222000A00001001008ED00E03C
:1000F00000000000000000000000000074B24E7A12
:1001000000200420F7010010C3010010C5010010F9
:10011000C1010010C1010010C1010010C101001097
:10012000C1010010C1010010C1010010C701001081
:10013000C1010010C1010010C9010010CB01001065
:10014000CD010010CD010010CD010010CD01001037
:10015000CD010010CD010010CD010010CD01001027
:10016000CD010010CD010010CD010010CD01001017
:10017000CD010010CD010010CD010010CD01001007
:10018000CD010010CD010010CD010010CD010010F7
:10019000CD010010CD010010CD010010CD010010E7
:1001A000CD010010CD010010CD010010CD010010D7
:1001B000CD010010CD010010CD010010CD010010C7
:1001C00000BE00BE00BE00BE00BE00BEEFF3058054
:1001D000103800BEF2EB88713C1807105818071051
:1001E0003402001090A31AE700201F49086006C8D7
:1001F00081F3088810471D48006800282FD10DA4FE
:100200000ECC002902D000F012F8F9E71849194A7B
:10021000002000E001C19142FCD1174988471749ED
:1002200088471749884700BEFDE701C901C29A42C5
:10023000FBD3704758180710C0000020F01A0020A8
:1002400088320710000004200000042088320710C4
:10025000001004200010042000000000704709482E
:1002600003F0D0FA0047000008ED00E0000000D0E5
:10027000F01A0020E0440220991E001035030010FF
:10028000CD1F00105756000006005250ABB360530C
:10029000B434021006005250861C0302C43402100B
:1002A000060052505422A29DD8340210050052502C
:1002B000DE65F46888320710F8B5C046064807497D
:1002C000091A8B10C90FC91810B5491003D0044B77
:1002D000002B00D0984710BDF01A0020F01A002023
:1002E00000000000054B10B5002B03D00449054861
:1002F00000E000BFFFF7E2FF10BDC04600000000B5
:1003000090440220A832021010B5034C13000A00DA
:10031000210004F09DFE10BDA83202104A435A434A
:1003200010B5002A03DD0021029804F0FFFB002035
:1003300010BDC04610B500F0C7F800F06BFBFCE73D
:100340007047C0467047C046030020291DD0902248
:100350008258002A19D08069814218D0012A14D00D
:10036000586B81421AD0022A0FD0186D814217D0E3
:10037000032A0AD0D86E814214D0042A05D08822DC
:100380009A5800208A420FD070470020FCE70022D4
:10039000D000801A800004301818F5E70122F7E732
:1003A0000222F5E70322F3E70422F1E7BC22825898
:1003B0000300002A1DD09420185888421BD0012A1F
:1003C00017D09820185881421AD0022A11D09C20A8
:1003D0001858814216D0032A0BD0A0201858814209
:1003E00012D0042A05D0A4229A5800208A420DD0A7
:1003F00070470020FCE700222A329200D058F7E72D
:100400000122F9E70222F7E70322F5E70422F3E7E6
:1004100010B5024808F034FD10BDC046183F022058
:10042000902370B5C55804000E00002D47D0836995
:10043000202B2DD0012D42D0636B202B2FD0022DED
:100440003DD0236D202B32D0032D38D0E36E202BEE
:1004500008D0042D33D08823E3580025202B0ED05C
:10046000280070BD3100206F20F088FA0028F0D1FC
:100470000323DD00ED1AAD0004356519F0E76C3398
:10048000E058310020F07AFA04230028E8D1F0E7A0
:10049000C06920F073FA0028CCD10023E9E73100CD
:1004A000A06B20F06BFA0028C9D10123E1E73100ED
:1004B000606D20F063FA0028C6D10223D9E7002539
:1004C000CEE7C0467047C046F0B5DE4657464E46BA
:1004D0004546E0B5CA4C8DB0200014F037FF002827
:1004E00000D038E1C74AC84C537811781B020B433F
:1004F0009178C64809041943D378C54E1B060B43AF
:100500009B181A6820609A1A11883360042902D94E
:100510009288002A0BD100220323BE4904F098FDE3
:100520000DB0F0BCBB46B246A946A046F0BD9A58F5
:10053000032AF1D1B84F380014F008FFB74D002856
:1005400000D035E205AB1800994606F0F9FD90237E
:10055000EB58002B00D139E2AA69012A00D127E12A
:10056000012B00D1FEE06A6B012A00D120E1022BB1
:1005700000D1F7E02A6D012A00D119E1032B00D147
:10058000F0E0EA6E012A00D112E1042B00D1E9E08B
:100590008823EB58012B00D10AE10121A04809F082
:1005A00013FB05219F4809F00FFB484605F0F4FEB8
:1005B0009023EB58002B00D111E2AA69032A00D145
:1005C00016E1012B00D167E16A6B032A00D10FE12C
:1005D000022B00D160E12A6D032A00D108E1032B30
:1005E00000D159E1EA6E032A00D101E1042B00D1C8
:1005F00052E18823EB58032B00D1F9E0032188480E
:1006000009F0E2FA0521874809F0DEFA484606F0CB
:1006100075FC9023EB58002B00D1E3E1AA69042A72
:1006200000D1DDE0012B00D10EE16A6B042A00D17C
:10063000D6E0022B00D107E12A6D042A00D1CFE0D9
:10064000032B00D100E1EA6E042A00D1C8E0042B9C
:1006500000D1F9E08823EB58042B00D1C0E004213D
:100660006F4809F0B1FA05216E4809F0ADFA484625
:1006700007F06CFD9023EB58002B00D1ACE1AA6988
:10068000162A00D1A4E0012B00D12BE16A6B162AB7
:1006900000D19DE0022B00D124E12A6D162A00D161
:1006A00096E0032B00D11DE1EA6E162A00D18FE0FF
:1006B000042B00D116E18823EB58162B00D187E0DC
:1006C0001621574809F080FA0521564809F07CFAAE
:1006D000484606F01DFF9023EB58002B00D178E12F
:1006E000AA69192A6CD0012B00D121E16A6B192A61
:1006F00066D0022B00D11BE12A6D192A60D0032B92
:1007000000D115E1EA6E192A5AD0042B00D10FE16D
:100710008823EB58192B53D01921414809F054FA7A
:100720000521404809F050FA3F4F380014F00EFE02
:10073000002800D027E13D4E3D4D30002E6008F0EE
:1007400021FD002800D019E10021286808F038FBBD
:10075000384B1860E4E638481CF00EFF200014F017
:1007600011FEBFE65A1C9446DA00D31A9B00984645
:10077000A8444346181D0200494689C989C289C94F
:1007800089C201204346096811606246BC21986114
:100790009023EA506B581A0024329200AA18506035
:1007A0001A0026482A3292000133A8506B50FCE60A
:1007B000234809F009FA0121224809F005FAF4E674
:1007C0001F4809F001FA19211E4809F0FDF9ABE7AD
:1007D0001B4809F0F9F916211A4809F0F5F977E7ED
:1007E000174809F0F1F90421164809F0EDF93EE740
:1007F000134809F0E9F90321124809F0E5F905E782
:10080000201E002000620210441E0020441300201D
:10081000541E0020CC320210181E0020583E022028
:1008200014330210483302101C1E0020183F02200F
:10083000301E0020501E00204103001035530010D0
:100840005C3302108C3302105A1C9446DA00D31A1F
:100850009B009B460422AB445B46494692461A1DC8
:1008600089C989C289C989C209685B461160524633
:10087000BC219A6190236246EA506B5850461A0098
:1008800024329200AA1850601A0058482A32920066
:100890000133A8506B50EAE65A1C9446DA00D31A8A
:1008A0009B009846A8444346181D0200494689C942
:1008B00089C289C989C2032043460968116062461A
:1008C000BC2198619023EA506B581A0024329200A0
:1008D000AA1850601A0046482A3292000133A850E4
:1008E0006B5093E65A1C9446DA00D31A9B00984644
:1008F000A8444346181D0200494689C989C289C9CE
:1009000089C216204346096811606246BC2198617D
:100910009023EA506B581A0024329200AA185060B3
:100920001A0034482A3292000133A8506B50CFE6A7
:100930005A1C9046DA00D31A9B009C46AC4463468E
:10094000191D0A004F460BCF0BC20BCF0BC26346DB
:100950003968192711604246BC219F619023EA50F3
:100960006B5825481A0024329200AA1857601A00C2
:100970002A3292000133A8506B50D5E61F492068F7
:1009800004F066FBCCE500223168039202920192EA
:1009900088221B4E92021B4B009230002A0008F066
:1009A000AFF919481CF0E8FD380014F0EBFCC3E681
:1009B000164B90222B6000231548AB502C32AB50C5
:1009C0001CF0DAFD380014F0DDFCBBE50122944692
:1009D000CAE601229046ADE70122944684E701224F
:1009E00094465BE70122944630E7C0463952001036
:1009F00009510010FD530010D5540010B0330210FF
:100A0000183F0220581E002011040010E861021057
:100A1000C504001030B5184B184C1B6883B01B6917
:100A200020686022009360210123FFF777FC0028F3
:100A300013D1134D286808F035FD002817D1002187
:100A4000286808F0EDF900220121036920689A5610
:100A50005956FFF759FC03B030BD0A49206804F02D
:100A6000F7FA074D286808F01DFD0028E7D0064971
:100A7000206804F0EDFAE2E7501E0020441E00203A
:100A8000301E0020CC330210E4330210024B1868F1
:100A90008007C00F7047C04600C0064070B5EFF336
:100AA000108C72B60D4D2B68002BFCD0BFF35F8FFE
:100AB0000724CB08C618C05C01230C40A3401C00CF
:100AC0000440034207D118433070BFF35F8F2C609E
:100AD0008CF3108870BD100001F098FA2C0100D042
:100AE0000021044B044ABFF35F8F02C39342FAD143
:100AF0007047C046000100D0800100D0044A107841
:100B0000431CDBB2172B00D9102313707047C0466B
:100B10004813002001238340002904D0034A1360B6
:100B2000034A13607047034A1360FBE780E200E06A
:100B300000E100E080E100E001228240034B1B68FD
:100B400013405A1E9341D8B27047C04600E100E0FE
:100B5000024B10309B688000C058704700ED00E0E9
:100B600070B50D00EFF3108672B60F4A1368002BB4
:100B7000FCD0BFF35F8F0D4B10309B6884001B5976
:100B80000B4A934203D09D4201D001F057FA074B24
:100B90009B681D51BFF35F8FBFF35F8F0022024B35
:100BA0001A6086F3108870BD240100D000ED00E0CB
:100BB000CD010010F0B5DE4657464E464546E0B53D
:100BC0000C0083B0EFF3108872B65D4A1368002BF7
:100BD000FCD0BFF35F8F5B4B5B499A680300103317
:100BE0009F00D5598D4239D0A5424AD0574EAA1BF5
:100BF0002F2A33D801229246824091464846544AD1
:100C00001268104001904846524A1060BFF35F8F4F
:100C1000EFF305829346002A35D0934201D001F0CC
:100C20000DFA2A0053469A439068844208D175E031
:100C30004B005B189B00F3189868A04234D01A0050
:100C4000062151560029F3DA844253D0019B002B30
:100C500026D04A46404B1A603D4B1A60394B9B6880
:100C6000DD51BFF35F8FBFF35F8F0022344B1A60FB
:100C700088F3108803B0F0BCBB46B246A946A04634
:100C8000F0BD0D00EAE72A0053469A43906884427B
:100C9000D6D1062010561300002809DA0D0031E0E5
:100CA0004A462C4B1A60D9E706201856002822DB4A
:100CB00042001118890074188A46A1689960E17988
:100CC000D971062161569971002925DBA488F11A92
:100CD0006405241554440919E0240905490D24022A
:100CE0002143998013181D4A9B001178F3189971BC
:100CF0001070ABE713005946002914D1FF319171F0
:100D00001749918015490A789A71164A9B1B5B41D5
:100D10005A43120D0A7099E71349E2E7062010566C
:100D200013000028C4DA114A1149D21A083A5002B5
:100D3000400D014399800F4952080A43DA8085E744
:100D4000240100D000ED00E0CD0100104C13002084
:100D500000E100E080E100E080E200E0DB4402200E
:100D600001BDFFFFAAAA000001BD000086130020FC
:100D700000F0FFFF00F8FFFF70B5EFF305810124DD
:100D80000443EFF3108C72B6214A1368002BFCD099
:100D9000BFF35F8F1F4B05001F4AED1A6D416A4379
:100DA000120D1E4D8900AE6852B27658A6421CD074
:100DB0000621595691421CD012215956914222D0F7
:100DC0001E215956914220D02A215956032491427E
:100DD00010D0134B19781A708171BFF35F8F002206
:100DE0000B4B1A608CF3108870BDAB680D4C5C50D7
:100DF000EFE700246100091989005B18FF21997150
:100E000009499980E5E70124F4E70224F2E7C046A6
:100E1000240100D04C130020AAAA000000ED00E03D
:100E2000DB440220CD01001001BDFFFF054B064A47
:100E30001360064A136053609360D360136153617B
:100E4000936170478080808000E400E004E400E06B
:100E5000024B9C46614489000160704740000034A9
:100E600010B50400FFF74AFE01002000FFF7F0FF75
:100E7000FF232371BFF35F8F10BDC04610B5040080
:100E8000FFF73CFE01002000FFF7E2FFFF23A380F5
:100E9000BFF35F8F10BDC04683680B4810B5844612
:100EA000614462441201090159189B185C684A6840
:100EB0000120944201D802D00020C0B210BD1A68AF
:100EC0000B689A42F9D8F7E7FFFFFF0F0A4B196842
:100ED000EFF3108072B60A68002AFCD0BFF35F8F70
:100EE0001B68BFF35F8F00221A6080F3108840BF39
:100EF000002000217047C046C4440220F8B5574680
:100F000045464E46DE46E0B598460CAB1C780DAB28
:100F10001B78070091469A460568002C59D1AC7B96
:100F2000002C3BD0660029683619033E89194B789E
:100F3000AB73002B00D1EB7300238B704B700B70E5
:100F40002D4BE218BB6812019B184A461A604246B4
:100F50005A600A9A9A600B9ADA6000238B704B7081
:100F60000B706B7B9B46002B26D022006B6859468A
:100F7000A86898475B465B005B442A68033B0028EF
:100F800012D058469619B070D118D35C002B00D0FF
:100F900073705B460C706B735C450ED0F0BCBB4647
:100FA000B246A946A046F8BDD3189C709119925D2F
:100FB000002A1CD15B460B706C734A464346387D51
:100FC00000F044FB051E0AD10E9B002BE6D01D70DD
:100FD000E4E7660029683619033E8919B0E75346ED
:100FE000002BF1D12100386800F048FDECE75A7081
:100FF0005B460B706C73E0E7FFFFFF0FF0B5DE465A
:1010000057464E4645460023E0B58BB00893684BE3
:101010008200D45800239B46099000F093FA020006
:101020000B006068EFF3108A72B65646016800291B
:10103000FCD0B246BFF35F8F21684F7B8C46002FF8
:101040002ED0A5685B49A94679180901894449460B
:101050000868496805000E00AD1A9E41002E5FDD4C
:1010600002000B00099800F0F1FA002300229946D3
:10107000002306920793002398466368BFF35F8FAF
:101080005A461A608AF310884346002B12D1002872
:10109000C3D10BB0F0BCBB46B246A946A046F0BDDA
:1010A0000023002299460023069207930023002084
:1010B0009846E2E7089B494618023843C0476268F1
:1010C00005000E00EFF3108A72B61368002BFCD0F7
:1010D000BFF35F8F002E41DB2B00334302D0236927
:1010E000002B56D12368D97B002905D01A68480007
:1010F00041185218033A57709A7B002A00D19F7307
:10110000DF73E268013FD35D0133D3555B46236152
:101110006368BFF35F8F5A461A608AF310887CE7D2
:10112000002E02D1002D00D09AE70021604600F089
:1011300023FC4B461A685B68069207934B469B68F4
:1011400098464B46DB689946E368DB19013B1B7800
:1011500008931B020343236100208EE72369002BC1
:10116000C0D0069A079B8021521BB34109068B42CF
:1011700002D30122104B524200210491013103910C
:10118000494601914146200002970091FFF7B6FEC3
:10119000BCE700F0D7F92A00330012184B41802138
:1011A00009068B42E8D30122034B5242E4E7C046D2
:1011B000A8440220FFFFFF0FFFFFFF7F10B5144C74
:1011C0006368002B04D00A211248FFF741FE10BDCE
:1011D0002300114A1021206800F0EAFA032000F0F1
:1011E000A5F9032000F09AFA03200C4900F0E8F971
:1011F000FFF784FC0A4B9C4603232375D0231B0670
:101200001B6860446375074B80006060DC60DAE750
:1012100094130020C4440220990E0010FD0F00100A
:1012200040000034A8440220F0B557464E464546DB
:10123000DE46E0B585B0019310AB1B780600039342
:1012400000239A46984600927268EFF3108B72B6AC
:101250001368002BFCD0BFF35F8F3568AC7B002C8C
:1012600000D16EE067002B683F19033FDB195A7805
:10127000AA73002A00D1EA73484AA118B26809018A
:10128000521800980199106051600E9991600F9961
:10129000D16042469A705A701A706B7B9946002B47
:1012A00000D16BE022006B684946A86898474B461E
:1012B0005B004B442A68033B002856D04846D719A8
:1012C000B870D118D35C002B00D07B704B460C70EB
:1012D0006B734C4553D0F3681B19013B1878736846
:1012E000BFF35F8F42461A608BF310885346002B82
:1012F00008D10002204305B0F0BCBB46B246A94667
:10130000A046F0BD039B002B46D00E9B00200F99FA
:10131000984703000B433FD004000D1E1ADA009AD1
:10132000019B121BAB410092019380221206934253
:1013300004D301231A4C5B4200930194039B9A4609
:1013400082E77368BFF35F8F1C608BF31088012006
:101350004042D0E700F0F6F88022001969411206F9
:10136000009001919142E9D3E3E7D3189C70D11921
:10137000D25D002A00D05A704B460B706C73307DE2
:10138000009A019B00F062F982460028A3D0210058
:10139000306800F073FB9EE70020ACE7FFFFFF0F13
:1013A000FFFFFF7FF0B5EFF30583CE46474680B5DC
:1013B00005000C0085B0002B12D02A4A0020536A89
:1013C000A34203D3926A0130AA4204D305B0C0BC41
:1013D000B946B046F0BD1B1B5A1E9341D8B2F5E783
:1013E000214E02930193214B0200009330000B0029
:1013F000FFF71AFF031EE0DD20BF7168EFF31087CF
:1014000072B60A68002AFCD0BFF35F8FDAB2944646
:10141000FF2230681A40417B61450FD00168894640
:10142000510088464946904441440339897800294F
:1014300004D13269934209D1316107E0F1681B0A96
:101440008A18013A1278DBB29A4207D07368BFF368
:101450005F8F00221A6087F31088AEE7614600F0C4
:101460000DFBF3E70040054094130020CD0E001063
:10147000F0B5EFF30582D6464F4646461000C0B59C
:101480001038EFF3108872B6214C2368002BFCD083
:10149000BFF35F8F0123190081401E4D1F00696358
:1014A000AA461D4D29601D4D2E78AC463500C5401D
:1014B0002F402B4215D053465F6A194B8500EB58DD
:1014C0009F4218D36246174B8E43EB581670BFF3FA
:1014D0005F8F0022226088F31088002B06D0984787
:1014E00004E0BFF35F8F276088F31088E0BCBA4642
:1014F000B146A846F0BD0C4B92009C46624413686E
:101500001360BFF35F8F0023236088F31088EDE73B
:10151000280100D0004005403C700540DC4402201A
:10152000C8440220E8420220D03F054010B5034BDA
:1015300001001800024AFFF7B1FA10BDDA44022098
:10154000F4330210034B596A0A00986A596A8A42B6
:10155000FAD170470040054070B504000D00174AED
:10156000536A1900966A536A8B42FAD13000190007
:1015700024184D41AB4216D813D0104B2A005B6A99
:101580009D4203D90D494B6A9342FCD3934207D144
:101590000A4A02E0516A994202D1916AA142F9D302
:1015A00070BDA642E9D9054B5B6A1C005A1CEFD0FE
:1015B000012201246442E5175242E3E7004005405E
:1015C00070B504000D00EFF3108672B61A4A136866
:1015D000002BFCD0BFF35F8F002D1BD02000FFF746
:1015E000B7FA164981420AD02000FFF7B9FA012163
:1015F0002000FFF78FFA0123A340114A1360114B1B
:10160000A400E550BFF35F8F00220B4B1A6086F3F6
:10161000108870BD0121A1400A4BA200D5500A4B91
:1016200020001A788A4305491A70FFF7C3FA00218F
:101630002000FFF76FFAE5E7280100D071140010D1
:1016400038600540E8420220DC440220F0B54F46F5
:10165000D6464646C0B507002B4C616A0D00A66A07
:10166000616AA942FAD18B4208D805D00120E0BCBA
:10167000BA46B146A846F0BDB242F7D9EFF3108A98
:1016800072B6224801680029FCD0BFF35F8F0125A4
:10169000BD401F491C4C8846097889462943C9B278
:1016A0008C46414660460870391D890065630A51C1
:1016B0001849B8004350216A0020294219D0616AB4
:1016C0000800A66A616A8142FAD18B4219D801D119
:1016D000B24216D8CC450BD00B4B1F221D625D6366
:1016E00001233A4093400C4A136043464A461A701D
:1016F0000120BFF35F8F0022044B1A608AF3108829
:10170000B5E70020F5E7C04600400540280100D0BD
:10171000DC440220C844022080E200E0EFF3108C99
:1017200072B60A490B68002BFCD0BFF35F8F012310
:101730008340074A0748136202789A430270BFF356
:101740005F8F00230B608CF310887047280100D056
:1017500000400540DC44022070B506000D00140076
:1017600000291DD0002A12D0736880689847620053
:101770006B0012195B193168033A033B002808D04B
:101780008A189570C818CB5C002B0BD10470280008
:1017900070BDCB189C7088188A5C002A05D1057032
:1017A0002000F5E753700470F1E75A700570F7E711
:1017B00010B583600023CCB24373013342600473DD
:1017C0008373C4730068421C012C05D90133DBB25A
:1017D000137003329C42F9D1FF230B405A00D318F7
:1017E000C01800230338437010BDC04670B5050013
:1017F0000C1E07D0630001681B19033BCB185A78F5
:10180000002A01D1200070BD50008018033809184B
:1018100000204E784870210058702800FFF79CFF88
:10182000310004002800FFF7E1FF0600002C20D063
:101830000028E7D0320021006B68A8689847720042
:10184000630092191B192968033A033B002808D04A
:101850008A189470C818CB5C002B00D053700670A7
:10186000D0E7CB189E7088188A5C002A00D05A7086
:1018700004703400C6E7C046F0B557464546DE461C
:101880004E46E0B50D006F0001687F19033F04006C
:10189000C85D83B00192CA19002850D043001B18BC
:1018A000033BCB185E78B446002E1AD1019E002E61
:1018B00042D0E67B002E04D073009B19CB18033B6B
:1018C0005D70A37B002B00D1A573E57300282FD199
:1018D0000023537003B0F0BCBB46B246A946A046F5
:1018E000F0BD72006244033A8A185178884600219C
:1018F000517089465970320001002000FFF72CFF1B
:1019000043468246002B07D05B0021684344033BDB
:10191000CB185A78002A16D1424651462000FFF7CC
:101920001BFF2168019BCA19002BC2D10028CFD010
:1019300043001B18033BCB1800219970C8E7019B9B
:10194000002BB6D1C4E75000801803380918487836
:10195000834648464870587041462000FFF7FCFE19
:10196000594680462000FFF741FF41460200200013
:10197000FFF7F2FE8046CFE7F0B557464546DE4614
:101980004E46E0B583B00191457B04006F000068CE
:101990007F19033FC15DC219002952D04B005B186B
:1019A000033BC3185E78B446002E1CD1019E002E66
:1019B00044D0E67B002E04D073009B19C318033B70
:1019C0005D70A37B002B00D1A573E573002931D195
:1019D000002328005370617303B0F0BCBB46B246CD
:1019E000A946A046F0BD72006244033A82185078BE
:1019F0008046002050708146587032002000FFF76A
:101A0000ABFE43468246002B07D05B00216843446F
:101A1000033BCB185A78002A17D142465146200082
:101A2000FFF79AFE019B01002068C219002BC0D16C
:101A30000029CDD04B005B18033BC31800209870E1
:101A4000C6E7019B002BB4D1C2E7500080180338D1
:101A50000918487883464846487058704146200027
:101A6000FFF77AFE594680462000FFF7BFFE414649
:101A700002002000FFF770FE8046CEE770B505003B
:101A800000292CD0437B8B422ED04C000068641878
:101A9000033C0419A278002A21D053009B18033B71
:101AA000C25CC6188A4202D11BE0002A08D053004B
:101AB0009B18033BC3185A788A42F6D162785A7051
:101AC000002301222800A3706370FFF7D5FE697B15
:101AD00002002800FFF740FE6873012000E00020AC
:101AE00070BD63783370EBE701221900FFF7C4FE85
:101AF000F2E7C04610B50C2082B000F0B1F9FEF755
:101B0000C5FF002810D08B4B8B488B498B4A18603F
:101B100059609860D960186159619861D9611862FB
:101B200059625A6202B010BD854CA06700F0A0F95E
:101B30000122844B1A60636C012BFCD10322824B7F
:101B40001A607F4A936B012BFCD1013301217F4A3C
:101B50007F480093043300F031F905237D4A009358
:101B600001217D4800F02AF97C4B5A68FF2A02D8EF
:101B7000802252005A608022734B6E4C12011A6010
:101B80002169002907D0606901F096FE0130430009
:101B90001B18033BFDD2E022704B714819680A40C4
:101BA000026002221968514001320A400421026099
:101BB0009A681142FCD080216A4A09011160802292
:101BC00052005A60684B2361684B5968FF2900D85E
:101BD0005A60032201215B4B1A60644A93681942E0
:101BE000FCD0E023106803406148036012680323BF
:101BF0004A40022113405D4A036093681942FCD0B9
:101C000080215C4B0901196080215B4B49005160C8
:101C100063615A4B5A68FF2A00D859608022584B9A
:101C200012011A60E169002907D0606901F044FEE1
:101C3000013043001B18033BFDD2E0234F4A1168DB
:101C40000B4050490B6080214F4B090119608021E6
:101C5000394B49005160E3614C4B5A68FF2A00D868
:101C6000596080224A4B12011A60216A002907D06C
:101C7000606901F021FE013043001B18033BFDD2D7
:101C8000E023424A11680B4042490B608021424BDD
:101C90000901196080235B0053608022264BD20229
:101CA00023623E4B5968914200D25A6080223C4BDD
:101CB00012011A60616A002907D0606901F0FCFD19
:101CC000013043001B18033BFDD2E023334A116867
:101CD0000B4034490B608021334B0901196080238C
:101CE000DB025360154B6362304B5A68FF2A02D8FF
:101CF000802252005A6080222D4B12011A60A16985
:101D0000002907D0606901F0D7FD013043001B189E
:101D1000033BFDD2E023254A11680B4025490B60A7
:101D20008021254B0901196080235B005360124B11
:101D3000A361F7E6F01A0020006CDC021BB700007C
:101D4000008000403CB0004030B00040002F685997
:101D500000800240008C864700C002403080004076
:101D60003090004030A00040001BB7003C80004095
:101D70003C9000403CA00040405973075480004014
:101D800054B000405490004054A000406080004097
:101D900060B000406090004060A000406C80004057
:101DA0006CB000406C9000406CA000404880004047
:101DB00048B000404890004048A00040F8B50400FA
:101DC00022481E0017000D0001F076FD01003800CA
:101DD00001F072FD069B36041B031E432368002B93
:101DE00022DB1B4B1B49E3185A1E934180229201B0
:101DF00094465B421B0B184A1B0363441360174A4B
:101E000013601F008A689743FBD1C022231D9201F3
:101E10001A4321232560A06013602368002BFCDA9D
:101E20000823E6601360F8BD3F2322681340AB42ED
:101E3000D7D1A3681B051B0D8342D2D1EE22E368E4
:101E4000D2021340B342CCD1EDE7C046001BB7002D
:101E50000040FDBF00C0004000E0004000F0004036
:101E60008023024A9B000343D362704700800540F1
:101E7000AA23064A1B0113602F230549D360054B93
:101E800019605368002BFCDA7047C04600400240DE
:101E900000B0FA00006002402C4B2D4A70B51A6069
:101EA0002C4A2D4B2D491A6014008B689C43FBD1A2
:101EB0002B4D2C4EB54208D2013E761BB60808CDFC
:101EC000984723000134B342F9D1FFF713FE264AA5
:101ED000214B1A60214A9368DB43DB01DD09002BAB
:101EE000F9D14022214B224C224E9A675A671A6739
:101EF000DA66B44208D223682000002B20D00834D0
:101F0000FEF7BCFFB442F6D31B4C1C4EC022B16896
:101F1000200002F011FEB460FEF7E2FDFEF786FF3E
:101F2000FFF74CF9164C174EB44208D2013E361B4F
:101F3000B60808CC98472B0001359E42F9D170BDF8
:101F40000834FEF78DFFB442D5D3DDE700E0004052
:101F5000BFCDFBFEFE7F3C0000F0004000C0004013
:101F6000D01A0020E01A0020FFFFFF0100F001401E
:101F7000C01A0020D01A00200000002000ED00E070
:101F8000E01A0020F01A002000BEFDE7094A030015
:101F90001068002805D00849C3188B4207D8136081
:101FA000704706480449C31810608B42F7D90120D6
:101FB0004042F5E78444022000000420E04402206F
:101FC00000207047012040427047C04610B5FFF71F
:101FD000DBFFC04630B50D0083B01900002A0BD0DE
:101FE000074B084C0192009302002B00200001F0E7
:101FF000C3FB0120FFF7C8FF034B1A00F1E7C046FF
:102000001834021028340210503502100FB400B5F5
:10201000084883B002F030FE049B002B07D005A9CE
:102020001800019101F0C8FB034802F025FE0120D1
:10203000FFF7AAFF583402106851021010B501488A
:10204000FFF7E4FF683402109A4200D288547047C8
:102050007047C046F8B55746DE464E464546E0B5A1
:1020600099460A9B07009A460D9B884693460B9C0F
:102070009B073BD10C9B9C423DD21E1B0B94150031
:102080000C005E442A004B46013521002020B84751
:10209000B542F7D1A0460B9C002C20D045463619FE
:1020A0005346321B013C185D29004B46B847002CB3
:1020B000F6D12B00350098460D9B9B070FD55B464C
:1020C000EC1A0C9BA3420AD9464698462A004B4676
:1020D000310020200134B84701354445F6D32800AB
:1020E000F0BCBB46B246A946A046F8BD1600150096
:1020F000002CD3D1E0E71600002CCFD11500EEE77D
:10210000F0B54F464646D646C0B584B098460EABAD
:102110001B7894469946129B0D9C109F119E9A071E
:1021200025D4002E65D1BC4221D201221A4092460C
:10213000202C00D1E9E00C9A551E302202E0202C20
:1021400000D17BE001342A55A742F8D85246002A34
:102150000DD0B4420BD20C9A551E3022202C02D145
:1021600071E0202C2DD001342A55B442F9D1DA0681
:102170003CD55A052ED4002C28D10F9A102A00D114
:10218000B6E0022A00D1BCE030220C9C227001246F
:102190004A46002A65D15A0700D499E02B220C9DAB
:1021A0002A55013403930C9B6246009302964346E2
:1021B0000194FFF74FFF04B0E0BCBA46B146A84611
:1021C000F0BD2024DA06EDD55A0503D4A74266D027
:1021D000B44264D00F9A102A71D0022A57D0202C12
:1021E000E0D02200013430250C9FBD54202CD9D0E2
:1021F000CEE7012215001D40AA461A4236D04A46B3
:10220000002A4AD10C321A4247D1BC42A1D2202C1A
:1022100091D1202E17D82024DA06C3D55A051BD415
:10222000202F01D0202ED5D11F220F9D102D6FD031
:10223000022DD8D162250C9FBD54D0E75246002A0A
:1022400079D0202EBDD92024DA06ABD55A0503D487
:10225000202FE9D0202EE7D00F9A102AA2D12024D7
:10226000A0E72D220C9D2A5501349BE7BC4200D3E8
:102270007DE7202C00D05EE7DA06F0D55A05EED4D3
:10228000202F62D0202EEAD134001F22CDE7202C4F
:1022900000D187E722000134CCE7013EB5E7621E9A
:1022A000012CC2D10F9A102A00D06AE79A063BD5BA
:1022B00058220C9C2270283A6270022468E79A0621
:1022C0000ED4202CCBD078220C9D2A55013486E7E1
:1022D0001A0700D466E720220C9D2A55013461E7D5
:1022E000202CBCD058250C9A12191570013476E7B1
:1022F0009A0608D558220C9C227030226270022463
:1023000046E76032F7E77822F5E7002A83D1B3E7A2
:10231000A21E013C9D0603D478250C9FBD5460E7A6
:1023200058250C9FBD545CE778220C9C2270483ADB
:10233000627002242CE7DA0600D433E75A058BD406
:10234000202F00D044E71F226FE73C001F226CE7DC
:1023500010B5002800D110BD02F042FCFBE7C046DA
:10236000F0B557464E464546DE46E0B599B0824642
:10237000894690460893229A239B1000190001F089
:102380006CFD002800D0CDE0229823990122D94B82
:10239000524201F05DFD002800D0C3E0229823994D
:1023A0000122D54B524201F03DFD002800D0B9E09A
:1023B000229823990022002301F034FD002800D048
:1023C000F1E1229E239F8023269ADB001A400D9282
:1023D000269A1A4201D1062324938023269A1B01B0
:1023E0001A403B0093460996334300D0B3E0002ADD
:1023F00000D0C2E1002300240A930B94002304259B
:102400000993259B0024AB4200D95C1B0223269A2A
:102410001A400C92269A134203D06B426B415B42E6
:102420001C40099B002B07D00A9A0B9B30003900F7
:1024300001F08FFC06000F00229823990022002350
:1024400001F0F0FC002803D0802109067B181F0052
:10245000269AAA4B009601971340089E0493249B4A
:1024600003940293424633004946504600F0AAF9CD
:102470000400002D67D02020269A49460240130010
:102480005A4253415B42621C18400A9233002200B8
:102490004530D047099A6F1ED317D4185C40D30F2C
:1024A0009B46002501E0202D13D008AA94461F2347
:1024B000200063440A2101355E1901F0FDF9303135
:1024C000317020000A2101F0F7F926000400092EDE
:1024D000E9D805230693002304930A3303935B464C
:1024E000089E029310AB0A9A009349463300504667
:1024F00005970195FFF704FE0C9A0400002A22D0EC
:102500004246851A259AAA421DD9B046574616005A
:1025100022004346494620200135B8470134AE42E7
:10252000F6D810E0269B42460493259B4946039328
:10253000249B50460293229B239C00930194089B6A
:1025400000F040F90400200019B0F0BCBB46B246D0
:10255000A946A046F0BD6A4B78009C46400D6044F9
:1025600001F08EFC674A684B01F011FC674A684B2A
:1025700001F0E6FB674A3B031B0B1A4304000D0006
:1025800009981100644B002201F0D1FB634A644BAF
:1025900001F0FDFB02000B002000290001F0D0FB40
:1025A00001F086FC099001F06BFC5E4A5E4B040072
:1025B0000D0001F0ECFB00225C4B01F0C1FB01F0CF
:1025C00077FC5B4A5B4B29000C90200001F0DFFB9D
:1025D00004000C980D0001F053FC574A574B01F0D2
:1025E000D6FB02000B002000290001F0A0FB040034
:1025F0000D0002000B000A940B9501F0C8FB0400CB
:102600000D000A980B9902000B0001F099FB0022C3
:102610000E900F914A4B2000290001F09AFB0022F6
:10262000484B01F08DFB02000B002000290001F057
:1026300090FB0022444B01F083FB02000B002000C2
:10264000290001F086FB0A9A0B9B0D0080210400F3
:10265000C905002001F06BFB02000B0020002900DF
:1026600001F06EFB02000B000E980F9901F071FB58
:102670000022284B01F064FB344B0C9C9C466444C4
:102680002305002201F083FB04000D0002000B0073
:10269000300039000A940B9501F0C4FB00285DD18D
:1026A00023002A00C625099963318D42AD41594660
:1026B0006D420435002900D1A3E6134363D03000F6
:1026C0003900234A234B01F0BBFB002807D000222E
:1026D00030003900204B01F0A5FB002853D1249B8A
:1026E000002B00D18DE60D9B5A1E9341249AD31ADC
:1026F000249386E6FFFFEF7FFFFFEFFFFFF7FFFF6B
:1027000001FCFFFFFB799F501344D33FB3C8608B9C
:10271000288AC63F0000F03F0000F83F61436F6326
:10272000A787D23F71A379094F930A400000E03F89
:102730001655B5BBB16B0240EF39FAFE422EE63FAB
:1027400000002C400000244000001840FF0300005F
:102750002D431CEBE2361A3F80842E41099B002258
:10276000013B09932000164B290001F0F2FA0A0000
:10277000010003000A910B9294E7002300240A93BE
:102780000B9400230993249A099B9A4214DDD31ACF
:10279000013B24938023269ADB001A430023002563
:1027A000269209932DE6802212069446229B1E0053
:1027B000239B63441F0006E600232493EAE7C046F8
:1027C00000002440F0B54546DE464E465746E0B58B
:1027D00095B08B46904699461E9A1F9B0A90190009
:1027E0001000209D01F039FB002800D0B0E11E98B8
:1027F0001F990122C74B524201F014FB002800D060
:1028000037E11E981F990122C34B524201F020FB71
:10281000002800D0A7E01E981F990022BF4B01F0AE
:1028200017FB002800D088E01E981F990022BC4B9F
:1028300001F0F8FA002800D07FE01E981F990022CE
:10284000002301F0EFFA002800D0FAE000230B93F8
:102850008023229C229ADB001C401A4200D102E114
:10286000092D00D87CE106A98C462C0017220023F4
:102870003021093C62440133D154EF1A202B00D19E
:1028800032E1A342F7D10022A44B069207931E988F
:102890001F9901F00DFB050001F0F2FA02000B0098
:1028A0001E981F9901F043FA069A079B01F06FFAF0
:1028B0000890099101F020FB060001F0DDFA02000A
:1028C0000B000898099901F032FA0022954B089004
:1028D000099101F0BDFA002800D1D2E001363000A4
:1028E00001F0CAFA069A079B01F0AAFA002801D063
:1028F00000260135AA46002F00D098E0280001F0FC
:10290000BFFA02000B001E981F9901F010FA854BC8
:10291000002206000F0001F085FA0CAB9A46002851
:1029200045D10022300039007E4B01F091FA002899
:102930003DD1EB073BD5013539E0229B424604935C
:10294000219B594603930A981E9B1F9C0295009356
:1029500001944B46FFF704FD15B0F0BCBB46B246F0
:10296000A946A046F0BD229B5B0767D403226E4BAD
:1029700022990192039121990291009342464B467C
:1029800059460A98FFF766FBE6E706AA944617231E
:10299000280063440A2101341E1900F065FF30311C
:1029A000280031700A2100F05FFF051E76D0202C30
:1029B000EBD10323229A1340012B1DD1219B002B25
:1029C0001AD00B9B002B00D0BBE0229A0C33134291
:1029D00000D0B6E0219BA34200D887E006AB9C461E
:1029E00017223023624404E02199013413558C42AC
:1029F00059D0202CF8D12024229B01940393219BB1
:102A000002935346B9E706AA944617230A21634462
:102A1000300001341D1900F04FFF303129703000B3
:102A20000A21013F00F048FF092E46D90600202C5C
:102A3000E9D155460CAB20249A46B8E704223B4B1B
:102A400096E71E9A1F9B0020002101F070F90123D8
:102A50000B938023229C229ADB001E901F911C4026
:102A60001A4200D0FCE60022314B0627069207935B
:102A70000DE7229B0393219B0293042301932D4B8B
:102A80007BE7002208980999264B01F0CBF9002832
:102A900000D02FE7002E4FD101362BE70323229AD7
:102AA0001340012B66D0202CA6D00B9B002B1FD0EF
:102AB0002D235246135501349EE75546202CB9D09C
:102AC00030233A19002F08D0172006A9013409181D
:102AD0000B55202CAED09442F6D10CAB9A462E2347
:102AE00052461355013462E72024CCE6202C83D0D3
:102AF000229B5B0708D4229B1B0700D47CE7202382
:102B000052461355013477E72B23524613550134AF
:102B100072E7C046FFFFEFFFFFFFEF7F65CDCD41BE
:102B200065CDCDC10000E03F7C340210743402104A
:102B300080842E4184340210F30700D4DAE6013693
:102B4000D8E6219B013B2193A34200D946E7AAE79F
:102B5000229B0393219B029303230193074B0CE7D2
:102B6000074BEA009B185C681B682F0006930794CC
:102B700000248CE6219B002B95D022E780340210A4
:102B8000C0F90610F0B55746DE464E464546E0B55C
:102B9000A5B01F002E9B91460D93CA4ACA4B824690
:102BA0008B461A60002900D129E200233878984624
:102BB000002800D12BE2C54B44460C93C44B55462C
:102BC0004E460E930AE0631C984622003300594695
:102BD000A84744463878002800D187E001372528E7
:102BE000F1D108239A46043B9946023B9846013BA3
:102BF00000229C460B943878791C0300203BDBB202
:102C0000102B03D80C9C9B00E3589F460300303BDD
:102C10000B9C0B92092B3AD9002398462A2800D105
:102C2000DDE000239A462E284BD00300683BDBB240
:102C3000122B1ED80E9A9B00D3589F4663460F0056
:102C40001A43D8E743460F001A43D4E74B460F0018
:102C50001A43D0E710230F001A43CCE753460F0066
:102C60001A43C8E780235B000B9A78781A430B92CB
:102C700001310F0067284FD82428A4D90300253B31
:102C8000DBB2422B9FD893499B00CB589F46002331
:102C900098460B9B47469C4600E00131BB00DB1980
:102CA0005B001F180878303F0300303B092BF4D934
:102CB00063460B930023B8469A460F0001312E2835
:102CC000B3D180200B9AC00002430B9230225242B3
:102CD000944678780B0084446246092A00D8AAE119
:102CE0002A2800D1B9E10F0001319EE7A046AA468B
:102CF000B146C84503D301235B424B4498464B463B
:102D0000424659460020D047200025B0F0BCBB46C3
:102D1000B246A946A046F0BD01006939C9B20F29E3
:102D200000D950E701238B409C466B4B9946634684
:102D30004A4613400F9362464B461A4200D068E160
:102D40000A2956D0072900D03DE70D9B02CB9846B3
:102D5000002900D092E10B9B10211A008A43100039
:102D600011310843814680201A00C0000240110042
:102D700003421CD114AB9C461F220F2362440D95C5
:102D80009C4615000F9B0B9402E0202B0CD01100E9
:102D900064460C4020003730092C00D80738013336
:102DA000E8540A090F29F0D80B9C0D9D0F934B4650
:102DB0000822069353460592083203920022049398
:102DC0000F9B029201931CAB2200009359463300E3
:102DD0002800FFF795F9434604000D93FAE60D9B92
:102DE00004CB9046002A79DB78780D930F000131EF
:102DF00017E70D9B02CB14930B789C4618005346A3
:102E0000002B00D134E1002815D05346013B01339B
:102E100099460D940B9C89444A460B00A14601E05B
:102E2000934203D05C780133002CF9D14A465B1AF7
:102E30000D9C0B920F938023DB0099460B9A134055
:102E40000D934B461A4204D00F9B534501D953466C
:102E50000F93022399460B9A13400B934B46134250
:102E600000D1F5E16346002B00D1D6E10D9B002B8C
:102E700000D182E10B1BD14631009A463B00A144B0
:102E80002E005F464D4622009B46894609E04B4690
:102E90003900541CB0475346185D002800D192E118
:102EA00022009542F3D14B465A46A946BB4635000F
:102EB00017001E004C460B9B002B00D0ADE1149B6D
:102EC0000D9387E6852B00108C44022020F8061015
:102ED00064F80610B0F80610419000000B9A2838EC
:102EE00002430B9242465242787890460F000D936F
:102EF000013196E678786C2800D15DE180230B9A49
:102F00005B001A430B920131B3E680239B00ABE6D2
:102F10007878682800D148E180230B9A01311A4360
:102F20000B92A6E6672800D1B2E0472800D11AE14B
:102F3000452800D11CE10B9A0721049242460D9BC3
:102F40000392073352468B43190002920CC92800A2
:102F5000009201930D91220033005946FFF700FAC9
:102F6000040037E6462800D18DE00B9A0721049231
:102F700042460D9B0392073352468B43190002923F
:102F80000CC92800009201930D912200330059468C
:102F9000FFF718FC04001DE6631C9846220033006E
:102FA00059462520A847444614E60D9B04330F9349
:102FB000631C99460B9B9A0700D40AE10D9B2200E3
:102FC000187859463300A84743464444012B00D89B
:102FD0006FE1B0462E0025004C46B9465F46220000
:102FE0004346013439002020B047AC42F7D12C00D1
:102FF000BB4635004F4646460F9B0D93EAE5D64B40
:1030000038789A4600239846002800D0D3E500245B
:103010006FE66F2842D000D8FDE11023782800D158
:103020009BE00B9A9A430B920A239C46002314932D
:103030000A330F9338E057460B9AB900C919490073
:1030400001330F181878303F010030390929F4D9BD
:10305000BA460B921F00591CE7E50D9BB87804CBCC
:103060000237D143C9170A4092460D93791CDCE51B
:10307000002800D1DFE602235B42C8E621200B9A3C
:103080000243914676E620230B9A1A430B926CE793
:1030900080230B9A1B011A430B924CE708239C4692
:1030A0000023149308330F930B9880230200DB0056
:1030B0001A4011000200184200D080E00C239A430D
:1030C0001000802302009B001A400B92184200D08F
:1030D000F1E0802302005B001A4091460D9A043211
:1030E0001492184200D0C3E2430600D5D7E003068D
:1030F00000D421E30D9B1B880993002B00D02DE108
:1031000010339843002900D128E100239946434613
:103110000593534604930F9B069003930023029359
:103120004B4601931CAB2200009359463300280004
:10313000FEF7E6FF0400C2E6582809D0622800D056
:10314000E3E202239C460023149302330F93ABE780
:1031500020230B9A1A430B92103B9C460023149396
:1031600010330F93A0E780230B9A1B011A430B9295
:1031700020230B9A1A430B92DDE60B1B9A460F9BFA
:1031800099463B0037005E469B4622003B003100DB
:10319000A84753460134185D0028F6D14B460F93DB
:1031A0005B46B3463E001F0085E6C0230B9AB87805
:1031B0001A430B92F91C5CE5C0239B00F6E70D2334
:1031C0009A4310007DE75B463500BB464E461F0024
:1031D00071E64346012B66D9631E434432002E003C
:1031E0001D003B00A2465F4691469B4622004B468F
:1031F000013439002020B047AC42F7D15B4635009E
:10320000BB464E46A14654461F000D9B4A461878C1
:10321000594633004444A847EEE60F9BA146984523
:1032200000D84CE64444E41AB0462E0025004C4633
:10323000B9465F4622004346013439002020B0479A
:10324000AC42F7D12C00BB4635004F46464636E629
:103250000F98804500D873E24346E218131A3200F3
:103260002E001D003B0091465F469B460F912200B9
:103270004B46013439002020B047AC42F7D15B46C1
:10328000BB461F0043460F9901330F930B7835005F
:103290009C464E466046002800D0E7E50FE60D9BB1
:1032A0001B78099329E70D9B2200187859463300B3
:1032B000A8474C46A0E60D9AFA3BFF3B07329A43DB
:1032C0000133994691444B460D9313685268159209
:1032D0001A4306D11032904300220992002900D0EF
:1032E00083E06122810600D54122D2B20A9214AA5B
:1032F00091460A9A00210A3A0B9242461792524688
:1033000018925A46B24609911E001F31149B494437
:10331000BB4616941A950024674698468946159D23
:1033200019901B920AE03032D2B24B4601341A5542
:10333000A8454CD0202C4CD006000D003A000023AC
:103340003000290000F0F6FAD2B2092AEBD90B9B23
:103350009C466244D2B2E8E7512000106123820605
:1033600000D54123DBB20A3B0B93434614A91F222D
:103370008C46159353466244B2460D9417974C46BB
:103380008046A9461700099D0F9E169308E030332A
:10339000DBB201343B55B5420ED3202C0CD00500D6
:1033A0003100280000F088FACBB20929EFD90B9A36
:1033B00094466344DBB2ECE7159B40469846169B67
:1033C0004D465646A1469A460D9C179F9FE6B7422A
:1033D000B0D9179B56469846189B5F469A461B9B4A
:1033E00009949B46169C19981A9D4346059353468B
:1033F00004930F9B0690039300230293099B019370
:103400001CAB22000093594633002800FEF778FEDB
:103410000400FFF7DFFB10230B9A9A430F926928F1
:1034200000D091E10B9980230A00DB001A401000C4
:103430000A00194203D0112118008A430F920F9AF3
:10344000802311009B0019408C461A425BD18023D7
:1034500011005B00194089460D9904310B911A4205
:1034600000D0B2E013005B0600D4EDE00D9B1B78AA
:103470001A00D90F0D91002B00D1A3E0100014AA5F
:10348000944642461F23159252466344A846BA46C4
:103490004D461494B14604001F00169201E0202D01
:1034A0000FD020000A2100F007FA01357E193031D3
:1034B000317020000A2100F0FFF926000400092ED7
:1034C000EDD8159B4E46A94645469846169B57464D
:1034D0009A46149C0F9B06934346059353460493C8
:1034E0000A2303930D9B02934B4601931CAB2200CE
:1034F0000093594633002800FEF702FE0B9B0400A0
:103500000D93FFF767FB07220D9B073393430132AF
:1035100094469C4462460D920CCBD90F0B9111003E
:10352000194300D19BE0D91713911291514010918A
:1035300013995940119110981199129A139B801A5E
:1035400099411090119114AA944642460023159275
:1035500052469946169232001F336344A8464E469F
:10356000BA4614941F00109C119D914601E0202E34
:1035700010D0200029000A22002300F0DBF90136D8
:1035800030322B00BA550D0022000400002BEED182
:10359000092AECD8159B10941195454698464B4640
:1035A000169AB14657461E009246149C0F9B0693EE
:1035B00043460593534604930A2303930B9B0293BC
:1035C0004B461CE7002885D159E70D9B1B68DA0F95
:1035D0001100002B00D1A6E0DA179818504014AA69
:1035E00091461F2342464B44A8460D94169704006B
:1035F0006546B1461F001491159201E0202D0FD0B1
:1036000020000A2100F058F901357E19303131705F
:1036100020000A2100F050F926000400092EEDD800
:10362000159BAC4645469846149B4E4619000D9C8A
:10363000169F0F9B029106934346059353460493AE
:103640000A230393634650E713001B066ED50D9BB8
:1036500000229B5ED9175A184A4092B209E700230C
:1036600099460028A2D100220023109211936AE704
:103670000D9B1B689946002B03D1103398430029FA
:1036800038D16123820600D54123DBB20A3B0D937A
:1036900043461693534614A91F228C4617932B00BA
:1036A00062444D46B24615941897804617009946D5
:1036B0000B9C0F9E08E03033DBB201343B55B54222
:1036C0000ED3202C0CD005003100280000F0F4F8B7
:1036D000CBB20929EFD90D9A94466344DBB2ECE7EB
:1036E000169B40469846179B56464D469A460B9465
:1036F000189F159C43460593534604930F9B0690D1
:103700000393002302930B9B0BE50B9980230A0084
:10371000DB001A4010000A00194200D08BE610238B
:103720009A430F928BE6002883D158E70D9B1B68C4
:10373000D9175A184A409CE60D9B1B680993DCE494
:10374000030001330F93A5E50B926DE40EB4012243
:1037500030B584B007AC08CC064D010000942800B9
:1037600052420394FFF70EFA04B030BC08BC03B019
:103770001847C046492000100FB430B50C4985B039
:1037800008AA08CA0D680392002D0CD000920122ED
:10379000084C5242200002A9A847012005B030BCC5
:1037A00008BC04B01847180001F066FA0020F5E7DD
:1037B0008C4402205123001010B5094A03001468FC
:1037C00084B0002C08D0012200910648524203A97F
:1037D000A047012004B010BD01F04EFA0020F9E727
:1037E0008C4402205123001001480421014B18474A
:1037F000C013002025380010014B5B6818470000FB
:10380000C0130020142310B50100188804331B884E
:10381000984710BD162310B50100188802331B8885
:10382000984710BDF8B54746CE4680B50F1E19D053
:1038300014239946043304000025012698464B467C
:103840001888434621681B88984701C4431E984145
:10385000013540420640AF42F1D13000C0BCB9460C
:10386000B046F8BD0126F8E7124A936F9B0815D2BF
:103870009066D166002905D0FFE7FFE7FFE7516FAB
:10388000106F704704B580210906C2175140002807
:1038900000D0C8431FF0B0FC002104BDF0B5146E89
:1038A000556E576F166FFFF7E3FF1466556657673F
:1038B0001667F0BD000000D0114A936F9B0813D229
:1038C00010665166002905D0FFE7FFE7FFE7516F5B
:1038D000106F704704B5002801D00020C0431FF0CE
:1038E0008BFC002104BDC046F0B5146E556E576FB9
:1038F000166FFFF7E5FF1466556657671667F0BD4C
:10390000000000D094464A4A926F9208624601D263
:1039100028E0C046F0B5464E346E756E776F366F50
:1039200000F020F89446424A1466556657671667B9
:103930006246F0BD94463E4A926F9208624601D2BA
:1039400054E0C046F0B53A4E346E756E776F366F00
:1039500000F04CF89446364A146655665767166769
:103960006246F0BD002B24DB11D000293EDA00B501
:10397000C943404200D1013100F038F8C943404208
:1039800000D10131DB43524200D1013300BD002A96
:10399000EBD1002801D1002905D00020C90FC907AB
:1039A00001D1C043410800B51FF0FEFB00220023F7
:1039B00000BD00B500290ADBDB43524200D10133D0
:1039C00000F014F8C943404200D1013100BDC943A1
:1039D000404200D10131DB43524200D1013300F0BB
:1039E00005F8DB43524200D1013300BD002923D149
:1039F000002B18D1002A0CD0BC460D4F38667A66D1
:103A000000210023FFE7FFE7FFE77A6F386F674683
:103A10007047002801D00748010000B51FF0C4FB23
:103A20000022002300BD02000B000020002170478F
:103A3000000000D0FFFFFFFF002B00D0BFE0130C01
:103A400028D1002AE7D080B4114F39667A66FFE7A3
:103A5000FFE730B4040C7B6F396F1B0423433B66D4
:103A60007A66FFE7FFE7FFE7C04684B27B6F3D6FF2
:103A70001B0423433B667A66FFE7FFE7C04600234B
:103A80002C042D0C7A6F386F00196941B0BC704757
:103A9000000000D0F0B594460025140E01D11202AA
:103AA0000835140F01D112010435940F01D1920091
:103AB0000235D40F01D152000135D40B0134254F0A
:103AC0007C66254C3C660E0C93B2FFE7FFE7FFE7F0
:103AD0003C6F6643360C7703BE467343DF0B5B04D3
:103AE000C01AB941130C7343DB18C91ACE086643D8
:103AF000360CB64493B273431F0F1B01C01AB94171
:103B0000130C73431F0B1B05C01AB941860D8F029E
:103B10003E436643360C092D24DB520A7243801A59
:103B20007703460A6643360C16235B1BDE40DF40F4
:103B3000BF1964466643821B704604350633010094
:103B4000D940A840C01900D30131A24206D20023B7
:103B5000F0BD0000000000D0FFFFFFFF121B01308E
:103B6000F3D3F1E709277F1BFE406446A2B27243FC
:103B7000801A00D20139220C7243130C1204821AEB
:103B800099410B007046043513370100F940A840F5
:103B9000801900D30131002B02D1A2420AD2F0BD1C
:103BA000013000D30131121BFAD2013BF8D1A242FD
:103BB00000D2F0BD013000D30131121BF7E7F0B5A0
:103BC0001C0C00D080E00CB400251C0A04D11B02A0
:103BD000160E3343120208351C0B04D11B01160FBD
:103BE0003343120104359C0B04D19B00960F3343E1
:103BF00092000235DC0B02D192185B4101351C00AA
:103C0000971864410134464F7C66464C3C660E0C66
:103C1000FFE7FFE7FFE7C0463C6F6643360C7703DC
:103C2000BE4697B27743C01B00D20139C01B00D2F9
:103C300001399FB27743C91BC91B170C77437E0418
:103C4000FF0B801BB941CE086643360C0C2D33DBCD
:103C5000B644120B1F053A431B0B97B27743C01BA8
:103C600000D201399FB27743C91B170C77433E043A
:103C70003F0C801BB941860D8F023E4366432927C6
:103C80007F1BFE400C3D7746AF40BF1930BCA2B24F
:103C9000ABB272437343801A9941220C7243130CE6
:103CA0001204801A994102000B000137001BA94140
:103CB000F9D2781E0021F0BD0C277F1BFE4077460D
:103CC0007F0BAF40FF19E0E700245D1C07D0144FC5
:103CD0007D663966FFE7FFE7FFE7FFE73C6F95B2D8
:103CE0009EB265436643401BB141150C1E0C6543F3
:103CF000664336042F0C3E432D04401BB1419942CC
:103D000004D202000B0020000021F0BD01D190423E
:103D1000F7D3801A994101349942F2D3F6E70000B3
:103D2000000000D0FFFFFFFF48404140484018B46A
:103D30001B4B5B68FC46019308BD04DF8F410010FC
:103D400018B4174B1B68FC46019308BD00DF99416E
:103D500000109446134A926F920809D2624618B432
:103D60000F4BDB68FC46019308BD0CDF514400108B
:103D70000C4AF0B5146E556E576F166F6246FFF71A
:103D8000EEFF084A1466556657671667F0BD18B40B
:103D9000034B9B68FC46019308BD08DFF542001009
:103DA000181C0020000000D0FFB550404240504099
:103DB00059404B40594000E0FFB5154F4C00640D91
:103DC00003D0BC4204D10C0314D80020090D09050E
:103DD0005C00640D03D0BC4204D11C030AD800224D
:103DE0001B0D1B0501264B4009D44B4003D58B42CC
:103DF00000D18242FFBD9942FCD19042FFBD0B43EE
:103E0000DB1803431343F5D0C9434918FFBD000035
:103E1000FF07000000B5FFF7CFFF01D0002000BD75
:103E2000012000BD00B5FFF7C7FF804100BDC046BF
:103E300000B5FFF7C1FF01D9002000BD012000BD82
:103E400000B5FFF7B1FF01D9002000BD012000BD82
:103E500000B5FFF7A9FF804100BD012040054A00E1
:103E6000121804D85A00121801D8002070470120F7
:103E700070470020704700000021002805D17047DE
:103E8000C1174840401AFAD0C90713B5064B1B6842
:103E900098470CBC441CA2401005120B0349091B97
:103EA00009051943114310BDC04402201F0400003E
:103EB00010B54C00620D8023D218DB00D21A5B05CE
:103EC0007E2A10DD9E3A13DACC17090349081943FC
:103ED0005242D140640001341532202A05DAD04024
:103EE0000843604310BD002010BD0846604310BD6C
:103EF000C80FC018013810BD18B4044B5B6AFC46EB
:103F0000019308BD24DF014600100000181C0020AA
:103F100018B4044BDB6DFC46019308BD5CDF0D4714
:103F200000100000181C0020C94211D300B5490040
:103F30004908002200F018F8002904D40022404269
:103F40008A41114600BD80210906002000BD000005
:103F500018B4044BDB6EFC46019308BD6CDF0F46C2
:103F600000100000181C002018B4044B9B6FFC4686
:103F7000019308BD78DF2B4600100000181C0020BC
:103F800018B4044BDB6FFC46019308BD7CDF9946F7
:103F900000100000181C0020132370B51D78012D9F
:103FA00015D010DD1D48FFF735FC1D4C01008022A7
:103FB000200000F0C1FD022D2DD01A48FFF722FC91
:103FC000194B186070BD194B154CA364F5E7174BDE
:103FD000134C23606360A360E36023616361A361AA
:103FE000E36123626362A362E36223636363A363A7
:103FF000E36323646364A364E36423656365A36587
:10400000E36523666366A366E36623676367A36766
:10401000E367A364D1E7054BA364CEE753440000F4
:10402000181C00204C330000C04402205D410010E9
:10403000244A4B0094465B0D6344F0B504000D0028
:104040005A1C21DB5A1C35D0342B1CDA3326F61AC5
:104050003700203F1CD40121B9400B000121B140A1
:104060000A0012196B41002F1EDB0224BC40210004
:104070000224B44020001600002544428D41264011
:104080002B4030001900F0BDCB0F0020D907FAE714
:1040900020210120891BC8400121B14003000A00F2
:1040A00012196B41002FE0DA20240225A41BE54001
:1040B0002900DDE7CB0F044ADB071A43002011007B
:1040C000E1E7C04601FCFFFF0000F03FF0B5C64647
:1040D0000B000D0049000200040000B5490D2FD06F
:1040E0001C48091826D43426711A88464646100002
:1040F0001900002E1BDD4746203F25D40126BE4077
:10410000310001274646B7403800002B06DA01246B
:104110006442E517A4185D4124184D410023424232
:104120008B4126002C0016401C403000210080BC32
:10413000B846F0BD00200021002BF8DA0649F6E76A
:10414000DB0F0020D907F2E72027BF1B0126FE4026
:104150003100D6E701FCFFFF0000F0BF07B5604665
:1041600001880A0A0230DF2AFAD1C9B2820804D3D0
:10417000028840880004104300E00068014A505063
:10418000039007BD181C00200FB403BC0CBCF0B595
:104190000124E407634000E0F0B50C0DCF0F661E6C
:1041A0003605891B640503D3C943404200D301315E
:1041B000640D03D0661CF60A07D0E41B00207F00C4
:1041C000791C89078912803C24031D0DDF0F6E1EA8
:1041D00036059B1B6D0503D3DB43524200D30133ED
:1041E0006D0D03D06E1CF60A07D0ED1B00227F0078
:1041F0007B1C9B079B12803D2D032F1B661B58D4F5
:10420000A446202E46DA20371400BC401D00BD40D5
:10421000F24033412A4380185941CB0F05D0C9439E
:10422000C043002264425041514162464D0D28D1A5
:104230000D0D07D100281FD0241940414941013AF2
:104240000D0DF9D0640006D3013000D30131002CEC
:1042500001D140084000013A0BD4941CE40A04D177
:1042600012051144DB071944F0BDD907204B19434F
:1042700000E0D9070020F0BD0029DDD1002CDBD102
:10428000F0BD0132C6074008CD0728434908002E7B
:10429000E1D0D9E73C2E29DA203E40371400BC405B
:1042A00000D00124F24014431A00BB401C43D31732
:1042B000ACE7AC46202F08DA20360400B4400D00ED
:1042C000B540F84039412843A5E73C2F0CDA203FA0
:1042D00040360400B44000D00124F84004430800F4
:1042E000B1400C43C117EAE710001900002494E71D
:1042F0000000F07FF0B50C0D661E3605891BE60A3E
:104300006405640D02D0651CED0A04D00020012173
:104310000905803C2403A4461C0D671E3F05DB1BDA
:10432000E70A6405640D02D0651CED0A04D0002282
:1043300001231B05803C24037740644497B484B276
:1043400096B27443070C7E43150C6F4380B26843EA
:10435000361802D3012000043F183004350C001930
:104360007D41844688B29AB250430C0C62431F0CC4
:104370007C438EB27E43921902D301263604A419DF
:104380001604170C3618674101BC81B29AB251432A
:10439000040C62431B0C5C4380B25843121802D3D6
:1043A0000120000424181004130C401863412D1838
:1043B0005E410020474106BC88B293B258430C0CC2
:1043C0006343120C544389B251435B1802D3012159
:1043D0000904641819041A0C091862416D18564131
:1043E0000020474118BCF902720D1143F0026A0D1A
:1043F0001043ED020A0D03D16D1940414941013BC3
:10440000124E9B1B7600B3420ED26D0007D30130D3
:10441000002671416646354301D1400840001B0526
:10442000C918E4072144F0BD0BDA013306D101308D
:1044300004D101314F0D01D04908F2E7E107002016
:10444000F0BD013631050020EBE70000FF0300005E
:10445000F0B51C0D671E3F05DB1BE70A6405640D04
:1044600002D0661CF60A04D0002201231B05803C02
:104470002403D0252D060026F6432E661E096E66FF
:10448000CE0FF619B44649004F0D02D07E1CF60A35
:1044900003D000200021403F3F033E1BB600B44440
:1044A000013F7F05C91B49082E6F013676089C0223
:1044B000950D25437543ED137543AD1301356D100F
:1044C000F603761B0CB4CC02450D2C43A2B2B3B25A
:1044D0005A43270C7B43350C6F43A4B26C431B1922
:1044E00002D3012424043F191C041D0CA4187D418F
:1044F00024196D41009A91B2ACB26143170C7C4310
:104500002B0C5F4392B25A43A41802D30122120427
:10451000BF182204230C52187B41019C6C431B19C9
:10452000520ED9010A434401A01A81B2B2B25143DA
:1045300003145A43360C734387B27743D617D21904
:1045400000277E4136049B191704160C7F185E4124
:104550007316ED18F301002680337541A90F06D1BB
:104560006400690AE8055B0A184309D22FE00422B7
:10457000944480337541A90AA8059B0A184326D3A1
:10458000404149412404009A019B0D005543641B9E
:104590004343E41A95B286B27543170C7E43030C6D
:1045A0005F4392B25A43B61802D301221204BF18D5
:1045B0003204330C52197B4152429C41002C02D4EC
:1045C0000022013051414008CA071043490802B097
:1045D0006246D7079210084BD218084B9A4203D272
:1045E00012058918C919F0BD0020002A01DC390024
:1045F000F0BD01331905F5E7FD030000FE070000DB
:10460000002200B5203200F010F8080000BD0022A2
:1046100000B500F00CF8CA179A4200D100BDD8438B
:104620000121C907414000BD00220B150AD410B575
:10463000944600F0A7F81414013400DA0021CB17D7
:10464000144C20470020002170476244343A0CD4B7
:104650000C2A07DA04009140904052422032D440A4
:10466000214310BDD843D94310BD203207D40C4696
:104670009440524220321141D040204310BD0800E6
:10468000C917203203D452422032104110BD180005
:10469000190010BD4B4600104A00520D144BD21A9F
:1046A00013DDFF2A1EDAD205CB0FDB071A43C30046
:1046B000400F0903490A084310435B0001D301D0AE
:1046C000013070474308FBD2704702D0C80FC007C3
:1046D00070470A0312130132F8D1420F072AF5D1AD
:1046E000012200E0FF22C80F00028018C0057047B9
:1046F0008003000000210A00002104E000210A00DC
:10470000C11704E00022002306E0C0460022CB17B8
:1047100058405940C01A994130B5184CA21A002986
:1047200003D1010010D00020203A4C1512D104D240
:10473000013A001849414C0DFAD3114CA24204D25F
:1047400012058918DB07C91830BDD243520D00206D
:104750000021F5E703D4013A00184941FBD50B329B
:104760004405C00A4D052843C90A640003D000244B
:1047700060416141E1E7E0D34408F8E7320400001A
:10478000FE0700000A0DCC0F531E1B05C91A520567
:1047900003D3C943404200D30131520D03D0531C0F
:1047A000DB0A07D0121B00206400611C89078912F4
:1047B000803A1203014BD21A70470000FF03000039
:1047C00051434343C9188C46110C83B24B4310B478
:1047D000040C614392B280B2504362431C041B0C30
:1047E000001910BC59411304120CC0185141614406
:1047F000704700004840414048400E4B5B681847F6
:104800000C4B1B6818470C4A936F9B0802D2094B4C
:10481000DB681847F0B5146E556E576F166FFFF7CB
:10482000F6FF054A1466556657671667F0BD014BDB
:104830009B681847181D0020000000D007B54840AD
:104840004140484001E0C04607B54200120E03D087
:10485000FF2A03D1420218D8C00DC0054A00120E2B
:1048600003D0FF2A03D14A020FD8C90DC90501227E
:10487000414005D4414001D5814207BD884207BD72
:104880000143491801D0C043001807BD00B5FFF728
:10489000DBFF01D0002000BD012000BD00B5FFF707
:1048A000D3FF804100BDC04600B5FFF7CDFF01D961
:1048B000002000BD012000BD00B5FFF7BFFF01D9FA
:1048C000002000BD012000BD00B5FFF7B7FF80410B
:1048D00000BD0000C10FC90700D54042002817D015
:1048E000F44603B40B4B1B68984706BC81409E38C6
:1048F0004042803107D20B0607D04900490AC00563
:104900001043084360470130F8E7490A8902F5E798
:1049100070470000C044022041000A0E80231B069D
:104920007E2A0BDD9E3A0BDAC1174002400818437D
:104930005242D0404900013148437047002070473F
:10494000C00FC01801387047C0420DD300B54000F9
:104950004008002100F012F8002801D4404200BDB8
:104960008020000600BD0000034BDB69FC461847B1
:104970001CDF394A00100000181D0020014B5B6A43
:1049800018470000181D0020034BDB6FFC4618473A
:104990007CDF514A00100000181D0020014BDB6C29
:1049A00018470000181D0020132310B512481C786A
:1049B000FEF730FF0100012C0AD003DD80220F48F2
:1049C00000F0BAF80E48FEF71DFF0E4B186010BD40
:1049D0000A4C5422200000F0AFF80B4B6365A3652E
:1049E000E36523666366A366E36623676367A3677D
:1049F000E3672362E361E5E753460000181D0020EA
:104A00004C330000C04402200D4A001007B5604638
:104A100001880A0A0230DF2AFAD1C9B2820804D317
:104A2000028840880004104300E00068014A5050AA
:104A3000039007BD181D00200021C215803280326E
:104A400001D0024A1047002070470000CD2A000024
:104A5000C30FDB0741000A0E07D0FF2A08D009095F
:104A6000054A89181943400770471900002070470C
:104A70000249C918FAE70000000000380000F07F82
:104A800070B504000A4E30001EF0FEFB200018F046
:104A900021FE050030001EF07FFB002D05D0054BE8
:104AA0002C199C4201D8280070BD0348FDF7AEFACE
:104AB000C01A0020000004208C34021070B50500DC
:104AC0000C000B4E30001EF0DFFB280021001BF015
:104AD00081F8050030001EF05FFB002D05D0054B6E
:104AE0002C199C4201D8280070BD0348FDF78EFAAE
:104AF000C01A0020000004208C34021070B504009D
:104B0000054D28001EF0C0FB200018F0EDFD280028
:104B10001EF042FB70BDC046C01A002001480421AF
:104B2000014B1847D013002025380010014B1B689B
:104B300018470000D0130020014B5B6818470000A5
:104B4000D013002010B5FFF7D9FF10BDF0B5C64651
:104B500000B5437D07000D001600002B38D0002A59
:104B60002EDD00216A1E90466A5C037D4C1C0020ED
:104B70000A2A0CD0A64216D043461B5D21000D3BED
:104B80005A4253416A5CDBB24C1C0A2AF2D1002B18
:104B9000F0D1884217DB022110483B689847A642B3
:104BA00007D02000E8E7864203DD311A3B68281869
:104BB0009847AD19013D2B780D3B5A4253413B7547
:104BC00080BCB846F0BD091A3B6828189847E2E750
:104BD0000368110028009847F2E7C04634FA06102F
:104BE000F0B5CE46474680B583B06B460600DD1D66
:104BF0002870FCF7A7FC00231A4A12184B418021A9
:104C000009068B4202D30122174B52421749080072
:104C100088461EF019FB164B81461C68002C14D0E8
:104C2000144F02E02469002C0FD02368002BF9D028
:104C30003B68002B01D0A342F4D1200001222900BF
:104C4000FFF784FF2469002CEFD14B46002B05D1E0
:104C5000300003B0C0BCB946B046F0BD40461EF0BF
:104C60009BFAF5E740420F00FFFFFF7FC81A0020C4
:104C70003844022040440220F0B5DE4657464E46F6
:104C80004546E0B585B007001BF0FEFE0600FCF7C8
:104C900059FC00232B4A12184B41802109068B42F4
:104CA00002D30122284B5242284908008B461EF0AD
:104CB000CBFA274B01901C689A46002C3BD0254B21
:104CC000984602ABDD1D0A23994602E02469002CB8
:104CD00017D02368002BF9D043461B68002B01D066
:104CE0009C42F3D1200032003900FFF72FFF4B46E2
:104CF0002000012229002B70FFF728FF2469002CD7
:104D0000E7D1019B002B18D153461C68002C06D01C
:104D10006368002B0BD098472469002CF8D1300031
:104D200005B0F0BCBB46B246A946A046F0BD24691A
:104D3000002CEDD1F3E70028F1D058461EF02CFAF4
:104D4000E2E7C04640420F00FFFFFF7FC81A002085
:104D50003844022040440220F8B557464E46DE460D
:104D60004546E0B50E00170000282CD11B4B1C4D0A
:104D70001A685B6893469A461A4B99461A4B9846AE
:104D80004B461C68002C03D115E02469002C12D07E
:104D90002B68002B01D0A342F7D1A368002BF4D0DD
:104DA0003900300098470028EFDDF0BCBB46B24622
:104DB000A946A046F8BD43465B6A9A4508D84246D4
:104DC000926A5A4502D301204042EEE79A45FAD151
:104DD00001200021FCF7C0FBD2E7C04618F80610FE
:104DE000404402203844022000400540F0B54646C9
:104DF000D6464F4601380D009046C0B5012841D82F
:104E0000FCF7A0FB0023214A12184B418021090620
:104E10008B422FD21E49474608008A461EF014FADC
:104E200043468146013303D128001BF02DFE0700C5
:104E3000184B1C68002C14D0174E02E02469002C7B
:104E40000FD02368002BF9D03368002B01D0A34288
:104E5000F4D120003A002900FFF778FE2469002CE5
:104E6000EFD14B46002B09D14046E0BCBA46B146D3
:104E7000A846F0BD0122094B5242CBE750461EF036
:104E80008BF9F1E701204042EFE7C04640420F00B6
:104E9000C81A00203844022040440220FFFFFF7F50
:104EA000012040427047C046012040427047C04642
:104EB000012040427047C0460300022200209A426F
:104EC0004041704710B5024800F004F810BDC046DC
:104ED000B844022010B588B004000D2200216846B5
:104EE000FFF724FE0D22002104A8FFF71FFE4B232D
:104EF0006A466846137004A90D221EF045F9152173
:104F0000082220006944FFF717FE08B010BDC04614
:104F100003BDC04610B50400FBF788FFA04710BDD5
:104F2000D02202211206136D1942FCD0506540BFF9
:104F30007047C046D0221206136DDB0704D401214E
:104F400020BF136D1942FBD0D0231B06986D70470C
:104F50008022054B520205491A600B681342FCD0AF
:104F6000034B1A607047C046042001400400014012
:104F700004300140F0B5040087B00F200E00170088
:104F8000FBF7DAFD002105000F20FBF7C3FD00232E
:104F900000220092019301230293D02304960594EA
:104FA000002600240121022003971B06002C14D0A8
:104FB0001A6D1042FCD05C6540BF1A6D114203D1DE
:104FC00020BF1A6D1142FBD09A6DA2420AD0002672
:104FD0006C46B200A458E9E79A6D1A6D1142FBD1F4
:104FE00040BFE5E70136062EF2D129000F20FBF77E
:104FF00091FD07B0F0BDC0460D4B0E4A10B593426F
:1050000010D30D4A99181A000B4C1051FF20C00004
:1050100013500A4B0A4813500A4B0B489A68FFF783
:10502000A9FF10BD01235B421A000849ECE7C04606
:105030000008042000000420F4070000154F0010B1
:10504000FC07000000ED00E0114F0010F307000026
:105050000EB400B582B003AA02CA036801929B682D
:10506000984702B008BC03B01847C0461300C2B24C
:1050700010B5112A3AD8224B80001B589F461123A5
:105080000B70002010BD12230B70FAE701230B7088
:10509000F7E70A230B70F4E702230B70F1E7032311
:1050A0000B70EEE704230B70EBE705230B70E8E7CA
:1050B00006230B70E5E707230B70E2E708230B706C
:1050C000DFE709230B70DCE70B230B70D9E70C2318
:1050D0000B70D6E70D230B70D3E70E230B70D0E7D0
:1050E0000F230B70CDE710230B70CAE700220A7064
:1050F000020004491800FFF7ABFF0120C2E7C046D9
:1051000038FA0610E4340210F0B5DE4645464E4645
:105110005746E0B5160083B00193136804001B687E
:105120000422884630001C2198471C2200210500DB
:10513000FFF7FCFC2368E31A1A880A2A02D9598966
:1051400000290AD10024019B1D60200003B0F0BC9F
:10515000BB46B246A946A046F0BD615C0129F1D12B
:105160000C2AEFD99B89E418002BEBD02368E418B4
:105170002068201A0288042A12D8297001232B6182
:1051800001236B610020290042461831FFF76EFFB2
:10519000041ED7D03368290030005B689847D4E7F5
:1051A0008388002B06D0E356002B03D0013B5942E5
:1051B0004B4159002970062AE0D9C18800230029F3
:1051C00000D063586B60082AD8D9018900230029D0
:1051D00000D06358AB600A2AD0D9002341899A468F
:1051E00000290FD0635C9A46591E0023C9B28C4631
:1051F0009B46042163465F4699427F41534679426C
:105200000B409A4653462B730C2AB7D98189012348
:10521000002900D063582B610E2AB1D9C18901231E
:10522000002900D063586B61102AABD9038A002B88
:10523000A8D0E056A7E7C046F8B5CE4647461E00C0
:10524000136804001B6810001C21042280B59847D5
:105250001C2200210500FFF769FC2268A21A1388AE
:105260000A2B18D95189002915D0615C022912D165
:105270000C2B10D99389E218002B0CD01368D2188C
:105280001168511A088804280BD801232B700123B8
:105290006B610123AB6135600020C0BCB946B046EC
:1052A000F8BD8B880124002B06D0D356002B03D0E9
:1052B000013B5C4263415C002C700628E7D9CC8836
:1052C0000023002C00D013596B600828DFD90C890B
:1052D0000023002C00D01359AB600A28D7D94C8981
:1052E0000023002C00D01359EB600C28CFD90023E9
:1052F0008C899946002C0BD0135D042499465F1EBF
:105300000023FFB2BC425B415C424B4623409946BE
:105310004B462B740E28BAD9CC890123002C00D01F
:1053200013596B611028B4D90B8A002BB1D0D35814
:10533000AB61B0E770B51E00136804001B68100075
:10534000282104229847282200210500FFF7EEFBC0
:105350002268A21A13880A2B16D95189002913D062
:10536000615C052910D10C2B0ED99389E418002B10
:105370000AD02368E4182268A21A1388042B06D8DE
:1053800001232B7000232B753560002070BD9188A0
:105390000120002906D06156002903D00139484276
:1053A000414148002870062BECD9D0880021002804
:1053B00000D021586960082BE4D910890021002809
:1053C00000D02158A9600A2BDCD95089002100287F
:1053D00000D02158E9600C2BD4D9908900210028F5
:1053E00000D0215829610E2BCCD9D389002BC9D0EC
:1053F000E35C5A1E042AC5D82B75C5E7F0B5C6462E
:1054000016001F00136804001B68042200B58846BC
:10541000300024219847242200210500FFF786FB55
:105420002368E31A1A880A2A02D95989002904D163
:1054300000203D6080BCB846F0BD615C1129F7D109
:105440000C2AF5D99B89E418002BF1D02368E418C5
:105450002368E31A1A88042AEAD99B88002BE7D02C
:10546000E4182368E4182368082B22D8002B1ED0E8
:1054700062682A60012B19D0A2686A60022B15D0DD
:10548000E268AA60032B11D02269EA60042B0DD0D8
:1054900062692A61052B09D0A2696A61062B05D0D1
:1054A000E269AA61082B01D1236AEB6123682B62B0
:1054B000BEE7064A06494046FFF7CAFD336830009A
:1054C00029005B6898470120B4E7C0460835021000
:1054D0001035021070B504001D001368100004217F
:1054E00004221B689847002122680160A21A1388D1
:1054F0000A2B18D95689002E15D0A65D092E12D177
:105500000C2B10D99389E418002B0CD023680A1CAB
:10551000E4182368E31A1E88042E03D99B88002B05
:1055200000D0E25802602860002070BD10B53C2118
:10553000836B984710BDC046F0B5DE4657464E46D1
:105540004546E0B50B69ABB00993CB68C7689B468D
:10555000BA4B05001A6838000C0003F073FB061EF6
:1055600043D0B74B210038001A6803F06BFB80462C
:10557000002831D0B34B210038001A6803F074FBC7
:105580008146002862D0B04B210038001A6803F031
:105590006BFB0A90002862D0037F0B93337F9A46FF
:1055A0004B461B7F9A4529D143461B7F9A4535D0F0
:1055B0005246072A30D0092A01D1122B2ED02800BA
:1055C000A2496B699847012420002BB0F0BCBB4670
:1055D000B246A946A046F0BD9D4B280000939D4AC7
:1055E0003E239D496C69A047EDE79C4B2800009342
:1055F000984A3B2398496C69A047E4E703935346D4
:105600000293974B28000193964B924A0093964938
:1056100046236C69A047D6E7092BD0D173690C9358
:105620001B68042B1ED14246526910680D92042853
:1056300026D003938D4B029001938D4B280000934D
:10564000844A512388496C69A047BCE7894B2800EC
:105650000093804A412380496C69A047B3E7002347
:105660000B939BE704200293804B03900193824BA2
:1056700028000093774A50237B496C69A047A2E732
:105680004B465B690E931B680F93042B0CD002935F
:10569000764B03900193794B280000936D4A522377
:1056A00071496C69A0478EE70C9B0E9A5B68506845
:1056B0001093119083420CD00293714B039001938D
:1056C000704B28000093634A542367496C69A047D4
:1056D00079E70D9B1B691293002B00DC96E0190003
:1056E0000C9B1B6918001393FEF7BEF8002900D02D
:1056F00095E00E9B18690A9B002B11D05B691B6813
:10570000042B0DD00293594B0F9801935E4B0390DD
:10571000009328005D234F4A53496C69A04752E724
:10572000109B14930C9B9A68DB6894461592139A0D
:105730000C931792012218920D9A16939168D268D1
:105740000F9110921A92129A19911B92119AFD239D
:105750001C920E9A9168D2681F90504607381D918E
:105760001E92184220D10D9A484B94461B6828007F
:105770009B0063445B689B009A46AB6B514698471D
:105780005B4651465862AB6B280098475B4698626F
:10579000169B1E9A0C93159B1D999C461A9B109361
:1057A000199B0F93337F9A465B46069353460593A6
:1057B0000F9B04910293109B210001936346039277
:1057C000009328000C9B099A01F014FF041E00D0DE
:1057D000FAE6327F092A65D0072A5FD03B6849463E
:1057E00038009B6998473B68310038009B699847AF
:1057F0003B68414638009B6998470A99002900D1C7
:10580000E2E63B6838009B699847DDE6204B2800BC
:105810000093104A562310496C69A047D3E6002331
:1058200003931C4B104801931B4B02910093010002
:1058300057232800074A6C69A047C4E690FA06106F
:105840008CFA061084FA061088FA06104036021008
:10585000E035021054350210B4350210CC35021078
:105860002436021034360210083602107C4E021024
:10587000E4360210F4350210D0360210F836021069
:105880000C370210243702108837021080FA0610F5
:105890003C370210543702105837021004230B997A
:1058A00099439BD1F368594220914946C8680999A8
:1058B0002190896823910999496822910999496938
:1058C00027910999096926915946496825915946B0
:1058D000096824915946C96A28915946096B29914A
:1058E000092A34D0002B23D100280ED003931E4B5D
:1058F000029001931D4B280000931D4A9A231D49D5
:105900006C69A047012004005EE614A91CAB18AA2C
:1059100020A804F03DFA0100002920DD5A462800A5
:105920002B6C38329847002800D157E704004BE62B
:10593000002002930C4B039001930F4B280000931F
:105940000B4A99230B496C69A0470120DBE714A996
:105950001CAB18AA20A804F02FFA0100DCE70123F1
:105960005A465B42936339E754370210B837021046
:1059700054350210083602109C370210F0B5574615
:105980004E464546DE46E0B51E00A9B0329B099062
:105990009946339B1AA89B46349B824698464B698E
:1059A00025930B69249313695B421E9393691F939C
:1059B0008B6821934B68516A209353680A91239313
:1059C00013682293D36A2693136B2793936A0B93DE
:1059D000736819699D68DC685B68119149460E938C
:1059E000012349680F958D6810941395CD68129323
:1059F000149516931793189343465B680969586882
:105A000015911A909868196984465046DB68674674
:105A1000836000234760C1600C930D931991916BD3
:105A200012AC16AD002903DB0998436C98470C9023
:105A30004A46594633681268002901D009688B46E6
:105A4000414609680CA806915146059159460292B3
:105A500004910093039501940EAB0AAA1EA904F0C9
:105A6000EDF9002029B0F0BCBB46B246A946A046DD
:105A7000F0BDC046F0B5DE464E4645465746E0B559
:105A8000D14BEDB01A680C000500099002F076F8D1
:105A9000CE4B08901A682100280002F06FF82368A6
:105AA00081469B46002B05D000221B689346032BA2
:105AB00000D19FE0C64B099D21001A68280002F022
:105AC00071F88046089B2169187A43461B7AE4687E
:105AD000984214D00393BF4B02900193BE4B280011
