:020000041000EA
:1000000000B5324B212058609868022188439860DF
:10001000D860186158612E4B002199600221596106
:100020000121F02299502B49196001219960352056
:1000300000F044F80222904214D00621196600F024
:1000400034F8196E01211966002018661A6600F04E
:100050002CF8196E196E196E052000F02FF8012189
:100060000842F9D1002199601B49196000215960AB
:100070001A491B48016001219960EB211966A021F2
:10008000196600F012F800219960164914480160C1
:100090000121996001BC002800D000471248134993
:1000A000086003C880F30888084703B5996A0420EC
:1000B0000142FBD001200142F8D103BD02B5186610
:1000C0001866FFF7F2FF186E186E02BD00000240BE
:1000D000000000180000070000035F00212200005C
:1000E000F4000018222000A00001001008ED00E03C
:1000F00000000000000000000000000074B24E7A12
:1001000000200420F7010010C3010010C5010010F9
:10011000C1010010C1010010C1010010C101001097
:10012000C1010010C1010010C1010010C701001081
:10013000C1010010C1010010C9010010CB01001065
:10014000CD010010CD010010CD010010CD01001037
:10015000CD010010CD010010CD010010CD01001027
:10016000CD010010CD010010CD010010CD01001017
:10017000CD010010CD010010CD010010CD01001007
:10018000CD010010CD010010CD010010CD010010F7
:10019000CD010010CD010010CD010010CD010010E7
:1001A000CD010010CD010010CD010010CD010010D7
:1001B000CD010010CD010010CD010010CD010010C7
:1001C00000BE00BE00BE00BE00BE00BEEFF3058054
:1001D000103800BEF2EB8871A8EF0010C8EF0010D5
:1001E0003402001090A31AE700201F49086006C8D7
:1001F00081F3088810471D48006800282FD10DA4FE
:100200000ECC002902D000F012F8F9E71849194A7B
:10021000002000E001C19142FCD1174988471749ED
:1002200088471749884700BEFDE701C901C29A42C5
:10023000FBD37047C8EF0010C0000020101600204C
:10024000180501100000042000000420180501100A
:10025000001004200010042000000000704709482E
:1002600003F09EF90047000008ED00E0000000D018
:1002700010160020484C0020613300103507001094
:10028000953400105756000006005250ABB360532F
:10029000C0DD001006005250861C0302D0DD0010A5
:1002A000060052505422A29DE4DD00100500525079
:1002B000DE65F46818050110F8B5C0460648074920
:1002C000091A8B10C90FC91810B5491003D0044B77
:1002D000002B00D0984710BD1016002010160020EB
:1002E00000000000054B10B5002B03D00449054861
:1002F00000E000BFFFF7E2FF10BDC04600000000B5
:10030000D04B0020B0D90010F0B5DE4657464E461F
:100310004546E0B5F9B01400859A1F009046059156
:1003200007F000FC8246200007F0FCFB8346829821
:1003300007F0F8FB0600849807F0F4FB814607F00D
:100340007BFB5246002500210490199216A8082232
:1003500004F032F8059A14AC504622612570A57756
:100360006577656007F068FB0222924622775A465D
:1003700080000021A06162631EA8082204F01CF81E
:100380002023E5541E33E5545846013BE5542763CA
:10039000656207F051FB3C23524680000021E25485
:1003A000A063063226A8666504F006F84023839A07
:1003B000E5541E333000E554013BE5542265656485
:1003C00007F03AFB52465C23E2544B468000002182
:1003D0000632A0652EA8636703F0EEFF6023E554A4
:1003E0001E33E554013BE554869B4846236765660A
:1003F00007F022FB52467C23E254394B8000994699
:10040000A06709A803004A46C2CAC2C312681A609C
:1004100007F088FB4B46824607A80200103342CB08
:1004200042C207F07FFB81460DA807F099FA4B46C0
:1004300001935346220000930DA9042303950295CE
:1004400034A806F013FB0022002134A806F05CFB60
:10045000002829D134A806F0ABFB002834D1049E33
:10046000002E1ADD1F4B204D9A46204B0024994642
:100470002B0045469846869FA200AB58BA58934237
:1004800008D0009251463D22484607F0C3FA0123A6
:10049000424613700134A642EED179B0F0BCBB469F
:1004A000B246A946A046F0BD114C00233922009067
:1004B0000C49200007F0AEFA01220B4B34A81A7049
:1004C00006F076FB0028CAD00A4C00233A2200909E
:1004D0000449200007F09EFA0122034B1A70BEE780
:1004E000D0E40010B0D90010394C00207CDA0010A4
:1004F00004DA001044DA0010F0B5DE4657464E46E6
:100500004546E0B5F9B01400859A1E009046059165
:1005100007F008FB8346200007F004FB8246829820
:1005200007F000FB0700849807F0FCFA814607F00B
:1005300083FA5A46002500210490199216A8082231
:1005400003F03AFF059A14AC584622612570A5774E
:100550006577656007F070FA01229346227752466C
:1005600080000021A06162631EA8082203F024FF1E
:100570002023E5541E33E5545046013B2663E554E1
:10058000656207F059FA02239A4652463A338000D0
:100590000021E254A063063226A8676503F00CFF31
:1005A0004023E5541E33E554013BE554839B38005A
:1005B0002365656407F040FA52465C23E2544B46DB
:1005C000800000210632A0652EA8636703F0F4FEC8
:1005D0006023E5541E33E554013BE554869B4846B1
:1005E0002367656607F028FA7C235A46E2544B4B92
:1005F00080009946A06709A803004A46C2CAC2C340
:1006000012681A6007F08EFA4B46824607A802006D
:10061000103342CB42C207F085FA81460DA807F09D
:100620009FF94B4601935346220000930DA90423E2
:100630000395029534A806F019FA0022002134A887
:1006400006F062FA00284DD134A806F0B1FA00286D
:1006500058D1049E002E3EDD314B00249B46314B89
:100660009A46869B99460CE0391C281C03F0C5FD70
:10067000D021890503F00AFE002817D10134A642D3
:1006800029D04246A300D5584A46D758281C391CC1
:1006900003F0FCFD0028E7D1291C381C03F0ADFD58
:1006A000D021890503F0F2FD0028E7D0381C03F0C3
:1006B000F3FD02900391281C03F0EEFD3D22009013
:1006C00001915946504607F0A5F90122164B013415
:1006D0001A70A642D5D179B0F0BCBB46B246A94645
:1006E000A046F0BD114C0023392200900C49200097
:1006F00007F090F95A460C4B34A81A7006F058FAD5
:100700000028A6D00A4C00233A2200900449200079
:1007100007F080F90122044B1A709AE7D0E4001028
:10072000B0D90010C4DA0010394C002004DA0010EF
:1007300044DA0010F0B5DE46574645464E46E0B571
:10074000E14C0025A54407F0DDF9E04BE04F0893AC
:10075000E04B68AC2B93E04B0993E04B079342AB23
:100760009B46DF4B0A93DF4B2993DF4B2A93DF4BEA
:100770001593DF4B1D93DF4B1493DF4B1E93DF4B21
:100780001F93DF4B0B93DF4B1793DF4B1893DF4B1C
:100790001693DF4B2493DF4B0F93DF4B1093DF4B0C
:1007A0002593DF4B2693DF4B1993DF4B1193DF4BE0
:1007B0001A93DF4B1293DF4B1B93DF4B1C93DF4BE2
:1007C0001393DF4B2093DF4B2193DF4B2293DF4BBF
:1007D0000D93DF4B0C972393DE4B2793DE4B28932F
:1007E000DE4B2C93DE4B2D93089B0C9A2B981D60AF
:1007F000156007F00FF90A9F5E463B00099A0799BA
:1008000015700D70183303CB03C63B0088AA203344
:1008100043CB43C21B6848AE13603B00303303CB6D
:1008200003C601263B003A9630334DAA03CB03C2E0
:1008300002203B003E904037383354AA03CB03C21A
:100840003B005CAF03CB03C75CA8039054A80290A5
:100850003EA801904DA800903AA8030048A80200C5
:1008600088A8010004945846FFF746FE0799099AA4
:100870000B781670002B01D101F0EDF80122089BD6
:100880001B68089929980B600C990B689B180B60E2
:1008900007F0C0F80A9F099B079A1D703B0015706E
:1008A0002200483343CB43C23B0088AA543343CB96
:1008B00043C243CB43C23B003E0038333EAF03CB81
:1008C00003C7012200233A923B9333005F4638333B
:1008D00003CB03C7330048AF383303CB03C7330020
:1008E0004DAF6C36383303CB03C7330054AE03CB64
:1008F00003C65CA8049054A803904DA8029048A891
:100900000190584600903AA803003EA8020088A82B
:1009100001002000FFF7F0FD0120099B079A1870E5
:100920001378002B01D001F0A1F8002208990B6880
:10093000013308992A980B600C990B689B180B607F
:1009400007F068F8099B079A0A991D7015707431B1
:100950004DAB45C945C30A681A60159B5CAA0433B0
:10096000C1CBC1C2C1CBC1C2C1CBC1C2C1CBC1C24B
:100970000A9F3AAA3B00103341CB41C20022002318
:100980005846429243933B0085600A9710333EAF2E
:1009900041CB41C7159B48AA3433C1CBC1C20A9B86
:1009A00054AA7433C1CBC1C227000B681360159BD6
:1009B000043343CB43C73A0043CB43C243CB43C288
:1009C00043CB43C288A8049054A8029048A8019041
:1009D0003EA800903AA802005CA85B4601004DA822
:1009E0000394FFF789FD0120099B079A187013787B
:1009F000002B01D001F035F8002208990B68013373
:100A000008991D980B600C990B689B180B6007F0F8
:100A100001F8159F099B079A1D703B001570220075
:100A2000403343CB43C243CB43C23B004DAA583370
:100A300043CB43C203CB03C23B003AAE6C3303CB80
:100A400003C63A0001213B005491743255956C3332
:100A50005695579558953EAE03CB03C613005CAF31
:100A600043CB43C73A0003CB03C2149F88AA3B0081
:100A7000083343CB43C243CB43C23B005F462033E2
:100A800043CB43C748A804905846039088A80290D7
:100A90005CA801903EA8009054A803003AA8020068
:100AA0004DA801002000FFF727FD0121099B079AAF
:100AB00019701378002B01D000F0E2FF0022089992
:100AC0000B6801334EE0C046CCFCFFFF4419002008
:100AD000401900200CDB00103A4C0020394C00205B
:100AE000D0E400101CDB00102CDB001050E50010DF
:100AF0003CDB0010D0E500104CDB001060DB001088
:100B0000B0D9001004DA001044DA0010C4DA001082
:100B100074DB001050E60010D0E600108CDB0010F3
:100B2000A4DB0010BCDB001050E70010D0DB00108D
:100B3000D0E70010F4DB001018DC001050E80010C3
:100B40003CDC0010C0DC0010D4DC00107CDA0010AB
:100B500050DC001064DC001078DC00108CDC00102D
:100B6000A4DC001008991E980B600C990B689B1868
:100B70000B6006F04FFF149F099B079A1D703B0006
:100B8000157022002C3343CB43C203CB03C20A9B14
:100B90004DAA203343CB43C21B683AAE13600A9A76
:100BA0001300183303CB03C61300012118333EAEE4
:100BB000549155955695579503CB03C63B005CAAB7
:100BC000403343CB43C21B6813603B0088AA5033B9
:100BD00043CB43C2203703CB03C23B005F4643CB2A
:100BE00043C748A804905846039088A802905CA880
:100BF00001903EA8009054A803003AA802004DA816
:100C000001002000FFF778FC0121099B079A197069
:100C10001378002B01D000F02EFF002208990B68FA
:100C2000013308991F980B600C990B689B180B6097
:100C300006F0F0FE5A46099B1D70079B1D70149B21
:100C40002C3343CB43C203CB03C20A9F3AAA3B00D7
:100C5000203343CB43C21B6813603B002EAA1833DA
:100C600003CB03C201220023549255930022002398
:100C700056925793589259935A925B933B0030AADD
:100C800018330A9703CB03C2149F202239005CA8B3
:100C9000683103F097FB3B0048AA503343CB43C273
:100CA00003CB03C23B0034AA203343CB43C2584694
:100CB00006F038FF81462EA806F034FF804630A8A3
:100CC00006F030FF070048A806F02CFF060006F0EB
:100CD000B3FE4A4600210E9062616AA8082203F022
:100CE0006BFB3AAA2261484625706560A577657757
:100CF00006F0A2FE012241468000A06122776163D6
:100D00000732002172A803F057FB20213E236554CF
:100D1000656254A9E554013BE5544046216306F061
:100D20008BFE3C230421C0000822A063E1547AA872
:100D30000021676503F040FB4023E5541E336564E2
:100D40005CA8E554013BE5542065380006F074FECC
:100D50005C230421C0000822A065E15482A86667D4
:100D6000002103F029FB6023E5541E3337A9656693
:100D7000E554013B3000E554216706F05DFE7C231D
:100D800001220A9F8000A067E2543A003EAB43CAAA
:100D900043C312683EA81A6006F0C4FE3B0032AAA4
:100DA0001033060003CB03C232A806F0BBFE0700D7
:100DB0004DA806F0D5FD22004DA904230395029508
:100DC0000197009688A805F051FE0022002188A80E
:100DD00005F09AFE002801D000F07BFE88A805F0FF
:100DE000E7FE002801D000F068FE002637AB9946E8
:100DF0000E9B34AFB046BA46002B14DC3AE0391CE7
:100E0000301C03F0FAF9D021890503F03FFA0028DD
:100E10001DD101239C460333E0449C460E9BE244D3
:100E2000E144434526D053461E684B461F68301C9C
:100E3000391C03F02BFA0028E1D1311C381C03F0D7
:100E4000DCF9D021890503F021FA0028E1D0381C13
:100E500003F022FA02900391301C03F01DFA3D22A8
:100E6000009001910B99169806F0D4FD0122079B82
:100E70001A70CEE70122099B1A70079A089B117815
:100E80001B680122002901D100220133089924980E
:100E90000B600C990B689B180B6006F0BBFD0F9F55
:100EA000099B079A1D703B00157008335CAA43CB61
:100EB00043C203CB03C2FE49482288A803F082FA4A
:100EC0000A9A3AAE1300183303CB03C6012113006C
:100ED0004D914E954F95509518333EAE03CB03C6BA
:100EE0003B0054AA643343CB43C21B68743713607E
:100EF0003B00270043CB43C73A0003CB03C2109803
:100F00005F460830030043CB43C748A804905846C7
:100F1000039054A801903EA800904DA803003AA861
:100F2000020088A8010002945CA8FFF7EDF90121F6
:100F3000099B079A19701378002B01D000F086FDE9
:100F4000002208990B680133089925980B600C99C9
:100F50004DAF0B689B180B6006F05CFD0F99099B69
:100F600008311D700B00079A157043CB43C73A0038
:100F700003CB03C2CE49482288A803F023FA0A9A79
:100F80003AAE1300183303CB03C6584601211300B1
:100F9000016045608560C56018333EAE03CB03C673
:100FA000109F48AA3B00143343CB43C21B68136015
:100FB0003B0054AA243343CB43C2383703CB03C28C
:100FC0003B005CAF43CB43C73A0043CB43C25CA872
:100FD000039054A8029048A801903EA800903AA817
:100FE000020088A801005B4604944DA8FFF78CF925
:100FF0000121099B079A19701378002B01D000F08A
:1010000053FD002208990B680133089926980B605C
:101010000C994DAF0B689B180B6006F0FBFC0F9909
:10102000099B08311D700B00079A157043CB43C70D
:101030003A0003CB03C29E49482288A803F0C2F9B4
:101040000A9A3AAE1300183303CB03C6584601215F
:101050001300016045608560C56018333EAE03CB68
:1010600003C6109F48AA3B00503343CB43C21B68C2
:1010700013603B0054AA603343CB43C2743703CBA5
:1010800003C23B005CAF43CB43C73A0043CB43C2F0
:101090005CA8039054A8029048A801903EA8009034
:1010A0003AA8020088A801005B4604944DA8FFF707
:1010B0002BF90121099B079A19701378002B01D095
:1010C00000F0EDFC002208990B680133089919988B
:1010D0000B600C994DAF0B689B180B6006F09AFCE7
:1010E0000F99099B08311D700B00079A157043CBAF
:1010F00043C73A0003CB03C26D49482288A803F0D6
:1011000061F90A9A3AAE1300183303CB03C60121E2
:1011100058461300016045608560C56018333EAED7
:1011200003CB03C6119848AF0C30030043CB43C731
:101130001B6854AA3B60109F3B00603343CB43C203
:1011400003CB03C23B005CAF743343CB43C73A00CD
:1011500043CB43C25CA8039054A8029048A80190D6
:101160003EA800903AA8020088A801005B460494BB
:101170004DA8FFF7C9F80121099B079A1970137848
:10118000002B01D000F086FC002208990B68013387
:1011900008991A980B600C990B689B180B6006F065
:1011A00039FC119F099B079A1D703B0015701C3379
:1011B0005CAA43CB43C203CB03C23900482230317F
:1011C00088A803F0FFF83E000A9F3AAA3B001833B4
:1011D00003CB03C233005A46783343CB43C21B6868
:1011E0003EAE13603B00183303CB03C6129F48AAE0
:1011F0003B00083343CB43C21B6813603B00220013
:10120000183343CB43C22C3703CB03C23B004DAF53
:1012100043CB43C71B6854A83B6004904DA8039080
:1012200048A801903EA800903AA8020088A85B4612
:10123000010002945CA8FFF767F80120099B079A58
:1012400018701378002B01D000F01FFC00220899C1
:101250000B68013308991B980B600C995CAF0B6805
:101260009B180B6006F0D6FB0F99099B08311D7087
:101270000B00079A157043CB43C73A0003CB03C258
:101280000B49482288A803F09DF80A9B3AAE183310
:1012900003CB03C6129F5A463B003C3343CB43C2A9
:1012A0001B683EAE13600A9B48AA183302E0C04692
:1012B0006CE6001003CB03C611990C310B0043CB35
:1012C00043C21B6813603B0022004C3343CB43C234
:1012D000603703CB03C23B004DAF43CB43C71B6812
:1012E00054A83B6004904DA8039048A801903EA8E4
:1012F00000903AA8020088A85B46010002945CA80E
:10130000FFF702F80120099B079A18701378002B49
:1013100000D0CEE3002208990B68013308991C988D
:101320000B600C995CAF0B689B180B6006F072FBAE
:10133000099B079A1D70129B1570703343CB43C7EE
:101340003A0003CB03C29749482288A803F03AF831
:101350000A9A3AAE183213005A4603CB03C6139FBB
:101360003B1D43CB43C21B683EAE13600A9A183242
:10137000130003CB03C63B0048AA143343CB43C23C
:101380001B68243713603B00270043CB43C73A0058
:1013900003CB03C2129B4DAF603343CB43C71B68E3
:1013A00054A83B6004904DA8039048A801903EA823
:1013B00000903AA8020088A85B46010002945CA84D
:1013C000FEF7A2FF0120099B079A18701378002BE3
:1013D00000D037E3002208990B6801330899209860
:1013E0000B600C993EAF0B689B180B6006F012FB6C
:1013F000099B4DAA1D70079B1D700F9B083343CBA3
:1014000043C203CB03C2219A48AB43CA43C311680A
:1014100032AE196092889A800A9A1300183303CB6F
:1014200003C601233A9313003B9518330A923C9567
:101430003D9503CB03C611990C310B0043CB43C739
:101440001B683B60109954AF60310B0043CB43C71E
:101450003A0003CB03C222994DA80B682E938B88C8
:1014600028A98B8306F05EFB804632A806F05AFB63
:10147000814634A806F056FB824654A806F052FB7B
:10148000070006F0D9FA41460822616106000021F2
:101490006AA802F091FF48A9404621612570656065
:1014A000A577657706F0C8FA09218846217749466D
:1014B0000822A061616372A8002102F07DFF202153
:1014C0003E23655465623AA9E554013BE55448461C
:1014D000216306F0B1FA80003C23A063022150464C
:1014E000E1540822002160657AA802F065FF4023DC
:1014F000E5541E3365643EA8E554013BE554206580
:10150000504606F099FA5C23022180000822A0656B
:10151000E15482A86767002102F04EFF6023E55482
:101520001E33656630A9E554013B3800E554216758
:1015300006F082FA41467C23A067E1545B460A9A92
:1015400083CA83C3126858461A6006F0EBFA0A9BF6
:1015500037AA1033070003CB03C237A806F0E2FA1C
:1015600080465CA806F0FCF94346220001935CA982
:10157000042303950295009788A805F077FA0022C6
:10158000002188A805F0C0FA002800D0B8E288A899
:1015900005F00EFB002800D0A7E2002E1BDD01277E
:1015A00003E0C0466CE600101F0017221F2128AB85
:1015B0009B1828AA5218DB57D257934208D00092A2
:1015C0000B993D220D9806F025FA0122079B1A700F
:1015D0007B1CBE42E8D10122099B1A70079A089B26
:1015E00011781B680122002901D1002201330899DA
:1015F00023980B600C990B689B180B6006F00AFA95
:10160000099B48AA1D70079B1D700F9B083343CB95
:1016100043C203CB03C2139B5CAA383343CB43C200
:1016200043CB43C243CB43C20A9F2EAA3B0018338D
:1016300003CB03C201223B003A920A973B953C95AB
:101640003D95183330AA03CB03C2119A0C32130014
:101650003EAA43CB43C21B681360109A603213004A
:101660004DAA43CB43C203CB03C2139B34AA5C33C2
:1016700043CB43C248A806F055FA81462EA806F08F
:1016800051FA824630A806F04DFA07004DA806F040
:1016900049FA060006F0D0F94A4600216261804608
:1016A00008226AA802F088FE5CAA484622612570DA
:1016B0006560A577657706F0BFF907229146227726
:1016C000524640000021A061626372A8082202F025
:1016D00073FE20223E23A55465623AAAE554013BDD
:1016E000E5545046226306F0A7F93C23022280000D
:1016F000A0630021E2547AA80632676502F05CFE1E
:101700004023E5541E3365643EA9E554013BE5548E
:101710003800216506F090F95C2302228000002148
:10172000A065E25482A86667063202F045FE602397
:10173000E5541E33656637AAE554013B3000E55495
:10174000226706F079F97C234A460A9F4000A06789
:10175000E2543A005B4643CA43C3126858461A60D3
:1017600006F0E0F93B0032AA1033060003CB03C2B7
:1017700032A806F0D7F9070054A806F0F1F82200C5
:1017800054A90423039502950197009688A805F0B3
:101790006DF90022002188A805F0B6F9002800D0D4
:1017A000DAE188A805F004FA002800D0C9E1434630
:1017B000002B17DD34AEB0465B0037AF98440022F3
:1017C000B35E00217A5E934208D000920B993D22CD
:1017D0000D9806F01FF90122079B1A700236023796
:1017E000B045ECD10122099B1A70079A089B117829
:1017F0001B680122002901D1002201330899279892
:101800000B600C9932AF0B689B180B6006F002F965
:10181000099B4DAA1D70079B1D700F9B083343CB7E
:1018200043C203CB03C20021122248A802F0C4FD28
:101830008622012628AB9B1888221E7028AB9B1895
:101840008E221E7028AB9B180A9A1E701300183344
:1018500003CB03C713003A963E000A923B953C9592
:101860003D95183303CB03C611993EAF0C310B00E5
:1018700043CB43C71B683B60109954AF60310B00EA
:1018800043CB43C73A0003CB03C2139908008A6EC7
:1018900068302E92838828A98B834DA806F042F9E0
:1018A000804632A806F03EF9814634A806F03AF99F
:1018B000824654A806F036F9070006F0BDF8414606
:1018C00008226161060000216AA802F075FD48A99E
:1018D0004046216125706560A577657706F0ACF814
:1018E00006218846217749460822A061616372A8D3
:1018F000002102F061FD20213E23655465623AA972
:10190000E554013BE5544846216306F095F8800014
:101910003C23A06302215046E15408220021606567
:101920007AA802F049FD4023E5541E3365643EA8C1
:10193000E554013BE5542065504606F07DF85C23F4
:10194000022180000822A065E15482A86767002177
:1019500002F032FD6023E5541E33656630A9E5547C
:10196000013B3800E554216706F066F841467C23C8
:10197000A067E1545B460A9A83CA83C3126858463B
:101980001A6006F0CFF80A9B37AA1033070003CB82
:1019900003C237A806F0C6F880465CA805F0E0FF51
:1019A0004346220001935CA9042303950295009706
:1019B00088A805F05BF80022002188A805F0A4F8AB
:1019C000002800D0B2E088A805F0F2F8002800D086
:1019D000A1E00127002E01DC16E01F0017221F21C5
:1019E00028AB9B1828AA5218DB5DD25D934208D021
:1019F00000920B993D220D9806F00CF80122079BEE
:101A00001A707B1CB742E8D10122099B1A70089B0F
:101A10001968079B1B78002B01D1002201310C9E15
:101A2000089B289819603368D2183260521805F064
:101A3000F1FF3368002B00D099E02C9805F0EAFF05
:101A4000FEF7D2FE089B01221B68C7E4089B012217
:101A50001B68FFF779FA089B00221B680133FEF729
:101A600010FF089B01221B68FEF7CAFF089B01229A
:101A70001B68FEF75EFF089B01221B68FFF7D1F889
:101A8000089B01221B68FFF76DF8089B01221B6869
:101A9000FFF7E0FB089B01221B68FFF779FB089B1F
:101AA00001221B68FFF712FB089B01221B68FFF74E
:101AB000ACFA089B01221B6830E400233A22009014
:101AC0000B99189805F0A6FF0122079B1A70FFF7E3
:101AD0008CF90023392200900B99179805F09AFF92
:101AE0000122079B1A70FFF779F900233A22009030
:101AF0000B99189805F08EFF0122079B1A704CE590
:101B00000023392200900B99179805F083FF0122DA
:101B1000079B1A703BE500233A2200900B99189816
:101B200005F078FF0122079B1A7052E70023392243
:101B300000900B99179805F06DFF0122079B1A7012
:101B400041E700233A2200900B99189805F062FFB4
:101B50000122079B1A702AE60023392200900B9974
:101B6000179805F057FF0122079B1A7019E62D9868
:101B700005F050FFFEF738FE024B18688007C00FD3
:101B80007047C04600C0064070B5EFF3108C72B6C7
:101B90000D4D2B68002BFCD0BFF35F8F0724CB08C3
:101BA000C618C05C01230C40A3401C000440034243
:101BB00007D118433070BFF35F8F2C608CF310880F
:101BC00070BD100001F086FC2C0100D0F8B547462E
:101BD000CE46884680B5EFF3108C72B6214D2C6846
:101BE000002CFCD0BFF35F8F9A422CD8D408072773
:101BF000055D061901241740BC402C421FD0072167
:101C00000127894609E0D408055D06194C463900CC
:101C10001440A1400C00294211D001329342F2D26B
:101C200001204042BFF35F8F00220E4B1A608CF3FD
:101C3000108800280FDBC0BCB946B046F8BD25436C
:101C400010003570EEE7BFF35F8F00232B608CF33D
:101C50001088012040424346002BECD0089801F048
:101C600039FCC0462C0100D00021044B044ABFF3CC
:101C70005F8F02C39342FAD17047C046000100D083
:101C8000800100D0044A1078431CDBB2172B00D926
:101C9000102313707047C046300E002010B5064B5D
:101CA000064C82B00100009318221F232000FFF78A
:101CB0008DFF02B010BDC046DCDC001040470020A4
:101CC00001238340002904D0034A1360034A1360B0
:101CD0007047034A1360FBE780E200E000E100E0A8
:101CE00080E100E001238340014A13607047C04651
:101CF00000E200E0084B10309B688000C358002BC6
:101D000007D0064A00209B1A2F229A424041C0B2B7
:101D100070470020FCE7C04600ED00E0340E0020D4
:101D2000024B10309B688000C058704700ED00E007
:101D300070B50D00EFF3108672B60F4A1368002BD2
:101D4000FCD0BFF35F8F0D4B10309B6884001B5994
:101D50000B4A934203D09D4201D001F0D3FB074BC5
:101D60009B681D51BFF35F8FBFF35F8F0022024B53
:101D70001A6086F3108870BD240100D000ED00E0E9
:101D8000CD010010F0B557464E46DE464546E0B55B
:101D900085B0060000911700EFF3108B72B66A4A07
:101DA0001368002BFCD0BFF35F8F0025674B5D5796
:101DB0009A46002D00DAA9E06B00654C01935B198F
:101DC0009B009846A146C1444B4652469B7910362B
:101DD0001370604BB6009B6899590B1B2F2B33D99E
:101DE0005D4B994200D0ACE0019B42469C465B4B68
:101DF0006544AD0063535A4B0232A218043B9B1A50
:101E00001B05584A5B0D651913436B80564B012126
:101E1000AB80FF23AB71009BEF71AB604B460B4374
:101E200019004C4B9B689951BFF35F8FBFF35F8FD5
:101E30000022454B1A608BF3108805B0F0BCBB46FE
:101E4000B246A946A046F0BD01200A008243D379DC
:101E50008C46BB4231D84546130044491B1B5B41AD
:101E60005943090D3D4B63533D4B02356519043B06
:101E70005B1B1B053B4D5B0D2B43AA464D466B8000
:101E80000425AC465546E044131F44441B1B1B0568
:101E90005B0D1D434B46997100999D8099604946A1
:101EA000DF71334B01431360BBE75800C01880005B
:101EB0002018C179B9422FD902000623D356002B2E
:101EC000F3DA02932B4B61460393131D9A460423C6
:101ED0005B429C46E14450464B461B1A1B055B0D7A
:101EE0009C46204B95719846634640460343938039
:101EF000019B5A199200039BA418A380029B1C4AC1
:101F0000A371009B2260E771A3608AE701F0FAFAEF
:101F1000002553465D574FE7908802934005131DF7
:101F20009A46031561469C464046D44463460430B5
:101F30002018181AE0230005400D1B0218430390D7
:101F4000C5E701F0DFFA4FE7240100D03F4C002045
:101F5000340E002000ED00E0CD01001000A1FFFFD5
:101F6000640E002000E0FFFF01BDFFFFAAAA0000F1
:101F70000148804701BD0000F0B5DE4657464E4699
:101F80004546E0B50C0083B0EFF3108872B65D4AA9
:101F90001368002BFCD0BFF35F8F5B4B5B499A68E3
:101FA000030010339F00D5598D4239D0A5424AD045
:101FB000574EAA1B2F2A33D80122924682409146BF
:101FC0004846544A1268104001904846524A1060F0
:101FD000BFF35F8FEFF305829346002A35D093421B
:101FE00001D001F08FFA2A0053469A439068844248
:101FF00008D175E04B005B189B00F3189868A0426D
:1020000034D01A00062151560029F3DA844253D005
:10201000019B002B26D04A46404B1A603D4B1A606C
:10202000394B9B68DD51BFF35F8FBFF35F8F002299
:10203000344B1A6088F3108803B0F0BCBB46B2463C
:10204000A946A046F0BD0D00EAE72A0053469A4390
:1020500090688442D6D1062010561300002809DA71
:102060000D0031E04A462C4B1A60D9E7062018567D
:10207000002822DB42001118890074188A46A168E2
:102080009960E179D971062161569971002925DBA2
:10209000A488F11A6405241554440919E02409059B
:1020A000490D24022143998013181D4A9B00117881
:1020B000F31899711070ABE713005946002914D139
:1020C000FF3191711749918015490A789A71164A22
:1020D0009B1B5B415A43120D0A7099E71349E2E7D3
:1020E0000620105613000028C4DA114A1149D21AEA
:1020F000083A5002400D014399800F4952080A43A3
:10210000DA8085E7240100D000ED00E0CD01001069
:10211000340E002000E100E080E100E080E200E019
:102120003F4C002001BDFFFFAAAA000001BD000036
:102130006E0E002000F0FFFF00F8FFFF70B5EFF318
:10214000058101240443EFF3108C72B6214A136811
:10215000002BFCD0BFF35F8F1F4B05001F4AED1A09
:102160006D416A43120D1E4D8900AE6852B2765819
:10217000A6421CD00621595691421CD01221595614
:10218000914222D01E215956914220D02A215956DF
:102190000324914210D0134B19781A708171BFF348
:1021A0005F8F00220B4B1A608CF3108870BDAB68F8
:1021B0000D4C5C50EFE700246100091989005B18A1
:1021C000FF21997109499980E5E70124F4E7022488
:1021D000F2E7C046240100D0340E0020AAAA000075
:1021E00000ED00E03F4C0020CD01001001BDFFFFDD
:1021F000054B064A1360064A136053609360D36030
:1022000013615361936170478080808000E400E037
:1022100004E400E010B5084B084C82B001000093C4
:10222000002205232000FFF7D1FC002801DB1F233B
:10223000181A02B010BDC046F8DC0010444C002053
:10224000024B9C46614489000160704740000034A5
:1022500010B50400FFF716FD01002000FFF7F0FFA6
:10226000FF232371BFF35F8F10BDC04610B504007C
:10227000FFF708FD01002000FFF7E2FFFF23A38026
:10228000BFF35F8F10BDC04610B504000120FFF7FB
:1022900005FD034BC3189B002360BFF35F8F10BD88
:1022A00040000034034B9C46614489000160BFF349
:1022B0005F8F70474000003483680B4810B5844638
:1022C000614462441201090159189B185C684A680C
:1022D0000120944201D802D00020C0B210BD1A687B
:1022E0000B689A42F9D8F7E7FFFFFF0F0A4B19680E
:1022F000EFF3108072B60A68002AFCD0BFF35F8F3C
:102300001B68BFF35F8F00221A6080F3108840BF04
:10231000002000217047C0460C4C0020F8B55746FD
:1023200045464E46DE46E0B598460CAB1C780DABF4
:102330001B78070091469A460568002C59D1AC7B62
:10234000002C3BD0660029683619033E89194B786A
:10235000AB73002B00D1EB7300238B704B700B70B1
:102360002D4BE218BB6812019B184A461A60424680
:102370005A600A9A9A600B9ADA6000238B704B704D
:102380000B706B7B9B46002B26D022006B68594656
:10239000A86898475B465B005B442A68033B0028BB
:1023A00012D058469619B070D118D35C002B00D0CB
:1023B00073705B460C706B735C450ED0F0BCBB4613
:1023C000B246A946A046F8BDD3189C709119925DFB
:1023D000002A1CD15B460B706C734A464346387D1D
:1023E00000F04AFB051E0AD10E9B002BE6D01D70A3
:1023F000E4E7660029683619033E8919B0E75346B9
:10240000002BF1D12100386800F04EFDECE75A7046
:102410005B460B706C73E0E7FFFFFF0FF0B5DE4625
:1024200057464E4645460023E0B58BB00893684BAF
:102430008200D45800239B46099000F099FA0200CC
:102440000B006068EFF3108A72B6564601680029E7
:10245000FCD0B246BFF35F8F21684F7B8C46002FC4
:102460002ED0A5685B49A9467918090189444946D7
:102470000868496805000E00AD1A9E41002E5FDD18
:1024800002000B00099800F0F7FA00230022994699
:10249000002306920793002398466368BFF35F8F7B
:1024A0005A461A608AF310884346002B12D100283E
:1024B000C3D10BB0F0BCBB46B246A946A046F0BDA6
:1024C0000023002299460023069207930023002050
:1024D0009846E2E7089B494618023843C0476268BD
:1024E00005000E00EFF3108A72B61368002BFCD0C3
:1024F000BFF35F8F002E41DB2B00334302D02369F3
:10250000002B56D12368D97B002905D01A684800D2
:1025100041185218033A57709A7B002A00D19F73D2
:10252000DF73E268013FD35D0133D3555B4623611E
:102530006368BFF35F8F5A461A608AF310887CE79E
:10254000002E02D1002D00D09AE70021604600F055
:1025500029FC4B461A685B68069207934B469B68BA
:1025600098464B46DB689946E368DB19013B1B78CC
:1025700008931B020343236100208EE72369002B8D
:10258000C0D0069A079B8021521BB34109068B429B
:1025900002D30122104B52420021049101310391D8
:1025A000494601914146200002970091FFF7B6FE8F
:1025B000BCE700F0DDF92A00330012184B418021FE
:1025C00009068B42E8D30122034B5242E4E7C0469E
:1025D000F04B0020FFFFFF0FFFFFFF7F10B5144CF3
:1025E0006368002B04D00A211248FFF729FE10BDB2
:1025F0002300114A1021206800F0F0FA032000F0B7
:10260000ABF9032000F0A0FA03200C4900F0EEF92A
:10261000FFF738FB0A4B9C4603232375D0231B0688
:102620001B6860446375074B80006060DC60DAE71C
:102630007C0E00200C4C0020B92200101D2400103C
:1026400040000034F04B0020004870477C0E002012
:10265000F0B557464E464546DE46E0B585B0019397
:1026600010AB1B780600039300239A46984600920D
:102670007268EFF3108B72B61368002BFCD0BFF3B7
:102680005F8F3568AC7B002C00D16EE067002B6853
:102690003F19033FDB195A78AA73002A00D1EA7365
:1026A000484AA118B26809015218009801991060AF
:1026B00051600E9991600F99D16042469A705A709C
:1026C0001A706B7B9946002B00D16BE022006B687F
:1026D0004946A86898474B465B004B442A68033B31
:1026E000002856D04846D719B870D118D35C002BB3
:1026F00000D07B704B460C706B734C4553D0F36825
:102700001B19013B18787368BFF35F8F42461A604C
:102710008BF310885346002B08D10002204305B0EC
:10272000F0BCBB46B246A946A046F0BD039B002BB9
:1027300046D00E9B00200F99984703000B433FD0D3
:1027400004000D1E1ADA009A019B121BAB41009285
:10275000019380221206934204D301231A4C5B4258
:1027600000930194039B9A4682E77368BFF35F8FDF
:102770001C608BF3108801204042D0E700F0F8F88D
:102780008022001969411206009001919142E9D31B
:10279000E3E7D3189C70D119D25D002A00D05A709B
:1027A0004B460B706C73307D009A019B00F064F90E
:1027B00082460028A3D02100306800F075FB9EE718
:1027C0000020ACE7FFFFFF0FFFFFFF7F407D70475A
:1027D000F0B5EFF30583CE46474680B505000C0003
:1027E00085B0002B12D02A4A0020536AA34203D39B
:1027F000926A0130AA4204D305B0C0BCB946B046C3
:10280000F0BD1B1B5A1E9341D8B2F5E7214E02932F
:102810000193214B0200009330000B00FFF718FFDB
:10282000031EE0DD20BF7168EFF3108772B60A68FF
:10283000002AFCD0BFF35F8FDAB29446FF223068E3
:102840001A40417B61450FD0016889465100884696
:1028500049469044414403398978002904D13269BA
:10286000934209D1316107E0F1681B0A8A18013AE5
:102870001278DBB29A4207D07368BFF35F8F0022F1
:102880001A6087F31088AEE7614600F00DFBF3E7AE
:10289000004005407C0E0020ED220010F0B5EFF363
:1028A0000582D6464F4646461000C0B51038EFF3B5
:1028B000108872B6214C2368002BFCD0BFF35F8FC9
:1028C0000123190081401E4D1F006963AA461D4D5A
:1028D00029601D4D2E78AC463500C5402F402B4257
:1028E00015D053465F6A194B8500EB589F4218D3A9
:1028F0006246174B8E43EB581670BFF35F8F002272
:10290000226088F31088002B06D0984704E0BFF3BC
:102910005F8F276088F31088E0BCBA46B146A846AE
:10292000F0BD0C4B92009C46624413681360BFF3E9
:102930005F8F0023236088F31088EDE7280100D023
:10294000004005403C700540434C0020184C0020DE
:1029500028460020D03F054010B5034B0100180069
:10296000024AFFF711F910BD3E4C002014DD0010A3
:10297000034B596A0A00986A596A8A42FAD1704729
:102980000040054070B504000D00174A536A190055
:10299000966A536A8B42FAD13000190024184D41CF
:1029A000AB4216D813D0104B2A005B6A9D4203D964
:1029B0000D494B6A9342FCD3934207D10A4A02E085
:1029C000516A994202D1916AA142F9D370BDA642DF
:1029D000E9D9054B5B6A1C005A1CEFD00122012487
:1029E0006442E5175242E3E70040054070B5040039
:1029F0000D00EFF3108672B61A4A1368002BFCD054
:102A0000BFF35F8F002D1BD02000FFF789F9164917
:102A100081420AD02000FFF78BF901212000FFF747
:102A20004FF90123A340114A1360114BA400E55054
:102A3000BFF35F8F00220B4B1A6086F3108870BDC6
:102A40000121A1400A4BA200D5500A4B20001A7860
:102A50008A4305491A70FFF78FFA00212000FFF71B
:102A60002FF9E5E7280100D09D28001038600540C7
:102A700028460020434C0020F0B54F46D646464637
:102A8000C0B507002B4C616A0D00A66A616AA942B5
:102A9000FAD18B4208D805D00120E0BCBA46B14635
:102AA000A846F0BDB242F7D9EFF3108A72B62248B9
:102AB00001680029FCD0BFF35F8F0125BD401F498D
:102AC0001C4C8846097889462943C9B28C46414640
:102AD00060460870391D890065630A511849B800BD
:102AE0004350216A0020294219D0616A0800A66A71
:102AF000616A8142FAD18B4219D801D1B24216D80B
:102B0000CC450BD00B4B1F221D625D6301233A4065
:102B100093400C4A136043464A461A700120BFF3A3
:102B20005F8F0022044B1A608AF31088B5E70020FB
:102B3000F5E7C04600400540280100D0434C002086
:102B4000184C002080E200E0EFF3108C72B60A49C6
:102B50000B68002BFCD0BFF35F8F01238340074A33
:102B60000748136202789A430270BFF35F8F002315
:102B70000B608CF310887047280100D0004005409E
:102B8000434C002070B506000D00140000291DD034
:102B9000002A12D073688068984762006B0012198F
:102BA0005B193168033A033B002808D08A189570F6
:102BB000C818CB5C002B0BD10470280070BDCB185B
:102BC0009C7088188A5C002A05D105702000F5E702
:102BD00053700470F1E75A700570F7E710B5836021
:102BE0000023CCB243730133426004738373C47314
:102BF0000068421C012C05D90133DBB2137003328B
:102C00009C42F9D1FF230B405A00D318C01800236F
:102C10000338437010BDC04670B505000C1E07D0C8
:102C2000630001681B19033BCB185A78002A01D1B5
:102C3000200070BD500080180338091800204E781D
:102C40004870210058702800FFF79CFF31000400F5
:102C50002800FFF7E1FF0600002C20D00028E7D075
:102C6000320021006B68A8689847720063009219CF
:102C70001B192968033A033B002808D08A1894706E
:102C8000C818CB5C002B00D053700670D0E7CB186F
:102C90009E7088188A5C002A00D05A700470340034
:102CA000C6E7C046F0B557464546DE464E46E0B557
:102CB0000D006F0001687F19033F0400C85D83B0F9
:102CC0000192CA19002850D043001B18033BCB18AF
:102CD0005E78B446002E1AD1019E002E42D0E67BCB
:102CE000002E04D073009B19CB18033B5D70A37BAF
:102CF000002B00D1A573E57300282FD1002353705A
:102D000003B0F0BCBB46B246A946A046F0BD720077
:102D10006244033A8A1851788846002151708946E6
:102D20005970320001002000FFF72CFF4346824615
:102D3000002B07D05B0021684344033BCB185A7833
:102D4000002A16D1424651462000FFF71BFF21689A
:102D5000019BCA19002BC2D10028CFD043001B18F9
:102D6000033BCB1800219970C8E7019B002BB6D11B
:102D7000C4E750008018033809184878834648464D
:102D80004870587041462000FFF7FCFE59468046C7
:102D90002000FFF741FF414602002000FFF7F2FE4E
:102DA0008046CFE7F0B557464546DE464E46E0B58D
:102DB00083B00191457B04006F0000687F19033FD9
:102DC000C15DC219002952D04B005B18033BC318E8
:102DD0005E78B446002E1CD1019E002E44D0E67BC6
:102DE000002E04D073009B19C318033B5D70A37BB6
:102DF000002B00D1A573E573002931D100232800F1
:102E00005370617303B0F0BCBB46B246A946A046FE
:102E1000F0BD72006244033A821850788046002068
:102E200050708146587032002000FFF7ABFE4346D9
:102E30008246002B07D05B0021684344033BCB183C
:102E40005A78002A17D1424651462000FFF79AFED1
:102E5000019B01002068C219002BC0D10029CDD0F0
:102E60004B005B18033BC31800209870C6E7019B1A
:102E7000002BB4D1C2E750008018033809184878F5
:102E8000834648464870587041462000FFF77AFE56
:102E9000594680462000FFF7BFFE41460200200051
:102EA000FFF770FE8046CEE770B5050000292CD0F4
:102EB000437B8B422ED04C0000686418033C0419FD
:102EC000A278002A21D053009B18033BC25CC6188D
:102ED0008A4202D11BE0002A08D053009B18033B12
:102EE000C3185A788A42F6D162785A7000230122B8
:102EF0002800A3706370FFF7D5FE697B02002800ED
:102F0000FFF740FE6873012000E0002070BD637889
:102F10003370EBE701221900FFF7C4FEF2E7C04669
:102F200010B50C2082B000F0B1F9FEF725FE0028A4
:102F300010D08B4B8B488B498B4A18605960986036
:102F4000D960186159619861D961186259625A62F1
:102F500002B010BD854CA06700F0EEF90122844B51
:102F60001A60636C012BFCD10322824B1A607F4AEA
:102F7000936B012BFCD1013301217F4A7F480093E1
:102F8000043300F031F905237D4A009301217D4887
:102F900000F02AF97C4B5A68FF2A02D8802252009E
:102FA0005A608022734B6E4C12011A60216900290D
:102FB00007D0606900F04EFB013043001B18033B53
:102FC000FDD2E022704B714819680A40026002226B
:102FD0001968514001320A40042102609A68114286
:102FE000FCD080216A4A09011160802252005A6097
:102FF000684B2361684B5968FF2900D85A60032247
:1030000001215B4B1A60644A93681942FCD0E023AB
:103010001068034061480360126803234A4002219C
:1030200013405D4A036093681942FCD080215C4BD9
:103030000901196080215B4B4900516063615A4B63
:103040005A68FF2A00D859608022584B12011A6032
:10305000E169002907D0606900F0FCFA0130430003
:103060001B18033BFDD2E0234F4A11680B40504927
:103070000B6080214F4B090119608021394B4900B9
:103080005160E3614C4B5A68FF2A00D85960802296
:103090004A4B12011A60216A002907D0606900F0CA
:1030A000D9FA013043001B18033BFDD2E023424A0A
:1030B00011680B4042490B608021424B09011960A5
:1030C00080235B0053608022264BD20223623E4B5A
:1030D0005968914200D25A6080223C4B12011A601A
:1030E000616A002907D0606900F0B4FA013043003A
:1030F0001B18033BFDD2E023334A11680B403449CF
:103100000B608021334B090119608023DB0253607F
:10311000154B6362304B5A68FF2A02D88022520056
:103120005A6080222D4B12011A60A169002907D034
:10313000606900F08FFA013043001B18033BFDD299
:10314000E023254A11680B4025490B608021254B5F
:103150000901196080235B005360124BA361F7E6FD
:1031600010160020006CDC021BB70000008000403D
:103170003CB0004030B00040002F68590080024051
:10318000008C864700C002403080004030900040F4
:1031900030A00040001BB7003C8000403C90004045
:1031A0003CA00040405973075480004054B0004098
:1031B0005490004054A000406080004060B0004047
:1031C0006090004060A000406C8000406CB0004007
:1031D0006C9000406CA000404880004048B0004027
:1031E0004890004048A00040F8B5040022481E0066
:1031F00017000D0000F02EFA0100380000F02AFA46
:10320000069B36041B031E432368002B22DB1B4B4B
:103210001B49E3185A1E93418022920194465B4257
:103220001B0B184A1B0363441360174A13601F00EB
:103230008A689743FBD1C022231D92011A432123A0
:103240002560A06013602368002BFCDA0823E66089
:103250001360F8BD3F2322681340AB42D7D1A36867
:103260001B051B0D8342D2D1EE22E368D20213402C
:10327000B342CCD1EDE7C046001BB7000040FDBF14
:1032800000C0004000E0004000F000408023024AFF
:103290009B000343D36270470080054010B5802433
:1032A0001C4BE4051C6000281AD001231A4C18435B
:1032B0001A4BDC611A4C44401C62596298628021AE
:1032C000144BC9051960174817490860E021C90463
:1032D0001960002A07D18022144B12061A6010BD13
:1032E0000E4BD861EBE753019B1A9B009A18802381
:1032F00012015B049A4209D213000D490B60074B7F
:103300005A608022094BD2051A60E8E7094B1A007F
:10331000F3E7C04600B00540D3C007B000800540C9
:103320002D3FF84FFCFF01000820014000A00540A0
:10333000C84B0020FFFFFF00AA23064A1B011360B1
:103340002F230549D360054B19605368002BFCDA25
:103350007047C0460040024000B0FA0000600240E2
:103360002C4B2D4A70B51A602C4A2D4B2D491A60F2
:1033700014008B689C43FBD12B4D2C4EB54208D2D8
:10338000013E761BB60808CD984723000134B342AE
:10339000F9D1FFF7C5FD264A214B1A60214A9368EF
:1033A000DB43DB01DD09002BF9D14022214B224C0C
:1033B000224E9A675A671A67DA66B44208D22368BF
:1033C0002000002B20D00834FEF750FFB442F6D383
:1033D0001B4C1C4EC022B168200000F0F3FFB4600B
:1033E000FEF742FCFEF704FFFFF7F8F8164C174E05
:1033F000B44208D2013E361BB60808CC98472B00D1
:1034000001359E42F9D170BD0834FEF721FFB44268
:10341000D5D3DDE700E00040BFCDFBFEFE7F3C00E2
:1034200000F0004000C00040F41500200416002009
:10343000FFFFFF0100F00140E4150020F41500201B
:103440000000002000ED00E004160020101600200F
:1034500000BEFDE7094A03001068002805D00849AE
:10346000C3188B4207D81360704706480449C31835
:1034700010608B42F7D901204042F5E7BC4700209D
:1034800000000420484C00200020704701204042EA
:103490007047C04610B5FFF7DBFFC04630B50D00E2
:1034A00083B01900002A0BD0074B084C01920093FF
:1034B00002002B00200000F033F80120FFF7C8FFC6
:1034C000034B1A00F1E7C04638DD001048DD00105C
:1034D000BCDC00100FB400B5084883B001F00EF852
:1034E000049B002B07D005A91800019100F038F8C3
:1034F000034801F003F80120FFF7AAFF78DD001070
:1035000088DD001010B50148FFF7E4FF8CDD0010E6
:1035100010B5002800D110BD00F0A4FFFBE7C046A5
:103520000FB430B50C4985B008AA08CA0D680392DB
:10353000002D0CD000920122084C5242200002A91A
:10354000A847012005B030BC08BC04B018471800DB
:1035500000F0D4FF0020F5E7C44B00201135001027
:1035600010B5094A0300146884B0002C08D0012269
:1035700000910648524203A9A047012004B010BDA3
:1035800000F0BCFF0020F9E7C44B0020113500100B
:1035900001480421014B1847B00E0020C13500102E
:1035A000142310B50100188804331B88984710BDF8
:1035B000162310B50100188802331B88984710BDE8
:1035C000F8B54746CE4680B50F1E19D0142399464C
:1035D000043304000025012698464B4618884346CC
:1035E00021681B88984701C4431E98410135404219
:1035F0000640AF42F1D13000C0BCB946B046F8BD7C
:103600000126F8E7124A936F9B0815D29066D1669F
:10361000002905D0FFE7FFE7FFE7516F106F704704
:1036200004B580210906C2175140002800D0C843C4
:103630000AF076F9002104BDF0B5146E556E576F8F
:10364000166FFFF7E3FF1466556657671667F0BD00
:10365000000000D0114A936F9B0813D21066516688
:10366000002905D0FFE7FFE7FFE7516F106F7047B4
:1036700004B5002801D00020C0430AF051F9002110
:1036800004BDC046F0B5146E556E576F166FFFF748
:10369000E5FF1466556657671667F0BD000000D059
:1036A00094464A4A926F9208624601D228E0C04688
:1036B000F0B5464E346E756E776F366F00F020F8B9
:1036C0009446424A14665566576716676246F0BDCF
:1036D00094463E4A926F9208624601D254E0C04638
:1036E000F0B53A4E346E756E776F366F00F04CF869
:1036F0009446364A14665566576716676246F0BDAB
:10370000002B24DB11D000293EDA00B5C94340422A
:1037100000D1013100F038F8C943404200D10131F5
:10372000DB43524200D1013300BD002AEBD1002817
:1037300001D1002905D00020C90FC90701D1C0431C
:10374000410800B50AF0DCF80022002300BD00B5F6
:1037500000290ADBDB43524200D1013300F014F8A8
:10376000C943404200D1013100BDC943404200D1AC
:103770000131DB43524200D1013300F005F8DB4355
:10378000524200D1013300BD002923D1002B18D1B2
:10379000002A0CD0BC460D4F38667A660021002303
:1037A000FFE7FFE7FFE77A6F386F6746704700284B
:1037B00001D00748010000B50AF0A2F8002200235A
:1037C00000BD02000B00002000217047000000D067
:1037D000FFFFFFFF002B00D0BFE0130C28D1002A11
:1037E000E7D080B4114F39667A66FFE7FFE730B45F
:1037F000040C7B6F396F1B0423433B667A66FFE73B
:10380000FFE7FFE7C04684B27B6F3D6F1B04234395
:103810003B667A66FFE7FFE7C04600232C042D0CC9
:103820007A6F386F00196941B0BC7047000000D052
:10383000F0B594460025140E01D112020835140F7C
:1038400001D112010435940F01D192000235D40F39
:1038500001D152000135D40B0134254F7C66254C33
:103860003C660E0C93B2FFE7FFE7FFE73C6F664351
:10387000360C7703BE467343DF0B5B04C01AB941B5
:10388000130C7343DB18C91ACE086643360CB644D2
:1038900093B273431F0F1B01C01AB941130C73433A
:1038A0001F0B1B05C01AB941860D8F023E436643AC
:1038B000360C092D24DB520A7243801A7703460A1C
:1038C0006643360C16235B1BDE40DF40BF1964469F
:1038D0006643821B7046043506330100D940A84078
:1038E000C01900D30131A24206D20023F0BD00006E
:1038F000000000D0FFFFFFFF121B0130F3D3F1E700
:1039000009277F1BFE406446A2B27243801A00D290
:103910000139220C7243130C1204821A99410B00D4
:103920007046043513370100F940A840801900D3D0
:103930000131002B02D1A2420AD2F0BD013000D3E6
:103940000131121BFAD2013BF8D1A24200D2F0BDE4
:10395000013000D30131121BF7E7F0B51C0C00D089
:1039600080E00CB400251C0A04D11B02160E334360
:10397000120208351C0B04D11B01160F3343120130
:1039800004359C0B04D19B00960F33439200023503
:10399000DC0B02D192185B4101351C009718644181
:1039A0000134464F7C66464C3C660E0CFFE7FFE751
:1039B000FFE7C0463C6F6643360C7703BE4697B2BE
:1039C0007743C01B00D20139C01B00D201399FB21E
:1039D0007743C91BC91B170C77437E04FF0B801B61
:1039E000B941CE086643360C0C2D33DBB644120BBE
:1039F0001F053A431B0B97B27743C01B00D2013916
:103A00009FB27743C91B170C77433E043F0C801BC2
:103A1000B941860D8F023E43664329277F1BFE4036
:103A20000C3D7746AF40BF1930BCA2B2ABB2724377
:103A30007343801A9941220C7243130C1204801AAA
:103A4000994102000B000137001BA941F9D2781EF1
:103A50000021F0BD0C277F1BFE4077467F0BAF4057
:103A6000FF19E0E700245D1C07D0144F7D6639661E
:103A7000FFE7FFE7FFE7FFE73C6F95B29EB26543C4
:103A80006643401BB141150C1E0C6543664336046A
:103A90002F0C3E432D04401BB141994204D2020039
:103AA0000B0020000021F0BD01D19042F7D3801A15
:103AB000994101349942F2D3F6E70000000000D0AA
:103AC000FFFFFFFF48404140484018B41B4B5B6874
:103AD000FC46019308BD04DF4F3D001018B4174B9E
:103AE0001B68FC46019308BD00DF593D0010944659
:103AF000134A926F920809D2624618B40F4BDB68E2
:103B0000FC46019308BD0CDF114000100C4AF0B5D3
:103B1000146E556E576F166F6246FFF7EEFF084A38
:103B20001466556657671667F0BD18B4034B9B685B
:103B3000FC46019308BD08DFB53E00104017002089
:103B4000000000D0FFB550404240504059404B402B
:103B5000594000E0FFB5154F4C00640D03D0BC4246
:103B600004D10C0314D80020090D09055C00640D74
:103B700003D0BC4204D11C030AD800221B0D1B0534
:103B800001264B4009D44B4003D58B4200D18242E1
:103B9000FFBD9942FCD19042FFBD0B43DB180343AC
:103BA0001343F5D0C9434918FFBD0000FF070000CB
:103BB00000B5FFF7CFFF01D0002000BD012000BD00
:103BC00000B5FFF7C7FF804100BDC04600B5FFF755
:103BD000C1FF01D9002000BD012000BD00B5FFF7E5
:103BE000B1FF804100BD012040054A00121804D8F1
:103BF0005A00121801D80020704701207047002099
:103C0000704700000021002805D17047C1174840C7
:103C1000401AFAD0C90713B5064B1B6898470CBC6D
:103C2000441CA2401005120B0349091B0905194346
:103C3000114310BD084C00201F04000010B54C00BB
:103C4000620D8023D218DB00D21A5B057E2A10DDBC
:103C50009E3A13DACC170903490819435242D1405E
:103C6000640001341532202A05DAD040084360434D
:103C700010BD002010BD0846604310BDC80FC0181D
:103C8000013810BD132370B51D78012D15D010DD3E
:103C90001D48FFF78DFC1D4C01008022200000F024
:103CA00091FB022D2DD01A48FFF77AFC194B1860B2
:103CB00070BD194B154CA364F5E7174B134C2360EB
:103CC0006360A360E36023616361A361E3612362D6
:103CD0006362A362E36223636363A363E3632364B6
:103CE0006364A364E36423656365A365E365236696
:103CF0006366A366E36623676367A367E367A364FA
:103D0000D1E7054BA364CEE75344000040170020E1
:103D10004C330000084C00201D3D001007B56046E4
:103D200001880A0A0230DF2AFAD1C9B2820804D314
:103D3000028840880004104300E00068014A5050A7
:103D4000039007BD401700200FB403BC0CBCF0B5B6
:103D50000124E407634000E0F0B50C0DCF0F661EB0
:103D60003605891B640503D3C943404200D30131A2
:103D7000640D03D0661CF60A07D0E41B00207F0008
:103D8000791C89078912803C24031D0DDF0F6E1EEC
:103D900036059B1B6D0503D3DB43524200D3013331
:103DA0006D0D03D06E1CF60A07D0ED1B00227F00BC
:103DB0007B1C9B079B12803D2D032F1B661B58D439
:103DC000A446202E46DA20371400BC401D00BD401A
:103DD000F24033412A4380185941CB0F05D0C943E3
:103DE000C043002264425041514162464D0D28D1EA
:103DF0000D0D07D100281FD0241940414941013A37
:103E00000D0DF9D0640006D3013000D30131002C30
:103E100001D140084000013A0BD4941CE40A04D1BB
:103E200012051144DB071944F0BDD907204B194393
:103E300000E0D9070020F0BD0029DDD1002CDBD146
:103E4000F0BD0132C6074008CD0728434908002EBF
:103E5000E1D0D9E73C2E29DA203E40371400BC409F
:103E600000D00124F24014431A00BB401C43D31776
:103E7000ACE7AC46202F08DA20360400B4400D0031
:103E8000B540F84039412843A5E73C2F0CDA203FE4
:103E900040360400B44000D00124F8400443080038
:103EA000B1400C43C117EAE710001900002494E761
:103EB0000000F07FF0B50C0D661E3605891BE60A82
:103EC0006405640D02D0651CED0A04D000200121B8
:103ED0000905803C2403A4461C0D671E3F05DB1B1F
:103EE000E70A6405640D02D0651CED0A04D00022C7
:103EF00001231B05803C24037740644497B484B2BB
:103F000096B27443070C7E43150C6F4380B268432E
:103F1000361802D3012000043F183004350C001974
:103F20007D41844688B29AB250430C0C62431F0C08
:103F30007C438EB27E43921902D301263604A41923
:103F40001604170C3618674101BC81B29AB251436E
:103F5000040C62431B0C5C4380B25843121802D31A
:103F60000120000424181004130C401863412D187C
:103F70005E410020474106BC88B293B258430C0C06
:103F80006343120C544389B251435B1802D301219D
:103F90000904641819041A0C091862416D18564175
:103FA0000020474118BCF902720D1143F0026A0D5E
:103FB0001043ED020A0D03D16D1940414941013B07
:103FC000124E9B1B7600B3420ED26D0007D3013018
:103FD000002671416646354301D1400840001B056B
:103FE000C918E4072144F0BD0BDA013306D10130D2
:103FF00004D101314F0D01D04908F2E7E10700205B
:10400000F0BD013631050020EBE70000FF030000A2
:10401000F0B51C0D671E3F05DB1BE70A6405640D48
:1040200002D0661CF60A04D0002201231B05803C46
:104030002403D0252D060026F6432E661E096E6643
:10404000CE0FF619B44649004F0D02D07E1CF60A79
:1040500003D000200021403F3F033E1BB600B44484
:10406000013F7F05C91B49082E6F013676089C0267
:10407000950D25437543ED137543AD1301356D1053
:10408000F603761B0CB4CC02450D2C43A2B2B3B29E
:104090005A43270C7B43350C6F43A4B26C431B1966
:1040A00002D3012424043F191C041D0CA4187D41D3
:1040B00024196D41009A91B2ACB26143170C7C4354
:1040C0002B0C5F4392B25A43A41802D3012212046C
:1040D000BF182204230C52187B41019C6C431B190E
:1040E000520ED9010A434401A01A81B2B2B251431F
:1040F00003145A43360C734387B27743D617D21949
:1041000000277E4136049B191704160C7F185E4168
:104110007316ED18F301002680337541A90F06D1FF
:104120006400690AE8055B0A184309D22FE00422FB
:10413000944480337541A90AA8059B0A184326D3E5
:10414000404149412404009A019B0D005543641BE2
:104150004343E41A95B286B27543170C7E43030CB1
:104160005F4392B25A43B61802D301221204BF1819
:104170003204330C52197B4152429C41002C02D430
:104180000022013051414008CA071043490802B0DB
:104190006246D7079210084BD218084B9A4203D2B6
:1041A00012058918C919F0BD0020002A01DC390068
:1041B000F0BD01331905F5E7FD030000FE0700001F
:1041C00051434343C9188C46110C83B24B4310B47E
:1041D000040C614392B280B2504362431C041B0C36
:1041E000001910BC59411304120CC018514161440C
:1041F000704700004840414048400E4B5B681847FC
:104200000C4B1B6818470C4A936F9B0802D2094B52
:10421000DB681847F0B5146E556E576F166FFFF7D1
:10422000F6FF054A1466556657671667F0BD014BE1
:104230009B68184740180020000000D007B5484090
:104240004140484001E0C04607B54200120E03D08D
:10425000FF2A03D1420218D8C00DC0054A00120E31
:1042600003D0FF2A03D14A020FD8C90DC905012284
:10427000414005D4414001D5814207BD884207BD78
:104280000143491801D0C043001807BD00B5FFF72E
:10429000D5FF804100BD0000034BDB6FFC46184793
:1042A0007CDF3D430010000040180020132310B5B0
:1042B00012481C78FFF77CF90100012C0AD003DDBD
:1042C00080220F4800F07EF80E48FFF769F90E4B88
:1042D000186010BD0A4C5422200000F073F80B4BFC
:1042E0006365A365E36523666366A366E366236788
:1042F0006367A367E3672362E361E5E75346000072
:10430000401800204C330000084C002011430010DE
:1043100007B5604601880A0A0230DF2AFAD1C9B21D
:10432000820804D3028840880004104300E000683B
:10433000014A5050039007BD40180020C30FDB070F
:1043400041000A0E07D0FF2A08D00909054A89183A
:104350001943400770471900002070470249C918E7
:10436000FAE70000000000380000F07F70B504009C
:104370000A4E300009F014FB200003F08DFF050009
:10438000300009F0B5FA002D05D0054B2C199C42E0
:1043900001D8280070BD0348FFF79CF8E415002001
:1043A0000000042098DD001001480421014B18474B
:1043B000C00E0020C1350010014B1B6818470000DB
:1043C000C00E0020014B5B6818470000C00E0020A3
:1043D000F0B5C64600B5437D07000D001600002B62
:1043E00038D0002A2EDD00216A1E90466A5C037DCB
:1043F0004C1C00200A2A0CD0A64216D043461B5D56
:1044000021000D3B5A4253416A5CDBB24C1C0A2A24
:10441000F2D1002BF0D1884217DB022110483B6813
:104420009847A64207D02000E8E7864203DD311A0C
:104430003B6828189847AD19013D2B780D3B5A422F
:1044400053413B7580BCB846F0BD091A3B6828183B
:104450009847E2E70368110028009847F2E7C04652
:10446000ECE80010F0B5CE46474680B583B06B4609
:104470000600DD1D2870FEF77BFA00231A4A121889
:104480004B41802109068B4202D30122174B524235
:1044900017490800884609F05BFA164B81461C68EC
:1044A000002C14D0144F02E02469002C0FD0236894
:1044B000002BF9D03B68002B01D0A342F4D120009F
:1044C00001222900FFF784FF2469002CEFD14B461D
:1044D000002B05D1300003B0C0BCB946B046F0BDDA
:1044E000404609F005FAF5E740420F00FFFFFF7F65
:1044F000EC150020AC470020B8470020F0B5DE46A0
:1045000057464E464546E0B585B0070006F048FFE1
:104510000600FEF72DFA00232B4A12184B4180218A
:1045200009068B4202D30122284B52422849080037
:104530008B4609F00DFA274B01901C689A46002C17
:104540003BD0254B984602ABDD1D0A23994602E07D
:104550002469002C17D02368002BF9D043461B6830
:10456000002B01D09C42F3D1200032003900FFF72C
:104570002FFF4B462000012229002B70FFF728FF58
:104580002469002CE7D1019B002B18D153461C68ED
:10459000002C06D06368002B0BD098472469002CB0
:1045A000F8D1300005B0F0BCBB46B246A946A046E3
:1045B000F0BD2469002CEDD1F3E70028F1D0584676
:1045C00009F096F9E2E7C04640420F00FFFFFF7F87
:1045D000EC150020AC470020B8470020F8B557463E
:1045E0004E46DE464546E0B50E00170000282CD1A9
:1045F0001B4B1C4D1A685B6893469A461A4B9946AA
:104600001A4B98464B461C68002C03D115E02469D0
:10461000002C12D02B68002B01D0A342F7D1A36845
:10462000002BF4D03900300098470028EFDDF0BCB3
:10463000BB46B246A946A046F8BD43465B6A9A45CA
:1046400008D84246926A5A4502D301204042EEE71A
:104650009A45FAD101200021FEF794F9D2E7C0462D
:10466000C0E80010B8470020AC47002000400540DB
:10467000F0B54646D6464F4601380D009046C0B5C7
:10468000012841D8FEF774F90023214A12184B4142
:10469000802109068B422FD21E49474608008A46D0
:1046A00009F056F943468146013303D1280006F04C
:1046B00077FE0700184B1C68002C14D0174E02E040
:1046C0002469002C0FD02368002BF9D03368002B0D
:1046D00001D0A342F4D120003A002900FFF778FE70
:1046E0002469002CEFD14B46002B09D14046E0BC99
:1046F000BA46B146A846F0BD0122094B5242CBE76B
:10470000504609F0F5F8F1E701204042EFE7C046D6
:1047100040420F00EC150020AC470020B8470020B5
:10472000FFFFFF7F012040427047C046012040420A
:104730007047C046012040427047C0460300022235
:1047400000209A42404170470A4A1368002B05D165
:104750000CE01A001B691032002B07D09842F8D1E8
:10476000002902D103691360016170470029FCD060
:104770001060FAE7AC47002010B500F0D9F910BD81
:104780007047C0460022014B1A707047404C002011
:104790004B790020FF2B0BD18B79002B08D1CB79E3
:1047A000012B05D1082A03D9024B8A7809301A70E7
:1047B0007047C046404C00200120704770B5012969
:1047C00001D0012070BD13495379107909781B027B
:1047D000034300209942F5D15378012B08D0022BD6
:1047E000F0D1002064220021FEF758FD0120E9E706
:1047F0009478D278050012021443D20502D5620AD9
:1048000093401D000448FEF7CBFE7F2103002140AA
:1048100028009847404C00205542000001230370B7
:1048200000487047F0E800104B780A781B021343E9
:104830008A7810B512041A43CB781B0613439622CC
:10484000D200934200D010BD0348FEF7A9FE00211C
:10485000030008009847C04655420000024B18600C
:10486000024B19607047C046384700203C47002083
:1048700010B5024B1878FDF735FA10BD414C0020F9
:10488000114B70B51A68002A1AD0EFF3108172B676
:1048900010680028FCD0BFF35F8F00200B4A5960DE
:1048A00010701B68BFF35F8F186081F310880024BD
:1048B0000025074B1878FDF715FA2900200070BD78
:1048C000FA240025A400F4E7E84B0020424C002025
:1048D000414C002070B5040000200E0001F0E8FA01
:1048E000002836D0002001F0FBFA002831D0FEF776
:1048F0003FF80023184A12184B41802109068B42C9
:1049000016D2164D280009F023F8002821D00020E7
:1049100001F0CEFA00280FD101200021404200F022
:10492000C1FC03246442280008F0E2FF200070BDAF
:1049300001220B4B5242E4E7002001F0D1FA00289B
:10494000EAD021003200002001F0D6FA041EEAD19C
:10495000E7E703246442E9E740420F00104C0020DF
:10496000FFFFFF7FF8B5DE46574680B505000C0017
:10497000FDF7FEFF0023374A12184B41802109063C
:104980008B4202D30122344B5242344908008A46FA
:1049900008F0DEFF002803D1C0BCBB46B246F8BD1C
:1049A000002001F085FA00284AD00026002C43DDC3
:1049B0002B4B9B4614E0A919002001F011FB0700C6
:1049C00001200021404200F06DFC002001F0CCFAF3
:1049D000FDF7CEFF224BF61918605960B4422BDD6B
:1049E000002001F017FBA71B0200B84200DD3A00CF
:1049F000002AE0D101200021404200F053FC0020B9
:104A000001F0B2FA002001F053FA002814D000207F
:104A100001F000FB0028E1D1FDF7AAFF5B460F0083
:104A20001A685B68002184460E4812184B419F4269
:104A300002D8D3D19445D1D9504608F059FFABE7FD
:104A400000200021064B18605960504608F050FFC6
:104A5000A2E7C04640420F00FFFFFF7F104C00203E
:104A60003817002020A1070010B5244C84B0002185
:104A7000200008F05DFF00281CD1214B1A68002A95
:104A800016D0EFF3108172B610680028FCD0BFF387
:104A90005F8F01241B48596002781B68D2B20470F2
:104AA000BFF35F8F0020186081F31088002A0AD0BE
:104AB00004B010BD01200021404200F0F3FB2000B3
:104AC00008F016FFF4E7FDF7BFFD0400FDF750FF07
:104AD000FA220023920012184B41802109068B42D2
:104AE00002D30122084B524201210291002101917F
:104AF000064920000091FDF7ABFDD9E7104C0020DE
:104B0000E84B0020424C0020FFFFFF7F814800104F
:104B1000054B10B51868002804D0044B0022196812
:104B200001F036F810BDC046384700203C47002051
:104B3000D02310B51B0684B01C68FDF785FDFDF77A
:104B400045FEA04202D0002004B010BD274B1B78C8
:104B500001F042FC2648FDF77BFB0120FDF75AFBE4
:104B6000FF23244C244920701840FDF7E1F82078F9
:104B70000121FDF7A5F80520FDF7BCF8002827D195
:104B8000FDF762FD0400FDF7F3FEFA220023920018
:104B900012184B41802109068B4202D30122174B88
:104BA00052420121029100210191154920000091FA
:104BB000FDF74EFD0822040000211248FFF7FCFB20
:104BC000002CC0DB10480121FFF7BEFD0120BBE730
:104BD00000220E490520FDF7D5F8FDF753F8094BE3
:104BE00001001800FDF75EFBECE7C046C4EF0010C3
:104BF000104C0020414C0020694A0010FFFFFF7F4D
:104C000081480010E84B0020D00E002071480010B1
:104C10000048704780E90010004870472CE90010F8
:104C200010B5040017480378002B20D0002C06D1C3
:104C3000154B16484380063BFF3B038010BD052CF7
:104C400019D8134BA400E05812490123013804E09D
:104C500001330A800231142B0FD0C25C002AF7D135
:104C6000C022DBB25B00920008481343E5E7112144
:104C700000F01AF8DAE70020E0E7CA2303489B00B7
:104C8000DBE7C046284C00200904000084470020D0
:104C900014E900108647002010B5024800F0D8F84B
:104CA00010BDC046004C002030B54B1E012900D17C
:104CB000A7E0664A11780D092C0030349F2900D9ED
:104CC000A2E00470012B00D1BEE00F211478214036
:104CD0000C003034092900D998E04470022B00D12F
:104CE000B2E054782509290030319F2C00D990E09A
:104CF0008170032B00D1A7E00F2121400C0030343C
:104D0000092900D987E0C470042B00D19CE0947875
:104D10002509290030319F2C00D97FE00171052B36
:104D200000D191E00F2121400C003034092900D935
:104D300076E04471062B00D186E0D478250929005D
:104D400030319F2C00D96EE08171072B00D17BE0C0
:104D50000F2121400C003034092966D8C471082B7A
:104D600000D171E014792509290030319F2C5FD8DA
:104D70000172092B68D00F2121400C003034092921
:104D800058D844720A2B5FD0547925092900303154
:104D90009F2C52D881720B2B56D00F2121400C0032
:104DA000303409294BD8C4720C2B4DD09479250985
:104DB000290030319F2C00D9073101730D2B43D0CE
:104DC0000F2121400C003034092901D937310C0062
:104DD00044730E2B38D0D1790C09220030329F2930
:104DE00000D9073282730F2B2ED00F220A401100F8
:104DF0003731092A01D830321100C173102B23D06A
:104E000010300023037030BD07345AE737310C00EF
:104E100063E707316CE737310C0074E707317DE752
:104E200037310C0085E707318EE737310C0095E705
:104E300007319DE737310C00A3E70731AAE7373187
:104E40000C00C4720C2BB1D1C018DAE7004C002062
:104E500010B588B004000D2200216846FFF7ACFAB7
:104E60000D22002104A8FFF7A7FA4B236A466846E3
:104E7000137004A90D2208F033FD1521082220002B
:104E80006944FFF79FFA08B010BDC04610B5012174
:104E90000520FCF715FF10BD10B5002200210248C7
:104EA00000F058F910BDC046E04700208022024BB8
:104EB0005202DA647047C04600201150F0B5C64671
:104EC00000B5060000F020F90C231B4DFF22AB6754
:104ED00005201A49FCF756FF40239846184C4022FB
:104EE00000212000FFF768FA434601272383212190
:104EF0000023144A6770A260136063545F316184B9
:104F000041462187053963540F4A10496360E260C6
:104F1000A1620B606362E26208F02AFD80239B05B8
:104F20002F64EB6490230A4A3000EA50FFF7BEFF7B
:104F300080BCB846F0BDC04600001150E904002016
:104F4000C047002084001050000110508000105015
:104F500010D001000B785B0602D14B78052B00D0F6
:104F600070478A78014B1A60FAE7C046000011507A
:104F7000F0B5C64600B5CC7888780A794B797F21A0
:104F8000A40701401B02C50913434F00A20F1400E0
:104F9000324E7A195201B218907001206840507058
:104FA00000205B055B0DD0701383D4768046CA0069
:104FB000012D33D02A488446880162448446B44493
:104FC0006046826040461060002933D0254AC900FF
:104FD00090466246414451603F223F339343022C46
:104FE00000D15B0020487A1901685201B218D160E3
:104FF0001E4ACB18036051405A40802388465B010B
:105000009A4228D84346A4061C4380237F197F0177
:10501000F61972681B062343136011E01448844696
:10502000880162448446B44460468262404610600F
:10503000002909D100236D0175196B600D4BEB60E0
:10504000012080BCB846F0BD084AC90090466246BF
:1050500041445162C0E7FEF755FAD3E7C04700204C
:105060008400105004001050CC4B00200000105061
:10507000800010500001105010B508F079FC10BDF0
:1050800010B57F200C0020404000E40911000019F9
:105090001A00034B4001C01800F05CF8012010BD5D
:1050A000C04700207F23180010B50840CA090B42F2
:1050B00003D107497D3B9B1A8B66400080188022F4
:1050C000044B40010021C018120108F061FC10BD22
:1050D00000201150C04700207F22130010B50B4064
:1050E0000A4200D110BDC9095B005B1804485B018E
:1050F000C018002300220349C37008F049FCF1E7FF
:10510000C0470020FFF7FFFF80220D4B520410B56F
:105110001A600C4B0C491A6010008B689843FBD145
:105120000A4C9C2200212000FFF746F98022002132
:1051300052010748FFF740F90923636710BDC046D5
:1051400000E0004000F0004000C0004000001150AE
:1051500000001050002310B5C38201338282837691
:105160000161040008F00CFC002804D08021902389
:10517000074A8902D150200008F0CAFB002802D05B
:105180000123237710BD200008F0EAFBFAE7C046B0
:1051900000201150024B5878431E9841C0B270470E
:1051A0000C450020024B18784007C00F7047C046DE
:1051B0000C450020034B1878FF38431E9841C0B2BD
:1051C0007047C0460C0F0020F8B5CE46474680B564
:1051D0002A4E05003378FF2B01D001203DE05322F9
:1051E00000212748FFF7E8F8264C2000FDF730F8AB
:1051F000254B1C60254C2000143CFDF745F8200091
:1052000001F0CCFB224B234F1C60234B9846002F10
:105210001ED01800FFF702FB204B186043461B7896
:105220001F4A00249146002F14D04A46A3421AD8A0
:105230009047434601341B78E4B2A342F3D22800DE
:105240003570FFF73BFE2800FFF720FE012004E049
:105250001B78E5E7002C04D00020C0BCB946B0465E
:10526000F8BD0F4AE4E70D4A630012681B19DB0022
:10527000D318002BF0D01A68DAE7C0460C0F0020D4
:105280000C450020C444002060450020040F00208D
:10529000644500201D4800103B4C0020E4410020E4
:1052A0002D600010F0B5DE4657464E464546E0B547
:1052B00091B001F097F8002800D1FCE0C34BC44E38
:1052C0009946C44B0DAC0293C34B9B464B4601938E
:1052D00035686A69EFF3108172B61368002BFCD051
:1052E000BFF35F8FA9612800210001F085F96A6989
:1052F000AB69BFF35F8F0021116083F31088002832
:1053000000D1D8E06378082BE2D8019A9B00D358EB
:105310009F466368002BDBD0A0689847D8E77F20C2
:105320002179AC4D08404300CA09EB189B181D00B9
:1053300001273035EA78BA43EA70EA780337BA438E
:10534000EA70002800D1F2E0A44FDB7C002F06D0E9
:10535000A34A1278934200D2F1E09B1ADBB2002BF1
:1053600000D0A8E09F4DA36862792078A847AFE7F6
:105370000122984D01202B78042113432B703323F5
:10538000EA5C8243EA54EA5C8A43EA540133EA5C09
:105390008243EA54EA5C00208A43EA5423789A461E
:1053A00000F0F8FC602223791A40602A00D1B5E0B1
:1053B000402A00D1AFE0DB06DB0E012B00D1D3E0A9
:1053C000022B00D120E1002B00D0A7E0202A00D141
:1053D00053E1002A00D0A1E06379092B00D99DE0B8
:1053E000814A9B00D3589F46029B1B78DB0700D461
:1053F0006EE77E4B002B00D16AE700E000BF67E755
:10540000744D2B78DB0700D462E7794B002B00D179
:105410005EE728780007C00F00E000BF58E70025CE
:1054200023786E4F9A466E4B98461B78002F49D0D2
:105430005A46AB4263D850469047434601351B78E5
:10544000EDB2AB42F2D2634D532200212800FEF7A9
:10545000B3FF1022FF21E81CFEF7AEFF2800202238
:10546000FF211330FEF7A8FF2EE0002523785B4FC5
:105470009A465B4B98461B78002F2ED05A469D4289
:1054800033D350469047434601351B78EDB2AB42CB
:10549000F2D2504D532200212800FEF78DFF10223A
:1054A000FF21E81CFEF788FF28002022FF2113308F
:1054B000FEF782FF14E011B0F0BCBB46B246A9462D
:1054C000A046F0BD002D38D000F05AFC494B002B0F
:1054D00000D1FDE600E000BFFAE6002D19D03D4DF9
:1054E00000F04EFC2379AB70F2E6434A6B00126881
:1054F0005B19DB00D318002BF1D05A68C1E73E4A94
:105500006B0012685B19DB00D318002BDCD05A68E3
:1055100091E7314AB5E7394800281AD120780021AF
:10552000FFF7C0FD80212078FFF7BCFDD0E6A3681F
:105530006279207800F042FCCAE6274A7BE72E4ACF
:1055400058001268C318DB00D318002BB3D01D69B4
:1055500009E700F01FFC012150460EAA00E000BF41
:10556000002800D0B4E6D9E7237A0F2BD6D81B4FFA
:10557000EB18DB78002F06D0194A1278934200D23C
:105580009CE09B1ADBB2002BC8D11D481D4D00F0DA
:1055900001FC01215046EB680EAA9847002800D074
:1055A00096E66022150023791D401A42B6D1637930
:1055B0000A3B012BB2D800F0EDFB63790A2B00D136
:1055C0007DE150460EA900F06FFB81E694E90010E2
:1055D000644500200C450020A96000101D48001003
:1055E0003B4C00209D620010B8E900100000000054
:1055F0000000000000000000E44100200000000066
:10560000B961001020EA00107023217A0B4285D185
:10561000C80984460F330B405B00E8186044C07C27
:10562000B14F8046002F07D0B0480078804550D356
:105630004746381AC0B28046404600283AD1002A70
:1056400000D0F5E0AA4A9046677902203A008243EA
:10565000012A00D1F0E0002F00D05FE7EB1863448F
:105660003033DB780CAA9B07DB0F023213805046E5
:1056700002230EA900F02EFB2AE6237A0F2B00D975
:105680004CE7994FEB18DB78002F06D0974A127839
:10569000934200D2F3E09B1ADBB2002B00D03DE72F
:1056A0009448934D00F076FB01215046EB680EAA1A
:1056B000984755E79046002AC6D02FE78E4A5900F2
:1056C0001568CB18DB00ED18002D00D126E7E8683F
:1056D0005DE7474688487F00006847448046FF00F2
:1056E000B844002AB0D04346002B00D116E7D86852
:1056F00000F050FB434601215046DB680EAA984754
:105700002EE7A37903931A006B789A4207D06B783F
:10571000002B00D058E1039B002B00D0F8E0039B46
:1057200050460EA96B7000F0BFFAD1E56B780CAA59
:1057300002321370504601230EA900F0CBFAC7E5E0
:10574000E3881A0AD8B20F2A00D9E7E66B4993001A
:10575000CB589F460EA800F023FB5046A179FFF7D7
:105760009BFB02222B7813432B70B1E5E388012BBE
:1057700000D0D3E608222B78504693430EA92B7015
:1057800000F092FAA4E5022029780CAB9A1C8B0653
:105790008908DB0F01400B4368E7E388012B00D049
:1057A000BCE608222B78504613430EA92B7000F05C
:1057B0007BFA8DE5524B002B00D1AFE600E000BF35
:1057C000021E00D1AAE6D37891781B020B43504603
:1057D0000EA900F07FFAC3E64A4B002B00D19DE6EC
:1057E00000E000BF021E00D198E6504613780EA9D3
:1057F00000F070FAB4E62189FFF712FA021EF4D124
:105800008CE6022A00D12DE13F4B002B00D185E62A
:1058100000E000BF0200002A00D17FE6D3E7FFF7D7
:10582000F7F9122302000EA9504600F053FA97E64A
:105830002F4B304898465BE7E288002A09D1334A6B
:105840001078012F26D0EF1867443037FB789B077C
:105850003ED54346002B00D13AE5D86800F09AFACD
:1058600043460121DB680EAA50469847002000F00D
:1058700091FA3423EB5CDB0700D529E5A1E61E4A4B
:1058800059001568CB18DB00ED18002D00D145E656
:10589000E86807E730229146EB18634499444B4689
:1058A000DB789B07D5D5FFF717FC4B460222DB7848
:1058B00093434A46D370D378BB43D370C9E70CAB4C
:1058C0009A1C504601230EA9157000F003FAFFE45C
:1058D000FFF7E8FB0222FB7813430122FB70FB7801
:1058E0001343FB70B5E7C0461D4800103B4C002039
:1058F00020EA0010B9610010E4410020E0E9001046
:105900000000000000000000000000000C0F00205C
:10591000581EC0B2FFF780F9002800D1FEE5437899
:105920000793022B00D0F9E50121C279B14693110A
:1059300052110B400A4012015B0113432A782F31A8
:105940008A4313432B700923984680444746A84650
:10595000C37882781B021343C31804935C4B0993EA
:10596000049BBB4200D881E07B7801220B2B02D143
:105970003B78FA78FF187B78042B23D10025049B11
:105980000B92DB1B9BB20593524B19780693524B3B
:105990000A93524B08930A9B002B52D0099B089EF6
:1059A0008D4245D339005046059A984784460828C9
:1059B00002D9059A824262D2069B01351978EDB26E
:1059C000A942E8D24E46A9E55046FFF755FB002212
:1059D0009146434AAB7805922A004D46914604937E
:1059E0003C4B3D4F98461B78002F1BD0059A9D429B
:1059F0002CD350469047434601351B78EDB2AB425D
:105A0000F2D24D46532200212800FEF7D5FC102289
:105A1000FF213448FEF7D0FC2022FF213248FEF758
:105A2000CBFC02E0002D1BD04D46049BAB7072E610
:105A300018232E4A6B431668F618002EC2D0B3689E
:105A4000B0E7002DBED1224B244EABE7274A6B00B6
:105A500012685B19DB00D318002BE5D05A68C8E741
:105A60001F4AC6E7FFF7D8F80200D4E6204B4546A8
:105A70004E46002B00D152E600E000BF4FE60B9AE5
:105A8000012A1FD00021464609E0BB78CB18DBB2C3
:105A9000F318D878FF2895D10131DD70C9B2914251
:105AA000F3D1B04666462B00390032000E4800F0B4
:105AB0001FFDB446069B67441B78AB4200D34FE7FB
:105AC0004E462BE5024BB1689942DBD1079AD9E7E4
:105AD000D56000103B4C00201D48001020EA00104B
