:020000041000EA
:1000000000B5324B212058609868022188439860DF
:10001000D860186158612E4B002199600221596106
:100020000121F02299502B49196001219960352056
:1000300000F044F80222904214D00621196600F024
:1000400034F8196E01211966002018661A6600F04E
:100050002CF8196E196E196E052000F02FF8012189
:100060000842F9D1002199601B49196000215960AB
:100070001A491B48016001219960EB211966A021F2
:10008000196600F012F800219960164914480160C1
:100090000121996001BC002800D000471248134993
:1000A000086003C880F30888084703B5996A0420EC
:1000B0000142FBD001200142F8D103BD02B5186610
:1000C0001866FFF7F2FF186E186E02BD00000240BE
:1000D000000000180000070000035F00212200005C
:1000E000F4000018222000A00001001008ED00E03C
:1000F00000000000000000000000000074B24E7A12
:1001000000200420F7010010C3010010C5010010F9
:10011000C1010010C1010010C1010010C101001097
:10012000C1010010C1010010C1010010C701001081
:10013000C1010010C1010010C9010010CB01001065
:10014000CD010010CD010010CD010010CD01001037
:10015000CD010010CD010010CD010010CD01001027
:10016000CD010010CD010010CD010010CD01001017
:10017000CD010010CD010010CD010010CD01001007
:10018000CD010010CD010010CD010010CD010010F7
:10019000CD010010CD010010CD010010CD010010E7
:1001A000CD010010CD010010CD010010CD010010D7
:1001B000CD010010CD010010CD010010CD010010C7
:1001C00000BE00BE00BE00BE00BE00BEEFF3058054
:1001D000103800BEF2EB887170DA001090DA00106F
:1001E0003402001090A31AE700201F49086006C8D7
:1001F00081F3088810471D48006800282FD10DA4FE
:100200000ECC002902D000F012F8F9E71849194A7B
:10021000002000E001C19142FCD1174988471749ED
:1002200088471749884700BEFDE701C901C29A42C5
:10023000FBD3704790DA0010C00000208016002029
:1002400050F00010000004200000042050F00010C6
:10025000001004200010042000000000704709482E
:1002600002F0F0F80047000008ED00E0000000D0C8
:1002700080160020B84C002005220010B5030010A5
:10028000392300105756000006005250ABB360539C
:1002900068CA001006005250861C030278CA00107B
:1002A000060052505422A29D8CCA001005005250E4
:1002B000DE65F46850F00010F8B5C04606480749FE
:1002C000091A8B10C90FC91810B5491003D0044B77
:1002D000002B00D0984710BD80160020801600200B
:1002E00000000000054B10B5002B03D00449054861
:1002F00000E000BFFFF7E2FF10BDC04600000000B5
:10030000404C0020A0C700100323F0B5D7B0002751
:10031000012206930223040006A808920993079776
:1003200006F01CFA01220323050004A80492059399
:1003300006F014FA06000BA805F0EAFF22000BA94C
:100340000423039702970196009512A806F016F869
:100350000022002112A806F05FF8002806D112A89A
:1003600006F0AEF8002811D157B0F0BD0D4C0023B7
:100370002D2200900C49200006F068F901220B4B59
:1003800012A81A7006F09CF80028EDD0084C002343
:100390002E2200900449200006F058F90122034B58
:1003A0001A70E1E7F4C70010A0C70010A94C0020A4
:1003B00034C80010F0B5DE4657464E464546E0B517
:1003C000DFB006F0BBF9BB4B0B93BB4B0F93BB4BA2
:1003D0001793BB4B0D93BB4B0A93BB4B11931DABB8
:1003E00016931AAB159336AB9B4638AB0993B74BB4
:1003F0000C93B74B0E93B74B1293B74B1493B74B69
:100400001393B74B1893B74B199300240B9B179872
:100410001C600F9B1C6006F019F90D9A119D147059
:100420000A9A31AB14702A0013CA13C303CA03C358
:10043000169E2B003200143313CB13C21B681360BB
:100440002B0021AA243313CB13C21B6813602B008B
:1004500025AA343313CB13C21B68443513602B0019
:1004600029AA13CB13C21B6831A81360159B21AABC
:100470005A6025AA1E609A6006F070F9070031A83C
:1004800006F06CF9060006F0F3F88022824600219F
:100490003EA803F09BF81AAB1D0015931DABB146A7
:1004A00098463EAC169308220021099840CD03F0EF
:1004B0008DF8380006F0DCF85A460023012113704D
:1004C0005360937723008000166157619061918398
:1004D00043CA43C343CA43C3203403CA03C3A84522
:1004E000E1D14E4608220021099803F06FF8300050
:1004F00006F0BEF85A462DA90023116101218000A3
:1005000013705360937756619061918356A82022AF
:10051000594603F061F83EA8FFF7F6FE29AB99466D
:10052000534600272DAE002B11DC3CE0291C201C7B
:1005300002F0CDFED021890502F030FF002819D14C
:1005400004239C460137E1440436BA452BD04B4680
:1005500035681C68291C201C02F020FF0028E5D10A
:10056000211C281C02F0B3FED021890502F016FFE1
:100570000028E5D0281C02F071FF02900391201C96
:1005800002F06CFF4422009001910C990E9806F045
:100590005DF801220A9B01371A7004239C46043639
:1005A000E144BA45D3D101220D9B1A700A9A0B9BE4
:1005B00011781B680122002901D1002201330B9917
:1005C00012980B600F990B689B180B6006F03EF8B1
:1005D00000230D9A119D13700A9A13702A0031ABF3
:1005E00013CA13C303CA03C32B0025AA143313CBA6
:1005F00013C21B6813602B0029AA243313CB13C228
:100600001B6813602B002DAA343313CB13C21B6855
:100610000021136025AB219329AB10222293099866
:100620002DAB239302F0D2FF5A462F4B31A8136013
:100630002E4B536006F092F8089031A806F08EF821
:100640005B461C680700211C586802F040FE2849E0
:1006500002F043FE802382461B06E018514602F05A
:100660003CFE02F037FF02F0C1FE80388022079086
:1006700000213EA802F0AAFF3EAB994621AA38AB62
:100680004E469046994609931097434608981C6831
:1006900005F0EEFF051E51DD079802F009FA330060
:1006A000AD0056466719CA464D46049005919946D5
:1006B00026E0C046B4190020B01900206CC8001014
:1006C000AA4C0020A94C00205CD30010A0C7001049
:1006D00094C80010D4C80010FCC800103CC9001019
:1006E00050C9001068C90010000040C00000404020
:1006F00000007F437F20043428700135A74219D0C1
:10070000311C206802F0E9FD02F0A8FE02F090FA28
:10071000049A059B02F034F902F0E2F97F28E9DC43
:1007200003008033E7DA802004344042287001352A
:10073000A742E5D14B46D146B2461E00089C200098
:1007400005F096FF0123524633700023B260079AEA
:100750007360F26074614A46B377092404339C469F
:100760003261B061B48356AB2036E044E144B34219
:100770008BD1109F0125380005F07AFFA02260235D
:1007800016A98918CD54534658933BAB00215A9370
:100790007C23079E5C9016A8801857915B9759960A
:1007A000C45216A882180233D1543EA8FFF7ACFDFC
:1007B0005B4614201856801B02F0F6FD514602F0ED
:1007C000A0FD5B46071C15201856801B02F0ECFDAF
:1007D000514602F096FD5B46051C16201856801BFC
:1007E00002F0E2FD514602F08CFD5B46041C17202E
:1007F0001856801B02F0D8FD514602F082FD5B4680
:1008000080461968586802F062FD011C02F062FD22
:100810007A4902F062FD7A498146381C02F0A8FD4F
:10082000002800D0ADE07649381C02F099FD002880
:1008300000D1D8E0FC21281C890502F099FD002890
:1008400000D080E0FC21281C890502F089FD0028E9
:1008500000D1C1E06B49201C02F08AFD002855D16F
:100860006849201C02F07CFD002800D1AEE0FF2189
:100870004046890502F07CFD002825D1FF21404635
:10088000890502F06DFD002800D198E001210D9A44
:100890000A9B11701B780B9A11680122002B01D161
:1008A000002201310F9C0B9B139819602368D2180A
:1008B0002260521805F0CAFE2368002B00D098E091
:1008C000189805F0C3FEA0E5FF204146800502F020
:1008D000FEFC011C484602F04BFD0028D6D07523D3
:1008E00003930C9B4046029302F0B8FD0022009057
:1008F0000191454B149805F0A9FE01230A9A137043
:100900000D9A13700B9B01221968CBE7211C3D48FF
:1009100002F0DDFC011C484602F02AFD0028A6D0AA
:10092000752303930C9B201C029302F097FDA022D9
:1009300000900191354B1206149805F087FE0122B4
:100940000A9B1A7093E7FC20291C800502F0BFFC6B
:10095000011C484602F00CFD002800D17AE77523FF
:1009600003930C9B281C029302F078FD0022009058
:100970000191274B149805F069FE01220A9B1A7019
:1009800068E7391C1E4802F0A2FC011C484602F030
:10099000EFFC002800D14DE7752303930C9B381C16
:1009A000029302F05BFDC02200900191194BD20529
:1009B000149805F04BFE01220A9B1A703AE7FF21BA
:1009C0004046890502F083FC011C83E70D49201C89
:1009D00002F07DFC011C9EE7FC21281C890502F029
:1009E00076FC011CB5E70C49381C02F073FC011CB5
:1009F000CCE7199805F02AFE07E5C04600007F43C2
:100A00003333B3BFCDCC8C3F0000F83F9999F13F11
:100A10000000E03F6666F6BF3333B33F024B186811
:100A20008007C00F7047C04600C0064070B5EFF3A6
:100A3000108C72B60D4D2B68002BFCD0BFF35F8F6E
:100A40000724CB08C618C05C01230C40A3401C003F
:100A50000440034207D118433070BFF35F8F2C600E
:100A60008CF3108870BD100001F086FC2C0100D0C2
:100A7000F8B54746CE46884680B5EFF3108C72B67F
:100A8000214D2C68002CFCD0BFF35F8F9A422CD8EC
:100A9000D4080727055D061901241740BC402C42E5
:100AA0001FD007210127894609E0D408055D0619F2
:100AB0004C4639001440A1400C00294211D00132AB
:100AC0009342F2D201204042BFF35F8F00220E4BCF
:100AD0001A608CF3108800280FDBC0BCB946B04602
:100AE000F8BD254310003570EEE7BFF35F8F00239C
:100AF0002B608CF31088012040424346002BECD041
:100B0000089801F039FCC0462C0100D00021044BAC
:100B1000044ABFF35F8F02C39342FAD17047C046C5
:100B2000000100D0800100D0044A1078431CDBB2E1
:100B3000172B00D9102313707047C046A80E002051
:100B400010B5064B064C82B00100009318221F23FB
:100B50002000FFF78DFF02B010BDC04684C9001011
:100B6000B047002001238340002904D0034A1360CA
:100B7000034A13607047034A1360FBE780E200E01A
:100B800000E100E080E100E001238340014A1360BE
:100B90007047C04600E200E0084B10309B688000C0
:100BA000C358002B07D0064A00209B1A2F229A42D6
:100BB0004041C0B270470020FCE7C04600ED00E0B5
:100BC000AC0E0020024B10309B688000C05870476C
:100BD00000ED00E070B50D00EFF3108672B60F4A1D
:100BE0001368002BFCD0BFF35F8F0D4B10309B6858
:100BF00084001B590B4A934203D09D4201D001F05F
:100C0000D3FB074B9B681D51BFF35F8FBFF35F8F13
:100C10000022024B1A6086F3108870BD240100D0B8
:100C200000ED00E0CD010010F0B557464E46DE461F
:100C30004546E0B585B0060000911700EFF3108B34
:100C400072B66A4A1368002BFCD0BFF35F8F002591
:100C5000674B5D579A46002D00DAA9E06B00654CA2
:100C600001935B199B009846A146C1444B465246EE
:100C70009B7910361370604BB6009B6899590B1B1B
:100C80002F2B33D95D4B994200D0ACE0019B4246FB
:100C90009C465B4B6544AD0063535A4B0232A2182D
:100CA000043B9B1A1B05584A5B0D651913436B8067
:100CB000564B0121AB80FF23AB71009BEF71AB6002
:100CC0004B460B4319004C4B9B689951BFF35F8F08
:100CD000BFF35F8F0022454B1A608BF3108805B07D
:100CE000F0BCBB46B246A946A046F0BD01200A00B2
:100CF0008243D3798C46BB4231D8454613004449E0
:100D00001B1B5B415943090D3D4B63533D4B023562
:100D10006519043B5B1B1B053B4D5B0D2B43AA4632
:100D20004D466B800425AC465546E044131F4444B1
:100D30001B1B1B055B0D1D434B46997100999D8044
:100D400099604946DF71334B01431360BBE758009C
:100D5000C01880002018C179B9422FD9020006239B
:100D6000D356002BF3DA02932B4B61460393131DEA
:100D70009A4604235B429C46E14450464B461B1A6C
:100D80001B055B0D9C46204B95719846634640467B
:100D900003439380019B5A199200039BA418A380DC
:100DA000029B1C4AA371009B2260E771A3608AE743
:100DB00001F0FAFA002553465D574FE790880293F9
:100DC0004005131D9A46031561469C464046D4448F
:100DD000634604302018181AE0230005400D1B025A
:100DE00018430390C5E701F0DFFA4FE7240100D074
:100DF000AF4C0020AC0E002000ED00E0CD01001053
:100E000000A1FFFFDC0E002000E0FFFF01BDFFFF9F
:100E1000AAAA00000148804701BD0000F0B5DE46E7
:100E200057464E464546E0B50C0083B0EFF31088B8
:100E300072B65D4A1368002BFCD0BFF35F8F5B4B2B
:100E40005B499A68030010339F00D5598D4239D011
:100E5000A5424AD0574EAA1B2F2A33D801229246C8
:100E6000824091464846544A1268104001904846D4
:100E7000524A1060BFF35F8FEFF305829346002A5A
:100E800035D0934201D001F08FFA2A0053469A439D
:100E90009068844208D175E04B005B189B00F31802
:100EA0009868A04234D01A00062151560029F3DA7E
:100EB000844253D0019B002B26D04A46404B1A60F7
:100EC0003D4B1A60394B9B68DD51BFF35F8FBFF319
:100ED0005F8F0022344B1A6088F3108803B0F0BC97
:100EE000BB46B246A946A046F0BD0D00EAE72A007F
:100EF00053469A4390688442D6D106201056130078
:100F0000002809DA0D0031E04A462C4B1A60D9E777
:100F100006201856002822DB420011188900741898
:100F20008A46A1689960E179D97106216156997163
:100F3000002925DBA488F11A6405241554440919F5
:100F4000E0240905490D24022143998013181D4A04
:100F50009B001178F31899711070ABE71300594694
:100F6000002914D1FF3191711749918015490A78F0
:100F70009A71164A9B1B5B415A43120D0A7099E7FE
:100F80001349E2E70620105613000028C4DA114A7C
:100F90001149D21A083A5002400D014399800F4975
:100FA00052080A43DA8085E7240100D000ED00E012
:100FB000CD010010AC0E002000E100E080E100E077
:100FC00080E200E0AF4C002001BDFFFFAAAA0000B4
:100FD00001BD0000E60E002000F0FFFF00F8FFFF5B
:100FE00070B5EFF3058101240443EFF3108C72B662
:100FF000214A1368002BFCD0BFF35F8F1F4B050005
:101000001F4AED1A6D416A43120D1E4D8900AE68EC
:1010100052B27658A6421CD00621595691421CD095
:1010200012215956914222D01E215956914220D068
:101030002A2159560324914210D0134B19781A7063
:101040008171BFF35F8F00220B4B1A608CF3108805
:1010500070BDAB680D4C5C50EFE7002461000919CE
:1010600089005B18FF21997109499980E5E70124FE
:10107000F4E70224F2E7C046240100D0AC0E0020C1
:10108000AAAA000000ED00E0AF4C0020CD01001046
:1010900001BDFFFF054B064A1360064A136053600B
:1010A0009360D36013615361936170478080808047
:1010B00000E400E004E400E010B5084B084C82B006
:1010C00001000093002205232000FFF7D1FC002837
:1010D00001DB1F23181A02B010BDC046A0C90010C2
:1010E000B44C0020024B9C4661448900016070476B
:1010F0004000003410B50400FFF716FD0100200089
:10110000FFF7F0FFFF232371BFF35F8F10BDC046D1
:1011100010B50400FFF708FD01002000FFF7E2FF13
:10112000FF23A380BFF35F8F10BDC04610B504003E
:101130000120FFF705FD034BC3189B002360BFF39D
:101140005F8F10BD40000034034B9C466144890012
:101150000160BFF35F8F70474000003483680B4825
:1011600010B58446614462441201090159189B1864
:101170005C684A680120944201D802D00020C0B2C5
:1011800010BD1A680B689A42F9D8F7E7FFFFFF0F06
:101190000A4B1968EFF3108072B60A68002AFCD077
:1011A000BFF35F8F1B68BFF35F8F00221A6080F36D
:1011B000108840BF002000217047C0467C4C0020B2
:1011C000F8B5574645464E46DE46E0B598460CAB68
:1011D0001C780DAB1B78070091469A460568002CD9
:1011E00059D1AC7B002C3BD0660029683619033EF0
:1011F00089194B78AB73002B00D1EB7300238B70F4
:101200004B700B702D4BE218BB6812019B184A46BD
:101210001A6042465A600A9A9A600B9ADA60002372
:101220008B704B700B706B7B9B46002B26D0220083
:101230006B685946A86898475B465B005B442A6820
:10124000033B002812D058469619B070D118D35CD1
:10125000002B00D073705B460C706B735C450ED036
:10126000F0BCBB46B246A946A046F8BDD3189C7058
:101270009119925D002A1CD15B460B706C734A4633
:101280004346387D00F04AFB051E0AD10E9B002B19
:10129000E6D01D70E4E7660029683619033E891917
:1012A000B0E75346002BF1D12100386800F04EFD25
:1012B000ECE75A705B460B706C73E0E7FFFFFF0FC3
:1012C000F0B5DE4657464E4645460023E0B58BB0A6
:1012D0000893684B8200D45800239B46099000F085
:1012E00099FA02000B006068EFF3108A72B6564656
:1012F00001680029FCD0B246BFF35F8F21684F7BA5
:101300008C46002F2ED0A5685B49A94679180901A3
:10131000894449460868496805000E00AD1A9E4197
:10132000002E5FDD02000B00099800F0F7FA0023A1
:10133000002299460023069207930023984663688B
:10134000BFF35F8F5A461A608AF310884346002B1A
:1013500012D10028C3D10BB0F0BCBB46B246A9469F
:10136000A046F0BD00230022994600230692079371
:10137000002300209846E2E7089B494618023843BC
:10138000C047626805000E00EFF3108A72B613685A
:10139000002BFCD0BFF35F8F002E41DB2B003343CB
:1013A00002D02369002B56D12368D97B002905D0B0
:1013B0001A68480041185218033A57709A7B002A5D
:1013C00000D19F73DF73E268013FD35D0133D355D2
:1013D0005B4623616368BFF35F8F5A461A608AF3E6
:1013E00010887CE7002E02D1002D00D09AE7002162
:1013F000604600F029FC4B461A685B68069207932A
:101400004B469B6898464B46DB689946E368DB1978
:10141000013B1B7808931B020343236100208EE7E6
:101420002369002BC0D0069A079B8021521BB34131
:1014300009068B4202D30122104B52420021049133
:1014400001310391494601914146200002970091E4
:10145000FFF7B6FEBCE700F0DDF92A0033001218F2
:101460004B41802109068B42E8D30122034B5242B3
:10147000E4E7C046604C0020FFFFFF0FFFFFFF7F47
:1014800010B5144C6368002B04D00A211248FFF7F2
:1014900029FE10BD2300114A1021206800F0F0FA47
:1014A000032000F0ABF9032000F0A0FA03200C4960
:1014B00000F0EEF9FFF738FB0A4B9C460323237537
:1014C000D0231B061B6860446375074B8000606077
:1014D000DC60DAE7F40E00207C4C00205D11001087
:1014E000C112001040000034604C002000487047DA
:1014F000F40E0020F0B557464E464546DE46E0B5B0
:1015000085B0019310AB1B780600039300239A4625
:10151000984600927268EFF3108B72B61368002B36
:10152000FCD0BFF35F8F3568AC7B002C00D16EE040
:1015300067002B683F19033FDB195A78AA73002A0A
:1015400000D1EA73484AA118B268090152180098FC
:101550000199106051600E9991600F99D1604246D7
:101560009A705A701A706B7B9946002B00D16BE011
:1015700022006B684946A86898474B465B004B447D
:101580002A68033B002856D04846D719B870D118AE
:10159000D35C002B00D07B704B460C706B734C45BA
:1015A00053D0F3681B19013B18787368BFF35F8F42
:1015B00042461A608BF310885346002B08D1000274
:1015C000204305B0F0BCBB46B246A946A046F0BDDC
:1015D000039B002B46D00E9B00200F9998470300D9
:1015E0000B433FD004000D1E1ADA009A019B121B18
:1015F000AB410092019380221206934204D301234F
:101600001A4C5B4200930194039B9A4682E77368ED
:10161000BFF35F8F1C608BF3108801204042D0E73E
:1016200000F0F8F88022001969411206009001913B
:101630009142E9D3E3E7D3189C70D119D25D002A17
:1016400000D05A704B460B706C73307D009A019B32
:1016500000F064F982460028A3D02100306800F031
:1016600075FB9EE70020ACE7FFFFFF0FFFFFFF7F4A
:10167000407D7047F0B5EFF30583CE46474680B511
:1016800005000C0085B0002B12D02A4A0020536AB6
:10169000A34203D3926A0130AA4204D305B0C0BC6E
:1016A000B946B046F0BD1B1B5A1E9341D8B2F5E7B0
:1016B000214E02930193214B0200009330000B0056
:1016C000FFF718FF031EE0DD20BF7168EFF31087FE
:1016D00072B60A68002AFCD0BFF35F8FDAB2944674
:1016E000FF2230681A40417B61450FD0016889466E
:1016F000510088464946904441440339897800297D
:1017000004D13269934209D1316107E0F1681B0AC3
:101710008A18013A1278DBB29A4207D07368BFF395
:101720005F8F00221A6087F31088AEE7614600F0F1
:101730000DFBF3E700400540F40E0020911100106E
:10174000F0B5EFF30582D6464F4646461000C0B5C9
:101750001038EFF3108872B6214C2368002BFCD0B0
:10176000BFF35F8F0123190081401E4D1F00696385
:10177000AA461D4D29601D4D2E78AC463500C5404A
:101780002F402B4215D053465F6A194B8500EB580A
:101790009F4218D36246174B8E43EB581670BFF327
:1017A0005F8F0022226088F31088002B06D09847B4
:1017B00004E0BFF35F8F276088F31088E0BCBA466F
:1017C000B146A846F0BD0C4B92009C46624413689B
:1017D0001360BFF35F8F0023236088F31088EDE769
:1017E000280100D0004005403C700540B34C00206B
:1017F000884C002098460020D03F054010B5034B90
:1018000001001800024AFFF711F910BDAE4C00208C
:10181000BCC90010034B596A0A00986A596A8A4287
:10182000FAD170470040054070B504000D00174A1A
:10183000536A1900966A536A8B42FAD13000190034
:1018400024184D41AB4216D813D0104B2A005B6AC6
:101850009D4203D90D494B6A9342FCD3934207D171
:101860000A4A02E0516A994202D1916AA142F9D32F
:1018700070BDA642E9D9054B5B6A1C005A1CEFD02B
:10188000012201246442E5175242E3E7004005408B
:1018900070B504000D00EFF3108672B61A4A136893
:1018A000002BFCD0BFF35F8F002D1BD02000FFF773
:1018B00089F9164981420AD02000FFF78BF90121EE
:1018C0002000FFF74FF90123A340114A1360114B89
:1018D000A400E550BFF35F8F00220B4B1A6086F324
:1018E000108870BD0121A1400A4BA200D5500A4BBF
:1018F00020001A788A4305491A70FFF78FFA0021F1
:101900002000FFF72FF9E5E7280100D0411700106C
:101910003860054098460020B34C0020F0B54F4693
:10192000D6464646C0B507002B4C616A0D00A66A34
:10193000616AA942FAD18B4208D805D00120E0BCE7
:10194000BA46B146A846F0BDB242F7D9EFF3108AC5
:1019500072B6224801680029FCD0BFF35F8F0125D1
:10196000BD401F491C4C8846097889462943C9B2A5
:101970008C46414660460870391D890065630A51EE
:101980001849B8004350216A0020294219D0616AE1
:101990000800A66A616A8142FAD18B4219D801D146
:1019A000B24216D8CC450BD00B4B1F221D625D6393
:1019B00001233A4093400C4A136043464A461A704A
:1019C0000120BFF35F8F0022044B1A608AF3108856
:1019D000B5E70020F5E7C04600400540280100D0EB
:1019E000B34C0020884C002080E200E0EFF3108C24
:1019F00072B60A490B68002BFCD0BFF35F8F01233E
:101A00008340074A0748136202789A430270BFF383
:101A10005F8F00230B608CF310887047280100D083
:101A200000400540B34C002070B506000D001400C6
:101A300000291DD0002A12D0736880689847620080
:101A40006B0012195B193168033A033B002808D078
:101A50008A189570C818CB5C002B0BD10470280035
:101A600070BDCB189C7088188A5C002A05D105705F
:101A70002000F5E753700470F1E75A700570F7E73E
:101A800010B583600023CCB243730133426004730A
:101A90008373C4730068421C012C05D90133DBB287
:101AA000137003329C42F9D1FF230B405A00D31824
:101AB000C01800230338437010BDC04670B5050040
:101AC0000C1E07D0630001681B19033BCB185A7822
:101AD000002A01D1200070BD500080180338091879
:101AE00000204E784870210058702800FFF79CFFB6
:101AF000310004002800FFF7E1FF0600002C20D091
:101B00000028E7D0320021006B68A868984772006F
:101B1000630092191B192968033A033B002808D077
:101B20008A189470C818CB5C002B00D053700670D4
:101B3000D0E7CB189E7088188A5C002A00D05A70B3
:101B400004703400C6E7C046F0B557464546DE4649
:101B50004E46E0B50D006F0001687F19033F040099
:101B6000C85D83B00192CA19002850D043001B18E9
:101B7000033BCB185E78B446002E1AD1019E002E8E
:101B800042D0E67B002E04D073009B19CB18033B98
:101B90005D70A37B002B00D1A573E57300282FD1C6
:101BA0000023537003B0F0BCBB46B246A946A04622
:101BB000F0BD72006244033A8A18517888460021C9
:101BC000517089465970320001002000FFF72CFF48
:101BD00043468246002B07D05B0021684344033B09
:101BE000CB185A78002A16D1424651462000FFF7FA
:101BF0001BFF2168019BCA19002BC2D10028CFD03E
:101C000043001B18033BCB1800219970C8E7019BC8
:101C1000002BB6D1C4E75000801803380918487863
:101C2000834648464870587041462000FFF7FCFE46
:101C3000594680462000FFF741FF41460200200040
:101C4000FFF7F2FE8046CFE7F0B557464546DE4641
:101C50004E46E0B583B00191457B04006F000068FB
:101C60007F19033FC15DC219002952D04B005B1898
:101C7000033BC3185E78B446002E1CD1019E002E93
:101C800044D0E67B002E04D073009B19C318033B9D
:101C90005D70A37B002B00D1A573E573002931D1C2
:101CA000002328005370617303B0F0BCBB46B246FA
:101CB000A946A046F0BD72006244033A82185078EB
:101CC0008046002050708146587032002000FFF797
:101CD000ABFE43468246002B07D05B00216843449D
:101CE000033BCB185A78002A17D1424651462000B0
:101CF000FFF79AFE019B01002068C219002BC0D19A
:101D00000029CDD04B005B18033BC318002098700E
:101D1000C6E7019B002BB4D1C2E7500080180338FE
:101D20000918487883464846487058704146200054
:101D3000FFF77AFE594680462000FFF7BFFE414676
:101D400002002000FFF770FE8046CEE770B5050068
:101D500000292CD0437B8B422ED04C0000686418A5
:101D6000033C0419A278002A21D053009B18033B9E
:101D7000C25CC6188A4202D11BE0002A08D0530078
:101D80009B18033BC3185A788A42F6D162785A707E
:101D9000002301222800A3706370FFF7D5FE697B42
:101DA00002002800FFF740FE6873012000E00020D9
:101DB00070BD63783370EBE701221900FFF7C4FEB2
:101DC000F2E7C04610B50C2082B000F0B1F9FEF782
:101DD00025FE002810D08B4B8B488B498B4A18600E
:101DE00059609860D960186159619861D961186229
:101DF00059625A6202B010BD854CA06700F0EEF93E
:101E00000122844B1A60636C012BFCD10322824BAC
:101E10001A607F4A936B012BFCD1013301217F4A69
:101E20007F480093043300F031F905237D4A009385
:101E300001217D4800F02AF97C4B5A68FF2A02D81C
:101E4000802252005A608022734B6E4C12011A603D
:101E50002169002907D0606900F04EFB0130430082
:101E60001B18033BFDD2E022704B714819680A40F1
:101E7000026002221968514001320A4004210260C6
:101E80009A681142FCD080216A4A090111608022BF
:101E900052005A60684B2361684B5968FF2900D88B
:101EA0005A60032201215B4B1A60644A936819420D
:101EB000FCD0E023106803406148036012680323EC
:101EC0004A40022113405D4A036093681942FCD0E6
:101ED00080215C4B0901196080215B4B49005160F6
:101EE00063615A4B5A68FF2A00D859608022584BC8
:101EF00012011A60E169002907D0606900F0FCFA5C
:101F0000013043001B18033BFDD2E0234F4A116808
:101F10000B4050490B6080214F4B09011960802113
:101F2000394B49005160E3614C4B5A68FF2A00D895
:101F3000596080224A4B12011A60216A002907D099
:101F4000606900F0D9FA013043001B18033BFDD251
:101F5000E023424A11680B4042490B608021424B0A
:101F60000901196080235B0053608022264BD20256
:101F700023623E4B5968914200D25A6080223C4B0A
:101F800012011A60616A002907D0606900F0B4FA92
:101F9000013043001B18033BFDD2E023334A116894
:101FA0000B4034490B608021334B090119608023B9
:101FB000DB025360154B6362304B5A68FF2A02D82C
:101FC000802252005A6080222D4B12011A60A169B2
:101FD000002907D0606900F08FFA013043001B1818
:101FE000033BFDD2E023254A11680B4025490B60D5
:101FF0008021254B0901196080235B005360124B3F
:10200000A361F7E680160020006CDC021BB700001D
:10201000008000403CB0004030B00040002F6859C4
:1020200000800240008C864700C0024030800040A3
:102030003090004030A00040001BB7003C800040C2
:102040003C9000403CA00040405973075480004041
:1020500054B000405490004054A0004060800040C4
:1020600060B000406090004060A000406C80004084
:102070006CB000406C9000406CA000404880004074
:1020800048B000404890004048A00040F8B5040027
:1020900022481E0017000D0000F02EFA0100380043
:1020A00000F02AFA069B36041B031E432368002B0C
:1020B00022DB1B4B1B49E3185A1E934180229201DD
:1020C00094465B421B0B184A1B0363441360174A78
:1020D00013601F008A689743FBD1C022231D920121
:1020E0001A4321232560A06013602368002BFCDACB
:1020F0000823E6601360F8BD3F2322681340AB421B
:10210000D7D1A3681B051B0D8342D2D1EE22E36811
:10211000D2021340B342CCD1EDE7C046001BB7005A
:102120000040FDBF00C0004000E0004000F0004063
:102130008023024A9B000343D3627047008005401E
:1021400010B580241C4BE4051C6000281AD0012324
:102150001A4C18431A4BDC611A4C44401C625962F9
:1021600098628021144BC905196017481749086007
:10217000E021C9041960002A07D18022144B1206FD
:102180001A6010BD0E4BD861EBE753019B1A9B0000
:102190009A18802312015B049A4209D213000D4958
:1021A0000B60074B5A608022094BD2051A60E8E7A2
:1021B000094B1A00F3E7C04600B00540D3C007B092
:1021C000008005402D3FF84FFCFF01000820014032
:1021D00000A00540384C0020FFFFFF00AA23064A5C
:1021E0001B0113602F230549D360054B1960536809
:1021F000002BFCDA7047C0460040024000B0FA00F5
:10220000006002402C4B2D4A70B51A602C4A2D4BB1
:102210002D491A6014008B689C43FBD12B4D2C4E2A
:10222000B54208D2013E761BB60808CD9847230078
:102230000134B342F9D1FFF7C5FD264A214B1A609C
:10224000214A9368DB43DB01DD09002BF9D14022F1
:10225000214B224C224E9A675A671A67DA66B442BB
:1022600008D223682000002B20D00834FEF750FF4E
:10227000B442F6D31B4C1C4EC022B168200001F0C2
:10228000ABF9B460FEF742FCFEF704FFFFF7F8F885
:10229000164C174EB44208D2013E361BB60808CC85
:1022A00098472B0001359E42F9D170BD0834FEF7E6
:1022B00021FFB442D5D3DDE700E00040BFCDFBFEF7
:1022C000FE7F3C0000F0004000C00040641600208B
:1022D00074160020FFFFFF0100F00140541600209B
:1022E000641600200000002000ED00E074160020BD
:1022F0008016002000BEFDE7094A03001068002890
:1023000005D00849C3188B4207D8136070470648A8
:102310000449C31810608B42F7D901204042F5E709
:102320002C48002000000420B84C002000207047FA
:10233000012040427047C04610B5FFF7DBFFC046A2
:1023400030B50D0083B01900002A0BD0074B084CA4
:102350000192009302002B00200000F033F80120CE
:10236000FFF7C8FF034B1A00F1E7C046E0C90010B1
:10237000F0C9001080C900100FB400B5084883B040
:1023800001F0C6F9049B002B07D005A918000191A4
:1023900000F038F8034801F0BBF90120FFF7AAFF6D
:1023A00020CA001030CA001010B50148FFF7E4FF42
:1023B00034CA001010B5002800D110BD01F05CF93E
:1023C000FBE7C0460FB430B50C4985B008AA08CA6F
:1023D0000D680392002D0CD000920122084C52424D
:1023E000200002A9A847012005B030BC08BC04B0F9
:1023F0001847180001F08CF90020F5E7344C002054
:10240000B523001010B5094A0300146884B0002CED
:1024100008D0012200910648524203A9A04701209A
:1024200004B010BD01F074F90020F9E7344C00202D
:10243000B523001001480421014B1847200F00204C
:1024400065240010142310B50100188804331B887C
:10245000984710BD162310B50100188802331B8859
:10246000984710BDF8B54746CE4680B50F1E19D027
:1024700014239946043304000025012698464B4650
:102480001888434621681B88984701C4431E984119
:10249000013540420640AF42F1D13000C0BCB946E0
:1024A000B046F8BD0126F8E7124A936F9B0815D293
:1024B0009066D166002905D0FFE7FFE7FFE7516F7F
:1024C000106F704704B580210906C21751400028DB
:1024D00000D0C8430AF01CF9002104BDF0B5146E09
:1024E000556E576F166FFFF7E3FF14665566576713
:1024F0001667F0BD000000D0114A936F9B0813D2FD
:1025000010665166002905D0FFE7FFE7FFE7516F2E
:10251000106F704704B5002801D00020C0430AF0B6
:10252000F7F8002104BDC046F0B5146E556E576F24
:10253000166FFFF7E5FF1466556657671667F0BD1F
:10254000000000D094464A4A926F9208624601D237
:1025500028E0C046F0B5464E346E756E776F366F24
:1025600000F020F89446424A14665566576716678D
:102570006246F0BD94463E4A926F9208624601D28E
:1025800054E0C046F0B53A4E346E756E776F366FD4
:1025900000F04CF89446364A14665566576716673D
:1025A0006246F0BD002B24DB11D000293EDA00B5D5
:1025B000C943404200D1013100F038F8C9434042DC
:1025C00000D10131DB43524200D1013300BD002A6A
:1025D000EBD1002801D1002905D00020C90FC9077F
:1025E00001D1C043410800B50AF082F8002200235F
:1025F00000BD00B500290ADBDB43524200D10133A4
:1026000000F014F8C943404200D1013100BDC94374
:10261000404200D10131DB43524200D1013300F08E
:1026200005F8DB43524200D1013300BD002923D11C
:10263000002B18D1002A0CD0BC460D4F38667A66A4
:1026400000210023FFE7FFE7FFE77A6F386F674657
:102650007047002801D00748010000B50AF048F88B
:102660000022002300BD02000B0000200021704763
:10267000000000D0FFFFFFFF002B00D0BFE0130CD5
:1026800028D1002AE7D080B4114F39667A66FFE777
:10269000FFE730B4040C7B6F396F1B0423433B66A8
:1026A0007A66FFE7FFE7FFE7C04684B27B6F3D6FC6
:1026B0001B0423433B667A66FFE7FFE7C04600231F
:1026C0002C042D0C7A6F386F00196941B0BC70472B
:1026D000000000D0F0B594460025140E01D112027E
:1026E0000835140F01D112010435940F01D1920065
:1026F0000235D40F01D152000135D40B0134254FDE
:102700007C66254C3C660E0C93B2FFE7FFE7FFE7C3
:102710003C6F6643360C7703BE467343DF0B5B04A6
:10272000C01AB941130C7343DB18C91ACE086643AB
:10273000360CB64493B273431F0F1B01C01AB94144
:10274000130C73431F0B1B05C01AB941860D8F0272
:102750003E436643360C092D24DB520A7243801A2D
:102760007703460A6643360C16235B1BDE40DF40C8
:10277000BF1964466643821B704604350633010068
:10278000D940A840C01900D30131A24206D200238B
:10279000F0BD0000000000D0FFFFFFFF121B013062
:1027A000F3D3F1E709277F1BFE406446A2B27243D0
:1027B000801A00D20139220C7243130C1204821ABF
:1027C00099410B007046043513370100F940A840C9
:1027D000801900D30131002B02D1A2420AD2F0BDF0
:1027E000013000D30131121BFAD2013BF8D1A242D1
:1027F00000D2F0BD013000D30131121BF7E7F0B574
:102800001C0C00D080E00CB400251C0A04D11B0273
:10281000160E3343120208351C0B04D11B01160F90
:102820003343120104359C0B04D19B00960F3343B4
:1028300092000235DC0B02D192185B4101351C007D
:10284000971864410134464F7C66464C3C660E0C3A
:10285000FFE7FFE7FFE7C0463C6F6643360C7703B0
:10286000BE4697B27743C01B00D20139C01B00D2CD
:1028700001399FB27743C91BC91B170C77437E04EC
:10288000FF0B801BB941CE086643360C0C2D33DBA1
:10289000B644120B1F053A431B0B97B27743C01B7C
:1028A00000D201399FB27743C91B170C77433E040E
:1028B0003F0C801BB941860D8F023E43664329279A
:1028C0007F1BFE400C3D7746AF40BF1930BCA2B223
:1028D000ABB272437343801A9941220C7243130CBA
:1028E0001204801A994102000B000137001BA94114
:1028F000F9D2781E0021F0BD0C277F1BFE407746E1
:102900007F0BAF40FF19E0E700245D1C07D0144F98
:102910007D663966FFE7FFE7FFE7FFE73C6F95B2AB
:102920009EB265436643401BB141150C1E0C6543C6
:10293000664336042F0C3E432D04401BB14199429F
:1029400004D202000B0020000021F0BD01D1904212
:10295000F7D3801A994101349942F2D3F6E7000087
:10296000000000D0FFFFFFFF48404140484018B43E
:102970001B4B5B68FC46019308BD04DFFF2C001075
:1029800018B4174B1B68FC46019308BD00DF092DE6
:1029900000109446134A926F920809D2624618B406
:1029A0000F4BDB68FC46019308BD0CDFC12F001004
:1029B0000C4AF0B5146E556E576F166F6246FFF7EE
:1029C000EEFF084A1466556657671667F0BD18B4DF
:1029D000034B9B68FC46019308BD08DF652E001081
:1029E000B0170020000000D0FFB5504042405040DA
:1029F00059404B40594000E0FFB5154F4C00640D65
:102A000003D0BC4204D10C0314D80020090D0905E1
:102A10005C00640D03D0BC4204D11C030AD8002220
:102A20001B0D1B0501264B4009D44B4003D58B429F
:102A300000D18242FFBD9942FCD19042FFBD0B43C1
:102A4000DB1803431343F5D0C9434918FFBD000009
:102A5000FF07000000B5FFF7CFFF01D0002000BD49
:102A6000012000BD00B5FFF7C7FF804100BDC04693
:102A700000B5FFF7C1FF01D9002000BD012000BD56
:102A800000B5FFF7B1FF804100BD012040054A00BD
:102A9000121804D85A00121801D8002070470120DB
:102AA00070470020704700000021002805D17047C2
:102AB000C1174840401AFAD0C90713B5064B1B6826
:102AC00098470CBC441CA2401005120B0349091B7B
:102AD00009051943114310BD784C00201F04000064
:102AE00010B54C00620D8023D218DB00D21A5B05B2
:102AF0007E2A10DD9E3A13DACC17090349081943E0
:102B00005242D140640001341532202A05DAD04007
:102B10000843604310BD002010BD0846604310BD4F
:102B2000C80FC018013810BDC94211D300B5490003
:102B30004908002200F018F8002904D4002240427D
:102B40008A41114600BD80210906002000BD000019
:102B500018B4044BDB6EFC46019308BD6CDF713189
:102B600000100000B017002018B4044B9B6FFC4607
:102B7000019308BD78DF8F3100100000B0170020EE
:102B800018B4044BDB6FFC46019308BD7CDFFD31BC
:102B900000100000B0170020132370B51D78012D20
:102BA00015D010DD1D48FFF755FC1D4C010080229B
:102BB000200000F011FD022D2DD01A48FFF742FC35
:102BC000194B186070BD194B154CA364F5E7174BF2
:102BD000134C23606360A360E36023616361A361BE
:102BE000E36123626362A362E36223636363A363BB
:102BF000E36323646364A364E36423656365A3659B
:102C0000E36523666366A366E36623676367A3677A
:102C1000E367A364D1E7054BA364CEE75344000008
:102C2000B01700204C330000784C0020CD2C001051
:102C3000244A4B0094465B0D6344F0B504000D003C
:102C40005A1C21DB5A1C35D0342B1CDA3326F61AD9
:102C50003700203F1CD40121B9400B000121B140B5
:102C60000A0012196B41002F1EDB0224BC40210018
:102C70000224B44020001600002544428D41264025
:102C80002B4030001900F0BDCB0F0020D907FAE728
:102C900020210120891BC8400121B14003000A0006
:102CA00012196B41002FE0DA20240225A41BE54015
:102CB0002900DDE7CB0F044ADB071A43002011008F
:102CC000E1E7C04601FCFFFF0000F03F07B56046AA
:102CD00001880A0A0230DF2AFAD1C9B2820804D375
:102CE000028840880004104300E00068014A505008
:102CF000039007BDB01700200FB403BC0CBCF0B5A7
:102D00000124E407634000E0F0B50C0DCF0F661E10
:102D10003605891B640503D3C943404200D3013102
:102D2000640D03D0661CF60A07D0E41B00207F0068
:102D3000791C89078912803C24031D0DDF0F6E1E4C
:102D400036059B1B6D0503D3DB43524200D3013391
:102D50006D0D03D06E1CF60A07D0ED1B00227F001C
:102D60007B1C9B079B12803D2D032F1B661B58D499
:102D7000A446202E46DA20371400BC401D00BD407A
:102D8000F24033412A4380185941CB0F05D0C94343
:102D9000C043002264425041514162464D0D28D14A
:102DA0000D0D07D100281FD0241940414941013A97
:102DB0000D0DF9D0640006D3013000D30131002C91
:102DC00001D140084000013A0BD4941CE40A04D11C
:102DD00012051144DB071944F0BDD907204B1943F4
:102DE00000E0D9070020F0BD0029DDD1002CDBD1A7
:102DF000F0BD0132C6074008CD0728434908002E20
:102E0000E1D0D9E73C2E29DA203E40371400BC40FF
:102E100000D00124F24014431A00BB401C43D317D6
:102E2000ACE7AC46202F08DA20360400B4400D0091
:102E3000B540F84039412843A5E73C2F0CDA203F44
:102E400040360400B44000D00124F8400443080098
:102E5000B1400C43C117EAE710001900002494E7C1
:102E60000000F07FF0B50C0D661E3605891BE60AE2
:102E70006405640D02D0651CED0A04D00020012118
:102E80000905803C2403A4461C0D671E3F05DB1B7F
:102E9000E70A6405640D02D0651CED0A04D0002227
:102EA00001231B05803C24037740644497B484B21B
:102EB00096B27443070C7E43150C6F4380B268438F
:102EC000361802D3012000043F183004350C0019D5
:102ED0007D41844688B29AB250430C0C62431F0C69
:102EE0007C438EB27E43921902D301263604A41984
:102EF0001604170C3618674101BC81B29AB25143CF
:102F0000040C62431B0C5C4380B25843121802D37A
:102F10000120000424181004130C401863412D18DC
:102F20005E410020474106BC88B293B258430C0C66
:102F30006343120C544389B251435B1802D30121FD
:102F40000904641819041A0C091862416D185641D5
:102F50000020474118BCF902720D1143F0026A0DBE
:102F60001043ED020A0D03D16D1940414941013B67
:102F7000124E9B1B7600B3420ED26D0007D3013078
:102F8000002671416646354301D1400840001B05CB
:102F9000C918E4072144F0BD0BDA013306D1013032
:102FA00004D101314F0D01D04908F2E7E1070020BB
:102FB000F0BD013631050020EBE70000FF03000003
:102FC000F0B51C0D671E3F05DB1BE70A6405640DA9
:102FD00002D0661CF60A04D0002201231B05803CA7
:102FE0002403D0252D060026F6432E661E096E66A4
:102FF000CE0FF619B44649004F0D02D07E1CF60ADA
:1030000003D000200021403F3F033E1BB600B444E4
:10301000013F7F05C91B49082E6F013676089C02C7
:10302000950D25437543ED137543AD1301356D10B3
:10303000F603761B0CB4CC02450D2C43A2B2B3B2FE
:103040005A43270C7B43350C6F43A4B26C431B19C6
:1030500002D3012424043F191C041D0CA4187D4133
:1030600024196D41009A91B2ACB26143170C7C43B4
:103070002B0C5F4392B25A43A41802D301221204CC
:10308000BF182204230C52187B41019C6C431B196E
:10309000520ED9010A434401A01A81B2B2B251437F
:1030A00003145A43360C734387B27743D617D219A9
:1030B00000277E4136049B191704160C7F185E41C9
:1030C0007316ED18F301002680337541A90F06D160
:1030D0006400690AE8055B0A184309D22FE004225C
:1030E000944480337541A90AA8059B0A184326D346
:1030F000404149412404009A019B0D005543641B43
:103100004343E41A95B286B27543170C7E43030C11
:103110005F4392B25A43B61802D301221204BF1879
:103120003204330C52197B4152429C41002C02D490
:103130000022013051414008CA071043490802B03B
:103140006246D7079210084BD218084B9A4203D216
:1031500012058918C919F0BD0020002A01DC3900C8
:10316000F0BD01331905F5E7FD030000FE0700007F
:10317000002200B500F00DF8CA179A4200D100BD38
:10318000D8430121C907414000BD000000220B15B2
:103190000AD410B5944600F05FF81414013400DA34
:1031A0000021CB17144C20470020002170476244B7
:1031B000343A0CD40C2A07DA040091409040524271
:1031C0002032D440214310BDD843D94310BD203212
:1031D00007D40C469440524220321141D040204343
:1031E00010BD0800C917203203D4524220321041CA
:1031F00010BD1800190010BDAF3100104A00520D6B
:10320000144BD21A13DDFF2A1EDAD205CB0FDB07CF
:103210001A43C300400F0903490A084310435B00E7
:1032200001D301D0013070474308FBD2704702D070
:10323000C80FC00770470A0312130132F8D1420FBA
:10324000072AF5D1012200E0FF22C80F00028018F2
:10325000C0057047800300000A0DCC0F531E1B05EC
:10326000C91A520503D3C943404200D30131520D5C
:1032700003D0531CDB0A07D0121B00206400611C22
:1032800089078912803A1203014BD21A7047000055
:10329000FF03000051434343C9188C46110C83B20D
:1032A0004B4310B4040C614392B280B2504362436A
:1032B0001C041B0C001910BC59411304120CC0183B
:1032C00051416144704700004840414048400E4B26
:1032D0005B6818470C4B1B6818470C4A936F9B0898
:1032E00002D2094BDB681847F0B5146E556E576F64
:1032F000166FFFF7F6FF054A14665566576716679F
:10330000F0BD014B9B681847B0180020000000D0AA
:1033100007B548404140484001E0C04607B542007B
:10332000120E03D0FF2A03D1420218D8C00DC005E7
:103330004A00120E03D0FF2A03D14A020FD8C90D4A
:10334000C9050122414005D4414001D5814207BD54
:10335000884207BD0143491801D0C043001807BD8A
:1033600000B5FFF7DBFF01D0002000BD012000BD4C
:1033700000B5FFF7D3FF804100BDC04600B5FFF7A1
:10338000CDFF01D9002000BD012000BD00B5FFF731
:10339000BFFF01D9002000BD012000BD00B5FFF72F
:1033A000B7FF804100BD0000C10FC90700D54042F2
:1033B000002817D0F44603B40B4B1B68984706BC93
:1033C00081409E384042803107D20B0607D0490029
:1033D000490AC0051043084360470130F8E7490A2D
:1033E0008902F5E770470000784C002041000A0E82
:1033F00080231B067E2A0BDD9E3A0BDAC1174002A2
:10340000400818435242D0404900013148437047B8
:1034100000207047C00FC01801387047C0420DD35C
:1034200000B540004008002100F012F8002801D447
:10343000404200BD8020000600BD0000034BDB6958
:10344000FC4618471CDF393500100000B01800207A
:10345000014B5B6A18470000B0180020034BDB6F7C
:10346000FC4618477CDF513500100000B0180020E2
:10347000132310B512481C78FEF7ECFF0100012C55
:103480000AD003DD80220F4800F0A6F80E48FEF7B0
:10349000D9FF0E4B186010BD0A4C5422200000F0DA
:1034A0009BF80B4B6365A365E36523666366A366C0
:1034B000E36623676367A367E3672362E361E5E786
:1034C00053460000B01800204C330000784C002018
:1034D0000D35001043001B0E7F3B5A1C0DDB5A1CA0
:1034E0000ED0172B08DA1622D21A0123934018188F
:1034F000022393405B4218407047C00FC007FBE7B0
:10350000C00FC307FE2080051843F5E707B56046E6
:1035100001880A0A0230DF2AFAD1C9B2820804D32C
:10352000028840880004104300E00068014A5050BF
:10353000039007BDB01800200021C21580328032F0
:1035400001D0024A1047002070470000CD2A000039
:10355000C30FDB0741000A0E07D0FF2A08D0090974
:10356000054A891819434007704719000020704721
:103570000249C918FAE70000000000380000F07F97
:1035800070B504000A4E300009F002F9200003F083
:10359000A9FD0500300009F0A3F8002D05D0054B6A
:1035A0002C199C4201D8280070BD0348FEF7E4FEA8
:1035B000541600200000042040CA001001480421D5
:1035C000014B1847300F002065240010014B1B6889
:1035D00018470000300F0020014B5B6818470000BF
:1035E000300F0020F0B5C64600B5437D07000D0042
:1035F0001600002B38D0002A2EDD00216A1E9046CE
:103600006A5C037D4C1C00200A2A0CD0A64216D00E
:1036100043461B5D21000D3B5A4253416A5CDBB2BD
:103620004C1C0A2AF2D1002BF0D1884217DB022170
:1036300010483B689847A64207D02000E8E786423A
:1036400003DD311A3B6828189847AD19013D2B78E6
:103650000D3B5A4253413B7580BCB846F0BD091A38
:103660003B6828189847E2E703681100280098474C
:10367000F2E7C046DCD30010F0B5CE46474680B531
:1036800083B06B460600DD1D2870FEF7C3F80023EB
:103690001A4A12184B41802109068B4202D301229B
:1036A000174B524217490800884609F059F8164B43
:1036B00081461C68002C14D0144F02E02469002CB1
:1036C0000FD02368002BF9D03B68002B01D0A34218
:1036D000F4D1200001222900FFF784FF2469002C87
:1036E000EFD14B46002B05D1300003B0C0BCB9462A
:1036F000B046F0BD404608F0F3FFF5E740420F004A
:10370000FFFFFF7F5C1600201C4800202848002097
:10371000F0B5DE4657464E464546E0B585B0070053
:1037200006F064FD0600FEF775F800232B4A121818
:103730004B41802109068B4202D30122284B524281
:10374000284908008B4609F00BF8274B01901C68AC
:103750009A46002C3BD0254B984602ABDD1D0A2330
:10376000994602E02469002C17D02368002BF9D079
:1037700043461B68002B01D09C42F3D1200032004D
:103780003900FFF72FFF4B462000012229002B7044
:10379000FFF728FF2469002CE7D1019B002B18D1EB
:1037A00053461C68002C06D06368002B0BD098474A
:1037B0002469002CF8D1300005B0F0BCBB46B246FD
:1037C000A946A046F0BD2469002CEDD1F3E70028FE
:1037D000F1D0584608F084FFE2E7C04640420F00AF
:1037E000FFFFFF7F5C1600201C48002028480020B7
:1037F000F8B557464E46DE464546E0B50E00170082
:1038000000282CD11B4B1C4D1A685B6893469A46C6
:103810001A4B99461A4B98464B461C68002C03D10C
:1038200015E02469002C12D02B68002B01D0A34294
:10383000F7D1A368002BF4D0390030009847002856
:10384000EFDDF0BCBB46B246A946A046F8BD4346F4
:103850005B6A9A4508D84246926A5A4502D30120CB
:103860004042EEE79A45FAD101200021FDF7DCFF46
:10387000D2E7C046B0D30010284800201C480020E2
:1038800000400540F0B54646D6464F4601380D008B
:103890009046C0B5012841D8FDF7BCFF0023214A5E
:1038A00012184B41802109068B422FD21E494746F0
:1038B00008008A4608F054FF43468146013303D18D
:1038C000280006F093FC0700184B1C68002C14D04D
:1038D000174E02E02469002C0FD02368002BF9D08A
:1038E0003368002B01D0A342F4D120003A00290014
:1038F000FFF778FE2469002CEFD14B46002B09D14D
:103900004046E0BCBA46B146A846F0BD0122094B8C
:103910005242CBE7504608F0E3FEF1E70120404277
:10392000EFE7C04640420F005C1600201C48002014
:1039300028480020FFFFFF7F012040427047C0461B
:10394000012040427047C046012040427047C046B7
:103950000300022200209A42404170470A4A13683D
:10396000002B05D10CE01A001B691032002B07D088
:103970009842F8D1002902D10369136001617047B0
:103980000029FCD01060FAE71C48002010B500F0B8
:10399000D9F910BD7047C0460022014B1A7070471C
:1039A000B04C00204B790020FF2B0BD18B79002BE2
:1039B00008D1CB79012B05D1082A03D9024B8A788B
:1039C00009301A707047C046B04C00200120704783
:1039D00070B5012901D0012070BD134953791079C8
:1039E00009781B02034300209942F5D15378012B3B
:1039F00008D0022BF0D1002064220021FEF7A0FBAA
:103A00000120E9E79478D278050012021443D20528
:103A100002D5620A93401D000448FEF713FD7F2182
:103A20000300214028009847B04C00205542000078
:103A30000123037000487047E0D300104B780A78E8
:103A40001B0213438A7810B512041A43CB781B0665
:103A500013439622D200934200D010BD0348FEF7D4
:103A6000F1FC0021030008009847C04655420000C1
:103A7000024B1860024B19607047C046A8470020EF
:103A8000AC47002010B5024B1878FDF77DF810BD4B
:103A9000B14C0020114B70B51A68002A1AD0EFF310
:103AA000108172B610680028FCD0BFF35F8F002031
:103AB0000B4A596010701B68BFF35F8F186081F369
:103AC000108800240025074B1878FDF75DF82900C1
:103AD000200070BDFA240025A400F4E7584C002013
:103AE000B24C0020B14C002070B5040000200E0044
:103AF00001F0E8FA002836D0002001F0FBFA002897
:103B000031D0FDF787FE0023184A12184B4180215F
:103B100009068B4216D2164D280008F021FE002817
:103B200021D0002001F0CEFA00280FD10120002181
:103B3000404200F0C1FC03246442280008F0D0FD9C
:103B4000200070BD01220B4B5242E4E7002001F03F
:103B5000D1FA0028EAD021003200002001F0D6FA84
:103B6000041EEAD1E7E703246442E9E740420F007C
:103B7000804C0020FFFFFF7FF8B5DE46574680B53A
:103B800005000C00FDF746FE0023374A12184B4192
:103B9000802109068B4202D30122344B5242344920
:103BA00008008A4608F0DCFD002803D1C0BCBB46F3
:103BB000B246F8BD002001F085FA00284AD0002660
:103BC000002C43DD2B4B9B4614E0A919002001F08B
:103BD00011FB070001200021404200F06DFC002095
:103BE00001F0CCFAFDF716FE224BF6191860596069
:103BF000B4422BDD002001F017FBA71B0200B842E6
:103C000000DD3A00002AE0D101200021404200F00E
:103C100053FC002001F0B2FA002001F053FA002812
:103C200014D0002001F000FB0028E1D1FDF7F2FDE7
:103C30005B460F001A685B68002184460E48121824
:103C40004B419F4202D8D3D19445D1D9504608F078
:103C500047FDABE700200021064B18605960504635
:103C600008F03EFDA2E7C04640420F00FFFFFF7F85
:103C7000804C0020A817002020A1070010B5244C7C
:103C800084B00021200008F053FD00281CD1214BF6
:103C90001A68002A16D0EFF3108172B61068002857
:103CA000FCD0BFF35F8F01241B48596002781B686A
:103CB000D2B20470BFF35F8F0020186081F31088C8
:103CC000002A0AD004B010BD01200021404200F0BB
:103CD000F3FB200008F004FDF4E7FDF707FC040007
:103CE000FDF798FDFA220023920012184B41802123
:103CF00009068B4202D30122084B52420121029154
:103D000000210191064920000091FDF7F3FBD9E75E
:103D1000804C0020584C0020B24C0020FFFFFF7F59
:103D2000953A0010054B10B51868002804D0044BD4
:103D30000022196801F036F810BDC046A8470020DF
:103D4000AC470020D02310B51B0684B01C68FDF7DB
:103D5000CDFBFDF78DFCA04202D0002004B010BDC9
:103D6000274B1B7801F042FC2648FDF7C3F90120E0
:103D7000FDF7A2F9FF23244C244920701840FCF7DA
:103D800029FF20780121FCF7EDFE0520FCF704FF58
:103D9000002827D1FDF7AAFB0400FDF73BFDFA221E
:103DA0000023920012184B41802109068B4202D356
:103DB0000122174B52420121029100210191154924
:103DC00020000091FDF796FB082204000021124814
:103DD000FFF7FCFB002CC0DB10480121FFF7BEFD04
:103DE0000120BBE700220E490520FCF71DFFFCF770
:103DF0009BFE094B01001800FDF7A6F9ECE7C04651
:103E00008CDA0010804C0020B14C00207D3C00106A
:103E1000FFFFFF7F953A0010584C0020400F002014
:103E2000853A00100048704770D400100048704771
:103E30001CD4001010B5040017480378002B20D0C4
:103E4000002C06D1154B16484380063BFF3B0380F0
:103E500010BD052C19D8134BA400E05812490123BA
:103E6000013804E001330A800231142B0FD0C25C08
:103E7000002AF7D1C022DBB25B009200084813434E
:103E8000E5E7112100F01AF8DAE70020E0E7CA239D
:103E900003489B00DBE7C046984C00200904000063
:103EA000F447002004D40010F647002010B5024863
:103EB00000F0D8F810BDC046704C002030B54B1E45
:103EC000012900D1A7E0664A11780D092C00303491
:103ED0009F2900D9A2E00470012B00D1BEE00F2180
:103EE000147821400C003034092900D998E044703E
:103EF000022B00D1B2E054782509290030319F2CE3
:103F000000D990E08170032B00D1A7E00F21214060
:103F10000C003034092900D987E0C470042B00D18B
:103F20009CE094782509290030319F2C00D97FE04E
:103F30000171052B00D191E00F2121400C0030349C
:103F4000092900D976E04471062B00D186E0D478A7
:103F50002509290030319F2C00D96EE08171072B93
:103F600000D17BE00F2121400C003034092966D8B4
:103F7000C471082B00D171E0147925092900303172
:103F80009F2C5FD80172092B68D00F2121400C00B3
:103F90003034092958D844720A2B5FD05479250946
:103FA000290030319F2C52D881720B2B56D00F2113
:103FB00021400C00303409294BD8C4720C2B4DD051
:103FC00094792509290030319F2C00D907310173DC
:103FD0000D2B43D00F2121400C003034092901D989
:103FE00037310C0044730E2B38D0D1790C092200E4
:103FF00030329F2900D9073282730F2B2ED00F2227
:104000000A4011003731092A01D830321100C1733A
:10401000102B23D010300023037030BD07345AE733
:1040200037310C0063E707316CE737310C0074E778
:1040300007317DE737310C0085E707318EE73731EF
:104040000C0095E707319DE737310C00A3E70731F6
:10405000AAE737310C00C4720C2BB1D1C018DAE7D3
:10406000704C002010B588B004000D220021684675
:10407000FFF7ACFA0D22002104A8FFF7A7FA4B23A3
:104080006A466846137004A90D2208F021FB152129
:10409000082220006944FFF79FFA08B010BDC0460F
:1040A00010B501210520FCF75DFD10BD10B5002203
:1040B0000021024800F058F910BDC04650480020C9
:1040C0008022024B5202DA647047C0460020115031
:1040D000F0B5C64600B5060000F020F90C231B4DD4
:1040E000FF22AB6705201A49FCF79EFD4023984646
:1040F000184C402200212000FFF768FA43460127B0
:10410000238321210023144A6770A2601360635443
:104110005F31618441462187053963540F4A104954
:104120006360E260A1620B606362E26208F0C8FA59
:1041300080239B052F64EB6490230A4A3000EA50E9
:10414000FFF7BEFF80BCB846F0BDC046000011506E
:10415000E904002030480020840010500001105075
:104160008000105010D001000B785B0602D14B7814
:10417000052B00D070478A78014B1A60FAE7C046D9
:1041800000001150F0B5C64600B5CC7888780A79A1
:104190004B797F21A40701401B02C50913434F003F
:1041A000A20F1400324E7A195201B21890700120F9
:1041B0006840507000205B055B0DD0701383D4768F
:1041C0008046CA00012D33D02A48844688016244C3
:1041D0008446B4446046826040461060002933D073
:1041E000254AC90090466246414451603F223F3310
:1041F0009343022C00D15B0020487A1901685201D8
:10420000B218D1601E4ACB18036051405A40802337
:1042100088465B019A4228D84346A4061C43802363
:104220007F197F01F61972681B062343136011E0A2
:1042300014488446880162448446B44460468262DD
:1042400040461060002909D100236D0175196B608B
:104250000D4BEB60012080BCB846F0BD084AC90098
:104260009046624641445162C0E7FEF79DF8D3E7AD
:104270003048002084001050040010503C4C0020B6
:1042800000001050800010500001105010B508F0D0
:1042900017FA10BD10B57F200C0020404000E40943
:1042A000110000191A00034B4001C01800F05CF81F
:1042B000012010BD304800207F23180010B50840B1
:1042C000CA090B4203D107497D3B9B1A8B6640000C
:1042D00080188022044B40010021C018120108F010
:1042E0004FFA10BD00201150304800207F221300EB
:1042F00010B50B400A4200D110BDC9095B005B1824
:1043000004485B01C018002300220349C37008F071
:1043100037FAF1E730480020FFF7FFFF80220D4B0E
:10432000520410B51A600C4B0C491A6010008B68CF
:104330009843FBD10A4C9C2200212000FFF746F94C
:104340008022002152010748FFF740F909236367E3
:1043500010BDC04600E0004000F0004000C000403A
:104360000000115000001050002310B5C38201332B
:10437000828283760161040008F0C2F9002804D02B
:1043800080219023074A8902D150200008F0C8F903
:10439000002802D00123237710BD200008F0E8F99F
:1043A000FAE7C04600201150024B5878431E98414E
:1043B000C0B270477C450020024B18784007C00F00
:1043C0007047C0467C450020034B1878FF38431ED9
:1043D0009841C0B27047C0467C0F0020F8B5CE4669
:1043E000474680B52A4E05003378FF2B01D00120C7
:1043F0003DE0532200212748FFF7E8F8264C200033
:10440000FCF778FE254B1C60254C2000143CFCF783
:104410008DFE200001F0CCFB224B234F1C60234B70
:104420009846002F1ED01800FFF702FB204B1860A3
:1044300043461B781F4A00249146002F14D04A4659
:10444000A3421AD89047434601341B78E4B2A342F2
:10445000F3D228003570FFF73BFE2800FFF720FE5F
:10446000012004E01B78E5E7002C04D00020C0BC4C
:10447000B946B046F8BD0F4AE4E70D4A630012683A
:104480001B19DB00D318002BF0D01A68DAE7C046FE
:104490007C0F00207C45002034450020D0450020C2
:1044A000740F0020D4450020313A0010AB4C00209E
:1044B0005442002041520010F0B5DE4657464E46A9
:1044C0004546E0B591B001F097F8002800D1FCE036
:1044D000C34BC44E9946C44B0DAC0293C34B9B4691
:1044E0004B46019335686A69EFF3108172B6136821
:1044F000002BFCD0BFF35F8FA9612800210001F0E1
:1045000085F96A69AB69BFF35F8F0021116083F39E
:104510001088002800D1D8E06378082BE2D8019AEF
:104520009B00D3589F466368002BDBD0A068984758
:10453000D8E77F202179AC4D08404300CA09EB1829
:104540009B181D0001273035EA78BA43EA70EA78F3
:104550000337BA43EA70002800D1F2E0A44FDB7CB5
:10456000002F06D0A34A1278934200D2F1E09B1AA2
:10457000DBB2002B00D0A8E09F4DA36862792078C1
:10458000A847AFE70122984D01202B78042113435F
:104590002B703323EA5C8243EA54EA5C8A43EA5490
:1045A0000133EA5C8243EA54EA5C00208A43EA541D
:1045B00023789A4600F0F8FC602223791A40602A9A
:1045C00000D1B5E0402A00D1AFE0DB06DB0E012BC5
:1045D00000D1D3E0022B00D120E1002B00D0A7E0D6
:1045E000202A00D153E1002A00D0A1E06379092BF1
:1045F00000D99DE0814A9B00D3589F46029B1B78BF
:10460000DB0700D46EE77E4B002B00D16AE700E0A9
:1046100000BF67E7744D2B78DB0700D462E7794B66
:10462000002B00D15EE728780007C00F00E000BF34
:1046300058E7002523786E4F9A466E4B98461B78B4
:10464000002F49D05A46AB4263D850469047434664
:1046500001351B78EDB2AB42F2D2634D53220021FB
:104660002800FEF7B3FF1022FF21E81CFEF7AEFF83
:1046700028002022FF211330FEF7A8FF2EE000259E
:1046800023785B4F9A465B4B98461B78002F2ED0C1
:104690005A469D4233D350469047434601351B78D6
:1046A000EDB2AB42F2D2504D532200212800FEF76A
:1046B0008DFF1022FF21E81CFEF788FF2800202232
:1046C000FF211330FEF782FF14E011B0F0BCBB46AF
:1046D000B246A946A046F0BD002D38D000F05AFCE5
:1046E000494B002B00D1FDE600E000BFFAE6002DAB
:1046F00019D03D4D00F04EFC2379AB70F2E6434AF1
:104700006B0012685B19DB00D318002BF1D05A68DC
:10471000C1E73E4A6B0012685B19DB00D318002B1F
:10472000DCD05A6891E7314AB5E7394800281AD1F8
:1047300020780021FFF7C0FD80212078FFF7BCFD25
:10474000D0E6A3686279207800F042FCCAE6274AE6
:104750007BE72E4A58001268C318DB00D318002BE1
:10476000B3D01D6909E700F01FFC012150460EAAD5
:1047700000E000BF002800D0B4E6D9E7237A0F2B71
:10478000D6D81B4FEB18DB78002F06D0194A1278C9
:10479000934200D29CE09B1ADBB2002BC8D11D488B
:1047A0001D4D00F001FC01215046EB680EAA984710
:1047B000002800D096E66022150023791D401A4299
:1047C000B6D163790A3B012BB2D800F0EDFB6379D7
:1047D0000A2B00D17DE150460EA900F06FFB81E667
:1047E00084D40010D44500207C450020BD52001028
:1047F000313A0010AB4C0020B1540010A8D4001086
:1048000000000000000000000000000054420020F2
:1048100000000000CD53001010D500107023217A45
:104820000B4285D1C80984460F330B405B00E81862
:104830006044C07CB14F8046002F07D0B04800785C
:10484000804550D34746381AC0B2804640460028BB
:104850003AD1002A00D0F5E0AA4A904667790220B2
:104860003A008243012A00D1F0E0002F00D05FE738
:10487000EB1863443033DB780CAA9B07DB0F023262
:104880001380504602230EA900F02EFB2AE6237A5D
:104890000F2B00D94CE7994FEB18DB78002F06D08F
:1048A000974A1278934200D2F3E09B1ADBB2002BB6
:1048B00000D03DE79448934D00F076FB012150462F
:1048C000EB680EAA984755E79046002AC6D02FE716
:1048D0008E4A59001568CB18DB00ED18002D00D169
:1048E00026E7E8685DE7474688487F000068474458
:1048F0008046FF00B844002AB0D04346002B00D1C8
:1049000016E7D86800F050FB434601215046DB68AB
:104910000EAA98472EE7A37903931A006B789A4260
:1049200007D06B78002B00D058E1039B002B00D000
:10493000F8E0039B50460EA96B7000F0BFFAD1E57A
:104940006B780CAA02321370504601230EA900F0B6
:10495000CBFAC7E5E3881A0AD8B20F2A00D9E7E6EE
:104960006B499300CB589F460EA800F023FB50469E
:10497000A179FFF79BFB02222B7813432B70B1E543
:10498000E388012B00D0D3E608222B7850469343CE
:104990000EA92B7000F092FAA4E5022029780CAB46
:1049A0009A1C8B068908DB0F01400B4368E7E388FC
:1049B000012B00D0BCE608222B78504613430EA9E9
:1049C0002B7000F07BFA8DE5524B002B00D1AFE647
:1049D00000E000BF021E00D1AAE6D37891781B0246
:1049E0000B4350460EA900F07FFAC3E64A4B002B5A
:1049F00000D19DE600E000BF021E00D198E65046BF
:104A000013780EA900F070FAB4E62189FFF712FAC4
:104A1000021EF4D18CE6022A00D12DE13F4B002B7F
:104A200000D185E600E000BF0200002A00D17FE649
:104A3000D3E7FFF7F7F9122302000EA9504600F062
:104A400053FA97E62F4B304898465BE7E288002AF6
:104A500009D1334A1078012F26D0EF186744303738
:104A6000FB789B073ED54346002B00D13AE5D8683A
:104A700000F09AFA43460121DB680EAA5046984797
:104A8000002000F091FA3423EB5CDB0700D529E528
:104A9000A1E61E4A59001568CB18DB00ED18002D61
:104AA00000D145E6E86807E730229146EB186344F9
:104AB00099444B46DB789B07D5D5FFF717FC4B464F
:104AC0000222DB7893434A46D370D378BB43D3703A
:104AD000C9E70CAB9A1C504601230EA9157000F0D3
:104AE00003FAFFE4FFF7E8FB0222FB7813430122FD
:104AF000FB70FB781343FB70B5E7C046313A0010FA
:104B0000AB4C002010D50010CD53001054420020B3
:104B1000D0D40010000000000000000000000000E1
:104B20007C0F0020581EC0B2FFF780F9002800D18A
:104B3000FEE543780793022B00D0F9E50121C27905
:104B4000B146931152110B400A4012015B0113430D
:104B50002A782F318A4313432B70092398468044C7
:104B60004746A846C37882781B021343C3180493B0
:104B70005C4B0993049BBB4200D881E07B78012207
:104B80000B2B02D13B78FA78FF187B78042B23D1CA
:104B90000025049B0B92DB1B9BB20593524B1978AB
:104BA0000693524B0A93524B08930A9B002B52D008
:104BB000099B089E8D4245D339005046059A984777
:104BC0008446082802D9059A824262D2069B0135A2
:104BD0001978EDB2A942E8D24E46A9E55046FFF752
:104BE00055FB00229146434AAB7805922A004D4678
:104BF000914604933C4B3D4F98461B78002F1BD0A9
:104C0000059A9D422CD350469047434601351B7868
:104C1000EDB2AB42F2D24D46532200212800FEF7FE
:104C2000D5FC1022FF213448FEF7D0FC2022FF21C2
:104C30003248FEF7CBFC02E0002D1BD04D46049B12
:104C4000AB7072E618232E4A6B431668F618002ED6
:104C5000C2D0B368B0E7002DBED1224B244EABE7E3
:104C6000274A6B0012685B19DB00D318002BE5D0D4
:104C70005A68C8E71F4AC6E7FFF7D8F80200D4E62B
:104C8000204B45464E46002B00D152E600E000BFC7
:104C90004FE60B9A012A1FD00021464609E0BB7857
:104CA000CB18DBB2F318D878FF2895D10131DD702D
:104CB000C9B29142F3D1B04666462B0039003200AA
:104CC0000E4800F01FFDB446069B67441B78AB42BC
:104CD00000D34FE74E462BE5024BB1689942DBD13A
:104CE000079AD9E7E9520010AB4C0020313A001086
:104CF00010D50010BD5200107F4500208F450020C8
:104D00005442002000000000F8B557464E46DE46EB
:104D100045460C00E0B516001F00002A3CD01F4B92
:104D200000259A46702399461D4B9B4617E05B462B
:104D30002000997800F0A8FC00281FD021004046F0
:104D4000FFF720FA002819D0A378DA09012A1CD02D
:104D50000A9A013513702378E418B5421CDA637897
:104D6000052B0BD1E3789B079B0FBB4206D1534623
:104D70004A461B789846A3781A42D8D00020F0BC47
:104D8000BB46B246A946A046F8BD0B9A0135137042
:104D90002378E418B542E2DB0120F0E77C0F002025
:104DA0007C450020802310B51B0184B001930E4B7D
:104DB00002901C6803916269EFF3108372B6116868
:104DC0000029FCD0BFF35F8FA361200001A900F090
:104DD000DFFD6269A369BFF35F8F0021116083F378
:104DE000108804B010BDC046D4450020702270B5B4
:104DF000094B0C001D788B781A4201D0002070BD41
:104E0000064B2000997800F03FFC0028F6D02100E6
:104E10002800FFF7B7F9F2E77C0F00207C4500205F
:104E20000B007F2010B51840DB0933334000044AE3
:104E3000C018044B1168C01800F0E2FB10BDC0465A
:104E4000D04500207C4500200B007F2010B5184085
:104E5000DB0933334000044AC018044B1168C01802
:104E600000F0F6FB10BDC046D04500207C45002078
:104E700070B57F240F480C4064000419CD096419F3
:104E80003034E078C00701D5002070BD0126E578F8
:104E9000094835430078E570FFF7FCF90028F4D1A4
:104EA0000122E3789343E370E37803329343E370A2
:104EB000EAE7C0467C4500207C0F002070B5094C15
:104EC0000600082220000D00FEF786FB002380214B
:104ED000E360A3602B783000994300220023FFF7A2
:104EE000C7FF70BD20450020F8B5CE464746904626
:104EF000264E80B58146082230000D001F00FEF7C7
:104F00006BFB4346B3600023F381EC79AB79240259
:104F10001C43231CBC4200D93B1C9FB2B381002C14
:104F20000ED0002F18D04346002B2CD03B1C402F16
:104F30001BD89FB233787F2B1CD80021144A0FE076
:104F400080212B780022994348460023FFF790FFE9
:104F5000C0BCB946B046F8BD7F23002231789943E2
:104F60003B004846FFF784FFF2E740239FB23378C7
:104F70007F2BE2D9064C3A0041462000FEF72CFB7D
:104F800080212200ECE70020E2E7C0462045002017
:104F90003C45002010B5142200210248FEF716FB04
:104FA00010BDC04620450020014B18617047C04627
:104FB0002045002010B5054C010008222000FEF716
:104FC0000BFB0023A360E36010BDC046204500201A
:104FD00070B5394C1D0023780600DA09C9098A42E8
:104FE00013D00020002D00D070BD344B002B03D017
:104FF00021003000FFF7B8F82369002B03D022000E
:105000000321300098470120EEE7A0687F2B05D8E8
:10501000002834D02A002A49FEF7DEFAE289A16886
:105020005219E38892B24919E281A160934214D0E7
:105030003F2D12D9A389981A051C80B240282AD87E
:105040002078ADB27F2828D800219A4232D01C4A5D
:105050002B003000FFF70CFFC6E72369002B05D0BB
:10506000220002213000984700280AD080212378AE
:105070000022994330000023FFF7FAFEB4E7002036
:10508000B2E700213000FFF717F930008021FFF769
:1050900013F90120A8E74025D2E79A4207D0084C2F
:1050A0002A002000FEF798FA80212200D0E7802114
:1050B0000022CDE70022CBE7204500206941001007
:1050C0003C45002010B50400FFF76EF9002801D11F
:1050D000002010BDFFF770F90028F9D1B22292002C
:1050E0006243034B01309B181B791840F1E7C0461F
:1050F00058420020B2239B00434310B502481818C1
:1051000000F050FB10BDC04668420020F0B5B2254B
:10511000AD0045432C00C646174F1034E41900B5C6
:10512000200092B200F0C0FB0600200000F058FB07
:105130003F2803D8300080BCB846F0BD7B19002062
:10514000D9789846FFF76CFE0028F3D0200000F0D5
:1051500047FB3F280AD992239B00EA184346D219FD
:10516000D97800204023FFF783FEE3E74346002081
:10517000D978FFF769FEDDE758420020F8B5040052
:10518000FFF712F9002801D10020F8BDFFF714F94C
:105190000028F9D1B2239B005C432500144E24352E
:1051A000AD19280000F0FEFA0028EDD037190020D4
:1051B000B978FFF735FE0028E6D0A2239B009C4675
:1051C0006444A41921002800402200F06DFBB97846
:1051D000051E08D0030022000020FFF749FE00282A
:1051E000D2D02800D1E70020FFF72EFECCE7C04642
:1051F0005842002070B5B224A4004443094B050076
:10520000E418200092B200F017FC0600200000F025
:10521000C9FA3F2801D8300070BD2800FFF7AEFF63
:10522000F9E7C0467C420020B2239B00434310B5FF
:105230000248181800F0D4FA10BDC0467C42002085
:10524000B222F0B51B4C83B0002120009200FEF783
:10525000BDF9FF236371184B80260025E3800127E9
:105260000823210020007600237332002781383183
:105270000095073B103000F05FFA21002000393123
:105280003200FF3101230097243000F055FA8E23BD
:105290009B00E6183000FBF72DFF90239B00266251
:1052A000E6183000E561FBF725FF2663656303B070
:1052B000F0BDC0465842002000C2FFFF10B5094CA7
:1052C000052200212000FEF781F92000243410304F
:1052D00000F06EFC200000F06BFC0121200000F0CB
:1052E00087FC10BD58420020F0B54B79060083B012
:1052F000022B02D18B79022B03D00025280003B0AA
:10530000F0BD2F4FBB78002BF7D18B7809253B7070
:105310000C780C196378242B0BD1082A02D81FE0D3
:10532000AA421DD32378E4185D196378ADB2242B0B
:10533000F6D0052B31D0042B12D163790A2B0FD173
:10534000204B27780193013300930222022330007F
:10535000E119FFF7D9FC0028CFD00E35ED19ADB219
:10536000194C200000F03CFA3F28C7D92600103E17
:105370000020F178FFF754FD0028BFD0200000F096
:105380002FFA3F2817D98E239B00E218F93BF178BA
:10539000FF3B0020FFF76CFDB0E721003000FFF776
:1053A00025FD0028A9D0A3787B7023785D19E41827
:1053B0006378ADB2BFE7F1780020FFF745FD9DE7C8
:1053C000584200205A42002068420020F8B560236D
:1053D00014001278050013400020202B12D12F4A10
:1053E0006379277916781B023B439E420AD1637882
:1053F000222B1AD007D8202B3CD0212B02D10129F7
:1054000030D00120F8BD232BFCD101293FD0032946
:10541000F7D1234B002BF4D0E178A37809020020C8
:10542000194300E000BF0120ECE701292FD0032938
:10543000E7D101252E00A378E478023924021C4329
:105440001471264024321000714000F0D1FB154B3E
:10545000002BD6D06208002031002A4000E000BFB7
:105460000120CFE70723210028000F4AFFF73CFD6A
:105470000120C7E70129F5D00329C2D10B4B002B2E
:10548000BFD00020911DFEF7D9FA0120BAE7210014
:105490002800FFF713FD0120B4E7C0465842002062
:1054A00000000000000000005E4200203D3A0010B5
:1054B000F8B545465746DE464E46E0B5464D1F0018
:1054C000EA7880460C00AB788A4246D000208B42B6
:1054D0001AD0F0BCBB46B246A946A046F8BD3F4B29
:1054E000002B04D0484600F073F900286CD04846E1
:1054F00000F076F93F2807D94E46103E0020F1789B
:10550000FFF78EFC002851D1AB78A34201D00120D7
:10551000DFE7334B002B02D0002000E000BF00206B
:10552000FFF72CFE0028F2D12E4C200000F03AF9B3
:105530000028ECD1002FEAD0BF06E8D1243C404639
:10554000A178FFF76DFC0028E1D00023002240463F
:10555000A178FFF78DFC0120BBE792239B00EE189A
:1055600010239B46AB4431005846BAB200F064FAAF
:105570001D4BD946002BB2D06B79FF2BAFD0002F3B
:10558000ADD0F219924603E00136B245A7D06B794F
:1055900032789A42F8D1484600F01AF90028F3D13F
:1055A0004B46103B597900E000BFEDE7484600F05C
:1055B00017F93F280BD98E2292004023F1784A44F4
:1055C0000020FFF755FC9FE7FEF7ACFB8FE7F17873
:1055D0000020FFF739FC97E758420020253D0010D6
:1055E000000000007C4200200000000010B50020F8
:1055F000FEF7F4FE10BDC04610B5FEF7E5FE10BD87
:10560000037870B5DB0704000E00DD0F002B17D107
:1056100003785B0701D5280070BD012130004942A5
:1056200007F08EF82378DB07DD0F002B0AD12378F3
:105630005B0708D40422237801251343237002E07A
:105640000025E8E70025300007F04AF8E3E7C04608
:1056500070B50C00012106004942200007F070F8E7
:1056600033785B07DD0F002B04DB200007F038F8F0
:10567000280070BD3378DB0704D4042233789343C9
:105680003370F2E70025F0E7437902791B021343F8
:10569000C2785B0592075B0D920F022A1DD0032A88
:1056A0000CD00020012A08D102394A425141124A45
:1056B0009446614499424041C0B2704702394A1E43
:1056C00091410E4A494211408022D2009446002066
:1056D000614499424041C0B2EFE7022905D0002061
:1056E00040229A424041C0B2E7E7054A9818434237
:1056F0005841C0B2E1E7C046FF03000040FCFFFF95
:1057000000FEFFFF8A1870B5914207D27F264C78C1
:10571000052C04D00C7809198A42F8D870BD3400E1
:105720008D782C4064000419ED0963550C78091933
:105730008A42ECD8F2E7C046F0B5C64600B5040090
:1057400006A805788020884617001E0000028242C5
:1057500026D8E068002803D00121494206F0F0FF76
:105760002069002803D00121494206F0E9FF4346A1
:10577000236073045B0CED031D430023E068638129
:10578000A780E5802381002801D006F0A9FF2069C9
:10579000002801D006F0A4FF012080BCB846F0BD6F
:1057A0000020FAE710B5048941898288A3B288B243
:1057B0008C4207D31B1A9BB2101C9A4200D9181CAA
:1057C00080B210BD5100091A5B189BB2F4E7C046C5
:1057D00003894089181A43425841C0B27047C046F5
:1057E00010B5048941898288A3B288B28C4207D35C
:1057F0001B1A9BB200209A4201D9D21A90B210BD56
:105800005100091A5B189BB2F4E7C04670B504005A
:1058100000690E00002803D00121494206F090FFE4
:1058200025896089A288A9B283B285422CD3CD1A7A
:10583000ADB2002D2ED0AA4208D2914230D3891A9F
:105840008BB263819A4203D89B1A9BB29A42FBD9CE
:10585000E28821685204520C53433000C918FDF706
:10586000BBFE63890125591C89B2A2888B4213D9DA
:1058700000215200891A89B220696181002801D073
:1058800006F02EFF280070BD5500ED1A4D19ADB27F
:10589000002DD0D1618989B252009142ECDBE9E759
:1058A00089188BB26381CDE7F0B546464F46D646A0
:1058B000C0B50600006989469046002803D0012142
:1058C000494206F03DFF31897289B5888BB294B2A6
:1058D000914254D31F1BBFB2002F4AD0BD4205D204
:1058E000AB4251D25B199CB22F0074814346B8453C
:1058F0003DD89FB2A54203D8641BA4B2A542FBD9F0
:10590000F28831685204520C904662432B1B9BB2C2
:10591000891842469F4225D953439BB21A004846F4
:105920009A46FDF759FE434648467D1B64195C4381
:1059300031685044A2B2FDF74FFE7189B588CB198A
:105940009BB26A00994216D99B1A9BB23069738147
:10595000002801D006F0C4FE3800E0BCBA46B146CB
:10596000A846F0BD48467A43FDF736FEE5E73B1C06
:10597000BFE773899BB26A009342E7DBE4E76F00FD
:105980003F1BDF19BFB2A7E75B1B9CB2ACE7C04669
:10599000F8B50400C0680E00002803D00121494278
:1059A00006F0CEFE258920896189A288ADB283B236
:1059B0008FB2884229D3DB1B9BB29A4209D8E77980
:1059C000FF0906D1E068002801D006F089FE380002
:1059D000F8BD95421ED32B009B1A9BB29342FBD27B
:1059E000E28820685204520C53433100C018FDF77E
:1059F000F3FD6B1C9BB2A2889D4218D90023520074
:105A00009B1A9BB201272381DCE75100C91B5B185D
:105A10009BB2D2E72B00E28820685204520C534319
:105A20003100C018FDF7D8FD0135A288ABB2520095
:105A30009342E7DBE4E7C046F0B557464546DE460D
:105A40004E46E0B5140005000F0083B0002A75D063
:105A5000C068002803D00121494206F071FE2E895A
:105A6000E9796A89AB88B6B292B2C90945D1964242
:105A700000D36DE059008A1AB21892B2002189460B
:105A80009A4234D29A1A111C92B2A24200D9211C15
:105A90008AB29146EA885204520C90464A46B2189D
:105AA00092B292464A46D21A92B2934634009E422D
:105AB00003D3E41AA4B29C42FBD242466243286854
:105AC0001B1B9BB2801842464B4554D34B463900B2
:105AD0005A43FDF781FDAB885B00B24501D39A457F
